{"abi":[{"type":"constructor","inputs":[{"name":"_usdt","type":"address","internalType":"address"},{"name":"_dao_admin","type":"address","internalType":"address"},{"name":"_ttsconfig","type":"uint256","internalType":"uint256"}],"stateMutability":"nonpayable"},{"type":"function","name":"DOMAIN_SEPARATOR","inputs":[],"outputs":[{"name":"","type":"bytes32","internalType":"bytes32"}],"stateMutability":"view"},{"type":"function","name":"addShare","inputs":[{"name":"_share","type":"tuple","internalType":"struct s_share","components":[{"name":"leftamount","type":"uint128","internalType":"uint128"},{"name":"metric","type":"uint120","internalType":"uint120"},{"name":"chips","type":"uint8","internalType":"uint8"}]},{"name":"owner","type":"address","internalType":"address"}],"outputs":[],"stateMutability":"nonpayable"},{"type":"function","name":"addauths","inputs":[{"name":"_auths","type":"address","internalType":"address"},{"name":"_priv","type":"uint256","internalType":"uint256"}],"outputs":[],"stateMutability":"nonpayable"},{"type":"function","name":"addreferral","inputs":[{"name":"user","type":"address","internalType":"address"},{"name":"referral","type":"address","internalType":"address"}],"outputs":[],"stateMutability":"nonpayable"},{"type":"function","name":"allowance","inputs":[{"name":"","type":"address","internalType":"address"},{"name":"","type":"address","internalType":"address"}],"outputs":[{"name":"","type":"uint256","internalType":"uint256"}],"stateMutability":"view"},{"type":"function","name":"approve","inputs":[{"name":"spender","type":"address","internalType":"address"},{"name":"amount","type":"uint256","internalType":"uint256"}],"outputs":[{"name":"","type":"bool","internalType":"bool"}],"stateMutability":"nonpayable"},{"type":"function","name":"auths","inputs":[{"name":"","type":"address","internalType":"address"}],"outputs":[{"name":"","type":"uint256","internalType":"uint256"}],"stateMutability":"view"},{"type":"function","name":"balanceOf","inputs":[{"name":"","type":"address","internalType":"address"}],"outputs":[{"name":"","type":"uint256","internalType":"uint256"}],"stateMutability":"view"},{"type":"function","name":"burn","inputs":[{"name":"account","type":"address","internalType":"address"},{"name":"value","type":"uint256","internalType":"uint256"}],"outputs":[],"stateMutability":"nonpayable"},{"type":"function","name":"burnShare","inputs":[{"name":"owner","type":"address","internalType":"address"}],"outputs":[],"stateMutability":"nonpayable"},{"type":"function","name":"changeDAOAdmin","inputs":[{"name":"_recipient","type":"address","internalType":"address"}],"outputs":[],"stateMutability":"nonpayable"},{"type":"function","name":"decimals","inputs":[],"outputs":[{"name":"","type":"uint8","internalType":"uint8"}],"stateMutability":"view"},{"type":"function","name":"getreferralanddaoadmin","inputs":[{"name":"_customer","type":"address","internalType":"address"}],"outputs":[{"name":"","type":"address","internalType":"address"},{"name":"","type":"address","internalType":"address"}],"stateMutability":"view"},{"type":"function","name":"left_share","inputs":[],"outputs":[{"name":"","type":"uint128","internalType":"uint128"}],"stateMutability":"view"},{"type":"function","name":"name","inputs":[],"outputs":[{"name":"","type":"string","internalType":"string"}],"stateMutability":"view"},{"type":"function","name":"nonces","inputs":[{"name":"","type":"address","internalType":"address"}],"outputs":[{"name":"","type":"uint256","internalType":"uint256"}],"stateMutability":"view"},{"type":"function","name":"permit","inputs":[{"name":"owner","type":"address","internalType":"address"},{"name":"spender","type":"address","internalType":"address"},{"name":"value","type":"uint256","internalType":"uint256"},{"name":"deadline","type":"uint256","internalType":"uint256"},{"name":"v","type":"uint8","internalType":"uint8"},{"name":"r","type":"bytes32","internalType":"bytes32"},{"name":"s","type":"bytes32","internalType":"bytes32"}],"outputs":[],"stateMutability":"nonpayable"},{"type":"function","name":"permitShare","inputs":[{"name":"_share","type":"tuple","internalType":"struct s_share","components":[{"name":"leftamount","type":"uint128","internalType":"uint128"},{"name":"metric","type":"uint120","internalType":"uint120"},{"name":"chips","type":"uint8","internalType":"uint8"}]},{"name":"dealline","type":"uint128","internalType":"uint128"},{"name":"signature","type":"bytes","internalType":"bytes"}],"outputs":[],"stateMutability":"nonpayable"},{"type":"function","name":"poolstate","inputs":[],"outputs":[{"name":"","type":"uint256","internalType":"uint256"}],"stateMutability":"view"},{"type":"function","name":"publicSell","inputs":[{"name":"usdtamount","type":"uint256","internalType":"uint256"},{"name":"data","type":"bytes","internalType":"bytes"}],"outputs":[],"stateMutability":"nonpayable"},{"type":"function","name":"publicsell","inputs":[],"outputs":[{"name":"","type":"uint128","internalType":"uint128"}],"stateMutability":"view"},{"type":"function","name":"referrals","inputs":[{"name":"","type":"address","internalType":"address"}],"outputs":[{"name":"","type":"address","internalType":"address"}],"stateMutability":"view"},{"type":"function","name":"rmauths","inputs":[{"name":"_auths","type":"address","internalType":"address"}],"outputs":[],"stateMutability":"nonpayable"},{"type":"function","name":"setEnv","inputs":[{"name":"_marketcontract","type":"address","internalType":"address"}],"outputs":[],"stateMutability":"nonpayable"},{"type":"function","name":"setRatio","inputs":[{"name":"_ratio","type":"uint256","internalType":"uint256"}],"outputs":[],"stateMutability":"nonpayable"},{"type":"function","name":"shareHash","inputs":[{"name":"_share","type":"tuple","internalType":"struct s_share","components":[{"name":"leftamount","type":"uint128","internalType":"uint128"},{"name":"metric","type":"uint120","internalType":"uint120"},{"name":"chips","type":"uint8","internalType":"uint8"}]},{"name":"owner","type":"address","internalType":"address"},{"name":"leftamount","type":"uint128","internalType":"uint128"},{"name":"deadline","type":"uint128","internalType":"uint128"},{"name":"nonce","type":"uint256","internalType":"uint256"}],"outputs":[{"name":"","type":"bytes32","internalType":"bytes32"}],"stateMutability":"pure"},{"type":"function","name":"shareMint","inputs":[],"outputs":[],"stateMutability":"nonpayable"},{"type":"function","name":"shares","inputs":[{"name":"","type":"address","internalType":"address"}],"outputs":[{"name":"leftamount","type":"uint128","internalType":"uint128"},{"name":"metric","type":"uint120","internalType":"uint120"},{"name":"chips","type":"uint8","internalType":"uint8"}],"stateMutability":"view"},{"type":"function","name":"stake","inputs":[{"name":"_staker","type":"address","internalType":"address"},{"name":"proofvalue","type":"uint128","internalType":"uint128"}],"outputs":[{"name":"netconstruct","type":"uint128","internalType":"uint128"}],"stateMutability":"nonpayable"},{"type":"function","name":"stakeproof","inputs":[{"name":"","type":"uint256","internalType":"uint256"}],"outputs":[{"name":"fromcontract","type":"address","internalType":"address"},{"name":"proofstate","type":"uint256","internalType":"uint256"}],"stateMutability":"view"},{"type":"function","name":"stakestate","inputs":[],"outputs":[{"name":"","type":"uint256","internalType":"uint256"}],"stateMutability":"view"},{"type":"function","name":"symbol","inputs":[],"outputs":[{"name":"","type":"string","internalType":"string"}],"stateMutability":"view"},{"type":"function","name":"totalSupply","inputs":[],"outputs":[{"name":"","type":"uint256","internalType":"uint256"}],"stateMutability":"view"},{"type":"function","name":"transfer","inputs":[{"name":"to","type":"address","internalType":"address"},{"name":"amount","type":"uint256","internalType":"uint256"}],"outputs":[{"name":"","type":"bool","internalType":"bool"}],"stateMutability":"nonpayable"},{"type":"function","name":"transferFrom","inputs":[{"name":"from","type":"address","internalType":"address"},{"name":"to","type":"address","internalType":"address"},{"name":"amount","type":"uint256","internalType":"uint256"}],"outputs":[{"name":"","type":"bool","internalType":"bool"}],"stateMutability":"nonpayable"},{"type":"function","name":"ttstokenconfig","inputs":[],"outputs":[{"name":"","type":"uint256","internalType":"uint256"}],"stateMutability":"view"},{"type":"function","name":"unstake","inputs":[{"name":"_staker","type":"address","internalType":"address"},{"name":"proofvalue","type":"uint128","internalType":"uint128"}],"outputs":[],"stateMutability":"nonpayable"},{"type":"function","name":"withdrawPublicSell","inputs":[{"name":"amount","type":"uint256","internalType":"uint256"},{"name":"recipient","type":"address","internalType":"address"}],"outputs":[],"stateMutability":"nonpayable"},{"type":"event","name":"Approval","inputs":[{"name":"owner","type":"address","indexed":true,"internalType":"address"},{"name":"spender","type":"address","indexed":true,"internalType":"address"},{"name":"amount","type":"uint256","indexed":false,"internalType":"uint256"}],"anonymous":false},{"type":"event","name":"Transfer","inputs":[{"name":"from","type":"address","indexed":true,"internalType":"address"},{"name":"to","type":"address","indexed":true,"internalType":"address"},{"name":"amount","type":"uint256","indexed":false,"internalType":"uint256"}],"anonymous":false},{"type":"event","name":"e_addShare","inputs":[{"name":"recipient","type":"address","indexed":false,"internalType":"address"},{"name":"leftamount","type":"uint128","indexed":false,"internalType":"uint128"},{"name":"metric","type":"uint120","indexed":false,"internalType":"uint120"},{"name":"chips","type":"uint8","indexed":false,"internalType":"uint8"}],"anonymous":false},{"type":"event","name":"e_addauths","inputs":[{"name":"auths","type":"address","indexed":false,"internalType":"address"},{"name":"priv","type":"uint256","indexed":false,"internalType":"uint256"}],"anonymous":false},{"type":"event","name":"e_addreferral","inputs":[{"name":"users","type":"address","indexed":false,"internalType":"address"},{"name":"referral","type":"address","indexed":false,"internalType":"address"}],"anonymous":false},{"type":"event","name":"e_burnShare","inputs":[{"name":"owner","type":"address","indexed":false,"internalType":"address"}],"anonymous":false},{"type":"event","name":"e_publicsell","inputs":[{"name":"usdtamount","type":"uint256","indexed":false,"internalType":"uint256"},{"name":"ttsamount","type":"uint256","indexed":false,"internalType":"uint256"}],"anonymous":false},{"type":"event","name":"e_rmauths","inputs":[{"name":"auths","type":"address","indexed":false,"internalType":"address"}],"anonymous":false},{"type":"event","name":"e_setdaoadmin","inputs":[{"name":"recipient","type":"address","indexed":false,"internalType":"address"}],"anonymous":false},{"type":"event","name":"e_setenv","inputs":[{"name":"marketcontract","type":"address","indexed":false,"internalType":"address"}],"anonymous":false},{"type":"event","name":"e_shareMint","inputs":[{"name":"mintamount","type":"uint128","indexed":false,"internalType":"uint128"},{"name":"owner","type":"address","indexed":false,"internalType":"address"}],"anonymous":false},{"type":"event","name":"e_stakeinfo","inputs":[{"name":"recipient","type":"address","indexed":false,"internalType":"address"},{"name":"proofvalue","type":"uint256","indexed":false,"internalType":"uint256"},{"name":"unstakestate","type":"uint256","indexed":false,"internalType":"uint256"},{"name":"stakestate","type":"uint256","indexed":false,"internalType":"uint256"},{"name":"poolstate","type":"uint256","indexed":false,"internalType":"uint256"}],"anonymous":false},{"type":"event","name":"e_syncChainStake","inputs":[{"name":"chain","type":"uint32","indexed":false,"internalType":"uint32"},{"name":"poolasset","type":"uint128","indexed":false,"internalType":"uint128"},{"name":"proofstate","type":"uint256","indexed":false,"internalType":"uint256"}],"anonymous":false},{"type":"event","name":"e_updatepool","inputs":[{"name":"poolstate","type":"uint256","indexed":false,"internalType":"uint256"}],"anonymous":false},{"type":"event","name":"e_updatettsconfig","inputs":[{"name":"ttsconfig","type":"uint256","indexed":false,"internalType":"uint256"}],"anonymous":false},{"type":"error","name":"ERC20PermitFailed","inputs":[]},{"type":"error","name":"ERC20TransferFailed","inputs":[]},{"type":"error","name":"InvalidSignature","inputs":[]},{"type":"error","name":"InvalidSignatureLength","inputs":[]},{"type":"error","name":"InvalidSigner","inputs":[]},{"type":"error","name":"NativeETHTransferFailed","inputs":[]},{"type":"error","name":"TTSwapError","inputs":[{"name":"seq","type":"uint256","internalType":"uint256"}]}],"bytecode":{"object":"0x610100806040523461046b576060816136fe8038038091610020828561046f565b83398101031261046b5761003381610492565b90604061004260208301610492565b910151906040519261005560408561046f565b600c84526b2a2a29bbb0b8102a37b5b2b760a11b60208501526040519361007d60408661046f565b600385526254545360e81b60208601528051906001600160401b03821161038f5781906100aa5f546104a6565b601f8111610411575b50602090601f83116001146103ae575f926103a3575b50508160011b915f199060031b1c1916175f555b83516001600160401b03811161038f576100f86001546104a6565b601f811161032c575b50602094601f82116001146102c9579481929394955f926102be575b50508160011b915f199060031b1c1916176001555b60066080524660a0526040515f905f54918161014d846104a6565b9182825260208201946001811690815f146102a25750600114610258575b6101779250038261046f565b51902060405160208101917f8b73c3c69bb8fe3d512ecc4cf759cc79239f7b179b0ffacaa9a75d522b39400f83526040820152466060820152306080820152608081526101c560a08261046f565b51902060c052600d80546001600160801b03199081166528ed6103d0001790915560e0919091524260801b16600855600b80546001600160a01b0319166001600160a01b03929092169190911790556006556040516131ff90816104df823960805181610e12015260a05181611f03015260c05181611f29015260e05181818161085301528181610c9a0152611c8b0152f35b505f80805290915f5160206136de5f395f51905f525b8183106102865750509060206101779282010161016b565b602091935080600191548385880101520191019091839261026e565b60ff191686525061017792151560051b8201602001905061016b565b015190505f8061011d565b601f1982169560015f52805f20915f5b888110610314575083600195969798106102fc575b505050811b01600155610132565b01515f1960f88460031b161c191690555f80806102ee565b919260206001819286850151815501940192016102d9565b60015f527fb10e2d527612073b26eecdfd717e6a320cf44b4afac2b0732d9fcbe2b7fa0cf6601f830160051c81019160208410610385575b601f0160051c01905b81811061037a5750610101565b5f815560010161036d565b9091508190610364565b634e487b7160e01b5f52604160045260245ffd5b015190505f806100c9565b5f8080528281209350601f198516905b8181106103f957509084600195949392106103e1575b505050811b015f556100dd565b01515f1960f88460031b161c191690555f80806103d4565b929360206001819287860151815501950193016103be565b5f80529091505f5160206136de5f395f51905f52601f840160051c81019160208510610461575b90601f859493920160051c01905b81811061045357506100b3565b5f8155849350600101610446565b9091508190610438565b5f80fd5b601f909101601f19168101906001600160401b0382119082101761038f57604052565b51906001600160a01b038216820361046b57565b90600182811c921680156104d4575b60208310146104c057565b634e487b7160e01b5f52602260045260245ffd5b91607f16916104b556fe60806040526004361015610011575f80fd5b5f3560e01c806306afa12a1461027457806306fdde031461026f578063095ea7b31461026a57806318160ddd1461026557806319f8d5b4146102605780631aab145d1461025b57806323b872dd14610256578063297f24bf146102515780632ff908cc1461024c578063313ce567146102475780633644e515146102425780633cba316b1461023d5780633fc199c11461023857806344d91d9a1461023357806345fda7071461022e5780634734046714610229578063542128dd14610224578063623059a51461021f57806364e72dbd1461021a57806369a5ac321461021557806370a08231146102105780637bd3ca351461020b5780637ecebe0014610206578063845fcee41461020157806395d89b41146101fc5780639ca423b3146101f75780639dc29fac146101f2578063a9059cbb146101ed578063b2237ba3146101e8578063b88e6d63146101e3578063baf02f1b146101de578063cae97640146101d9578063ce7c2ac2146101d4578063d505accf146101cf578063dd62ed3e146101ca578063de5712d4146101c5578063e7b43e7d146101c05763eca93cce146101bb575f80fd5b611cc3565b611c46565b611c26565b611bcf565b6119e6565b61198c565b61196f565b6118ed565b6118a3565b6117ea565b611776565b611710565b6116d0565b61162b565b61160e565b6115d6565b61138b565b611353565b6112cd565b611295565b611278565b6111e1565b611188565b611160565b611047565b610f76565b610e58565b610e36565b610df9565b610d6e565b610bd3565b610a70565b6107af565b610595565b61054c565b6104c4565b6103af565b346102c15760203660031901126102c1576004355f908152600a6020908152604091829020805460019091015483516001600160a01b0390921682529181019190915290819081015b0390f35b5f80fd5b5f9103126102c157565b90600182811c921680156102fd575b60208310146102e957565b634e487b7160e01b5f52602260045260245ffd5b91607f16916102de565b634e487b7160e01b5f52604160045260245ffd5b606081019081106001600160401b0382111761033657604052565b610307565b604081019081106001600160401b0382111761033657604052565b90601f801991011681019081106001600160401b0382111761033657604052565b805180835260209291819084018484015e5f828201840152601f01601f1916010190565b9060206103ac928181520190610377565b90565b346102c1575f3660031901126102c1576040515f5f546103ce816102cf565b808452906001811690811561045e5750600114610402575b6102bd836103f681850382610356565b6040519182918261039b565b5f8080527f290decd9548b62a8d60345a988386fc84ba6bc95484008f6362f93160ef3e563939250905b808210610444575090915081016020016103f66103e6565b91926001816020925483858801015201910190929161042c565b60ff191660208086019190915291151560051b840190910191506103f690506103e6565b600435906001600160a01b03821682036102c157565b602435906001600160a01b03821682036102c157565b606435906001600160a01b03821682036102c157565b346102c15760403660031901126102c1576104dd610482565b60243590335f526004602052816105078260405f209060018060a01b03165f5260205260405f2090565b556040519182526001600160a01b03169033907f8c5be1e5ebec7d5bd14f71427d1e84f3dd0314c0f7b2291e5b200ac8c7c3b92590602090a360405160018152602090f35b346102c1575f3660031901126102c1576020600254604051908152f35b602435906001600160801b03821682036102c157565b606435906001600160801b03821682036102c157565b346102c15760403660031901126102c1576105ae610482565b6105b6610569565b335f908152600f60205260409020545f190161079b577fff4f1caf741747da03068e051490a9f142dac5b961014b67ce28f5465061a68f6102bd926105f9612136565b6001610706604051602081019061062381610615338886611889565b03601f198101835282610356565b5190206106e360095496848060801b03881680155f14610771575061066361065e5f995b60808b901b6001600160801b038c16175b9061223d565b600955565b6008546106829061067d906001600160801b038416610658565b600855565b6106b733610698855f52600a60205260405f2090565b80546001600160a01b0319166001600160a01b03909216919091179055565b61065888866106ce865f52600a60205260405f2090565b01549260801b6001600160801b039091161790565b836106f6835f52600a60205260405f2090565b01555f52600a60205260405f2090565b0154906107546001600160801b0385165b600854600954604080516001600160a01b0390961686526020860196909652948401919091526060830152608082019290925290819060a0820190565b0390a16040516001600160801b0390911681529081906020820190565b61065e61079561066392888060801b036008541690898060801b0386160204612ff1565b99610647565b63d1b5191160e01b5f52601a60045260245ffd5b346102c1575f3660031901126102c1576107ca600654612266565b15610a5c57600c5461088f906020906107f9906107ed906001600160a01b031681565b6001600160a01b031690565b335f908152600760205260409020610836906108319061082c90610827905460801c6001600160781b031690565b611da0565b611db8565b611e13565b604051630a09391d60e11b81523060048201526001600160a01b037f0000000000000000000000000000000000000000000000000000000000000000166024820152604481019190915292839190829081906064820190565b03915afa908115610a57575f91610a28575b50158015610a00575b6109ec57335f9081526007602052604090207fed6a74b410387b51432c864b8acdae396c38c662efa18b7a42f83487ff229595906109e79061091b906108f8905b546001600160801b031690565b335f908152600760205260409020546109159060f81c5b60ff1690565b90611e44565b335f9081526007602052604090206109659080546109489084906001600160801b0316611e77565b611e77565b81546001600160801b0319166001600160801b0391909116179055565b335f9081526007602052604090206109b490805461098e9060801c6001600160781b0316611e90565b8154600160801b600160f81b03191660809190911b600160801b600160f81b0316179055565b6109c76001600160801b03821633612279565b604080516001600160801b03909216825233602083015290918291820190565b0390a1005b63d1b5191160e01b5f52601760045260245ffd5b50335f9081526007602052604090206001600160801b0390610a21906108eb565b16156108aa565b610a4a915060203d602011610a50575b610a428183610356565b810190611e21565b5f6108a1565b503d610a38565b611e39565b63d1b5191160e01b5f52600f60045260245ffd5b346102c15760603660031901126102c157610a89610482565b610a91610498565b6001600160a01b0382165f818152600460209081526040808320338452909152902054604435939192919060018101610b43575b506001600160a01b03165f9081526003602052604090205f51602061318a5f395f51905f5291610b34915b610afb868254611ec0565b90556001600160a01b0381165f9081526003602052604090208054860190556040519485526001600160a01b0316939081906020820190565b0390a360405160018152602090f35b91848303928311610ba157610af0610b34925f51602061318a5f395f51905f5294610b9733610b828460018060a01b03165f52600460205260405f2090565b9060018060a01b03165f5260205260405f2090565b5592505091610ac5565b611d8c565b9181601f840112156102c1578235916001600160401b0383116102c157602083818601950101116102c157565b346102c15760403660031901126102c1576004356024356001600160401b0381116102c157610c06903690600401610ba6565b9190610c13600654612266565b15610a5c57600d54610c5b90610c36906001600160801b0385169060801c611ee7565b600d80546001600160801b031660809290921b6001600160801b031916919091179055565b600d5464746a52880060809190911c11610d5a577fcf0848d99e9b2ad96811072e657199bc9567c2cc9b614097727a852b27f5358d92610cbe918330337f0000000000000000000000000000000000000000000000000000000000000000612562565b5f90610ccc600d5460801c90565b6001600160801b0381166428bed016008111610d135750509050610cef81611dfd565b90610cfa8233612279565b60408051918252602082019290925290819081016109e7565b644bab82720010610d3a57509050610d2a81611de7565b90610d358233612279565b610cfa565b64746a528800906001600160801b031611610cfa579050610d2a81611dd1565b63d1b5191160e01b5f52601860045260245ffd5b346102c15760203660031901126102c157610d87610482565b600b546001600160a01b03163303610de557600c80546001600160a01b0319166001600160a01b0390921691821790556040519081527f5497e30355b3c259b1bd1d2577607edc2872c70543f17f29bcab333caf74c31590602090a1005b63d1b5191160e01b5f52601060045260245ffd5b346102c1575f3660031901126102c157602060405160ff7f0000000000000000000000000000000000000000000000000000000000000000168152f35b346102c1575f3660031901126102c1576020610e50611f00565b604051908152f35b346102c15760203660031901126102c157610e71610482565b600b54906001600160a01b0382163303610ece576001600160a01b03166001600160a01b0319919091168117600b556040519081527f853baecd5c22fcf8a4d994474a066771c51cfe6022b046e92a09874610cd128190602090a1005b63d1b5191160e01b5f52601360045260245ffd5b60405190610ef1604083610356565b565b60405190610ef1606083610356565b60405190610ef1608083610356565b60ff8116036102c157565b60609060031901126102c15760405190610f358261031b565b816004356001600160801b03811681036102c15781526024356001600160781b03811681036102c1576020820152604060443591610f7283610f11565b0152565b346102c15760a03660031901126102c157610f9036610f1c565b610f9861057f565b906084356001600160401b0381116102c157610fb8903690600401610ba6565b92906001600160801b0382164211611033576110319361101561101061102a94335f52600760205260018060801b0360405f20541690335f52600560205260405f209182549261100784612003565b90553389612011565b612acf565b600b549091906001600160a01b031692612b50565b3390612cd9565b005b63d1b5191160e01b5f52602460045260245ffd5b346102c15760203660031901126102c157611060610482565b61106b600654612266565b15610a5c57600b546001600160a01b0316330361114c576001600160a01b0381165f908152600760205260408120549091611149916110fb906110d9906110c8906110bc906001600160801b031681565b6001600160401b031690565b600d546001600160801b0316611ee7565b600d80546001600160801b0319166001600160801b0392909216919091179055565b6040516001600160a01b03821681527fee1c541a26a2ceb2a600bf578887002fd1bdbbc7fb67e2b4c4bce896eac8a36f90602090a16001600160a01b03165f90815260076020526040902090565b55005b63d1b5191160e01b5f52601660045260245ffd5b346102c1575f3660031901126102c157600d546040516001600160801b039091168152602090f35b346102c15760e03660031901126102c1576111a236610f1c565b6111aa6104ae565b608435916001600160801b03831683036102c15760a4356001600160801b03811681036102c157602093610e509360c43593612011565b346102c15760403660031901126102c1576111fa610482565b602435600b546001600160a01b03163303611264576001600160a01b039091165f818152600f602090815260409182902084905581519283528201929092527f967d50df84a5ebb45902fa277d5c3b0bc6403497c9fd6da2ecbd9ed420038f1491819081016109e7565b63d1b5191160e01b5f52601460045260245ffd5b346102c1575f3660031901126102c1576020600654604051908152f35b346102c15760203660031901126102c1576001600160a01b036112b6610482565b165f52600f602052602060405f2054604051908152f35b346102c15760203660031901126102c1576112e6610482565b600b546001600160a01b0316330361133f576001600160a01b03165f818152600f602090815260408083209290925590519182527f3680a8b72561b4141a1464124f40242ac80a59d51d29649d9b0b442c255b628991a1005b63d1b5191160e01b5f52601560045260245ffd5b346102c15760203660031901126102c1576001600160a01b03611374610482565b165f526003602052602060405f2054604051908152f35b346102c15760403660031901126102c1576113a4610482565b6113ac610569565b335f908152600f60205260409020545f19016115c2577fff4f1caf741747da03068e051490a9f142dac5b961014b67ce28f5465061a68f916113ec612136565b604051602081019061140381610615338686611889565b519020916114356114296001611421865f52600a60205260405f2090565b015460801c90565b6001600160801b031690565b6001600160801b0382161061154b57506109e76107176114626001611421865f52600a60205260405f2090565b9360016115266115088261147e855f52600a60205260405f2090565b015480986114a2611497875f52600a60205260405f2090565b60015f918281550155565b6114e861067d6114b460095460801c90565b600854906114e2906114d590869060801b6001600160801b03851617612f24565b946001600160801b031690565b90612efb565b6009546109439061065e90608084901b6001600160801b038616176114e2565b92828060801b0384168061153b575b505f52600a60205260405f2090565b01549460801b6001600160801b039091161790565b6115459088612279565b5f611517565b9161071781600161152661150861157988846115726109e7995f52600a60205260405f2090565b0154612edc565b80986115a885611591885f52600a60205260405f2090565b0154608083901b6001600160801b038516176114e2565b856115bb885f52600a60205260405f2090565b01556114a2565b63d1b5191160e01b5f52601b60045260245ffd5b346102c15760203660031901126102c1576001600160a01b036115f7610482565b165f526005602052602060405f2054604051908152f35b346102c1575f3660031901126102c1576020600954604051908152f35b346102c1575f3660031901126102c1576040515f60015461164b816102cf565b808452906001811690811561045e5750600114611672576102bd836103f681850382610356565b60015f9081527fb10e2d527612073b26eecdfd717e6a320cf44b4afac2b0732d9fcbe2b7fa0cf6939250905b8082106116b6575090915081016020016103f66103e6565b91926001816020925483858801015201910190929161169e565b346102c15760203660031901126102c1576001600160a01b036116f1610482565b165f52600e602052602060018060a01b0360405f205416604051908152f35b346102c15760403660031901126102c157611729610482565b6001600160a01b03165f81815260036020526040902080546024359291838203918211610ba1575f935f51602061318a5f395f51905f5292602092558060025403600255604051908152a3005b346102c15760403660031901126102c15761178f610482565b60243590335f52600360205260405f20805490838203918211610ba1575560018060a01b031690815f52600360205260405f208181540190555f51602061318a5f395f51905f5260405180610b343394829190602083019252565b346102c15760203660031901126102c15760043561271081118015611870575b61185c576118279061ffff63ffffffff1960065416911601600655565b6006546040519081527f23a413df5b1fc0945373ace790cb8288a224212397d5bfc6e2a9b82a4396bbc49080602081016109e7565b63d1b5191160e01b5f52601160045260245ffd5b50335f52600f60205260028060405f205416141561180a565b6001600160a01b0391821681529116602082015260400190565b346102c15760203660031901126102c1576118bc610482565b600b546001600160a01b039182165f908152600e6020526040908190205490519283926102bd928216911683611889565b346102c15760803660031901126102c15761190736610f1c565b61190f6104ae565b61191a600654612266565b15610a5c57600d5482516001600160801b03918216911611801561195a575b6119465761103191612cd9565b63d1b5191160e01b5f52601260045260245ffd5b50600b546001600160a01b0316331415611939565b346102c1575f3660031901126102c1576020600854604051908152f35b346102c15760203660031901126102c1576001600160a01b036119ad610482565b165f526007602052606060405f20546040519060018060801b038116825260018060781b038160801c16602083015260f81c6040820152f35b346102c15760e03660031901126102c1576119ff610482565b611a07610498565b6044359060205f608435606435611a1d82610f11565b611b2660a4359160c43590611a34428210156120b3565b610615611afc8b8b611ad38c610615611a4b611f00565b6001600160a01b0386165f90815260056020526040902090989080549060018201905560405195602094879586019889919260a093969594919660c08401977f6e71edae12b1b97f4d1f60370fef10105fa2faae0126114a169c64845d6126c98552600180871b03166020850152600180861b03166040840152606083015260808201520152565b5190206040519283918b83019586909160429261190160f01b8352600283015260228201520190565b51902092604051948594859094939260ff6060936080840197845216602083015260408201520152565b838052039060015afa15610a5757611bb78183611b987f8c5be1e5ebec7d5bd14f71427d1e84f3dd0314c0f7b2291e5b200ac8c7c3b92594610b825f51611b7f60018060a01b0382168015159081611bbc575b506120f9565b6001600160a01b03165f90815260046020526040902090565b556040519384526001600160a01b039081169416929081906020820190565b0390a3005b6001600160a01b038d161490505f611b79565b346102c15760403660031901126102c1576020611c1d611bed610482565b611bf5610498565b6001600160a01b039182165f9081526004855260408082209290931681526020919091522090565b54604051908152f35b346102c1575f3660031901126102c1576020600d5460801c604051908152f35b346102c15760403660031901126102c157600435611c62610498565b90611c6e600654612266565b15610a5c57600b546001600160a01b03163303611caf57611031917f0000000000000000000000000000000000000000000000000000000000000000612f42565b63d1b5191160e01b5f52601960045260245ffd5b346102c15760403660031901126102c157611cdc610482565b611ce4610498565b335f52600f602052600160405f20541480611d6b575b80611d55575b611d0657005b81611d46826106987f0b5e322b4b5330962013e8d6519462c133d50320ee476828060995c1acadef629560018060a01b03165f52600e60205260405f2090565b6109e760405192839283611889565b506001600160a01b038281169082161415611d00565b506001600160a01b038281165f908152600e60205260409020541615611cfa565b634e487b7160e01b5f52601160045260245ffd5b6001600160781b031660ff8111610ba1576001901b90565b908160801b91808304600160801b1490151715610ba157565b908160041b9180830460101490151715610ba157565b90601482029180830460141490151715610ba157565b90601882029180830460181490151715610ba157565b9060148201809211610ba157565b908160209103126102c1575180151581036102c15790565b6040513d5f823e3d90fd5b6001600160801b03909116908115611e63576001600160801b03160490565b634e487b7160e01b5f52601260045260245ffd5b6001600160801b039182169082160391908211610ba157565b6001600160781b0390811660010191908211610ba157565b65b5e620f48000039065b5e620f480008211610ba157565b91908203918211610ba157565b6001600160801b03908116620151800191908211610ba157565b6001600160801b039182169082160191908211610ba157565b467f000000000000000000000000000000000000000000000000000000000000000003611f4b577f000000000000000000000000000000000000000000000000000000000000000090565b604051905f915f5490611f5d826102cf565b808252602082019260018116908115611fe85750600114611f92575b50611f8a816103ac94950382610356565b51902061313e565b5f8080529094507f290decd9548b62a8d60345a988386fc84ba6bc95484008f6362f93160ef3e5635b858210611fd2575081016020019350611f8a611f79565b6001816020925483858701015201910190611fbb565b60ff1916845250151560051b81016020019350611f8a611f79565b5f198114610ba15760010190565b805160408083015160209384015182517f2d6f2462798f043c326ee6ec02c17cbc47b3cd9a1a4c5b8ac68ccf4cfd6f4ea49581019586526001600160801b039485169381019390935260ff9190911660608301526001600160781b031660808201526001600160a01b0390931660a084015292831660c08301529190921660e0830152610100808301939093529181526120ad61012082610356565b51902090565b156120ba57565b60405162461bcd60e51b815260206004820152601760248201527614115493525517d11150511312539157d1561412549151604a1b6044820152606490fd5b1561210057565b60405162461bcd60e51b815260206004820152600e60248201526d24a72b20a624a22fa9a4a3a722a960911b6044820152606490fd5b60085461214b6121468260801c90565b611ecd565b426001600160801b039091161061215f5750565b6121739061067d906102a360871b9061223d565b612181611429600254611ea8565b620f42406001600160801b038216101561222157506121c261065e620f42405b6106586121bc600954926006549061ffff6127109216020490565b60801b90565b7f640eaa6ba71a4f457fdf8b26b0a8a0a6096d6d2bf731d07d47717534847ce55d61221c61220c6121f560085460801c90565b60095460801c5b60018060801b03169060801b1790565b6040519081529081906020820190565b0390a1565b6121c29061065e9061474a6001600160801b03909116046121a1565b6121fc906122528360801d8260801d01612ff1565b926001600160801b03918216911601612ff1565b60ff1c60010361227557600190565b5f90565b60025490828201809211610ba15760205f51602061318a5f395f51905f52915f9360025560018060a01b0316938484526003825260408420818154019055604051908152a3565b6020818303126102c1578035906001600160401b0382116102c15701906040828203126102c157604051916122f48361033b565b80356122ff81610f11565b83526020810135906001600160401b0382116102c1570181601f820112156102c1578035906001600160401b038211610336576040519261234a601f8401601f191660200185610356565b828452602083830101116102c157815f9260208093018386013783010152602082015290565b908160c09103126102c1576040519060c08201908282106001600160401b038311176103365760a09160405280518352602081015160208401526040810151604084015260608101516123c281610f11565b606084015260808101516080840152015160a082015290565b929190604051936020850152604084015260ff60f81b16606083015260418252610ef1606183610356565b909261245e6101009360406103ac97966124338682516020809160018060a01b0381511684520151910152565b60208181015187840152910151606086015281516001600160a01b03166080860152015160a0840152565b6001600160a01b031660c082015260e081018290520190610377565b60406103ac94936101009360018060a01b0316835265ffffffffffff6060825160018060a01b03815116602087015260018060a01b036020820151168587015282858201511682870152015116608084015260018060a01b0360208201511660a0840152015160c08201528160e08201520190610377565b908160a09103126102c1576040519060a08201908282106001600160401b03831117610336576080916040528051835260208101516020840152604081015161253a81610f11565b6040840152606081015160608401520151608082015290565b908160209103126102c1575190565b94939091929361257186613010565b156125845750505050610ef191506130f4565b60036001600160a01b038716036125a1575050610ef19350613044565b806125b1575050610ef1936130a5565b906125be918101906122c0565b60ff6125cb825160ff1690565b16600281036127ac575060206125ec910151602080825183010191016124f2565b6001600160a01b0385169073cafbbad55eb09efe7bec8408cff9932be7d9a7fa820361272657604051623f675f60e91b81526001600160a01b038416600482015291602090839060249082905afa908115610a57576126d05f9392849384916126f7575b50610615602084015193612668604082015160ff1690565b60608201516080909201516040516323f2ebc360e21b60208201526001600160a01b038b16602482015230604482015260648101959095526084850196909652600160a485015260ff1660c484015260e4830152610104820193909352918290610124820190565b60208151910182885af1156126e857610ef1936130a5565b63203aa5b560e11b5f5260045ffd5b612719915060203d60201161271f575b6127118183610356565b810190612553565b5f612650565b503d612707565b5f9150806127a7839251610615602084015193612747604082015160ff1690565b606082015160809092015160405163d505accf60e01b60208201526001600160a01b038b1660248201523060448201526064810195909552608485019690965260ff1660a484015260c483015260e4820193909352918290610104820190565b6126d0565b91949390916003810361285257506127c49150613030565b9273a50eb0d081e986c280eff32dae089939ea07bd223b156102c157604051631b63c28b60e11b81526001600160a01b03918216600482015291811660248301529283166044820152911660648201525f816084818373a50eb0d081e986c280eff32dae089939ea07bd225af18015610a575761283e5750565b8061284c5f610ef193610356565b806102c5565b600481036129ab575090602061287391015160208082518301019101612370565b906129286128818351613030565b926128db612898604083015165ffffffffffff1690565b6128c06128a3610f02565b6001600160a01b038a168152966001600160a01b03166020880152565b65ffffffffffff604087015265ffffffffffff166060860152565b60208101516128e8610ef3565b9485523060208601526040850152608081015190612922612912606060a084015193015160ff1690565b60f81b6001600160f81b03191690565b916123db565b9173a50eb0d081e986c280eff32dae089939ea07bd223b156102c1576040516302b67b5760e41b8152925f918491829161296791908a6004850161247a565b03818373a50eb0d081e986c280eff32dae089939ea07bd225af1918215610a57576127c492612997575b50613030565b8061284c5f6129a593610356565b5f612991565b6005146129ba575b5050505050565b6129d46020612a5193015160208082518301019101612370565b9081516129f16129e2610ee2565b6001600160a01b039097168752565b60208601526040820151602083015190612a09610ef3565b96875260208701526040860152612a30612a21610ee2565b6001600160a01b039095168552565b6020840152608081015190612922612912606060a084015193015160ff1690565b9173a50eb0d081e986c280eff32dae089939ea07bd223b156102c157612a8d5f93604051958694859463187945bd60e11b865260048601612406565b03818373a50eb0d081e986c280eff32dae089939ea07bd225af18015610a5757612abb575b808080806129b3565b8061284c5f612ac993610356565b5f612ab2565b6106156120ad612add611f00565b92604051928391602083019586909160429261190160f01b8352600283015260228201520190565b91908260409103126102c1576020823592013590565b60ff601b9116019060ff8211610ba157565b9060401015612b3c5760400190565b634e487b7160e01b5f52603260045260245ffd5b9060418103612c095790602092612bbb83612b93612b8d612b7f612b775f98880188612b05565b949097612b2d565b356001600160f81b03191690565b60f81c90565b935b604051948594859094939260ff6060936080840197845216602083015260408201520152565b838052039060015afa15610a57575f516001600160a01b0316908115612bfa576001600160a01b031603612beb57565b632057875960e21b5f5260045ffd5b638baa579f60e01b5f5260045ffd5b9060408203612c4f57602092612c26825f94612bbb940190612b05565b9092906001600160ff1b03811690612c4990612c449060ff1c61090f565b612b1b565b93612b95565b634be6321b60e01b5f5260045ffd5b90604051612c6b8161031b565b91546001600160801b0381168352608081901c6001600160781b0316602084015260f81c6040830152565b8151602083015160409093015160f81b6001600160f81b031916600160801b600160f81b0360809490941b939093166001600160801b0390911617919091179055565b7f68e68b059416c2836fd602f01cc46a42a185922f060ff76722815bac3240712991612d286110d9612d176110bc6110bc865160018060801b031690565b600d546001600160801b0316611e77565b6001600160a01b0381165f9081526007602052604090206001600160801b0390612d51906108eb565b16612def576001600160a01b0381165f908152600760205260409020612d78908390612c96565b815161221c906001600160801b03166020840151909390612da8906040906001600160781b031692015160ff1690565b604080516001600160a01b0390951685526001600160801b0390951660208501526001600160781b039091169383019390935260ff90921660608201529081906080820190565b6001600160a01b0381165f908152600760205260409020612ebf90612e1390612c5e565b8351612e4390612e36906001600160801b031683516001600160801b0316611ee7565b6001600160801b03168252565b612e7260408201612e55815160ff1690565b604087015160ff1660ff811660ff831610612ed3575060ff169052565b6020818101805191860151612ea3926001600160781b039081169116808210612ec457506001600160781b03169052565b6001600160a01b0383165f908152600760205260409020612c96565b612d78565b6001600160781b031690915250565b905060ff169052565b6103ac91608082901c6001600160801b03918216919092160204612ff1565b6121fc90612f108360801d8260801d03612ff1565b926001600160801b03908116911603612ff1565b6103ac916001600160801b0380831660809390931c91160204612ff1565b919091612f4e81613010565b15612f7857505f80808093612f63955af11590565b612f6957565b633607a14f60e11b5f5260045ffd5b6001600160a01b038116600303612fa85750610ef191732387fd72c1da19f6486b843f5da562679fbb4057612f42565b60445f8080936020956040519763a9059cbb60e01b84526004526024525af13d15601f3d1160015f5114161716905f606052604052610ef1575b633c9fd93960e21b5f5260045ffd5b6001600160801b03811161300b576001600160801b031690565b505f90565b6001600160a01b031660018114908115613028575090565b600291501490565b6001600160a01b03811690810361300b5790565b6040516323b872dd60e01b81526001600160a01b0391821660048201529116602482015260448101919091526020905f9060649082732387fd72c1da19f6486b843f5da562679fbb40575af13d15601f3d1160015f511416171615612fe257565b6040516323b872dd60e01b81526001600160a01b03928316600482015292909116602483015260448201929092526020915f9160649183905af13d15601f3d1160015f511416171615612fe257565b5f5160206131aa5f395f51905f525c811161312a575f5160206131aa5f395f51905f525c035f5160206131aa5f395f51905f525d565b63d1b5191160e01b5f52601c60045260245ffd5b60405160208101917f8b73c3c69bb8fe3d512ecc4cf759cc79239f7b179b0ffacaa9a75d522b39400f83526040820152466060820152306080820152608081526120ad60a08261035656feddf252ad1be2c89b69c2b068fc378daa952ba7f163c4a11628f55a4df523b3efcbe27d488af5b5c1b0bd8d89be6fdfeaed3ad42719044fd9b728f33df1d6f1d1a2646970667358221220b94993371cc2aa717ce998cad774e9b2d8e2a774e4a581079ae4dc5a8aa2d34564736f6c634300081d0033290decd9548b62a8d60345a988386fc84ba6bc95484008f6362f93160ef3e563","linkReferences":{}},"methodIdentifiers":{"DOMAIN_SEPARATOR()":"3644e515","addShare((uint128,uint120,uint8),address)":"baf02f1b","addauths(address,uint256)":"542128dd","addreferral(address,address)":"eca93cce","allowance(address,address)":"dd62ed3e","approve(address,uint256)":"095ea7b3","auths(address)":"64e72dbd","balanceOf(address)":"70a08231","burn(address,uint256)":"9dc29fac","burnShare(address)":"44d91d9a","changeDAOAdmin(address)":"3cba316b","decimals()":"313ce567","getreferralanddaoadmin(address)":"b88e6d63","left_share()":"45fda707","name()":"06fdde03","nonces(address)":"7ecebe00","permit(address,address,uint256,uint256,uint8,bytes32,bytes32)":"d505accf","permitShare((uint128,uint120,uint8),uint128,bytes)":"3fc199c1","poolstate()":"845fcee4","publicSell(uint256,bytes)":"297f24bf","publicsell()":"de5712d4","referrals(address)":"9ca423b3","rmauths(address)":"69a5ac32","setEnv(address)":"2ff908cc","setRatio(uint256)":"b2237ba3","shareHash((uint128,uint120,uint8),address,uint128,uint128,uint256)":"47340467","shareMint()":"1aab145d","shares(address)":"ce7c2ac2","stake(address,uint128)":"19f8d5b4","stakeproof(uint256)":"06afa12a","stakestate()":"cae97640","symbol()":"95d89b41","totalSupply()":"18160ddd","transfer(address,uint256)":"a9059cbb","transferFrom(address,address,uint256)":"23b872dd","ttstokenconfig()":"623059a5","unstake(address,uint128)":"7bd3ca35","withdrawPublicSell(uint256,address)":"e7b43e7d"},"id":49}