{"abi":[{"type":"constructor","inputs":[{"name":"_TTS_Contract","type":"address","internalType":"contract I_TTSwap_Token"}],"stateMutability":"nonpayable"},{"type":"function","name":"DOMAIN_SEPARATOR","inputs":[],"outputs":[{"name":"","type":"bytes32","internalType":"bytes32"}],"stateMutability":"view"},{"type":"function","name":"buyGood","inputs":[{"name":"_goodid1","type":"address","internalType":"address"},{"name":"_goodid2","type":"address","internalType":"address"},{"name":"_swapQuantity","type":"uint256","internalType":"uint256"},{"name":"_recipent","type":"address","internalType":"address"},{"name":"data","type":"bytes","internalType":"bytes"},{"name":"_trader","type":"address","internalType":"address"},{"name":"signature","type":"bytes","internalType":"bytes"}],"outputs":[{"name":"good1change","type":"uint256","internalType":"uint256"},{"name":"good2change","type":"uint256","internalType":"uint256"}],"stateMutability":"payable"},{"type":"function","name":"changeGoodOwner","inputs":[{"name":"_goodid","type":"address","internalType":"address"},{"name":"_to","type":"address","internalType":"address"},{"name":"_trader","type":"address","internalType":"address"},{"name":"signature","type":"bytes","internalType":"bytes"}],"outputs":[],"stateMutability":"nonpayable"},{"type":"function","name":"collectCommission","inputs":[{"name":"_goodid","type":"address[]","internalType":"address[]"},{"name":"_trader","type":"address","internalType":"address"},{"name":"signature","type":"bytes","internalType":"bytes"}],"outputs":[],"stateMutability":"nonpayable"},{"type":"function","name":"disinvestProof","inputs":[{"name":"_proofid","type":"uint256","internalType":"uint256"},{"name":"_goodshares","type":"uint128","internalType":"uint128"},{"name":"_gate","type":"address","internalType":"address"},{"name":"_trader","type":"address","internalType":"address"},{"name":"signature","type":"bytes","internalType":"bytes"}],"outputs":[{"name":"","type":"uint128","internalType":"uint128"},{"name":"","type":"uint128","internalType":"uint128"}],"stateMutability":"nonpayable"},{"type":"function","name":"getGoodState","inputs":[{"name":"good","type":"address","internalType":"address"}],"outputs":[{"name":"","type":"tuple","internalType":"struct S_GoodTmpState","components":[{"name":"goodConfig","type":"uint256","internalType":"uint256"},{"name":"owner","type":"address","internalType":"address"},{"name":"currentState","type":"uint256","internalType":"uint256"},{"name":"investState","type":"uint256","internalType":"uint256"}]}],"stateMutability":"view"},{"type":"function","name":"getProofState","inputs":[{"name":"proofid","type":"uint256","internalType":"uint256"}],"outputs":[{"name":"","type":"tuple","internalType":"struct S_ProofState","components":[{"name":"currentgood","type":"address","internalType":"address"},{"name":"valuegood","type":"address","internalType":"address"},{"name":"shares","type":"uint256","internalType":"uint256"},{"name":"state","type":"uint256","internalType":"uint256"},{"name":"invest","type":"uint256","internalType":"uint256"},{"name":"valueinvest","type":"uint256","internalType":"uint256"}]}],"stateMutability":"view"},{"type":"function","name":"getRecentGoodState","inputs":[{"name":"good1","type":"address","internalType":"address"},{"name":"good2","type":"address","internalType":"address"}],"outputs":[{"name":"good1currentstate","type":"uint256","internalType":"uint256"},{"name":"good2currentstate","type":"uint256","internalType":"uint256"}],"stateMutability":"view"},{"type":"function","name":"goodWelfare","inputs":[{"name":"goodid","type":"address","internalType":"address"},{"name":"welfare","type":"uint128","internalType":"uint128"},{"name":"data","type":"bytes","internalType":"bytes"},{"name":"_trader","type":"address","internalType":"address"},{"name":"signature","type":"bytes","internalType":"bytes"}],"outputs":[],"stateMutability":"payable"},{"type":"function","name":"initGood","inputs":[{"name":"_valuegood","type":"address","internalType":"address"},{"name":"_initial","type":"uint256","internalType":"uint256"},{"name":"_erc20address","type":"address","internalType":"address"},{"name":"_goodConfig","type":"uint256","internalType":"uint256"},{"name":"_normaldata","type":"bytes","internalType":"bytes"},{"name":"_valuedata","type":"bytes","internalType":"bytes"},{"name":"_trader","type":"address","internalType":"address"},{"name":"signature","type":"bytes","internalType":"bytes"}],"outputs":[{"name":"","type":"bool","internalType":"bool"}],"stateMutability":"payable"},{"type":"function","name":"initMetaGood","inputs":[{"name":"_erc20address","type":"address","internalType":"address"},{"name":"_initial","type":"uint256","internalType":"uint256"},{"name":"_goodConfig","type":"uint256","internalType":"uint256"},{"name":"data","type":"bytes","internalType":"bytes"}],"outputs":[{"name":"","type":"bool","internalType":"bool"}],"stateMutability":"payable"},{"type":"function","name":"investGood","inputs":[{"name":"_togood","type":"address","internalType":"address"},{"name":"_valuegood","type":"address","internalType":"address"},{"name":"_quantity","type":"uint128","internalType":"uint128"},{"name":"data1","type":"bytes","internalType":"bytes"},{"name":"data2","type":"bytes","internalType":"bytes"},{"name":"_trader","type":"address","internalType":"address"},{"name":"signature","type":"bytes","internalType":"bytes"}],"outputs":[{"name":"","type":"bool","internalType":"bool"}],"stateMutability":"payable"},{"type":"function","name":"ishigher","inputs":[{"name":"goodid","type":"address","internalType":"address"},{"name":"valuegood","type":"address","internalType":"address"},{"name":"compareprice","type":"uint256","internalType":"uint256"}],"outputs":[{"name":"","type":"bool","internalType":"bool"}],"stateMutability":"view"},{"type":"function","name":"lockGood","inputs":[{"name":"_goodid","type":"address","internalType":"address"},{"name":"_trader","type":"address","internalType":"address"},{"name":"signature","type":"bytes","internalType":"bytes"}],"outputs":[],"stateMutability":"nonpayable"},{"type":"function","name":"modifyGoodConfig","inputs":[{"name":"_goodid","type":"address","internalType":"address"},{"name":"_goodConfig","type":"uint256","internalType":"uint256"},{"name":"_trader","type":"address","internalType":"address"},{"name":"signature","type":"bytes","internalType":"bytes"}],"outputs":[{"name":"","type":"bool","internalType":"bool"}],"stateMutability":"nonpayable"},{"type":"function","name":"modifyGoodCoreConfig","inputs":[{"name":"_goodid","type":"address","internalType":"address"},{"name":"_goodConfig","type":"uint256","internalType":"uint256"},{"name":"_trader","type":"address","internalType":"address"},{"name":"signature","type":"bytes","internalType":"bytes"}],"outputs":[{"name":"","type":"bool","internalType":"bool"}],"stateMutability":"nonpayable"},{"type":"function","name":"multicall","inputs":[{"name":"data","type":"bytes[]","internalType":"bytes[]"}],"outputs":[{"name":"results","type":"bytes[]","internalType":"bytes[]"}],"stateMutability":"payable"},{"type":"function","name":"payGood","inputs":[{"name":"_goodid1","type":"address","internalType":"address"},{"name":"_goodid2","type":"address","internalType":"address"},{"name":"_swapQuantity","type":"uint256","internalType":"uint256"},{"name":"_recipent","type":"address","internalType":"address"},{"name":"data","type":"bytes","internalType":"bytes"},{"name":"_trader","type":"address","internalType":"address"},{"name":"signature","type":"bytes","internalType":"bytes"},{"name":"data_hash","type":"uint256","internalType":"uint256"}],"outputs":[{"name":"good1change","type":"uint256","internalType":"uint256"},{"name":"good2change","type":"uint256","internalType":"uint256"}],"stateMutability":"payable"},{"type":"function","name":"queryCommission","inputs":[{"name":"_goodid","type":"address[]","internalType":"address[]"},{"name":"_recipent","type":"address","internalType":"address"}],"outputs":[{"name":"","type":"uint256[]","internalType":"uint256[]"}],"stateMutability":"view"},{"type":"function","name":"updateGoodConfig","inputs":[{"name":"_goodid","type":"address","internalType":"address"},{"name":"_goodConfig","type":"uint256","internalType":"uint256"},{"name":"_trader","type":"address","internalType":"address"},{"name":"signature","type":"bytes","internalType":"bytes"}],"outputs":[{"name":"","type":"bool","internalType":"bool"}],"stateMutability":"nonpayable"},{"type":"event","name":"e_buyGood","inputs":[{"name":"sellgood","type":"address","indexed":true,"internalType":"address"},{"name":"forgood","type":"address","indexed":true,"internalType":"address"},{"name":"swapvalue","type":"uint256","indexed":false,"internalType":"uint256"},{"name":"good1change","type":"uint256","indexed":false,"internalType":"uint256"},{"name":"good2change","type":"uint256","indexed":false,"internalType":"uint256"},{"name":"_trader","type":"address","indexed":false,"internalType":"address"}],"anonymous":false},{"type":"event","name":"e_changegoodowner","inputs":[{"name":"goodid","type":"address","indexed":false,"internalType":"address"},{"name":"to","type":"address","indexed":false,"internalType":"address"},{"name":"_trader","type":"address","indexed":false,"internalType":"address"}],"anonymous":false},{"type":"event","name":"e_collectProtocolFee","inputs":[{"name":"goodid","type":"address","indexed":false,"internalType":"address"},{"name":"feeamount","type":"uint256","indexed":false,"internalType":"uint256"},{"name":"_trader","type":"address","indexed":false,"internalType":"address"}],"anonymous":false},{"type":"event","name":"e_collectcommission","inputs":[{"name":"_gooid","type":"address[]","indexed":false,"internalType":"address[]"},{"name":"_commisionamount","type":"uint256[]","indexed":false,"internalType":"uint256[]"},{"name":"_trader","type":"address","indexed":false,"internalType":"address"}],"anonymous":false},{"type":"event","name":"e_disinvestProof","inputs":[{"name":"_proofNo","type":"uint256","indexed":true,"internalType":"uint256"},{"name":"_normalGoodNo","type":"address","indexed":false,"internalType":"address"},{"name":"_valueGoodNo","type":"address","indexed":false,"internalType":"address"},{"name":"_gate","type":"address","indexed":false,"internalType":"address"},{"name":"_value","type":"uint256","indexed":false,"internalType":"uint256"},{"name":"_normalprofit","type":"uint256","indexed":false,"internalType":"uint256"},{"name":"_normaldisvest","type":"uint256","indexed":false,"internalType":"uint256"},{"name":"_valueprofit","type":"uint256","indexed":false,"internalType":"uint256"},{"name":"_valuedisvest","type":"uint256","indexed":false,"internalType":"uint256"},{"name":"_trader","type":"address","indexed":false,"internalType":"address"}],"anonymous":false},{"type":"event","name":"e_getPromiseProof","inputs":[{"name":"_goodid","type":"address","indexed":false,"internalType":"address"},{"name":"_proofid","type":"uint256","indexed":false,"internalType":"uint256"}],"anonymous":false},{"type":"event","name":"e_goodWelfare","inputs":[{"name":"goodid","type":"address","indexed":false,"internalType":"address"},{"name":"welfare","type":"uint128","indexed":false,"internalType":"uint128"},{"name":"_trader","type":"address","indexed":false,"internalType":"address"}],"anonymous":false},{"type":"event","name":"e_initGood","inputs":[{"name":"_proofNo","type":"uint256","indexed":false,"internalType":"uint256"},{"name":"_goodid","type":"address","indexed":false,"internalType":"address"},{"name":"_valuegoodNo","type":"address","indexed":false,"internalType":"address"},{"name":"_goodConfig","type":"uint256","indexed":false,"internalType":"uint256"},{"name":"_construct","type":"uint256","indexed":false,"internalType":"uint256"},{"name":"_normalinitial","type":"uint256","indexed":false,"internalType":"uint256"},{"name":"_value","type":"uint256","indexed":false,"internalType":"uint256"},{"name":"_trader","type":"address","indexed":false,"internalType":"address"}],"anonymous":false},{"type":"event","name":"e_initMetaGood","inputs":[{"name":"_proofNo","type":"uint256","indexed":false,"internalType":"uint256"},{"name":"_goodid","type":"address","indexed":false,"internalType":"address"},{"name":"_construct","type":"uint256","indexed":false,"internalType":"uint256"},{"name":"_goodConfig","type":"uint256","indexed":false,"internalType":"uint256"},{"name":"_initial","type":"uint256","indexed":false,"internalType":"uint256"}],"anonymous":false},{"type":"event","name":"e_investGood","inputs":[{"name":"_proofNo","type":"uint256","indexed":true,"internalType":"uint256"},{"name":"_normalgoodid","type":"address","indexed":false,"internalType":"address"},{"name":"_valueGoodNo","type":"address","indexed":false,"internalType":"address"},{"name":"_value","type":"uint256","indexed":false,"internalType":"uint256"},{"name":"_invest","type":"uint256","indexed":false,"internalType":"uint256"},{"name":"_valueinvest","type":"uint256","indexed":false,"internalType":"uint256"},{"name":"_trader","type":"address","indexed":false,"internalType":"address"}],"anonymous":false},{"type":"event","name":"e_modifyGoodConfig","inputs":[{"name":"_goodid","type":"address","indexed":false,"internalType":"address"},{"name":"_goodconfig","type":"uint256","indexed":false,"internalType":"uint256"},{"name":"_trader","type":"address","indexed":false,"internalType":"address"}],"anonymous":false},{"type":"event","name":"e_payGood","inputs":[{"name":"sellgood","type":"address","indexed":true,"internalType":"address"},{"name":"forgood","type":"address","indexed":true,"internalType":"address"},{"name":"swapvalue","type":"uint256","indexed":false,"internalType":"uint256"},{"name":"good1change","type":"uint256","indexed":false,"internalType":"uint256"},{"name":"good2change","type":"uint256","indexed":false,"internalType":"uint256"},{"name":"_trader","type":"address","indexed":false,"internalType":"address"},{"name":"_recipent","type":"address","indexed":false,"internalType":"address"},{"name":"data_hash","type":"uint256","indexed":false,"internalType":"uint256"}],"anonymous":false},{"type":"event","name":"e_updateGoodConfig","inputs":[{"name":"_goodid","type":"address","indexed":false,"internalType":"address"},{"name":"_goodConfig","type":"uint256","indexed":false,"internalType":"uint256"},{"name":"_trader","type":"address","indexed":false,"internalType":"address"}],"anonymous":false},{"type":"error","name":"ERC20PermitFailed","inputs":[]},{"type":"error","name":"ERC20TransferFailed","inputs":[]},{"type":"error","name":"InvalidSignature","inputs":[]},{"type":"error","name":"InvalidSignatureLength","inputs":[]},{"type":"error","name":"InvalidSigner","inputs":[]},{"type":"error","name":"NativeETHTransferFailed","inputs":[]},{"type":"error","name":"TTSwapError","inputs":[{"name":"seq","type":"uint256","internalType":"uint256"}]}],"bytecode":{"object":"0x60c0806040523461013a57602081615ed0803803809161001f828561013e565b83398101031261013a57516001600160a01b0381169081900361013a57600180546001600160a01b03191691909117905546608052604080519081016001600160401b0381118282101761012657600d91602091604052828152016c151514ddd85c17d3585c9ad95d609a1b81522060405160208101917f8b73c3c69bb8fe3d512ecc4cf759cc79239f7b179b0ffacaa9a75d522b39400f835260408201527fc89efdaa54c0f20c7adf612882df0950f5a951637e0307cdcb4c672f298b8bc660608201524660808201523060a082015260a081526100ff60c08261013e565b51902060a052604051615d6e9081610162823960805181612e8c015260a05181612eb20152f35b634e487b7160e01b5f52604160045260245ffd5b5f80fd5b601f909101601f19168101906001600160401b038211908210176101265760405256fe60806040526004361015610011575f80fd5b5f3560e01c8062796f711461015357806302b7f5241461014e57806308238466146101495780630dcbe42b14610144578063130a4de41461013f5780631412723a1461013a57806315f92b02146101355780631e88c0b2146101305780633644e5151461012b5780633f117740146101265780634dbfc09f1461012157806351ff9a161461011c5780639b22279414610117578063ac9650d814610112578063ae6ef6ca1461010d578063c89a2fce14610108578063d0b6ccc914610103578063d8df5233146100fe578063e53cca45146100f95763eaf3eda0146100f4575f80fd5b6117b4565b611601565b61154e565b61149c565b610e0b565b610d86565b610c96565b610b41565b610a2b565b61099f565b6108b0565b61088e565b6107e0565b610725565b610689565b6105fc565b61047b565b61038d565b6102bd565b6101b0565b6001600160a01b0381160361016957565b5f80fd5b60a4359061017a82610158565b565b6004359061017a82610158565b6044359061017a82610158565b60c4359061017a82610158565b6024359061017a82610158565b34610169576040366003190112610169576004356101cd81610158565b61022b602435916101dd83610158565b6001600160a01b039081165f908152600260208190526040808320600380820154918401549790951684529220928301549201546001600160801b03948516608092831b17941691901b1790565b604080519283526020830191909152819081015b0390f35b9181601f84011215610169578235916001600160401b038311610169576020838186019501011161016957565b9060806003198301126101695760043561028981610158565b916024359160443561029a81610158565b91606435906001600160401b038211610169576102b991600401610243565b9091565b34610169576102cb36610270565b5050600154604051635f35b0b360e01b815233600482015292939290602090829060249082906001600160a01b03165afa908115610388576103229161031e915f91610359575b50600160fc1b16151590565b1590565b6103455761023f9261033392611ac0565b60405190151581529081906020820190565b63d1b5191160e01b5f52600160045260245ffd5b61037b915060203d602011610381575b6103738183611a62565b810190611a83565b5f610312565b503d610369565b611a92565b346101695760203660031901126101695761023f6004356103ad81610158565b5f60606040516103bc816119f1565b828152826020820152826040820152015260018060a01b0381165f52600260205260405f2054906103ff60016103f1836119c4565b01546001600160a01b031690565b90610439600361041b6002610413856119c4565b0154936119c4565b015492610426611b41565b9485526001600160a01b03166020850152565b604083810191825260608085019384528151855181526020958601516001600160a01b0316958101959095529151908401529051908201529081906080820190565b346101695760603660031901126101695760043561049881610158565b6024356104a481610158565b6044356001600160401b038111610169576104c3903690600401610243565b5050336001600160a01b038216036105e8576001546104f2906001600160a01b03165b6001600160a01b031690565b604051635f35b0b360e01b815233600482015290602090829060249082905afa80156103885761052f915f916105c9575b50600160fb1b16151590565b80156105b0575b61059c578161057d6105687f3565888e983b51334ee2cf81a2c786753b76f4d597e9abc8ccf7cec646c18d66946119c4565b80546001600360fe1b0316600160fe1b019055565b610597610589826119c4565b549260405193849384611a9d565b0390a1005b63d1b5191160e01b5f52601460045260245ffd5b50336105c36104e660016103f1866119c4565b14610536565b6105e2915060203d602011610381576103738183611a62565b5f610523565b63d1b5191160e01b5f52602760045260245ffd5b6101003660031901126101695760043561061581610158565b6024359061062282610158565b6044356064359261063284610158565b6084356001600160401b03811161016957610651903690600401610243565b61065961016d565b9160c435966001600160401b0388116101695761067d61022b983690600401610243565b96909560e43598611b9c565b346101695760603660031901126101695761023f6103336004356106ac81610158565b6024356106b881610158565b61071f6044356001600160a01b039384165f90815260026020819052604080832060038082015491840154988816855291909320015492956001600160801b031660809290921b919091179361070d906119c4565b015460018060801b03169060801b1790565b90614554565b6101003660031901126101695761073a61017c565b60243590610746610189565b91606435916084356001600160401b0381116101695761076a903690600401610243565b60a4356001600160401b03811161016957610789903690600401610243565b91610792610196565b9360e435976001600160401b0389116101695761023f996107ba6103339a3690600401610243565b999098612499565b6001600160801b0381160361016957565b6044359061017a826107c2565b60e0366003190112610169576004356107f881610158565b6108006101a3565b906108096107d3565b916064356001600160401b03811161016957610829903690600401610243565b6084939193356001600160401b0381116101695761084b903690600401610243565b9061085461016d565b9260c435966001600160401b0388116101695761023f9861087c610333993690600401610243565b989097612951565b5f91031261016957565b34610169575f3660031901126101695760206108a8612e89565b604051908152f35b34610169576020366003190112610169576004355f60a06040516108d381611a11565b82815282602082015282604082015282606082015282608082015201525f52600360205261023f60405f2060056040519161090d83611a11565b80546001600160a01b0390811684526001820154166020840152600281015460408401526003810154606084015260048101546080840152015460a08201526040519182918291909160a08060c0830194600180831b038151168452600180831b0360208201511660208501526040810151604085015260608101516060850152608081015160808501520151910152565b60e0366003190112610169576004356109b781610158565b6024356109c381610158565b604435916064356109d381610158565b6084356001600160401b038111610169576109f2903690600401610243565b9060a43592610a0084610158565b60c435966001600160401b03881161016957610a2361022b983690600401610243565b979096612f75565b608036600319011261016957600435610a4381610158565b602435906044356064356001600160401b03811161016957610a69903690600401610243565b600154604051635f35b0b360e01b815233600482015291939190602090829060249082906001600160a01b03165afa90811561038857610ab99161031e915f916103595750600160fc1b16151590565b6103455761023f9461033394613507565b9181601f84011215610169578235916001600160401b038311610169576020808501948460051b01011161016957565b90602080835192838152019201905f5b818110610b175750505090565b8251845260209384019390920191600101610b0a565b906020610b3e928181520190610afa565b90565b34610169576040366003190112610169576004356001600160401b03811161016957610b71903690600401610aca565b90602435610b7e81610158565b60648311610bff57610b8f836136a5565b925f5b818110610ba7576040518061023f8782610b2d565b80610bb560019284876136eb565b35610bbf81610158565b828060a01b03165f526002602052610bed84600d60405f20019060018060a01b03165f5260205260405f2090565b54610bf8828861370a565b5201610b92565b63d1b5191160e01b5f52601560045260245ffd5b805180835260209291819084018484015e5f828201840152601f01601f1916010190565b602081016020825282518091526040820191602060408360051b8301019401925f915b838310610c6957505050505090565b9091929394602080610c87600193603f198682030187528951610c13565b97019301930191939290610c5a565b6020366003190112610169576004356001600160401b03811161016957610cc1903690600401610aca565b90610cca6139b3565b610cd38261368e565b91610ce16040519384611a62565b808352601f19610cf08261368e565b015f5b818110610d755750505f5b818110610d1d5761023f84610d11613a10565b60405191829182610c37565b5f80610d2a83858761371e565b90610d3a6040518093819361375f565b0390305af4610d47613787565b9015610d6d5790600191610d5b828761370a565b52610d66818661370a565b5001610cfe565b602081519101fd5b806060602080938801015201610cf3565b3461016957610d9436610270565b5050600154604051635f35b0b360e01b815233600482015292939290602090829060249082906001600160a01b03165afa90811561038857610de69161031e915f916105c95750600160fb1b16151590565b610df75761023f92610333926137b6565b63d1b5191160e01b5f52600260045260245ffd5b346101695760a036600319011261016957600435602435610e2b816107c2565b60443591610e3883610158565b60643590610e4582610158565b6084356001600160401b03811161016957610e64903690600401610243565b50505f516020615cf95f395f51905f525c6001600160a01b031661148857335f516020615cf95f395f51905f525d6001600160a01b038216923384036105e857816060610ec9610ebc835f52600360205260405f2090565b546001600160a01b031690565b610f1b610ee360016103f1865f52600360205260405f2090565b610f0b610eee611b50565b6001600160a01b038a168152936001600160a01b03166020850152565b6001600160a01b03166040830152565b200361147457610f2961385f565b50610f3261385f565b50610f48610ebc835f52600360205260405f2090565b93610f61610f55866119c4565b54600160fe1b16151590565b61137157610f7d610f71866119c4565b54600160df1b16151590565b908161145a575b5061140b57610fa060016103f1845f52600360205260405f2090565b600154909190610fb8906001600160a01b03166104e6565b6040516354c2c80d60e11b815233600482015296909190602088602481865afa978815610388575f986113da575b50604051635f35b0b360e01b81526001600160a01b0382166004820152602081602481875afa801561038857611029915f916113b0575b50600160a01b16151590565b156113d457505f965b6001600160a01b03888116908216036113cf57505f5b604051635f35b0b360e01b81526001600160a01b038216600482015292602090849060249082905afa9283156103885761110793611092915f916113b05750600160a01b16151590565b156113ab57505f5b6110a3876119c4565b6110ac856119c4565b906110fc6110c2885f52600360205260405f2090565b936110dd6110ce611b41565b6001600160801b039097168752565b6001600160a01b038c1660208701526001600160a01b03166040860152565b336060850152614daa565b959194909661113133600d61111b866119c4565b019060018060a01b03165f5260205260405f2090565b5460018111611385575b50876001600160a01b0385166112d0575b61129c969594927f2d4fde7fbfc9831741bc5bb4c353d329bbce090cc45cd80c5b83854b11d09f66949261128c926112aa9a61119e61119260015460018060a01b031690565b8260801c9033906154ac565b89516111cc906001600160801b031660608c01516001600160801b03165b60018060801b03169060801b1790565b60208b01516111f7908c906111bc906080906001600160801b03165b9201516001600160801b031690565b835190929061123d90611220906001600160801b031660608701516001600160801b03166111bc565b60208601519095906111bc906080906001600160801b03166111e8565b604080516001600160a01b039a8b1681529a8a1660208c0152958916958a01959095526060890152608088015260a087015260c086015260e08501529091166101008301528190610120820190565b0390a2516001600160801b031690565b91516001600160801b031690565b906112b36139a1565b604080516001600160801b03928316815292909116602083015290f35b50916112e2610f5585939796956119c4565b6113715761128c61129c967f2d4fde7fbfc9831741bc5bb4c353d329bbce090cc45cd80c5b83854b11d09f66948a6112aa9a61132333600d61111b8a6119c4565b546001811161133f575b509a509250929450929495965061114c565b61136461136b9161135f6113598b600d61111b33926119c4565b60019055565b61389e565b338961417e565b5f61132d565b63d1b5191160e01b5f52600a60045260245ffd5b61139e6113a59161135f61135933600d61111b8a6119c4565b338561417e565b5f61113b565b61109a565b6113c9915060203d602011610381576103738183611a62565b5f61101d565b611048565b96611032565b6113fd91985060203d602011611404575b6113f58183611a62565b810190613889565b965f610fe6565b503d6113eb565b604080516001600160a01b0386168152602081018490527f3434161ad71656dd69664dc2b3ff55a125fb545ac99e0b75a4caaf434b43a6ca9190a163d1b5191160e01b5f52602860045260245ffd5b905061146d6104e660016103f1886119c4565b145f610f84565b63d1b5191160e01b5f52601360045260245ffd5b63d1b5191160e01b5f52600360045260245ffd5b34610169576114aa36610270565b509192909150336001600160a01b0383160361153a576001600160a01b038181165f908152600260205260409020600101546114e691166104e6565b330361059c5761151f7f3565888e983b51334ee2cf81a2c786753b76f4d597e9abc8ccf7cec646c18d669361151a836119c4565b61550e565b61152b610589826119c4565b0390a160405160018152602090f35b63d1b5191160e01b5f52602760045260245ffd5b346101695760803660031901126101695760043561156b81610158565b60243561157781610158565b6044359061158482610158565b6064356001600160401b038111610169576115a3903690600401610243565b5050600154604051635f35b0b360e01b815233600482015290602090829060249082906001600160a01b03165afa908115610388576115f29161031e915f916105c95750600160fb1b16151590565b610df7576115ff926138b9565b005b60a03660031901126101695760043561161981610158565b602435611625816107c2565b6044356001600160401b03811161016957611644903690600401610243565b60649391933561165381610158565b6084356001600160401b03811161016957611672903690600401610243565b50505f516020615cf95f395f51905f525c6001600160a01b031661148857335f516020615cf95f395f51905f525d6116a86139b3565b336001600160a01b038216036105e8576001606d1b6001600160801b036116e4866116df60026116d7896119c4565b015460801c90565b612412565b16116117a0577f4da5e4dc73c698b57d7750f90c121f11bcd1ea69b460a1b452ac645b6c2856a09461178d92611726916001600160801b038716338088613be1565b61174d6002611734856119c4565b0154608086901b6001600160801b038716175b90614474565b6002611758856119c4565b0155604080516001600160a01b0394851681526001600160801b03909516602086015292169183019190915281906060820190565b0390a1611798613a10565b6115ff6139a1565b63d1b5191160e01b5f52601260045260245ffd5b34610169576060366003190112610169576004356001600160401b038111610169576117e4903690600401610aca565b602435916117f183610158565b6044356001600160401b03811161016957611810903690600401610243565b50505f516020615cf95f395f51905f525c6001600160a01b031661148857335f516020615cf95f395f51905f525d336001600160a01b038416036105e857600154611863906001600160a01b03166104e6565b604051635f35b0b360e01b815233600482015290602090829060249082905afa80156103885761189f915f916103595750600160fc1b16151590565b156119be575f5b606483116119aa576118b7836136a5565b905f5b8481106119005750507f3168a9be83535a57972668503a3a2adf4c970048ad77b5a7f22adee81c6d500f936118f59160405194859485613931565b0390a16115ff6139a1565b8061192483600d61111b61191f61191a6001978c8c6136eb565b613700565b6119c4565b5461192f828661370a565b52600261193c828661370a565b5111611949575b016118ba565b61195c611956828661370a565b5161389e565b611966828661370a565b5261198161135984600d61111b61191f61191a878d8d6136eb565b6119a561199261191a8389896136eb565b61199c838761370a565b5190339061417e565b611943565b63d1b5191160e01b5f52601560045260245ffd5b336118a6565b6001600160a01b03165f90815260026020526040902090565b634e487b7160e01b5f52604160045260245ffd5b608081019081106001600160401b03821117611a0c57604052565b6119dd565b60c081019081106001600160401b03821117611a0c57604052565b60a081019081106001600160401b03821117611a0c57604052565b604081019081106001600160401b03821117611a0c57604052565b90601f801991011681019081106001600160401b03821117611a0c57604052565b90816020910312610169575190565b6040513d5f823e3d90fd5b6001600160a01b0391821681526020810192909252909116604082015260600190565b909190336001600160a01b0383160361153a576001600160a01b0381165f908152600260205260409081902080546001600160fe1b0316600360fe1b9095169490940193849055517f03ab867097b91902825dbf59eb6fc09c45d02b315e9eddc43105b6b21dd1cf929390928392611b39929084611a9d565b0390a1600190565b6040519061017a608083611a62565b6040519061017a606083611a62565b6040519061017a61014083611a62565b6040519061017a60c083611a62565b6040519061017a604083611a62565b6040519061017a60a083611a62565b90999893979096919392915f516020615cf95f395f51905f525c6001600160a01b031661148857335f516020615cf95f395f51905f525d611bdb6139b3565b5f905f92611beb610f558b6119c4565b61137157611bfb610f558e6119c4565b612322576002611c0a8b6119c4565b01541561230e576002611c1c8e6119c4565b0154156122fa576001600160a01b038516156122e65789918991888f888a6001600160a01b03871633036121d8575b505050505050505060018060a01b038b1660018060a01b03891614155f146120a857505091611d539891608094936003611c84896119c4565b01546003611c91866119c4565b01546002611c9e8b6119c4565b0154611ca98b6119c4565b5490611d146002611cb98a6119c4565b015493611d04611cc88b6119c4565b5496611cd2611b5f565b6001600160801b038c1681529d8e5f602082018190526040820181905260608201526001600160801b03909216910152565b6001600160801b031660a08c0152565b60c08a015260e0890152610100880152610120870152611d338661425b565b60e086015160208701516001600160801b03169b611d7591611d62918e90565b607f6127109260c51c16020490565b9b6001600160801b031660808d901b1790565b6060870151909990633b9aca006001600160801b039091161061209457608084901c6001600160801b038b1681108061208b575b61207757610100880151611de4611dd8611dc76101208c0151612383565b600a6001600160801b039091160490565b6001600160801b031690565b6001600160801b039091161061206357610100880151611e0a611dd8611dc78360801c90565b6001600160801b039091161061206357611e5d611dd8611e4d611e4860026116d78f96611e429083611e3b8a6119c4565b0154612412565b966119c4565b61239e565b611e568d6119c4565b549061236a565b6001600160801b039091161161204f5760c08701518a969060808e901b6001600160801b038f1617611e8e91614474565b60c089015260408801516001600160801b0316611eab818761236a565b6001600160801b031660809190911b179c611ec69088612412565b6001600160801b0316611edc9290338b8d613be1565b611ee5886119c4565b60c0870151611ef49160020155565b611efd846119c4565b6101008701519081611f0f9160020155565b5f516020615cb95f395f51905f5296611fc894611f8692336001600160a01b038c1603611fde5750611f4b906001600160801b0316848861417e565b611f80611dd86080611f71611f6c611dd8606087015160018060801b031690565b61242b565b9301516001600160801b031690565b9061235d565b6040805191825260208201969096529485018b90526001600160a01b0396871660608601528616608085015260a08401529084169490931692819060c0820190565b0390a35b611fd4613a10565b919061017a6139a1565b60a083015161204a9261203d92611dd89261201091612005916001600160801b03166111bc565b8060c088015261413f565b9061202033600d61111b8e6119c4565b8054612036906001600160801b0385169061235d565b905561236a565b8060c0840152848861417e565b611f4b565b63d1b5191160e01b5f52602160045260245ffd5b63d1b5191160e01b5f52601060045260245ffd5b63d1b5191160e01b5f52600f60045260245ffd5b50801515611da9565b63d1b5191160e01b5f52600e60045260245ffd5b97846120c09394959896929b5060801c338888613be1565b336001600160a01b03851603612156579161214e5f9594925f516020615cb95f395f51905f52946120fa60018060801b038816828661417e565b6004612105856119c4565b0154604080518d815260208101999099526001600160801b03909116908801526001600160a01b0394851660608801528416608087015260a086015291169290819060c0820190565b0390a3611fcc565b965093505f92918161214e61218a600261217d5f516020615cb95f395f51905f52966119c4565b0154600361070d856119c4565b966121c7611dd861219a8a61413f565b6121a933600d61111b896119c4565b80546121bf906001600160801b0384169061235d565b90558861236a565b996121d38b828661417e565b6120fa565b6122d9976122a66122d093612298612298968b956121f4612e89565b6001600160a01b0388165f908152600460205260409020909a909283549361221b8561234a565b9055604080517f1cfa91eee0718551e215390e1b9e4415f9b0503ef5142a13c6cc6360cf031c70602082019081526001600160a01b039b8c1692820192909252968a166060880152978916608087015290971660a085015260c084019690965260e083019590955261010082019490945291928290610120820190565b03601f198101835282611a62565b519020604051928391602083019586909160429261190160f01b8352600283015260228201520190565b51902091613adc565b87875f80888f888a611c4b565b63d1b5191160e01b5f52602060045260245ffd5b63d1b5191160e01b5f52600d60045260245ffd5b63d1b5191160e01b5f52600c60045260245ffd5b63d1b5191160e01b5f52600b60045260245ffd5b634e487b7160e01b5f52601160045260245ffd5b5f1981146123585760010190565b612336565b9190820180921161235857565b6001600160801b03918216908216039190821161235857565b6001600160801b03908116600b029081169190820361235857565b60011b6002600160801b03811691906002600160811b0316820361235857565b6001600160801b03918216908216029081169190820361235857565b634e487b7160e01b5f52601260045260245ffd5b6001600160801b0390911690811561240d576001600160801b03160490565b6123da565b6001600160801b03918216908216019190821161235857565b908160801b91808304600160801b149015171561235857565b908160011b918083046002149015171561235857565b90600a820291808304600a149015171561235857565b908160021b918083046004149015171561235857565b8181029291811591840414171561235857565b949396929795919850985060018060a01b035f516020615cf95f395f51905f525c1661148857335f516020615cf95f395f51905f525d6124d76139b3565b336001600160a01b038616036105e8578860801c956207a12087108015612883575b61286f5761251861031e61250c876119c4565b54600160ff1b16151590565b61285b576001600160a01b0361253260016103f18c6119c4565b166128475761255a93612548918833338d613be1565b6001600160801b038916338086613be1565b6125e9612565612890565b80976125a6612596612585600361257b886119c4565b0154608081901c91565b6001600160801b031660a086015290565b6001600160801b03166080840152565b6125db6125cb6125ba600261257b886119c4565b6001600160801b031660e086015290565b6001600160801b031660c0840152565b6125e4846119c4565b6145b4565b6040860180519096906601c6bf526340006001600160801b03909116106128335786856127cc6126ed6111bc61129c6127be8a6127807f59e8716fdd43a35e308f576e8957d9f76555c11daf3abf774d406ea971bad2fa9f8f9061277b9f61281d9f9161267f6126859361266d61265f876119c4565b93516001600160801b031690565b60801b6001600160801b039091161790565b9061491d565b60608c6126ab612693611b50565b338152916001600160a01b0385166020840152610f0b565b209e8f8d8d8d6127016126ed6126df6126cd602086015160018060801b031690565b6001600160801b031660808c901b1790565b92516001600160801b031690565b608081901b6001600160801b039091161790565b9061275961272e606060808c901b6001600160801b038d161795018051909f6001600160801b0390911690565b9461274961273a611b6f565b6001600160a01b03909a168a52565b6001600160a01b03166020890152565b60408701526060860152608085015260a08401525f52600360205260405f2090565b6128fc565b6001546111bc906127b0906001600160a01b03168a516127a8906001600160801b031661239e565b90339061498e565b98516001600160801b031690565b96516001600160801b031690565b604080519889526001600160a01b03998a1660208a01529489169488019490945260608701526001600160801b0316608086015260a085015260c084015290921660e0820152908190610100820190565b0390a1612828613a10565b60019061017a6139a1565b63d1b5191160e01b5f52602360045260245ffd5b63d1b5191160e01b5f52600560045260245ffd5b63d1b5191160e01b5f52600660045260245ffd5b63d1b5191160e01b5f52602460048190525ffd5b506001606d1b87116124f9565b6040519061010082018281106001600160401b03821117611a0c576040525f60e0838281528260208201528260408201528260608201528260808201528260a08201528260c08201520152565b80546001600160a01b0319166001600160a01b03909216919091179055565b9060a0600591612914600180841b03825116856128dd565b61292c600180841b03602083015116600186016128dd565b6040810151600285015560608101516003850155608081015160048501550151910155565b929850929650949293919290915f516020615cf95f395f51905f525c6001600160a01b031661148857335f516020615cf95f395f51905f525d6129926139b3565b336001600160a01b038316036105e8576129aa612890565b946129b3612890565b6001600160a01b03868116989193919086168914612e75576129d7610f55876119c4565b6113715760026129e6876119c4565b01541561230e576129f961250c876119c4565b8015612e63575b15612e4f576001606d1b6001600160801b03612a21836002611e3b8b6119c4565b16116117a057612a39612a33876119c4565b54614a11565b9815998a159b8c612e02575b612a9a928b928b92612a6491906001600160801b03841633808e613be1565b612a78612596612585600361257b8d6119c4565b612a8c6125cb6125ba600261257b8d6119c4565b612a95896119c4565b61473f565b604087018051909a90620f42406001600160801b0390911610612dee57612c9e575b5050612ac6611b50565b3381526001600160a01b03848116602083015285166040820152606090208851909690612afd9082906001600160801b03166123ee565b9889612b11895f52600360205260405f2090565b60208981015190860151845160608c018051909694938b936001600160801b0319608092831b81166001600160801b039283161794898316931b16919091179116612b5c89826123ee565b6001600160801b031660809190911b1760608a01805190999193918e916001600160801b031690612b8d90826123ee565b6001600160801b031660809190911b1794612ba796614a7c565b516001600160801b031660801b6001600160801b039091161796516001600160801b031690516001600160801b03166001600160801b031660809190911b1791516001600160801b031690516001600160801b03166001600160801b031660809190911b17604080516001600160a01b03958616815295851660208701528501959095526060840152608083019390935290911660a08201528060c08101037fa3d1c17321235d7b3e7c858b63394225497205157b38292a9ccdeae73116ce2091a2612c87919015612c90575b60015433906001600160a01b031661498e565b50612828613a10565b612c999061239e565b612c74565b612caa610f55876119c4565b612322576002612cb9876119c4565b0154156122fa57612de791612ddf611dd8612dce8b612dc98f612d51838b8f93612d64612db891612d5e61129c60806111bc61129c612d51612d2f600261257b8f61191f8e612d0c600361257b856119c4565b6001600160801b031660a083019081529a90916001600160801b03909216910152565b6001600160801b031660e08c0190815291906001600160801b031660c08c0152565b516001600160801b031690565b90614160565b6001600160801b0316606083019081529461191f612dab612d84836119c4565b548851612d99906001600160801b0316611dd8565b603f6127109260d91c16820390040290565b6001600160801b03168752565b84516001600160801b03169061473f565b6123ee565b86516001600160801b031690612412565b333389613be1565b5f80612abc565b63d1b5191160e01b5f52602660045260245ffd5b9099612a9a928a91612e19611dd8612a338d6119c4565b6001600160801b0382161015612e3a57612a64905b9c939250509250612a45565b50612a64612e4a612a338c6119c4565b612e2e565b63d1b5191160e01b5f52601160045260245ffd5b50612e7061250c886119c4565b612a00565b63d1b5191160e01b5f52600960045260245ffd5b467f000000000000000000000000000000000000000000000000000000000000000003612ed4577f000000000000000000000000000000000000000000000000000000000000000090565b600d6020604051612ee6604082611a62565b828152016c151514ddd85c17d3585c9ad95d609a1b81522060405160208101917f8b73c3c69bb8fe3d512ecc4cf759cc79239f7b179b0ffacaa9a75d522b39400f835260408201527fc89efdaa54c0f20c7adf612882df0950f5a951637e0307cdcb4c672f298b8bc660608201524660808201523060a082015260a08152612f6f60c082611a62565b51902090565b9698979290919395949860018060a01b035f516020615cf95f395f51905f525c1661148857858891335f516020615cf95f395f51905f525d612fb56139b3565b6001600160a01b038216958733889003613447575b50505050610f55612fda916119c4565b61137157612fea610f55836119c4565b612322576002612ff9886119c4565b01541561230e57600261300b836119c4565b0154156122fa576001600160a01b0387811690831614612e75576001600160a01b0381168015159084908261343c575b50506133c3575b61305c6002613050896119c4565b01548560801c90612412565b613080611dd861307760026130708c6119c4565b015461239e565b611e568b6119c4565b6001600160801b039091161161204f57613099876119c4565b60030154956130a7836119c4565b60030154916130b5896119c4565b600201546130c28a6119c4565b54956130cd866119c4565b600201546130da876119c4565b54976130e4611b5f565b60808b901c8152935f602086018181526040870182815260608801929092526001600160801b03909e1660808701529c976001600160801b031660a086015260c085015260e0840152610100830152610120820196875261314482614b1a565b60608201516001600160801b0316633b9aca00116120945784516001600160801b03166001600160801b038981169116811190816133b9575b5061207757610100820151613198611dd8611dc78a51612383565b6001600160801b0390911610612063576101008201516131be611dd8611dc78360801c90565b6001600160801b03909116106120635760c08201518a518c9b916131f59160808c811c91901b6001600160801b0319161790614474565b60c0840152516001600160801b03166132128160808b901c61236a565b6001600160801b031660809190911b1796518551979b8c989091906001600160801b03166001600160801b031661271060cc9290921c607f160204610100840151909690608088901b6001600160801b0389161761326f91614474565b610100850152516001600160801b03166001600160801b0316608087901b179d8e9561329a836119c4565b60c08601516132a99160020155565b6132b2896119c4565b6101008601516132c29160020155565b8a60801c8c33906132d295613be1565b33145f1496611fc894613330946060947f097e01976dafa32bafca14bb579cfb2746ba03305cba7722aca4b9f23c75406d9a6133705750613322925061331b91611dd89161236a565b898761417e565b01516001600160801b031690565b604080516001600160801b03909216825260208201949094529283018990526001600160a01b039485166060840152908416949093169281906080820190565b9150506133a7611dd86133b49361201061339c6101008801516111bc60a08a015160018060801b031690565b8060c089015261413f565b908160c08501528761417e565b613322565b905015155f61317d565b6001546133d8906001600160a01b03166104e6565b803b15610169576040516307543e3f60e41b81526001600160a01b03878116600483015283166024820152905f908290604490829084905af1801561038857613422575b50613042565b806134305f61343693611a62565b80610884565b5f61341c565b14159050835f61303b565b6122986122d0856134fd976122a68a6122988d613462612e89565b6001600160a01b0387165f908152600460205260409020909990918254926134898461234a565b9055604080517f3ea6f2194a207bf306e1d71f7b13fdb83616cf8e7929f8c3ac0992358743cb8d602082019081526001600160a01b039a8b16928201929092529589166060870152968816608086015290961660a084015260c083019590955260e082019490945291928290610100820190565b86855f8087612fca565b9293906135126139b3565b600160ff1b83161561367b576001600160a01b0361353460016103f1876119c4565b16612847577f8f2eb922ee1b2f92e0051f7949a8c191264807725a1e435e91abebd28583830a9461366d92613575916001600160801b038416338089613be1565b6135888382613583876119c4565b61491d565b613599613594856119c4565b614c85565b6135ba6135a5856119c4565b80546001600160fe1b0316600160ff1b019055565b60606135c4611b50565b3381526001600160a01b03861660208201525f6040820152209261362c6135f3855f52600360205260405f2090565b612c746136008560801b90565b608086901c92906001600160801b031987168417908a608089901b6001600160801b038a161793614a26565b604080519586526001600160a01b0390961660208601526001600160801b0316948401949094526060830193909352608082019290925290819060a0820190565b0390a160019061017a613a10565b63d1b5191160e01b5f526004805260245ffd5b6001600160401b038111611a0c5760051b60200190565b906136af8261368e565b6136bc6040519182611a62565b82815280926136cd601f199161368e565b0190602036910137565b634e487b7160e01b5f52603260045260245ffd5b91908110156136fb5760051b0190565b6136d7565b35610b3e81610158565b80518210156136fb5760209160051b010190565b91908110156136fb5760051b81013590601e19813603018212156101695701908135916001600160401b038311610169576020018236038113610169579190565b908092918237015f815290565b6001600160401b038111611a0c57601f01601f191660200190565b3d156137b1573d906137988261376c565b916137a66040519384611a62565b82523d5f602084013e565b606090565b909190336001600160a01b0383160361153a576137d283614cb4565b1561384b576001600160a01b0381165f9081526002602052604090206137f784614cb4565b1561384b578054600164018000000160df1b0316637fffffff60df1b909416939093019092557f03ab867097b91902825dbf59eb6fc09c45d02b315e9eddc43105b6b21dd1cf9291611b39610589826119c4565b63d1b5191160e01b5f52601860045260245ffd5b6040519061386c82611a2c565b5f6080838281528260208201528260408201528260608201520152565b908160209103126101695751610b3e81610158565b5f1981019190821161235857565b9190820391821161235857565b6001600160a01b03909216919033830361153a577f897f45ea25c9eacf3b9c858435185679a3ddad8f736e61b504244a64a3fe871b9260609260018060a01b031691825f52600260205261391381600160405f20016128dd565b604080519384526001600160a01b03919091166020840152820152a1565b929091949394806060850160608652526080840192905f5b81811061397757505050816139679184604094036020860152610afa565b6001600160a01b03909416910152565b909193602080600192873561398b81610158565b848060a01b031681520195019101919091613949565b5f5f516020615cf95f395f51905f525d565b5f516020615cd95f395f51905f525c156139eb575b60015f516020615cd95f395f51905f525c015f516020615cd95f395f51905f525d565b345f516020615d195f395f51905f525d5f5f516020615cd95f395f51905f525d6139c8565b5f195f516020615cd95f395f51905f525c015f516020615cd95f395f51905f525d5f516020615cd95f395f51905f525c1580613a8e575b613a4d57565b5f8080805f516020615d195f395f51905f525c815f516020615d195f395f51905f525d335af115613a7a57565b63d1b5191160e01b5f52601f60045260245ffd5b505f516020615d195f395f51905f525c1515613a47565b9190826040910312610169576020823592013590565b60ff601b9116019060ff821161235857565b90604010156136fb5760400190565b9060418103613b955790602092613b4783613b1f613b19613b0b613b035f98880188613aa5565b949097613acd565b356001600160f81b03191690565b60f81c90565b935b604051948594859094939260ff6060936080840197845216602083015260408201520152565b838052039060015afa15610388575f516001600160a01b0316908115613b86576001600160a01b031603613b7757565b632057875960e21b5f5260045ffd5b638baa579f60e01b5f5260045ffd5b9060408203613bd257602092613bb2825f94613b47940190613aa5565b9092906001600160ff1b03811690613bcc9060ff1c613abb565b93613b21565b634be6321b60e01b5f5260045ffd5b6001600160801b0390931694919390929160016001600160a01b03841603613c21575050506001600160a01b039081169116036105e85761017a90615c6e565b9394929380613c4e57509293919250906001600160a01b038085169116036105e85761017a923091615c1a565b90613c5b91810190615588565b60ff613c68825160ff1690565b169460028603613e405750613c8e91929394506020015160208082518301019101615799565b6001600160a01b03821690736b175474e89094c44da98b954eedeac495271d0f8203613dba57604051623f675f60e91b81526001600160a01b038616600482015291602090839060249082905afa90811561038857613d725f939284938491613d9b575b50612298602084015193613d0a604082015160ff1690565b60608201516080909201516040516323f2ebc360e21b60208201526001600160a01b038d16602482015230604482015260648101959095526084850196909652600160a485015260ff1660c484015260e4830152610104820193909352918290610124820190565b60208151910182855af115613d8c5761017a923091615c1a565b63203aa5b560e11b5f5260045ffd5b613db4915060203d602011610381576103738183611a62565b5f613cf2565b5f915080613e3b839251612298602084015193613ddb604082015160ff1690565b606082015160809092015160405163d505accf60e01b60208201526001600160a01b038d1660248201523060448201526064810195909552608485019690965260ff1660a484015260c483015260e4820193909352918290610104820190565b613d72565b919460038103613ee25750506001600160a01b038381169116036105e857613e6790615c01565b6e22d473030f116ddee9f6b43ac78ba33b1561016957604051631b63c28b60e11b81526001600160a01b0392831660048201523060248201529082166044820152911660648201525f81608481836e22d473030f116ddee9f6b43ac78ba35af1801561038857613ed45750565b806134305f61017a93611a62565b9091506004810361403357506020613f0591015160208082518301019101615629565b90613fba613f138351615c01565b92613f6d613f2a604083015165ffffffffffff1690565b613f52613f35611b41565b6001600160a01b038a168152966001600160a01b03166020880152565b65ffffffffffff604087015265ffffffffffff166060860152565b6020810151613f7a611b50565b9485523060208601526040850152608081015190613fb4613fa4606060a084015193015160ff1690565b60f81b6001600160f81b03191690565b91615682565b916e22d473030f116ddee9f6b43ac78ba33b15610169576040516302b67b5760e41b8152925f9184918291613ff491908860048501615721565b0381836e22d473030f116ddee9f6b43ac78ba35af191821561038857613e679261401f575b50615c01565b806134305f61402d93611a62565b5f614019565b929392600514614044575b50505050565b61405e60206140cc92015160208082518301019101615629565b805161407a61406b611b7e565b6001600160a01b039096168652565b60208501526040810151602082015190614092611b50565b958652602086015260408501526140a7611b7e565b308152926020840152608081015190613fb4613fa4606060a084015193015160ff1690565b916e22d473030f116ddee9f6b43ac78ba33b15610169576141035f93604051958694859463187945bd60e11b8652600486016156ad565b0381836e22d473030f116ddee9f6b43ac78ba35af180156103885761412b575b80808061403e565b806134305f61413993611a62565b5f614123565b610b3e906001600160801b03811660809190911c642e90edd00002046157e8565b610b3e916001600160801b0380831660809390931c911602046157e8565b60016001600160a01b038216036141b457505f808061419f9481945af11590565b6141a557565b633607a14f60e11b5f5260045ffd5b60405163a9059cbb60e01b81526001600160a01b03909216600483015260248201929092526020905f9060449082855af19081601f3d1160015f511416151661420f575b501561420057565b633c9fd93960e21b5f5260045ffd5b3b153d171590505f6141f8565b1561422357565b60405162461bcd60e51b815260206004820152600660248201526506220697320360d41b6044820152606490fd5b811561240d570490565b61012081015181516001600160801b03166001600160801b031661271060cc9290921c607f1602046001600160801b03166040820190815281516001600160801b031681516001600160801b03166142b291612412565b6001600160801b03908116835260c08301805160a0850180519095936142dc929181169116612486565b82516001600160801b03166001600160801b03166142f991612486565b61430290612444565b6080830180516101008501805190979293929161432b916001600160801b039081169116612486565b61433490612444565b8351865161434e916001600160801b039182169116612486565b614357916138ac565b90518551614371916001600160801b039182169116612486565b61437a916138ac565b6143876103e8821161421c565b61439091614251565b614399906157e8565b6001600160801b03166020840190815290516001600160801b0316825182516001600160801b031660011c60016001607f1b03166143d691612412565b6001600160801b031660809190911b1781516001600160801b03166143fa91614160565b6001600160801b03166060840152815190516001600160801b03166001600160801b031661442791614474565b9052825190516001600160801b03166001600160801b03166144489161584c565b80835290516001600160801b0316608081901b6001600160801b039091161761447091614474565b9052565b608082811c9082901c818101936001600160801b03908116931683810193918510159283614549575b508261453e575b5081614533575b5080614523575b80614513575b156144ce57610b3e9160801b61235d565b61235d565b60405162461bcd60e51b815260206004820152601b60248201527f54545377617055494e543235363a20616464206f766572666c6f7700000000006044820152606490fd5b506001600160801b0382106144b8565b506001600160801b0381106144b2565b90508110155f6144ab565b83101591505f6144a4565b85101592505f61449d565b90916145a59161459b906145886145786001600160801b038716608084901c612486565b6001600160801b03851690612486565b9460801c906001600160801b0316612486565b9060801c90612486565b10156145b057600190565b5f90565b919061473b9161462861461b60016146166145cf82876123be565b6001600160801b031660608601818152895490979161460491612dab916145f590611dd8565b603f6127109260d91c16020490565b85516001600160801b03165b9061236a565b6123be565b6001600160801b03168352565b60a08101516147199061466590614655906001600160801b031660e08501516001600160801b03166111bc565b84516001600160801b0316612d5e565b6001600160801b0316604083019081529160808101516146af9061469f906001600160801b031660c08401516001600160801b03166111bc565b85516001600160801b0316612d5e565b6001600160801b031660208201908152906146f760028801916146e083546117476126ed8a5160018060801b031690565b8084559051611747906001600160801b03166126ed565b905560038601805491519093611747916111bc906001600160801b031661129c565b90558254905161174790611dd8906001600160801b03166146106001826123ee565b9055565b9290918161474d81856123be565b6001600160801b03166060830190815293855485516001600160801b03166001600160801b031661271060d99290921c603f1602046001600160801b0316835282516001600160801b03166147a19161236a565b906147ab916123be565b6001600160801b0316835260a08101516001600160801b031660e08201516001600160801b03166001600160801b031660809190911b1783516001600160801b03166147f691614160565b6001600160801b0316604082019081529060808101516001600160801b031660c08201516001600160801b03166001600160801b031660809190911b1784516001600160801b031661484791614160565b6001600160801b0316602082019081529060028601805486519192916001600160801b0316608081901b6001600160801b039091161761488691614474565b80835590516001600160801b0316608081901b6001600160801b03909116176148ae91614474565b905560038501805491519092906001600160801b031690516001600160801b03166001600160801b031660809190911b176148e891614474565b9055825491516001600160801b03169061490290826123ee565b61490b9161236a565b6001600160801b031661473b91614474565b6001600160801b03808316608084811b91821760028501559390931c9092176003820155653fffffffffff60b11b90921662c3508160e61b01919060019061496484614a11565b161161497a5761017a91815560013391016128dd565b63d1b5191160e01b5f52601960045260245ffd5b60405163067e356d60e21b81526001600160a01b0392831660048201526001600160801b03939093166024840152602091839160449183915f91165af1908115610388575f916149dc575090565b90506020813d602011614a09575b816149f760209383611a62565b810103126101695751610b3e816107c2565b3d91506149ea565b60bb1c603f168015614a205790565b50600190565b6003614a639161473b95939694600482019760018060801b0389541615614a6c575b50614a5860028301918254614474565b905501918254614474565b90558254614474565b614a7690836128dd565b5f614a48565b94909293614abb9294600487019460018060801b0386541615614b0a575b50614aaa60028801918254614474565b9055614a6360038701918254614474565b90556001600160a01b038116614ad057505050565b60018201805461473b936005939092916001600160a01b031615614afa575b505001918254614474565b614b03916128dd565b5f80614aef565b614b1490886128dd565b5f614a9a565b614b6c614b5f614b3b60e0840151611d53611dd8865160018060801b031690565b6001600160801b0316604084019081528351614610906001600160801b031661129c565b6001600160801b03168252565b614470614bea614be5614bb0614bab614b91611dd8608088015160018060801b031690565b8651614ba5906001600160801b0316611dd8565b90612486565b612444565b60c0850151614bdf90614bcb906001600160801b0316612444565b8651611f80906001600160801b0316611dd8565b90614251565b6157e8565b6001600160801b03166060830190815291614c696020614c59614be5610100850196614bdf614c39614bab614c258b5160018060801b031690565b8451614ba5906001600160801b0316611dd8565b91611f80611dd86126df614bab611dd860a08d015160018060801b031690565b6001600160801b03169201918252565b82519051614c7f906001600160801b0316611dd8565b9061584c565b614c9462c3508160e61b614cb4565b1561384b578054600164018000000160df1b031662c3508160e61b019055565b905f91614cd2614ccd614cc78360fb1c90565b60071690565b61245a565b90614ce3614bab614cc78360f71c90565b614cf8614cf3614cc78460f41c90565b612470565b614d0b614d058460ef1c90565b601f1690565b91614d26614d05614d1f614d058760ea1c90565b9560e51c90565b9480158015614da2575b8015614d9a575b8015614d92575b8015614d8a575b8015614d82575b614d7a575b606495936144c96144c9946144c9614d6d98956144c99561235d565b14614d7457565b60019150565b5f9750614d51565b508515614d4c565b508415614d45565b508315614d3e565b508215614d37565b508115614d30565b91939093614db661385f565b50614dbf61385f565b84519094906001600160801b031695600483015491614dde8360801c90565b976002850190614e71614e2a61469f8c614e1785614e12614e00895460801c90565b9360801b6001600160801b0385161790565b614160565b9860801b6001600160801b039091161790565b614e61614e35611b8d565b5f808252602082019081526001600160801b039095166040820152976001600160801b03166060890152565b6001600160801b03166080870152565b614ecc859a6111bc614eb960038a015492614ea6614e938261266d8760801c90565b60608c01516001600160801b0316612d5e565b9360801b6001600160801b039091161790565b60608901516001600160801b0316612d5e565b9780549160038201805490614ee4611dd883876158fe565b8c60801c116154985760608901516001600160801b0316946002850192835496614f11611dd889856158fe565b6001600160801b039091161161548457614f79614f8991614f65614f58614f96958f611dd86060614f4992015160018060801b031690565b603f6127109260d31c16020490565b6001600160801b03168852565b6111bc614f728a60801c90565b9160801c90565b89516001600160801b0316612d5e565b6001600160801b03168a52565b88516001600160801b03168351614fb5906001600160801b0316611dd8565b6001600160801b03909116106154485788516150db95614fe191614c7f906001600160801b03166126ed565b82556150048c614c7f8b61266d604086549460801c92015160018060801b031690565b9055805482516150219190611747906001600160801b03166126ed565b9055815460608801516150539190614c7f90611dd8906001600160801b031660808c01516001600160801b0316614610565b8255865161507b90614f58906001600160801b031660608a01516001600160801b0316614610565b86516001600160801b031660208601519091906001600160a01b031660408701516150c3906001600160a01b031660808b0151909390614610906001600160801b031661129c565b60608801519093906001600160a01b03165b94615918565b60018501546001600160a01b031661516d575b505050604081015161017a929190859061513f90615122906001600160801b031660408a01516001600160801b03166111bc565b60608401519093906111bc906080906001600160801b03166111e8565b6060880151909290615167906001600160801b031660808a01516001600160801b03166111bc565b93615ba2565b90939291965054926152356151aa61519a6151888760801c90565b9660801b6001600160801b0388161790565b83516001600160801b0316612d5e565b946152256151ee61469f6005880154936151db6151cb8261266d8860801c90565b88516001600160801b0316612d5e565b9460801b6001600160801b039091161790565b916152156151fa611b8d565b5f80825260208201526001600160801b0390991660408a0152565b6001600160801b03166060880152565b6001600160801b03166080860152565b839680549160038201549261524d611dd885836158fe565b8960801c116154705760608701516001600160801b031693600284015494615278611dd887856158fe565b6001600160801b039091161161545c576152e0916152b9614f896152a66152d0946111bc614f728b60801c90565b60408c01516001600160801b0316612d5e565b6060890151614f49906001600160801b0316611dd8565b6001600160801b03166020880152565b85516001600160801b03166020870151615302906001600160801b0316611dd8565b6001600160801b0390911610615448578561533361543f94614c7f6126ed606061017a9b015160018060801b031690565b60028401556003830154604082015161535b9190614c7f908c906001600160801b031661266d565b6003840155600283015460208201516153819190611747906001600160801b03166126ed565b6002840155825460608201516153b69190614c7f90611dd8906001600160801b031660808601516001600160801b0316614610565b835580516153de90614b5f906001600160801b031660608401516001600160801b0316614610565b80516001600160801b031660208301516001600160a01b0316906150d56060615430615413604088015160018060a01b031690565b6080870151909690614610906020906001600160801b03166111e8565b9501516001600160a01b031690565b90915f806150ee565b63d1b5191160e01b5f52602260045260245ffd5b63d1b5191160e01b5f52601d60045260245ffd5b63d1b5191160e01b5f52601c60045260245ffd5b63d1b5191160e01b5f52601b60045260245ffd5b63d1b5191160e01b5f52601a60045260245ffd5b6001600160a01b031691823b1561016957604051637bd3ca3560e01b81526001600160a01b039290921660048301526001600160801b03166024820152905f908290604490829084905af18015610388576155045750565b5f61017a91611a62565b90815490601f8260e01c168015615575575b6001600160801b0361553183614a11565b166001600160801b039091161061556157653fffffffffff60b11b16653fffffffffff60b11b1991909116019055565b63d1b5191160e01b5f52601760045260245ffd5b506001615520565b60ff81160361016957565b602081830312610169578035906001600160401b03821161016957019060408282031261016957604051916155bc83611a47565b80356155c78161557d565b83526020810135906001600160401b038211610169570181601f82011215610169578035906155f58261376c565b926156036040519485611a62565b8284526020838301011161016957815f9260208093018386013783010152602082015290565b908160c09103126101695760a06040519161564383611a11565b80518352602081015160208401526040810151604084015260608101516156698161557d565b606084015260808101516080840152015160a082015290565b929190604051936020850152604084015260ff60f81b1660608301526041825261017a606183611a62565b9092615705610100936040610b3e97966156da8682516020809160018060a01b0381511684520151910152565b60208181015187840152910151606086015281516001600160a01b03166080860152015160a0840152565b6001600160a01b031660c082015260e081018290520190610c13565b6040610b3e94936101009360018060a01b0316835265ffffffffffff6060825160018060a01b03815116602087015260018060a01b036020820151168587015282858201511682870152015116608084015260018060a01b0360208201511660a0840152015160c08201528160e08201520190610c13565b908160a0910312610169576080604051916157b383611a2c565b805183526020810151602084015260408101516157cf8161557d565b6040840152606081015160608401520151608082015290565b6001600160801b03811691908290036157fd57565b60405162461bcd60e51b815260206004820152602160248201527f54545377617055494e543235363a20746f55696e74313238206f766572666c6f6044820152607760f81b6064820152608490fd5b608082811c9082901c818103936001600160801b0390811693168381039382861115939291846158f3575b846158e8575b5050826158dd575b50501561589857610b3e9160801b61235d565b60405162461bcd60e51b815260206004820152601b60248201527f54545377617055494e543235363a20737562206f766572666c6f7700000000006044820152606490fd5b101590505f80615885565b101592505f8061587d565b808611159450615877565b60b11c6103ff16801561591457610b3e916123ee565b5090565b80549194939192909190615942606460e586901c601f166001600160801b0389160204809761236a565b6001600160801b03811695909390600a60fb87901c60071688020493603260f788901c600f168902049661599a601960f483901c6007168b020499606460ef84901c601f168202049290601f60649260ea1c16020490565b986001600160a01b038316615a76575050506159b69084612412565b6001600160801b031690600d01976159de90899060018060a01b03165f5260205260405f2090565b908154906159eb9161235d565b90556159f78585612412565b6001600160801b03166001600160a01b039091165f90815260208890526040902090815490615a259161235d565b9055615a309161236a565b90615a3a9161236a565b90615a449161236a565b90615a4e91612412565b6001600160801b031690615a69905f805260205260405f2090565b9081549061473b9161235d565b615b599750908461473b9b92615b6f9b9597611dd899959e9b615aa560016116df9a015460018060a01b031690565b6001600160a01b03811615615b91576001600160a01b03165f908152600d850160205260409020615ae4905b805490926001600160801b03169061235d565b90555b6001600160a01b03811615615b77576001600160a01b03165f908152600d8084016020526040909120615b3c93615ad1939091615b219085565b90555b019d8e9060018060a01b03165f5260205260405f2090565b9055615b52615ad18c5f805260205260405f2090565b9055612412565b939060018060a01b03165f5260205260405f2090565b91825461235d565b50600d615b8b615ad192615b3c9496612412565b94615b24565b50615b9c9195612412565b93615ae7565b90939161473b9360029360018060a01b03600185015416615bea575b50615bce6004840191825461584c565b9055615bdf6003830191825461584c565b90550191825461584c565b615bf96005850191825461584c565b90555f615bbe565b6001600160a01b038116908103615c155790565b505f90565b6040516323b872dd60e01b81526001600160a01b03928316600482015292909116602483015260448201929092526020905f9060649082855af19081601f3d1160015f511416151661420f57501561420057565b5f516020615d195f395f51905f525c8111615ca4575f516020615d195f395f51905f525c035f516020615d195f395f51905f525d565b63d1b5191160e01b5f52601e60045260245ffdfe79351e13a68104b7e2fa343f873a183f9cb1bd750602381bb9d65bfe1f2a868c87b52c29898e62efc1f9a9b00a26dcbdaee98d728c56841703077b7c0d20dee7e2afc7ec4dbb9bfdb1b8e8bcf21a055747c25bf2faaea9cb5a134005381f4843cbe27d488af5b5c1b0bd8d89be6fdfeaed3ad42719044fd9b728f33df1d6f1d1a26469706673582212206ad2744783fd907204540ba33ec322a853a2d5461c9c70e03aeac772f57fe30064736f6c634300081d0033","linkReferences":{}},"methodIdentifiers":{"DOMAIN_SEPARATOR()":"3644e515","buyGood(address,address,uint256,address,bytes,address,bytes)":"4dbfc09f","changeGoodOwner(address,address,address,bytes)":"d8df5233","collectCommission(address[],address,bytes)":"eaf3eda0","disinvestProof(uint256,uint128,address,address,bytes)":"c89a2fce","getGoodState(address)":"08238466","getProofState(uint256)":"3f117740","getRecentGoodState(address,address)":"00796f71","goodWelfare(address,uint128,bytes,address,bytes)":"e53cca45","initGood(address,uint256,address,uint256,bytes,bytes,address,bytes)":"15f92b02","initMetaGood(address,uint256,uint256,bytes)":"51ff9a16","investGood(address,address,uint128,bytes,bytes,address,bytes)":"1e88c0b2","ishigher(address,address,uint256)":"1412723a","lockGood(address,address,bytes)":"0dcbe42b","modifyGoodConfig(address,uint256,address,bytes)":"ae6ef6ca","modifyGoodCoreConfig(address,uint256,address,bytes)":"02b7f524","multicall(bytes[])":"ac9650d8","payGood(address,address,uint256,address,bytes,address,bytes,uint256)":"130a4de4","queryCommission(address[],address)":"9b222794","updateGoodConfig(address,uint256,address,bytes)":"d0b6ccc9"},"id":46}