{"abi":[{"type":"constructor","inputs":[{"name":"_usdt","type":"address","internalType":"address"},{"name":"_dao_admin","type":"address","internalType":"address"},{"name":"_ttsconfig","type":"uint256","internalType":"uint256"}],"stateMutability":"nonpayable"},{"type":"function","name":"DOMAIN_SEPARATOR","inputs":[],"outputs":[{"name":"","type":"bytes32","internalType":"bytes32"}],"stateMutability":"view"},{"type":"function","name":"addShare","inputs":[{"name":"_share","type":"tuple","internalType":"struct s_share","components":[{"name":"leftamount","type":"uint128","internalType":"uint128"},{"name":"metric","type":"uint120","internalType":"uint120"},{"name":"chips","type":"uint8","internalType":"uint8"}]},{"name":"owner","type":"address","internalType":"address"}],"outputs":[],"stateMutability":"nonpayable"},{"type":"function","name":"allowance","inputs":[{"name":"","type":"address","internalType":"address"},{"name":"","type":"address","internalType":"address"}],"outputs":[{"name":"","type":"uint256","internalType":"uint256"}],"stateMutability":"view"},{"type":"function","name":"approve","inputs":[{"name":"spender","type":"address","internalType":"address"},{"name":"amount","type":"uint256","internalType":"uint256"}],"outputs":[{"name":"","type":"bool","internalType":"bool"}],"stateMutability":"nonpayable"},{"type":"function","name":"balanceOf","inputs":[{"name":"","type":"address","internalType":"address"}],"outputs":[{"name":"","type":"uint256","internalType":"uint256"}],"stateMutability":"view"},{"type":"function","name":"burn","inputs":[{"name":"value","type":"uint256","internalType":"uint256"}],"outputs":[],"stateMutability":"nonpayable"},{"type":"function","name":"burnShare","inputs":[{"name":"owner","type":"address","internalType":"address"}],"outputs":[],"stateMutability":"nonpayable"},{"type":"function","name":"decimals","inputs":[],"outputs":[{"name":"","type":"uint8","internalType":"uint8"}],"stateMutability":"view"},{"type":"function","name":"getreferral","inputs":[{"name":"_customer","type":"address","internalType":"address"}],"outputs":[{"name":"","type":"address","internalType":"address"}],"stateMutability":"view"},{"type":"function","name":"left_share","inputs":[],"outputs":[{"name":"","type":"uint128","internalType":"uint128"}],"stateMutability":"view"},{"type":"function","name":"name","inputs":[],"outputs":[{"name":"","type":"string","internalType":"string"}],"stateMutability":"view"},{"type":"function","name":"nonces","inputs":[{"name":"","type":"address","internalType":"address"}],"outputs":[{"name":"","type":"uint256","internalType":"uint256"}],"stateMutability":"view"},{"type":"function","name":"permit","inputs":[{"name":"owner","type":"address","internalType":"address"},{"name":"spender","type":"address","internalType":"address"},{"name":"value","type":"uint256","internalType":"uint256"},{"name":"deadline","type":"uint256","internalType":"uint256"},{"name":"v","type":"uint8","internalType":"uint8"},{"name":"r","type":"bytes32","internalType":"bytes32"},{"name":"s","type":"bytes32","internalType":"bytes32"}],"outputs":[],"stateMutability":"nonpayable"},{"type":"function","name":"permitShare","inputs":[{"name":"_share","type":"tuple","internalType":"struct s_share","components":[{"name":"leftamount","type":"uint128","internalType":"uint128"},{"name":"metric","type":"uint120","internalType":"uint120"},{"name":"chips","type":"uint8","internalType":"uint8"}]},{"name":"dealline","type":"uint128","internalType":"uint128"},{"name":"signature","type":"bytes","internalType":"bytes"},{"name":"signer","type":"address","internalType":"address"}],"outputs":[],"stateMutability":"nonpayable"},{"type":"function","name":"poolstate","inputs":[],"outputs":[{"name":"","type":"uint256","internalType":"uint256"}],"stateMutability":"view"},{"type":"function","name":"publicSell","inputs":[{"name":"usdtamount","type":"uint256","internalType":"uint256"},{"name":"data","type":"bytes","internalType":"bytes"}],"outputs":[],"stateMutability":"nonpayable"},{"type":"function","name":"publicsell","inputs":[],"outputs":[{"name":"","type":"uint128","internalType":"uint128"}],"stateMutability":"view"},{"type":"function","name":"setBan","inputs":[{"name":"_recipient","type":"address","internalType":"address"},{"name":"result","type":"bool","internalType":"bool"}],"outputs":[],"stateMutability":"nonpayable"},{"type":"function","name":"setCallMintTTS","inputs":[{"name":"_recipient","type":"address","internalType":"address"},{"name":"result","type":"bool","internalType":"bool"}],"outputs":[],"stateMutability":"nonpayable"},{"type":"function","name":"setDAOAdmin","inputs":[{"name":"_recipient","type":"address","internalType":"address"},{"name":"result","type":"bool","internalType":"bool"}],"outputs":[],"stateMutability":"nonpayable"},{"type":"function","name":"setEnv","inputs":[{"name":"_marketcontract","type":"address","internalType":"address"}],"outputs":[],"stateMutability":"nonpayable"},{"type":"function","name":"setMarketAdmin","inputs":[{"name":"_recipient","type":"address","internalType":"address"},{"name":"result","type":"bool","internalType":"bool"}],"outputs":[],"stateMutability":"nonpayable"},{"type":"function","name":"setMarketManager","inputs":[{"name":"_recipient","type":"address","internalType":"address"},{"name":"result","type":"bool","internalType":"bool"}],"outputs":[],"stateMutability":"nonpayable"},{"type":"function","name":"setRatio","inputs":[{"name":"_ratio","type":"uint256","internalType":"uint256"}],"outputs":[],"stateMutability":"nonpayable"},{"type":"function","name":"setReferral","inputs":[{"name":"user","type":"address","internalType":"address"},{"name":"referral","type":"address","internalType":"address"}],"outputs":[],"stateMutability":"nonpayable"},{"type":"function","name":"setStakeAdmin","inputs":[{"name":"_recipient","type":"address","internalType":"address"},{"name":"result","type":"bool","internalType":"bool"}],"outputs":[],"stateMutability":"nonpayable"},{"type":"function","name":"setStakeManager","inputs":[{"name":"_recipient","type":"address","internalType":"address"},{"name":"result","type":"bool","internalType":"bool"}],"outputs":[],"stateMutability":"nonpayable"},{"type":"function","name":"setTokenAdmin","inputs":[{"name":"_recipient","type":"address","internalType":"address"},{"name":"result","type":"bool","internalType":"bool"}],"outputs":[],"stateMutability":"nonpayable"},{"type":"function","name":"setTokenManager","inputs":[{"name":"_recipient","type":"address","internalType":"address"},{"name":"result","type":"bool","internalType":"bool"}],"outputs":[],"stateMutability":"nonpayable"},{"type":"function","name":"shareHash","inputs":[{"name":"_share","type":"tuple","internalType":"struct s_share","components":[{"name":"leftamount","type":"uint128","internalType":"uint128"},{"name":"metric","type":"uint120","internalType":"uint120"},{"name":"chips","type":"uint8","internalType":"uint8"}]},{"name":"owner","type":"address","internalType":"address"},{"name":"leftamount","type":"uint128","internalType":"uint128"},{"name":"deadline","type":"uint128","internalType":"uint128"},{"name":"nonce","type":"uint256","internalType":"uint256"}],"outputs":[{"name":"","type":"bytes32","internalType":"bytes32"}],"stateMutability":"pure"},{"type":"function","name":"shareMint","inputs":[],"outputs":[],"stateMutability":"nonpayable"},{"type":"function","name":"shares","inputs":[{"name":"","type":"address","internalType":"address"}],"outputs":[{"name":"leftamount","type":"uint128","internalType":"uint128"},{"name":"metric","type":"uint120","internalType":"uint120"},{"name":"chips","type":"uint8","internalType":"uint8"}],"stateMutability":"view"},{"type":"function","name":"stake","inputs":[{"name":"_staker","type":"address","internalType":"address"},{"name":"proofvalue","type":"uint128","internalType":"uint128"}],"outputs":[{"name":"netconstruct","type":"uint128","internalType":"uint128"}],"stateMutability":"nonpayable"},{"type":"function","name":"stakeproof","inputs":[{"name":"","type":"uint256","internalType":"uint256"}],"outputs":[{"name":"fromcontract","type":"address","internalType":"address"},{"name":"proofstate","type":"uint256","internalType":"uint256"}],"stateMutability":"view"},{"type":"function","name":"stakestate","inputs":[],"outputs":[{"name":"","type":"uint256","internalType":"uint256"}],"stateMutability":"view"},{"type":"function","name":"symbol","inputs":[],"outputs":[{"name":"","type":"string","internalType":"string"}],"stateMutability":"view"},{"type":"function","name":"totalSupply","inputs":[],"outputs":[{"name":"","type":"uint256","internalType":"uint256"}],"stateMutability":"view"},{"type":"function","name":"transfer","inputs":[{"name":"to","type":"address","internalType":"address"},{"name":"amount","type":"uint256","internalType":"uint256"}],"outputs":[{"name":"","type":"bool","internalType":"bool"}],"stateMutability":"nonpayable"},{"type":"function","name":"transferFrom","inputs":[{"name":"from","type":"address","internalType":"address"},{"name":"to","type":"address","internalType":"address"},{"name":"amount","type":"uint256","internalType":"uint256"}],"outputs":[{"name":"","type":"bool","internalType":"bool"}],"stateMutability":"nonpayable"},{"type":"function","name":"ttstokenconfig","inputs":[],"outputs":[{"name":"","type":"uint256","internalType":"uint256"}],"stateMutability":"view"},{"type":"function","name":"unstake","inputs":[{"name":"_staker","type":"address","internalType":"address"},{"name":"proofvalue","type":"uint128","internalType":"uint128"}],"outputs":[],"stateMutability":"nonpayable"},{"type":"function","name":"userConfig","inputs":[{"name":"","type":"address","internalType":"address"}],"outputs":[{"name":"","type":"uint256","internalType":"uint256"}],"stateMutability":"view"},{"type":"function","name":"withdrawPublicSell","inputs":[{"name":"amount","type":"uint256","internalType":"uint256"},{"name":"recipient","type":"address","internalType":"address"}],"outputs":[],"stateMutability":"nonpayable"},{"type":"event","name":"Approval","inputs":[{"name":"owner","type":"address","indexed":true,"internalType":"address"},{"name":"spender","type":"address","indexed":true,"internalType":"address"},{"name":"amount","type":"uint256","indexed":false,"internalType":"uint256"}],"anonymous":false},{"type":"event","name":"Transfer","inputs":[{"name":"from","type":"address","indexed":true,"internalType":"address"},{"name":"to","type":"address","indexed":true,"internalType":"address"},{"name":"amount","type":"uint256","indexed":false,"internalType":"uint256"}],"anonymous":false},{"type":"event","name":"e_addShare","inputs":[{"name":"recipient","type":"address","indexed":false,"internalType":"address"},{"name":"leftamount","type":"uint128","indexed":false,"internalType":"uint128"},{"name":"metric","type":"uint120","indexed":false,"internalType":"uint120"},{"name":"chips","type":"uint8","indexed":false,"internalType":"uint8"}],"anonymous":false},{"type":"event","name":"e_addreferral","inputs":[{"name":"user","type":"address","indexed":false,"internalType":"address"},{"name":"referal","type":"address","indexed":false,"internalType":"address"}],"anonymous":false},{"type":"event","name":"e_burnShare","inputs":[{"name":"owner","type":"address","indexed":false,"internalType":"address"}],"anonymous":false},{"type":"event","name":"e_publicsell","inputs":[{"name":"usdtamount","type":"uint256","indexed":false,"internalType":"uint256"},{"name":"ttsamount","type":"uint256","indexed":false,"internalType":"uint256"}],"anonymous":false},{"type":"event","name":"e_setenv","inputs":[{"name":"marketcontract","type":"address","indexed":false,"internalType":"address"}],"anonymous":false},{"type":"event","name":"e_shareMint","inputs":[{"name":"mintamount","type":"uint128","indexed":false,"internalType":"uint128"},{"name":"owner","type":"address","indexed":false,"internalType":"address"}],"anonymous":false},{"type":"event","name":"e_stakeinfo","inputs":[{"name":"recipient","type":"address","indexed":false,"internalType":"address"},{"name":"proofvalue","type":"uint256","indexed":false,"internalType":"uint256"},{"name":"unstakestate","type":"uint256","indexed":false,"internalType":"uint256"},{"name":"stakestate","type":"uint256","indexed":false,"internalType":"uint256"},{"name":"poolstate","type":"uint256","indexed":false,"internalType":"uint256"}],"anonymous":false},{"type":"event","name":"e_syncChainStake","inputs":[{"name":"chain","type":"uint32","indexed":false,"internalType":"uint32"},{"name":"poolasset","type":"uint128","indexed":false,"internalType":"uint128"},{"name":"proofstate","type":"uint256","indexed":false,"internalType":"uint256"}],"anonymous":false},{"type":"event","name":"e_updateUserConfig","inputs":[{"name":"user","type":"address","indexed":false,"internalType":"address"},{"name":"config","type":"uint256","indexed":false,"internalType":"uint256"}],"anonymous":false},{"type":"event","name":"e_updatepool","inputs":[{"name":"poolstate","type":"uint256","indexed":false,"internalType":"uint256"}],"anonymous":false},{"type":"event","name":"e_updatettsconfig","inputs":[{"name":"ttsconfig","type":"uint256","indexed":false,"internalType":"uint256"}],"anonymous":false},{"type":"error","name":"ERC20PermitFailed","inputs":[]},{"type":"error","name":"ERC20TransferFailed","inputs":[]},{"type":"error","name":"InvalidSignature","inputs":[]},{"type":"error","name":"InvalidSignatureLength","inputs":[]},{"type":"error","name":"InvalidSigner","inputs":[]},{"type":"error","name":"NativeETHTransferFailed","inputs":[]},{"type":"error","name":"TTSwapError","inputs":[{"name":"seq","type":"uint256","internalType":"uint256"}]}],"bytecode":{"object":"0x610100806040523461049c57606081613ba6803803809161002082856104a0565b83398101031261049c57610033816104c3565b906040610042602083016104c3565b910151604051926100546040856104a0565b600c84526b2a2a29bbb0b8102a37b5b2b760a11b60208501526040519361007c6040866104a0565b600385526254545360e81b60208601528051906001600160401b0382116103c05781906100a95f546104d7565b601f8111610442575b50602090601f83116001146103df575f926103d4575b50508160011b915f199060031b1c1916175f555b83516001600160401b0381116103c0576100f76001546104d7565b601f811161035d575b50602094601f82116001146102fa579481929394955f926102ef575b50508160011b915f199060031b1c1916176001555b60066080524660a0526040515f905f549161014b836104d7565b8083526020830193600181169081156102d65750600114610293575b7fd29227266ff631bd0acd395a156663b79afd9702bfc8010f0ab7207965d88f7f6040888888888861019b818a03826104a0565b519020845160208101917f8b73c3c69bb8fe3d512ecc4cf759cc79239f7b179b0ffacaa9a75d522b39400f835286820152466060820152306080820152608081526101e760a0826104a0565b51902060c052600c80546001600160801b03199081166528ed6103d0001790915560e0919091524260801b166008556006556001600160a01b03165f818152600d602090815283822080546001600160ff1b0316600160ff1b1790559083902054835192835290820152a16040516136769081610510823960805181611134015260a05181612226015260c0518161224c015260e051818181610bb001528181610fc501526120520152f35b5f80805291505f516020613b865f395f51905f525b8183106102bc575050810160200181610167565b6001816020929493945483858801015201910191906102a8565b60ff1916855250151560051b8201602001905081610167565b015190505f8061011c565b601f1982169560015f52805f20915f5b8881106103455750836001959697981061032d575b505050811b01600155610131565b01515f1960f88460031b161c191690555f808061031f565b9192602060018192868501518155019401920161030a565b60015f527fb10e2d527612073b26eecdfd717e6a320cf44b4afac2b0732d9fcbe2b7fa0cf6601f830160051c810191602084106103b6575b601f0160051c01905b8181106103ab5750610100565b5f815560010161039e565b9091508190610395565b634e487b7160e01b5f52604160045260245ffd5b015190505f806100c8565b5f8080528281209350601f198516905b81811061042a5750908460019594939210610412575b505050811b015f556100dc565b01515f1960f88460031b161c191690555f8080610405565b929360206001819287860151815501950193016103ef565b5f80529091505f516020613b865f395f51905f52601f840160051c81019160208510610492575b90601f859493920160051c01905b81811061048457506100b2565b5f8155849350600101610477565b9091508190610469565b5f80fd5b601f909101601f19168101906001600160401b038211908210176103c057604052565b51906001600160a01b038216820361049c57565b90600182811c92168015610505575b60208310146104f157565b634e487b7160e01b5f52602260045260245ffd5b91607f16916104e656fe60806040526004361015610011575f80fd5b5f3560e01c806306afa12a146102c457806306fdde03146102bf578063087425db146102ba57806308b8d7f0146102b5578063095ea7b3146102b05780630f7f0658146102ab57806318160ddd146102a657806319f8d5b4146102a15780631aab145d1461029c57806323b872dd14610297578063297f24bf146102925780632ff908cc1461028d578063313ce567146102885780633644e515146102835780633789f8d11461027e5780633e3b61f4146102795780633e6b1fe41461027457806340a6bc171461026f57806342966c681461026a57806344d91d9a1461026557806345fda70714610260578063473404671461025b5780635f35b0b314610256578063623059a51461025157806370a082311461024c5780637543e3f0146102475780637bd3ca35146102425780637ecebe001461023d578063845fcee41461023857806395d89b4114610233578063a9059cbb1461022e578063a985901a14610229578063b2237ba314610224578063baf02f1b1461021f578063cae976401461021a578063ce7c2ac214610215578063d505accf14610210578063d8048a461461020b578063dd4fff3a14610206578063dd62ed3e14610201578063de5712d4146101fc578063de5d5803146101f75763e7b43e7d146101f2575f80fd5b612007565b611f99565b611f79565b611f22565b611e98565b611e2a565b611c41565b611be7565b611bca565b611b43565b611aa2565b611a62565b6119ee565b611949565b61192c565b6118f4565b6116ac565b6115bf565b611587565b61156a565b611532565b6114c0565b611498565b611385565b611332565b6112c4565b611256565b6111e8565b61117a565b611158565b61111b565b611099565b610efe565b610dc8565b610b0c565b6108e5565b6108c8565b6107d0565b61065b565b6105ed565b610534565b6103ff565b34610311576020366003190112610311576004355f908152600a6020908152604091829020805460019091015483516001600160a01b0390921682529181019190915290819081015b0390f35b5f80fd5b5f91031261031157565b90600182811c9216801561034d575b602083101461033957565b634e487b7160e01b5f52602260045260245ffd5b91607f169161032e565b634e487b7160e01b5f52604160045260245ffd5b606081019081106001600160401b0382111761038657604052565b610357565b604081019081106001600160401b0382111761038657604052565b90601f801991011681019081106001600160401b0382111761038657604052565b805180835260209291819084018484015e5f828201840152601f01601f1916010190565b9060206103fc9281815201906103c7565b90565b34610311575f366003190112610311576040515f5f5461041e8161031f565b80845290600181169081156104ae5750600114610452575b61030d83610446818503826103a6565b604051918291826103eb565b5f8080527f290decd9548b62a8d60345a988386fc84ba6bc95484008f6362f93160ef3e563939250905b80821061049457509091508101602001610446610436565b91926001816020925483858801015201910190929161047c565b60ff191660208086019190915291151560051b840190910191506104469050610436565b600435906001600160a01b038216820361031157565b60a435906001600160a01b038216820361031157565b602435906001600160a01b038216820361031157565b606435906001600160a01b038216820361031157565b8015150361031157565b346103115760403660031901126103115761054d6104d2565b6024359061055a8261052a565b335f52600d602052600160fe1b60405f205416156105d9576001600160a01b0381165f908152600d60205260409020545f5160206135e15f395f51905f52926105a29161244b565b6105ab82611519565b556105b581611519565b54604080516001600160a01b0390931683526020830191909152819081015b0390a1005b63d1b5191160e01b5f52601060045260245ffd5b34610311576040366003190112610311576106066104d2565b602435906106138261052a565b335f52600d602052600160f91b60405f205416156105d9576001600160a01b0381165f908152600d60205260409020545f5160206135e15f395f51905f52926105a29161246c565b34610311576040366003190112610311576106746104d2565b60243590335f5260046020528161069e8260405f209060018060a01b03165f5260205260405f2090565b556040519182526001600160a01b03169033907f8c5be1e5ebec7d5bd14f71427d1e84f3dd0314c0f7b2291e5b200ac8c7c3b92590602090a360405160018152602090f35b604051906106f26040836103a6565b565b604051906106f26060836103a6565b604051906106f26080836103a6565b606435906001600160801b038216820361031157565b602435906001600160801b038216820361031157565b60ff81160361031157565b606090600319011261031157604051906107628261036b565b816004356001600160801b03811681036103115781526024356001600160781b038116810361031157602082015260406044359161079f8361073e565b0152565b9181601f84011215610311578235916001600160401b038311610311576020838186019501011161031157565b346103115760c0366003190112610311576107ea36610749565b6107f2610712565b906084356001600160401b038111610311576108129036906004016107a3565b929061081c6104e8565b6001600160801b03831642116108b4576108aa9461087f61087a6108a395335f52600760205261085560405f205460018060801b031690565b335f90815260056020526040902080549291906108718461209e565b9055338a612326565b61248d565b9161089861088c82611519565b54600160fe1b16151590565b156108ac579261250e565b339061269e565b005b505f9261250e565b63d1b5191160e01b5f52602460045260245ffd5b34610311575f366003190112610311576020600254604051908152f35b34610311576040366003190112610311576108fe6104d2565b610906610728565b61092561092161091533611519565b54600160fa1b16151590565b1590565b610af8577fff4f1caf741747da03068e051490a9f142dac5b961014b67ce28f5465061a68f61030d926109566128ba565b6001610a636040516020810190610980816109723388866120ac565b03601f1981018352826103a6565b519020610a4060095496848060801b03881680155f14610ace57506109c06109bb5f995b60808b901b6001600160801b038c16175b906129bc565b600955565b6008546109df906109da906001600160801b0384166109b5565b600855565b610a14336109f5855f52600a60205260405f2090565b80546001600160a01b0319166001600160a01b03909216919091179055565b6109b58886610a2b865f52600a60205260405f2090565b01549260801b6001600160801b039091161790565b83610a53835f52600a60205260405f2090565b01555f52600a60205260405f2090565b015490610ab16001600160801b0385165b600854600954604080516001600160a01b0390961686526020860196909652948401919091526060830152608082019290925290819060a0820190565b0390a16040516001600160801b0390911681529081906020820190565b6109bb610af26109c092888060801b036008541690898060801b0386160204613448565b996109a4565b63d1b5191160e01b5f52601a60045260245ffd5b34610311575f36600319011261031157610b276006546129e5565b15610db457600b54610bec90602090610b5690610b4a906001600160a01b031681565b6001600160a01b031690565b335f908152600760205260409020610b9390610b8e90610b8990610b84905460801c6001600160781b031690565b6120c6565b6120de565b612139565b604051630a09391d60e11b81523060048201526001600160a01b037f0000000000000000000000000000000000000000000000000000000000000000166024820152604481019190915292839190829081906064820190565b03915afa908115610daf575f91610d80575b50158015610d58575b610d4457335f9081526007602052604090207fed6a74b410387b51432c864b8acdae396c38c662efa18b7a42f83487ff229595906105d490610c7890610c55905b546001600160801b031690565b335f90815260076020526040902054610c729060f81c5b60ff1690565b90612167565b335f908152600760205260409020610cc2908054610ca59084906001600160801b031661219a565b61219a565b81546001600160801b0319166001600160801b0391909116179055565b335f908152600760205260409020610d11908054610ceb9060801c6001600160781b03166121b3565b8154600160801b600160f81b03191660809190911b600160801b600160f81b0316179055565b610d246001600160801b038216336129f8565b604080516001600160801b03909216825233602083015290918291820190565b63d1b5191160e01b5f52601760045260245ffd5b50335f9081526007602052604090206001600160801b0390610d7990610c48565b1615610c07565b610da2915060203d602011610da8575b610d9a81836103a6565b810190612147565b5f610bfe565b503d610d90565b61215c565b63d1b5191160e01b5f52600f60045260245ffd5b3461031157606036600319011261031157610de16104d2565b610de96104fe565b6001600160a01b0382165f818152600460209081526040808320338452909152902054604435939192919060018101610e9b575b506001600160a01b03165f9081526003602052604090205f5160206136015f395f51905f5291610e8c915b610e538682546121e3565b90556001600160a01b0381165f9081526003602052604090208054860190556040519485526001600160a01b0316939081906020820190565b0390a360405160018152602090f35b91848303928311610ef957610e48610e8c925f5160206136015f395f51905f5294610eef33610eda8460018060a01b03165f52600460205260405f2090565b9060018060a01b03165f5260205260405f2090565b5592505091610e1d565b61208a565b34610311576040366003190112610311576004356024356001600160401b03811161031157610f319036906004016107a3565b9190610f3e6006546129e5565b15610db457600c54610f8690610f61906001600160801b0385169060801c61220a565b600c80546001600160801b031660809290921b6001600160801b031916919091179055565b600c5464746a52880060809190911c11611085577fcf0848d99e9b2ad96811072e657199bc9567c2cc9b614097727a852b27f5358d92610fe9918330337f0000000000000000000000000000000000000000000000000000000000000000612ce1565b5f90610ff7600c5460801c90565b6001600160801b0381166428bed01600811161103e575050905061101a81612123565b9061102582336129f8565b60408051918252602082019290925290819081016105d4565b644bab82720010611065575090506110558161210d565b9061106082336129f8565b611025565b64746a528800906001600160801b031611611025579050611055816120f7565b63d1b5191160e01b5f52601860045260245ffd5b34610311576020366003190112610311576110b26104d2565b335f52600d602052600160ff1b60405f205416156105d957600b80546001600160a01b0319166001600160a01b039290921691821790556040519081527f5497e30355b3c259b1bd1d2577607edc2872c70543f17f29bcab333caf74c3159080602081016105d4565b34610311575f36600319011261031157602060405160ff7f0000000000000000000000000000000000000000000000000000000000000000168152f35b34610311575f366003190112610311576020611172612223565b604051908152f35b34610311576040366003190112610311576111936104d2565b602435906111a08261052a565b335f52600d602052600160ff1b60405f205416156105d9576001600160a01b0381165f908152600d60205260409020545f5160206135e15f395f51905f52926105a29161324e565b34610311576040366003190112610311576112016104d2565b6024359061120e8261052a565b335f52600d602052600160fd1b60405f205416156105d9576001600160a01b0381165f908152600d60205260409020545f5160206135e15f395f51905f52926105a29161326f565b346103115760403660031901126103115761126f6104d2565b6024359061127c8261052a565b335f52600d602052600160ff1b60405f205416156105d9576001600160a01b0381165f908152600d60205260409020545f5160206135e15f395f51905f52926105a29161328e565b34610311576040366003190112610311576112dd6104d2565b602435906112ea8261052a565b335f52600d602052600160ff1b60405f205416156105d9576001600160a01b0381165f908152600d60205260409020545f5160206135e15f395f51905f52926105a2916132af565b3461031157602036600319011261031157600435335f52600360205260405f20908154818103908111610ef9575f925580600254036002556040519081525f5160206136015f395f51905f5260203392a3005b346103115760203660031901126103115761139e6104d2565b6113a96006546129e5565b15610db457335f52600d602052600160fe1b60405f2054161561148457611481816114336114116114006113f46113f4610c485f9860018060a01b03165f52600760205260405f2090565b6001600160401b031690565b600c546001600160801b031661220a565b600c80546001600160801b0319166001600160801b0392909216919091179055565b6040516001600160a01b03821681527fee1c541a26a2ceb2a600bf578887002fd1bdbbc7fb67e2b4c4bce896eac8a36f90602090a16001600160a01b03165f90815260076020526040902090565b55005b63d1b5191160e01b5f52601660045260245ffd5b34610311575f36600319011261031157600c546040516001600160801b039091168152602090f35b346103115760e0366003190112610311576114da36610749565b6114e2610514565b608435916001600160801b03831683036103115760a4356001600160801b0381168103610311576020936111729360c43593612326565b6001600160a01b03165f908152600d6020526040902090565b34610311576020366003190112610311576001600160a01b036115536104d2565b165f52600d602052602060405f2054604051908152f35b34610311575f366003190112610311576020600654604051908152f35b34610311576020366003190112610311576001600160a01b036115a86104d2565b165f526003602052602060405f2054604051908152f35b34610311576040366003190112610311577f0b5e322b4b5330962013e8d6519462c133d50320ee476828060995c1acadef626115f96104d2565b6116016104fe565b90335f52600d602052600160fa1b60405f205416151580611683575b8061166d575b611637575b6105d4604051928392836120ac565b61165e8261164483611519565b546001600160a01b0319166001600160a01b039091161790565b61166782611519565b55611628565b506001600160a01b038181169083161415611623565b506001600160a01b036116a561169883611519565b546001600160a01b031690565b161561161d565b34610311576040366003190112610311576116c56104d2565b6116cd610728565b6116dc61092161091533611519565b6118e0577fff4f1caf741747da03068e051490a9f142dac5b961014b67ce28f5465061a68f9161170a6128ba565b6040516020810190611721816109723386866120ac565b51902091611753611747600161173f865f52600a60205260405f2090565b015460801c90565b6001600160801b031690565b6001600160801b0382161061186957506105d4610a74611780600161173f865f52600a60205260405f2090565b9360016118446118268261179c855f52600a60205260405f2090565b015480986117c06117b5875f52600a60205260405f2090565b60015f918281550155565b6118066109da6117d260095460801c90565b60085490611800906117f390869060801b6001600160801b03851617613318565b946001600160801b031690565b906132ef565b600954610ca0906109bb90608084901b6001600160801b03861617611800565b92828060801b03841680611859575b505f52600a60205260405f2090565b01549460801b6001600160801b039091161790565b61186390886129f8565b5f611835565b91610a7481600161184461182661189788846118906105d4995f52600a60205260405f2090565b01546132d0565b80986118c6856118af885f52600a60205260405f2090565b0154608083901b6001600160801b03851617611800565b856118d9885f52600a60205260405f2090565b01556117c0565b63d1b5191160e01b5f52601b60045260245ffd5b34610311576020366003190112610311576001600160a01b036119156104d2565b165f526005602052602060405f2054604051908152f35b34610311575f366003190112610311576020600954604051908152f35b34610311575f366003190112610311576040515f6001546119698161031f565b80845290600181169081156104ae57506001146119905761030d83610446818503826103a6565b60015f9081527fb10e2d527612073b26eecdfd717e6a320cf44b4afac2b0732d9fcbe2b7fa0cf6939250905b8082106119d457509091508101602001610446610436565b9192600181602092548385880101520191019092916119bc565b3461031157604036600319011261031157611a076104d2565b60243590335f52600360205260405f20805490838203918211610ef9575560018060a01b031690815f52600360205260405f208181540190555f5160206136015f395f51905f5260405180610e8c3394829190602083019252565b34610311576020366003190112610311576001600160a01b03611a836104d2565b165f52600d602052602060018060a01b0360405f205416604051908152f35b346103115760203660031901126103115760043561271081118015611b29575b611b1557600654611ae09161ffff1663ffffffff1990911601600655565b6006546040519081527f23a413df5b1fc0945373ace790cb8288a224212397d5bfc6e2a9b82a4396bbc49080602081016105d4565b63d1b5191160e01b5f52601160045260245ffd5b50335f52600d602052600160fe1b60405f20541615611ac2565b3461031157608036600319011261031157611b5d36610749565b611b65610514565b611b706006546129e5565b15610db457600c5482516001600160801b039182169116118015611bb0575b611b9c576108aa9161269e565b63d1b5191160e01b5f52601260045260245ffd5b50335f52600d602052600160fe1b60405f20541615611b8f565b34610311575f366003190112610311576020600854604051908152f35b34610311576020366003190112610311576001600160a01b03611c086104d2565b165f526007602052606060405f20546040519060018060801b038116825260018060781b038160801c16602083015260f81c6040820152f35b346103115760e036600319011261031157611c5a6104d2565b611c626104fe565b6044359060205f608435606435611c788261073e565b611d8160a4359160c43590611c8f428210156123c8565b610972611d578b8b611d2e8c610972611ca6612223565b6001600160a01b0386165f90815260056020526040902090989080549060018201905560405195602094879586019889919260a093969594919660c08401977f6e71edae12b1b97f4d1f60370fef10105fa2faae0126114a169c64845d6126c98552600180871b03166020850152600180861b03166040840152606083015260808201520152565b5190206040519283918b83019586909160429261190160f01b8352600283015260228201520190565b51902092604051948594859094939260ff6060936080840197845216602083015260408201520152565b838052039060015afa15610daf57611e128183611df37f8c5be1e5ebec7d5bd14f71427d1e84f3dd0314c0f7b2291e5b200ac8c7c3b92594610eda5f51611dda60018060a01b0382168015159081611e17575b5061240e565b6001600160a01b03165f90815260046020526040902090565b556040519384526001600160a01b039081169416929081906020820190565b0390a3005b6001600160a01b038d161490505f611dd4565b3461031157604036600319011261031157611e436104d2565b60243590611e508261052a565b335f52600d602052600160fe1b60405f205416156105d9576001600160a01b0381165f908152600d60205260409020545f5160206135e15f395f51905f52926105a291613336565b3461031157604036600319011261031157611eb16104d2565b60243590611ebe8261052a565b335f52600d602052600160ff1b60405f20541615611f0e576105a282611efb5f5160206135e15f395f51905f5294611ef533611519565b54613357565b611f0433611519565b55611ef583611519565b63d1b5191160e01b5f52601060045260245ffd5b34610311576040366003190112610311576020611f70611f406104d2565b611f486104fe565b6001600160a01b039182165f9081526004855260408082209290931681526020919091522090565b54604051908152f35b34610311575f366003190112610311576020600c5460801c604051908152f35b3461031157604036600319011261031157611fb26104d2565b60243590611fbf8261052a565b335f52600d602052600160fc1b60405f205416156105d9576001600160a01b0381165f908152600d60205260409020545f5160206135e15f395f51905f52926105a291613378565b34610311576040366003190112610311576004356120236104fe565b9061202f6006546129e5565b15610db457335f52600d602052600160fe1b60405f20541615612076576108aa917f0000000000000000000000000000000000000000000000000000000000000000613399565b63d1b5191160e01b5f52601960045260245ffd5b634e487b7160e01b5f52601160045260245ffd5b5f198114610ef95760010190565b6001600160a01b0391821681529116602082015260400190565b6001600160781b031660ff8111610ef9576001901b90565b908160801b91808304600160801b1490151715610ef957565b908160041b9180830460101490151715610ef957565b90601482029180830460141490151715610ef957565b90601882029180830460181490151715610ef957565b9060148201809211610ef957565b9081602091031261031157516103fc8161052a565b6040513d5f823e3d90fd5b6001600160801b03909116908115612186576001600160801b03160490565b634e487b7160e01b5f52601260045260245ffd5b6001600160801b039182169082160391908211610ef957565b6001600160781b0390811660010191908211610ef957565b65b5e620f48000039065b5e620f480008211610ef957565b91908203918211610ef957565b6001600160801b03908116620151800191908211610ef957565b6001600160801b039182169082160191908211610ef957565b467f00000000000000000000000000000000000000000000000000000000000000000361226e577f000000000000000000000000000000000000000000000000000000000000000090565b604051905f915f54906122808261031f565b80825260208201926001811690811561230b57506001146122b5575b506122ad816103fc949503826103a6565b519020613595565b5f8080529094507f290decd9548b62a8d60345a988386fc84ba6bc95484008f6362f93160ef3e5635b8582106122f55750810160200193506122ad61229c565b60018160209254838587010152019101906122de565b60ff1916845250151560051b810160200193506122ad61229c565b805160408083015160209384015182517f2d6f2462798f043c326ee6ec02c17cbc47b3cd9a1a4c5b8ac68ccf4cfd6f4ea49581019586526001600160801b039485169381019390935260ff9190911660608301526001600160781b031660808201526001600160a01b0390931660a084015292831660c08301529190921660e0830152610100808301939093529181526123c2610120826103a6565b51902090565b156123cf57565b60405162461bcd60e51b815260206004820152601760248201527614115493525517d11150511312539157d1561412549151604a1b6044820152606490fd5b1561241557565b60405162461bcd60e51b815260206004820152600e60248201526d24a72b20a624a22fa9a4a3a722a960911b6044820152606490fd5b901561246557600160fd1b905b6001600760fd1b03161790565b5f90612458565b901561248657600160f81b905b600160ff60f81b03161790565b5f90612479565b6109726123c261249b612223565b92604051928391602083019586909160429261190160f01b8352600283015260228201520190565b9190826040910312610311576020823592013590565b60ff601b9116019060ff8211610ef957565b90604010156124fa5760400190565b634e487b7160e01b5f52603260045260245ffd5b90604181036125c757906020926125798361255161254b61253d6125355f988801886124c3565b9490976124eb565b356001600160f81b03191690565b60f81c90565b935b604051948594859094939260ff6060936080840197845216602083015260408201520152565b838052039060015afa15610daf575f516001600160a01b03169081156125b8576001600160a01b0316036125a957565b632057875960e21b5f5260045ffd5b638baa579f60e01b5f5260045ffd5b906040820361260d576020926125e4825f946125799401906124c3565b9092906001600160ff1b03811690612607906126029060ff1c610c6c565b6124d9565b93612553565b634be6321b60e01b5f5260045ffd5b1561031157565b906040516126308161036b565b91546001600160801b0381168352608081901c6001600160781b0316602084015260f81c6040830152565b8151602083015160409093015160f81b6001600160f81b031916600160801b600160f81b0360809490941b939093166001600160801b0390911617919091179055565b600c547f68e68b059416c2836fd602f01cc46a42a185922f060ff76722815bac32407129929061270190611411906001600160801b031684516126eb906113f4906001600160801b031681565b90610ca06001600160801b03821683111561261c565b6001600160a01b0381165f9081526007602052604090206001600160801b039061272a90610c48565b166127cd576001600160a01b0381165f90815260076020526040902061275190839061265b565b81516127c8906001600160801b03166020840151909390612781906040906001600160781b031692015160ff1690565b604080516001600160a01b0390951685526001600160801b0390951660208501526001600160781b039091169383019390935260ff90921660608201529081906080820190565b0390a1565b6001600160a01b0381165f90815260076020526040902061289d906127f190612623565b835161282190612814906001600160801b031683516001600160801b031661220a565b6001600160801b03168252565b61285060408201612833815160ff1690565b604087015160ff1660ff811660ff8316106128b1575060ff169052565b6020818101805191860151612881926001600160781b0390811691168082106128a257506001600160781b03169052565b6001600160a01b0383165f90815260076020526040902061265b565b612751565b6001600160781b031690915250565b905060ff169052565b6008546128cf6128ca8260801c90565b6121f0565b426001600160801b03909116106128e35750565b6128f7906109da906102a360871b906129bc565b6129056117476002546121cb565b620f42406001600160801b03821610156129a057506129466109bb620f42405b6109b5612940600954926006549061ffff6127109216020490565b60801b90565b7f640eaa6ba71a4f457fdf8b26b0a8a0a6096d6d2bf731d07d47717534847ce55d6127c861299061297960085460801c90565b60095460801c5b60018060801b03169060801b1790565b6040519081529081906020820190565b612946906109bb9061474a6001600160801b0390911604612925565b612980906129d18360801d8260801d01613448565b926001600160801b03918216911601613448565b60ff1c6001036129f457600190565b5f90565b60025490828201809211610ef95760205f5160206136015f395f51905f52915f9360025560018060a01b0316938484526003825260408420818154019055604051908152a3565b602081830312610311578035906001600160401b0382116103115701906040828203126103115760405191612a738361038b565b8035612a7e8161073e565b83526020810135906001600160401b038211610311570181601f82011215610311578035906001600160401b0382116103865760405192612ac9601f8401601f1916602001856103a6565b8284526020838301011161031157815f9260208093018386013783010152602082015290565b908160c0910312610311576040519060c08201908282106001600160401b038311176103865760a0916040528051835260208101516020840152604081015160408401526060810151612b418161073e565b606084015260808101516080840152015160a082015290565b929190604051936020850152604084015260ff60f81b166060830152604182526106f26061836103a6565b9092612bdd6101009360406103fc9796612bb28682516020809160018060a01b0381511684520151910152565b60208181015187840152910151606086015281516001600160a01b03166080860152015160a0840152565b6001600160a01b031660c082015260e0810182905201906103c7565b60406103fc94936101009360018060a01b0316835265ffffffffffff6060825160018060a01b03815116602087015260018060a01b036020820151168587015282858201511682870152015116608084015260018060a01b0360208201511660a0840152015160c08201528160e082015201906103c7565b908160a0910312610311576040519060a08201908282106001600160401b038311176103865760809160405280518352602081015160208401526040810151612cb98161073e565b6040840152606081015160608401520151608082015290565b90816020910312610311575190565b949390919293612cf086613467565b15612d0357505050506106f2915061354b565b60036001600160a01b03871603612d205750506106f2935061349b565b80612d305750506106f2936134fc565b90612d3d91810190612a3f565b60ff612d4a825160ff1690565b1660028103612f2b57506020612d6b91015160208082518301019101612c71565b6001600160a01b0385169073cafbbad55eb09efe7bec8408cff9932be7d9a7fa8203612ea557604051623f675f60e91b81526001600160a01b038416600482015291602090839060249082905afa908115610daf57612e4f5f939284938491612e76575b50610972602084015193612de7604082015160ff1690565b60608201516080909201516040516323f2ebc360e21b60208201526001600160a01b038b16602482015230604482015260648101959095526084850196909652600160a485015260ff1660c484015260e4830152610104820193909352918290610124820190565b60208151910182885af115612e67576106f2936134fc565b63203aa5b560e11b5f5260045ffd5b612e98915060203d602011612e9e575b612e9081836103a6565b810190612cd2565b5f612dcf565b503d612e86565b5f915080612f26839251610972602084015193612ec6604082015160ff1690565b606082015160809092015160405163d505accf60e01b60208201526001600160a01b038b1660248201523060448201526064810195909552608485019690965260ff1660a484015260c483015260e4820193909352918290610104820190565b612e4f565b919493909160038103612fd15750612f439150613487565b9273a50eb0d081e986c280eff32dae089939ea07bd223b1561031157604051631b63c28b60e11b81526001600160a01b03918216600482015291811660248301529283166044820152911660648201525f816084818373a50eb0d081e986c280eff32dae089939ea07bd225af18015610daf57612fbd5750565b80612fcb5f6106f2936103a6565b80610315565b6004810361312a5750906020612ff291015160208082518301019101612aef565b906130a76130008351613487565b9261305a613017604083015165ffffffffffff1690565b61303f613022610703565b6001600160a01b038a168152966001600160a01b03166020880152565b65ffffffffffff604087015265ffffffffffff166060860152565b60208101516130676106f4565b94855230602086015260408501526080810151906130a1613091606060a084015193015160ff1690565b60f81b6001600160f81b03191690565b91612b5a565b9173a50eb0d081e986c280eff32dae089939ea07bd223b15610311576040516302b67b5760e41b8152925f91849182916130e691908a60048501612bf9565b03818373a50eb0d081e986c280eff32dae089939ea07bd225af1918215610daf57612f4392613116575b50613487565b80612fcb5f613124936103a6565b5f613110565b600514613139575b5050505050565b61315360206131d093015160208082518301019101612aef565b9081516131706131616106e3565b6001600160a01b039097168752565b602086015260408201516020830151906131886106f4565b968752602087015260408601526131af6131a06106e3565b6001600160a01b039095168552565b60208401526080810151906130a1613091606060a084015193015160ff1690565b9173a50eb0d081e986c280eff32dae089939ea07bd223b156103115761320c5f93604051958694859463187945bd60e11b865260048601612b85565b03818373a50eb0d081e986c280eff32dae089939ea07bd225af18015610daf5761323a575b80808080613132565b80612fcb5f613248936103a6565b5f613231565b901561326857600160fe1b905b6001600360fe1b03161790565b5f9061325b565b901561328757600160a01b905b600160a01b19161790565b5f9061327c565b90156132a857600160f91b905b6001607f60f91b03161790565b5f9061329b565b90156132c957600160fc1b905b6001600f60fc1b03161790565b5f906132bc565b6103fc91608082901c6001600160801b03918216919092160204613448565b612980906133048360801d8260801d03613448565b926001600160801b03908116911603613448565b6103fc916001600160801b0380831660809390931c91160204613448565b901561335057600160fa1b905b6001603f60fa1b03161790565b5f90613343565b901561337157600160ff1b905b6001600160ff1b03161790565b5f90613364565b901561339257600160fb1b905b6001601f60fb1b03161790565b5f90613385565b9190916133a581613467565b156133cf57505f808080936133ba955af11590565b6133c057565b633607a14f60e11b5f5260045ffd5b6001600160a01b0381166003036133ff57506106f291732387fd72c1da19f6486b843f5da562679fbb4057613399565b60445f8080936020956040519763a9059cbb60e01b84526004526024525af13d15601f3d1160015f5114161716905f6060526040526106f2575b633c9fd93960e21b5f5260045ffd5b6001600160801b038111613462576001600160801b031690565b505f90565b6001600160a01b03166001811490811561347f575090565b600291501490565b6001600160a01b0381169081036134625790565b6040516323b872dd60e01b81526001600160a01b0391821660048201529116602482015260448101919091526020905f9060649082732387fd72c1da19f6486b843f5da562679fbb40575af13d15601f3d1160015f51141617161561343957565b6040516323b872dd60e01b81526001600160a01b03928316600482015292909116602483015260448201929092526020915f9160649183905af13d15601f3d1160015f51141617161561343957565b5f5160206136215f395f51905f525c8111613581575f5160206136215f395f51905f525c035f5160206136215f395f51905f525d565b63d1b5191160e01b5f52601c60045260245ffd5b60405160208101917f8b73c3c69bb8fe3d512ecc4cf759cc79239f7b179b0ffacaa9a75d522b39400f83526040820152466060820152306080820152608081526123c260a0826103a656fed29227266ff631bd0acd395a156663b79afd9702bfc8010f0ab7207965d88f7fddf252ad1be2c89b69c2b068fc378daa952ba7f163c4a11628f55a4df523b3efcbe27d488af5b5c1b0bd8d89be6fdfeaed3ad42719044fd9b728f33df1d6f1d1a26469706673582212207987ae1b7058b92f8ffe6d2a513f1b79a4d68b5074e5ae3d4316f05dc53e632b64736f6c634300081d0033290decd9548b62a8d60345a988386fc84ba6bc95484008f6362f93160ef3e563","linkReferences":{}},"methodIdentifiers":{"DOMAIN_SEPARATOR()":"3644e515","addShare((uint128,uint120,uint8),address)":"baf02f1b","allowance(address,address)":"dd62ed3e","approve(address,uint256)":"095ea7b3","balanceOf(address)":"70a08231","burn(uint256)":"42966c68","burnShare(address)":"44d91d9a","decimals()":"313ce567","getreferral(address)":"a985901a","left_share()":"45fda707","name()":"06fdde03","nonces(address)":"7ecebe00","permit(address,address,uint256,uint256,uint8,bytes32,bytes32)":"d505accf","permitShare((uint128,uint120,uint8),uint128,bytes,address)":"0f7f0658","poolstate()":"845fcee4","publicSell(uint256,bytes)":"297f24bf","publicsell()":"de5712d4","setBan(address,bool)":"3e3b61f4","setCallMintTTS(address,bool)":"d8048a46","setDAOAdmin(address,bool)":"dd4fff3a","setEnv(address)":"2ff908cc","setMarketAdmin(address,bool)":"40a6bc17","setMarketManager(address,bool)":"de5d5803","setRatio(uint256)":"b2237ba3","setReferral(address,address)":"7543e3f0","setStakeAdmin(address,bool)":"3e6b1fe4","setStakeManager(address,bool)":"08b8d7f0","setTokenAdmin(address,bool)":"3789f8d1","setTokenManager(address,bool)":"087425db","shareHash((uint128,uint120,uint8),address,uint128,uint128,uint256)":"47340467","shareMint()":"1aab145d","shares(address)":"ce7c2ac2","stake(address,uint128)":"19f8d5b4","stakeproof(uint256)":"06afa12a","stakestate()":"cae97640","symbol()":"95d89b41","totalSupply()":"18160ddd","transfer(address,uint256)":"a9059cbb","transferFrom(address,address,uint256)":"23b872dd","ttstokenconfig()":"623059a5","unstake(address,uint128)":"7bd3ca35","userConfig(address)":"5f35b0b3","withdrawPublicSell(uint256,address)":"e7b43e7d"},"id":49}