{"abi":[{"type":"constructor","inputs":[{"name":"_officialTokenContract","type":"address","internalType":"contract I_TTSwap_Token"},{"name":"_securitykeeper","type":"address","internalType":"address"}],"stateMutability":"nonpayable"},{"type":"function","name":"buyGood","inputs":[{"name":"_goodid1","type":"address","internalType":"address"},{"name":"_goodid2","type":"address","internalType":"address"},{"name":"_swapQuantity","type":"uint256","internalType":"uint256"},{"name":"_side","type":"uint128","internalType":"uint128"},{"name":"_recipent","type":"address","internalType":"address"},{"name":"data","type":"bytes","internalType":"bytes"}],"outputs":[{"name":"good1change","type":"uint256","internalType":"uint256"},{"name":"good2change","type":"uint256","internalType":"uint256"}],"stateMutability":"payable"},{"type":"function","name":"buyGoodCheck","inputs":[{"name":"_goodid1","type":"address","internalType":"address"},{"name":"_goodid2","type":"address","internalType":"address"},{"name":"_swapQuantity","type":"uint256","internalType":"uint256"},{"name":"side","type":"bool","internalType":"bool"}],"outputs":[{"name":"good1change","type":"uint256","internalType":"uint256"},{"name":"good2change","type":"uint256","internalType":"uint256"}],"stateMutability":"view"},{"type":"function","name":"changeGoodOwner","inputs":[{"name":"_goodid","type":"address","internalType":"address"},{"name":"_to","type":"address","internalType":"address"}],"outputs":[],"stateMutability":"nonpayable"},{"type":"function","name":"collectCommission","inputs":[{"name":"_goodid","type":"address[]","internalType":"address[]"}],"outputs":[],"stateMutability":"nonpayable"},{"type":"function","name":"disinvestProof","inputs":[{"name":"_proofid","type":"uint256","internalType":"uint256"},{"name":"_goodshares","type":"uint128","internalType":"uint128"},{"name":"_gate","type":"address","internalType":"address"}],"outputs":[{"name":"","type":"uint128","internalType":"uint128"},{"name":"","type":"uint128","internalType":"uint128"}],"stateMutability":"nonpayable"},{"type":"function","name":"getGoodState","inputs":[{"name":"goodkey","type":"address","internalType":"address"}],"outputs":[{"name":"","type":"tuple","internalType":"struct S_GoodTmpState","components":[{"name":"goodConfig","type":"uint256","internalType":"uint256"},{"name":"owner","type":"address","internalType":"address"},{"name":"currentState","type":"uint256","internalType":"uint256"},{"name":"investState","type":"uint256","internalType":"uint256"}]}],"stateMutability":"view"},{"type":"function","name":"getProofState","inputs":[{"name":"proofid","type":"uint256","internalType":"uint256"}],"outputs":[{"name":"","type":"tuple","internalType":"struct S_ProofState","components":[{"name":"currentgood","type":"address","internalType":"address"},{"name":"valuegood","type":"address","internalType":"address"},{"name":"shares","type":"uint256","internalType":"uint256"},{"name":"state","type":"uint256","internalType":"uint256"},{"name":"invest","type":"uint256","internalType":"uint256"},{"name":"valueinvest","type":"uint256","internalType":"uint256"}]}],"stateMutability":"view"},{"type":"function","name":"getRecentGoodState","inputs":[{"name":"good1","type":"address","internalType":"address"},{"name":"good2","type":"address","internalType":"address"}],"outputs":[{"name":"good1currentstate","type":"uint256","internalType":"uint256"},{"name":"good2currentstate","type":"uint256","internalType":"uint256"}],"stateMutability":"view"},{"type":"function","name":"goodWelfare","inputs":[{"name":"goodid","type":"address","internalType":"address"},{"name":"welfare","type":"uint128","internalType":"uint128"},{"name":"data","type":"bytes","internalType":"bytes"}],"outputs":[],"stateMutability":"payable"},{"type":"function","name":"initGood","inputs":[{"name":"_valuegood","type":"address","internalType":"address"},{"name":"_initial","type":"uint256","internalType":"uint256"},{"name":"_erc20address","type":"address","internalType":"address"},{"name":"_goodConfig","type":"uint256","internalType":"uint256"},{"name":"_normaldata","type":"bytes","internalType":"bytes"},{"name":"_valuedata","type":"bytes","internalType":"bytes"}],"outputs":[{"name":"","type":"bool","internalType":"bool"}],"stateMutability":"payable"},{"type":"function","name":"initMetaGood","inputs":[{"name":"_erc20address","type":"address","internalType":"address"},{"name":"_initial","type":"uint256","internalType":"uint256"},{"name":"_goodConfig","type":"uint256","internalType":"uint256"},{"name":"data","type":"bytes","internalType":"bytes"}],"outputs":[{"name":"","type":"bool","internalType":"bool"}],"stateMutability":"payable"},{"type":"function","name":"investGood","inputs":[{"name":"_togood","type":"address","internalType":"address"},{"name":"_valuegood","type":"address","internalType":"address"},{"name":"_quantity","type":"uint128","internalType":"uint128"},{"name":"data1","type":"bytes","internalType":"bytes"},{"name":"data2","type":"bytes","internalType":"bytes"}],"outputs":[{"name":"","type":"bool","internalType":"bool"}],"stateMutability":"payable"},{"type":"function","name":"ishigher","inputs":[{"name":"goodid","type":"address","internalType":"address"},{"name":"valuegood","type":"address","internalType":"address"},{"name":"compareprice","type":"uint256","internalType":"uint256"}],"outputs":[{"name":"","type":"bool","internalType":"bool"}],"stateMutability":"view"},{"type":"function","name":"modifyGoodConfig","inputs":[{"name":"_goodid","type":"address","internalType":"address"},{"name":"_goodConfig","type":"uint256","internalType":"uint256"}],"outputs":[{"name":"","type":"bool","internalType":"bool"}],"stateMutability":"nonpayable"},{"type":"function","name":"multicall","inputs":[{"name":"data","type":"bytes[]","internalType":"bytes[]"}],"outputs":[{"name":"results","type":"bytes[]","internalType":"bytes[]"}],"stateMutability":"payable"},{"type":"function","name":"queryCommission","inputs":[{"name":"_goodid","type":"address[]","internalType":"address[]"},{"name":"_recipent","type":"address","internalType":"address"}],"outputs":[{"name":"","type":"uint256[]","internalType":"uint256[]"}],"stateMutability":"view"},{"type":"function","name":"removeSecurityKeeper","inputs":[],"outputs":[],"stateMutability":"nonpayable"},{"type":"function","name":"securityKeeper","inputs":[{"name":"erc20","type":"address","internalType":"address"}],"outputs":[],"stateMutability":"nonpayable"},{"type":"function","name":"updateGoodConfig","inputs":[{"name":"_goodid","type":"address","internalType":"address"},{"name":"_goodConfig","type":"uint256","internalType":"uint256"}],"outputs":[{"name":"","type":"bool","internalType":"bool"}],"stateMutability":"nonpayable"},{"type":"event","name":"e_buyGood","inputs":[{"name":"sellgood","type":"address","indexed":true,"internalType":"address"},{"name":"forgood","type":"address","indexed":true,"internalType":"address"},{"name":"swapvalue","type":"uint256","indexed":false,"internalType":"uint256"},{"name":"good1change","type":"uint256","indexed":false,"internalType":"uint256"},{"name":"good2change","type":"uint256","indexed":false,"internalType":"uint256"}],"anonymous":false},{"type":"event","name":"e_changegoodowner","inputs":[{"name":"goodid","type":"address","indexed":false,"internalType":"address"},{"name":"to","type":"address","indexed":false,"internalType":"address"}],"anonymous":false},{"type":"event","name":"e_collectProtocolFee","inputs":[{"name":"goodid","type":"address","indexed":false,"internalType":"address"},{"name":"feeamount","type":"uint256","indexed":false,"internalType":"uint256"}],"anonymous":false},{"type":"event","name":"e_collectcommission","inputs":[{"name":"_gooid","type":"address[]","indexed":false,"internalType":"address[]"},{"name":"_commisionamount","type":"uint256[]","indexed":false,"internalType":"uint256[]"}],"anonymous":false},{"type":"event","name":"e_disinvestProof","inputs":[{"name":"_proofNo","type":"uint256","indexed":true,"internalType":"uint256"},{"name":"_normalGoodNo","type":"address","indexed":false,"internalType":"address"},{"name":"_valueGoodNo","type":"address","indexed":false,"internalType":"address"},{"name":"_gate","type":"address","indexed":false,"internalType":"address"},{"name":"_value","type":"uint256","indexed":false,"internalType":"uint256"},{"name":"_normalprofit","type":"uint256","indexed":false,"internalType":"uint256"},{"name":"_normaldisvest","type":"uint256","indexed":false,"internalType":"uint256"},{"name":"_valueprofit","type":"uint256","indexed":false,"internalType":"uint256"},{"name":"_valuedisvest","type":"uint256","indexed":false,"internalType":"uint256"}],"anonymous":false},{"type":"event","name":"e_goodWelfare","inputs":[{"name":"goodid","type":"address","indexed":false,"internalType":"address"},{"name":"welfare","type":"uint128","indexed":false,"internalType":"uint128"}],"anonymous":false},{"type":"event","name":"e_initGood","inputs":[{"name":"_proofNo","type":"uint256","indexed":false,"internalType":"uint256"},{"name":"_goodid","type":"address","indexed":false,"internalType":"address"},{"name":"_valuegoodNo","type":"address","indexed":false,"internalType":"address"},{"name":"_goodConfig","type":"uint256","indexed":false,"internalType":"uint256"},{"name":"_construct","type":"uint256","indexed":false,"internalType":"uint256"},{"name":"_normalinitial","type":"uint256","indexed":false,"internalType":"uint256"},{"name":"_value","type":"uint256","indexed":false,"internalType":"uint256"}],"anonymous":false},{"type":"event","name":"e_initMetaGood","inputs":[{"name":"_proofNo","type":"uint256","indexed":false,"internalType":"uint256"},{"name":"_goodid","type":"address","indexed":false,"internalType":"address"},{"name":"_construct","type":"uint256","indexed":false,"internalType":"uint256"},{"name":"_goodConfig","type":"uint256","indexed":false,"internalType":"uint256"},{"name":"_initial","type":"uint256","indexed":false,"internalType":"uint256"}],"anonymous":false},{"type":"event","name":"e_investGood","inputs":[{"name":"_proofNo","type":"uint256","indexed":true,"internalType":"uint256"},{"name":"_normalgoodid","type":"address","indexed":false,"internalType":"address"},{"name":"_valueGoodNo","type":"address","indexed":false,"internalType":"address"},{"name":"_value","type":"uint256","indexed":false,"internalType":"uint256"},{"name":"_invest","type":"uint256","indexed":false,"internalType":"uint256"},{"name":"_valueinvest","type":"uint256","indexed":false,"internalType":"uint256"}],"anonymous":false},{"type":"event","name":"e_modifyGoodConfig","inputs":[{"name":"_goodid","type":"address","indexed":false,"internalType":"address"},{"name":"_goodconfig","type":"uint256","indexed":false,"internalType":"uint256"}],"anonymous":false},{"type":"event","name":"e_updateGoodConfig","inputs":[{"name":"_goodid","type":"address","indexed":false,"internalType":"address"},{"name":"_goodConfig","type":"uint256","indexed":false,"internalType":"uint256"}],"anonymous":false},{"type":"error","name":"ERC20PermitFailed","inputs":[]},{"type":"error","name":"ERC20TransferFailed","inputs":[]},{"type":"error","name":"NativeETHTransferFailed","inputs":[]},{"type":"error","name":"TTSwapError","inputs":[{"name":"seq","type":"uint256","internalType":"uint256"}]}],"bytecode":{"object":"0x60a0346100cd57601f6154fb38819003918201601f19168301916001600160401b038311848410176100d15780849260409485528339810103126100cd578051906001600160a01b03821682036100cd57602001516001600160a01b03811691908290036100cd576080525f80546001600160a01b03191691909117905560405161541590816100e682396080518181816106770152818161094301528181610aeb0152818161101301528181611440015281816118050152818161189601528181611de201526125ea0152f35b5f80fd5b634e487b7160e01b5f52604160045260245ffdfe60806040526004361015610011575f80fd5b5f3560e01c8062796f711461014357806306cf4e7f1461013e57806308238466146101395780630d2700ab146101345780631412723a1461012f5780633c9fe5441461012a5780633f1177401461012557806341e1237314610120578063440c8daa1461011b57806351ff9a16146101165780635f755d65146101115780639b2227941461010c578063a3b74a4914610107578063ac9650d814610102578063b1efb921146100fd578063c9544f18146100f8578063e6227925146100f3578063f4662f20146100ee5763f878e809146100e9575f80fd5b61222c565b611cbc565b6118ed565b61186b565b6117c7565b611760565b611625565b61155b565b61149c565b6113e4565b610b77565b610ac2565b6109d3565b61090b565b61083e565b6105f8565b610389565b610215565b610185565b6001600160a01b0381160361015957565b5f80fd5b60409060031901126101595760043561017581610148565b9060243561018281610148565b90565b34610159576101933661015d565b6001600160a01b039182165f9081526001602090815260408083206002908101549590941683529182902090920154815193845291830191909152819081015b0390f35b6001600160801b0381160361015957565b9181601f84011215610159578235916001600160401b038311610159576020838186019501011161015957565b60603660031901126101595760043561022d81610148565b602435610239816101d7565b6044356001600160401b038111610159576102589036906004016101e8565b92905f5160206153a05f395f51905f525c6001600160a01b031661037557335f5160206153a05f395f51905f525d61028e6133ad565b6001600160a01b0382165f908152600160205260409020600201546001606d1b906001600160801b03906102cb90869060801c61281e565b61281e565b161015610361577f0dc5e2150c5754dc0bcd8d76ca2d23850fc9a2a3115c69bb4fbdbedc25074a0093610309916001600160801b038516338561349f565b6103306002610317836127f1565b0154608084901b6001600160801b038516175b906139d3565b600261033b836127f1565b015561034c6040519283928361283c565b0390a161035761340a565b61035f61339b565b005b63d1b5191160e01b5f52601260045260245ffd5b63d1b5191160e01b5f52600360045260245ffd5b34610159576020366003190112610159576101d36004356103a981610148565b5f60606040516103b88161048b565b828152826020820152826040820152015260018060a01b0381165f52600160205260405f2054906103fb60016103ed836127f1565b01546001600160a01b031690565b906104356003610417600261040f856127f1565b0154936127f1565b01549261042261051d565b9485526001600160a01b03166020850152565b604083810191825260608085019384528151855181526020958601516001600160a01b0316958101959095529151908401529051908201529081906080820190565b634e487b7160e01b5f52604160045260245ffd5b608081019081106001600160401b038211176104a657604052565b610477565b60c081019081106001600160401b038211176104a657604052565b60a081019081106001600160401b038211176104a657604052565b604081019081106001600160401b038211176104a657604052565b90601f801991011681019081106001600160401b038211176104a657604052565b6040519061052c6080836104fc565b565b6040519061052c610140836104fc565b6040519061052c6060836104fc565b6040519061052c60c0836104fc565b6040519061052c6040836104fc565b6040519061052c60a0836104fc565b6001600160401b0381116104a65760051b60200190565b9080601f830112156101595781356105a88161057a565b926105b660405194856104fc565b81845260208085019260051b82010192831161015957602001905b8282106105de5750505090565b6020809183356105ed81610148565b8152019101906105d1565b34610159576020366003190112610159576004356001600160401b03811161015957610628903690600401610591565b5f5160206153a05f395f51905f525c6001600160a01b031661037557335f5160206153a05f395f51905f525d604051635f35b0b360e01b81523360048201526020816024816001600160a01b037f0000000000000000000000000000000000000000000000000000000000000000165afa8015610839576106b6915f9161080a575b50600160ff1b16151590565b15610804575f5b60648251116107f0576106d08251612879565b915f5b81518110156107b4578061071d8460046107076107026106f5600197896128bf565b516001600160a01b031690565b6127f1565b019060018060a01b03165f5260205260405f2090565b5461072882876128bf565b52600261073582876128bf565b51101561074f575f61074782876128bf565b525b016106d3565b61076261075c82876128bf565b516128d8565b61076c82876128bf565b5261078c6107868560046107076107026106f5878a6128bf565b60019055565b6107af61079c6106f583866128bf565b6107a683886128bf565b51903390613aae565b610749565b6040517f477bb716eacccc001de50dcdd6e25241283d080e6afb27443908b20f4e738b5e90806107e58786836128f3565b0390a161035f61339b565b63d1b5191160e01b5f52601560045260245ffd5b336106bd565b61082c915060203d602011610832575b61082481836104fc565b81019061285f565b5f6106aa565b503d61081a565b61286e565b346101595760603660031901126101595760043561085b81610148565b6108e46024359161086b83610148565b6001600160a01b039081165f908152600160205260408082206002908101549590931682529020015491604435906108da906108c76108b76001600160801b038716608084901c612b49565b6001600160801b03851690612b49565b9460801c906001600160801b0316612b49565b9060801c90612b49565b1015610902576101d360015b60405190151581529081906020820190565b6101d35f6108f0565b346101595760203660031901126101595760043561092881610148565b604051635f35b0b360e01b81523360048201526020816024817f00000000000000000000000000000000000000000000000000000000000000006001600160a01b03165afa908115610839576109939161098f915f916109b4575b50600160fc1b16151590565b1590565b6109a05761035f9061294d565b63d1b5191160e01b5f52600160045260245ffd5b6109cd915060203d6020116108325761082481836104fc565b5f610983565b34610159576020366003190112610159576004355f60a06040516109f6816104ab565b82815282602082015282604082015282606082015282608082015201525f5260026020526101d360405f20600560405191610a30836104ab565b80546001600160a01b0390811684526001820154166020840152600281015460408401526003810154606084015260048101546080840152015460a08201526040519182918291909160a08060c0830194600180831b038151168452600180831b0360208201511660208501526040810151604085015260608101516060850152608081015160808501520151910152565b3461015957610ad03661015d565b604051635f35b0b360e01b81523360048201526020816024817f00000000000000000000000000000000000000000000000000000000000000006001600160a01b03165afa90811561083957610b379161098f915f91610b58575b50600160fb1b16151590565b610b445761035f916129e5565b63d1b5191160e01b5f52600260045260245ffd5b610b71915060203d6020116108325761082481836104fc565b5f610b2b565b60c036600319011261015957600435610b8f81610148565b602435610b9b81610148565b6044359160643590610bac826101d7565b60843591610bb983610148565b60a4356001600160401b03811161015957610bd89036906004016101e8565b9590915f5160206153a05f395f51905f525c6001600160a01b031661037557335f5160206153a05f395f51905f525d610c0f6133ad565b81156113d0576001600160801b031692600184116113bc576001600160a01b0386811695908216948587146113a857610c56610c4a846127f1565b54600160fe1b16151590565b61139457610c66610c4a896127f1565b611380576002610c75846127f1565b01541561136c576002610c87896127f1565b015415611358576001036110a3576001600160a01b0381168015159081611098575b50611011575b506002610cbb826127f1565b015495610ccc8360801c809861281e565b610d0c610d00610cf0610ceb6002610ce3886127f1565b015460801c90565b612a61565b610cf9866127f1565b5490612ad5565b6001600160801b031690565b6001600160801b0390911611610ffd57610d25826127f1565b6003015491610d33826127f1565b6003015498610d41826127f1565b6002015495610d4f836127f1565b5499610d5a856127f1565b600201549b610d68866127f1565b5497610d7261052e565b6001600160801b03841681525f6020820181815260408301828152606084019283526001600160801b03909b1660808401529e9099936001600160801b031660a083015260c082019b8c5260e082015261010081019e8f526101208101998a52610ddb90613d3c565b87516001600160801b0316620f424011610fe9578c516001600160801b0390811691169081119081610fdf575b50610fcb578c51610e30610d00610e1f8b51612a46565b600a6001600160801b039091160490565b6001600160801b039091161115610fb7578851815183906001600160801b031660801b6001600160801b0390911617610e68916139d3565b8952516001600160801b031660801b6001600160801b039091161795518a51969a8b979091906001600160801b03166001600160801b031661271060cc9290921c607f1602048c51909182918e90608084901b6001600160801b03851617610ecf916139d3565b9052516001600160801b031690610ee591612ad5565b6001600160801b031660809190911b179a8b97610f01856127f1565b9051610f0d9160020155565b610f16856127f1565b9051610f229160020155565b610f38926001600160801b03871690339061349f565b610f4e906001600160801b038516903390613aae565b51604080516001600160801b0390921682526020820192909252908101919091527f770ac49eb4a65be664dd014b1b315647b776f18742f5b7e141e8cb18cec6cea890606090a35b610f9e61340a565b610fa661339b565b604080519182526020820192909252f35b63d1b5191160e01b5f52601060045260245ffd5b63d1b5191160e01b5f52600f60045260245ffd5b905015155f610e08565b63d1b5191160e01b5f52600e60045260245ffd5b63d1b5191160e01b5f52602160045260245ffd5b7f00000000000000000000000000000000000000000000000000000000000000006001600160a01b0316803b15610159576040516307543e3f60e41b81523360048201526001600160a01b039290921660248301525f908290604490829084905af180156108395715610caf578061108c5f611092936104fc565b80611861565b5f610caf565b90503314155f610ca9565b90956001600160a01b03821615611344576110bd876127f1565b60030154916110cb826127f1565b60030154936110d9896127f1565b60020154986110e7816127f1565b54996110f2856127f1565b6002015491611100866127f1565b5461110961052e565b6001600160801b03861681529c8d6020019d5f8f52604081019a5f8c52606082019a5f8c526080830190611144919060018060801b03169052565b6001600160801b031660a082015260c0810194855260e081019182526101008101958652610120810192835261117990613b3c565b519c516001600160801b03169c6001600160801b038e1661271060c59290921c607f1602046111aa819e829061281e565b895160809290921b6001600160801b03918216179e9116620f424011610fe9576001600160801b038e1691608087901c908184118061133b575b610fcb576111fa610d00610e1f89519351612a46565b6001600160801b039091161115610fb75761122190600261121a866127f1565b015461281e565b611241610d00611238610ceb6002610ce3896127f1565b610cf9876127f1565b6001600160801b0390911611610ffd5783518e9a8792909190608081901b6001600160801b0390911617611274916139d3565b8552516001600160801b031660801b6001600160801b03909116179d8e9a61129d92338561349f565b6112a6906127f1565b90516112b29160020155565b6112bb846127f1565b90516112c79160020155565b6112de926001600160801b03919091169190613aae565b516112f1906001600160801b0316612aee565b60405192839261131292846040919493926060820195825260208201520152565b037f770ac49eb4a65be664dd014b1b315647b776f18742f5b7e141e8cb18cec6cea891a3610f96565b508115156111e4565b63d1b5191160e01b5f52602060045260245ffd5b63d1b5191160e01b5f52600d60045260245ffd5b63d1b5191160e01b5f52600c60045260245ffd5b63d1b5191160e01b5f52600b60045260245ffd5b63d1b5191160e01b5f52600a60045260245ffd5b63d1b5191160e01b5f52600960045260245ffd5b63d1b5191160e01b5f52600860045260245ffd5b63d1b5191160e01b5f52600760045260245ffd5b6080366003190112610159576004356113fc81610148565b602435906044356064356001600160401b038111610159576114229036906004016101e8565b604051635f35b0b360e01b81523360048201529092906020816024817f00000000000000000000000000000000000000000000000000000000000000006001600160a01b03165afa9081156108395761148b9161098f915f916109b45750600160fc1b16151590565b6109a0576101d3946108f094612b5c565b60c0366003190112610159576004356114b481610148565b604435906024356114c483610148565b606435916084356001600160401b038111610159576114e79036906004016101e8565b9060a435946001600160401b038611610159576101d39661150f6108f09736906004016101e8565b969095612cdb565b90602080835192838152019201905f5b8181106115345750505090565b8251845260209384019390920191600101611527565b906020610182928181520190611517565b34610159576040366003190112610159576004356001600160401b0381116101595761158b903690600401610591565b6024359061159882610148565b606481511015611611576115ac8151612879565b915f5b8251811015611603576001906001600160a01b036115cd82866128bf565b51165f908152602083815260408083206001600160a01b03871684526004019091529020546115fc82876128bf565b52016115af565b604051806101d3868261154a565b63d1b5191160e01b5f52601560045260245ffd5b346101595760403660031901126101595760043561164281610148565b6024356001600160a01b038281165f81815260016020819052604090912001549093911633036116c9577f075a13b9dbfb2e30d678551b8c2a4f9ede7468ca5273fa902a41d0e577566669925f5260016020526116a28260405f20614452565b604080516001600160a01b039290921682526020820192909252a160405160018152602090f35b63d1b5191160e01b5f52601460045260245ffd5b805180835260209291819084018484015e5f828201840152601f01601f1916010190565b602081016020825282518091526040820191602060408360051b8301019401925f915b83831061173357505050505090565b9091929394602080611751600193603f1986820301875289516116dd565b97019301930191939290611724565b6020366003190112610159576004356001600160401b0381116101595736602382011215610159578060040135906001600160401b038211610159573660248360051b83010111610159576101d39160246117bb920161303f565b60405191829182611701565b34610159576040366003190112610159576004356117e481610148565b602435604051635f35b0b360e01b81523360048201529091906020816024817f00000000000000000000000000000000000000000000000000000000000000006001600160a01b03165afa908115610839576118509161098f915f91610b585750600160fb1b16151590565b610b44576101d3916108f09161318f565b5f91031261015957565b34610159575f36600319011261015957604051635f35b0b360e01b81523360048201526020816024817f00000000000000000000000000000000000000000000000000000000000000006001600160a01b03165afa908115610839576118e19161098f915f916109b45750600160fc1b16151590565b6109a05761035f613328565b34610159575f60803660031901126101595760043561190b81610148565b6024359161191883610148565b6044356064358015158103610159576002611932856127f1565b0154158015611ca8575b8015611ca0575b8015611c8b575b611c775715611b3b578060801c916003611963856127f1565b0154946003611971826127f1565b015492620f424061198e6002611986896127f1565b0154976127f1565b5497611a1e6119a960026119a1876127f1565b0154956127f1565b54996119b361052e565b6001600160801b038a16815290602082019a5f8c526119ff604084019a5f8c526119ef60608601975f8952608087019060018060801b03169052565b6001600160801b031660a0850152565b60c083015260e0820152610100810195865261012081019a8b52613d3c565b516001600160801b031610611b275785516001600160801b0390811691169081119081611b1d575b50611b085751611a5c610d00610e1f8851612a46565b6001600160801b039091161115611af4575051611ae29291611ad291611acb91611ab191611aa191906001600160801b03165b60801b6001600160801b039091161790565b955193516001600160801b031690565b926001600160801b038416607f6127109260cc1c16020490565b8092612ad5565b60018060801b03169060801b1790565b60408051928352602083019190915290f35b63d1b5191160e01b81526010600452602490fd5b5063d1b5191160e01b8152600f600452602490fd5b905015155f611a46565b63d1b5191160e01b8352600e600452602483fd5b90506003611b4a8394936127f1565b01546003611b57846127f1565b015492620f4240611b746002611b6c886127f1565b0154966127f1565b5492611bf4611b8f6002611b87866127f1565b0154946127f1565b5494611b9961052e565b6001600160801b03881681529060208201995f8b52611bd5604084019a5f8c526119ef60608601975f8952608087019060018060801b03169052565b60c083015260e082015261010081019485526101208101958652613b3c565b516001600160801b031610610fe957610d00610e1f611c1592519351612a46565b6001600160801b039091161115610fb7579051611c719190611c5e90611c4c906001600160801b031694516001600160801b031690565b6001600160801b0316608085901b1790565b9260801b6001600160801b039091161790565b90610fa6565b63d1b5191160e01b5f52602360045260245ffd5b506001600160a01b038481169086161461194a565b508115611943565b506002611cb4866127f1565b01541561193c565b3461015957606036600319011261015957602435600435611cdc826101d7565b60443591611ce983610148565b5f5160206153a05f395f51905f525c6001600160a01b031661037557335f5160206153a05f395f51905f525d81611d89611d3b611d2e835f52600260205260405f2090565b546001600160a01b031690565b611d84611d5560016103ed865f52600260205260405f2090565b611d74611d6061053e565b338152936001600160a01b03166020850152565b6001600160a01b03166040830152565b614025565b0361221857611d9661335c565b50611d9f61335c565b50611db5611d2e835f52600260205260405f2090565b611dcc60016103ed855f52600260205260405f2090565b6040516354c2c80d60e11b8152336004820152947f0000000000000000000000000000000000000000000000000000000000000000939192916001600160a01b03851691602088602481865afa978815610839575f986121e7575b50604051635f35b0b360e01b81526001600160a01b0382166004820152602081602481875afa801561083957611e6a915f916121bd575b50600160a01b16151590565b156121e157505f965b6001600160a01b03888116908216036121dc57505f5b604051635f35b0b360e01b81526001600160a01b038216600482015292602090849060249082905afa92831561083957611f4293611ed3915f916121bd5750600160a01b16151590565b156121b857505f5b611ee4846127f1565b611eed866127f1565b90611f3d611f038a5f52600260205260405f2090565b93611f1e611f0f61053e565b6001600160801b039097168752565b6001600160a01b038c1660208701526001600160a01b03166040860152565b6144d7565b611f569792959197336004610707876127f1565b5460018111612192575b50611f6d610c4a856127f1565b6113945787916001600160a01b0386166120f2575b7fc4fd5935c4fcd95833fbc9e12d4b8297dc4a371615a410aa1c793f6608385153936120be97969383611fc36120ae946120cc9c999660801c903390614bdf565b8851611fe5906001600160801b031660608b01516001600160801b0316611ad2565b60208a015161200a906001600160801b031660808c01516001600160801b0316611ad2565b835190929061205b90612033906001600160801b031660608701516001600160801b0316611ad2565b6020860151909590611ad2906080906001600160801b03165b9201516001600160801b031690565b604080516001600160a01b03998a16815299891660208b015295909716948801949094526060870193909352608086019290925260a085019190915260c084015260e08301919091528190610100820190565b0390a2516001600160801b031690565b91516001600160801b031690565b906120d561339b565b604080516001600160801b03928316815292909116602083015290f35b92959491509592612105610c4a836127f1565b611394576120ae6120be96896120cc99611fc37fc4fd5935c4fcd95833fbc9e12d4b8297dc4a371615a410aa1c793f6608385153976121493360046107078b6127f1565b5460018111612166575b5094505093969950939697509350611f82565b61218561218c916121806107868c600461070733926127f1565b6128d8565b338a613aae565b5f612153565b6121ab6121b2916121806107863360046107078b6127f1565b3386613aae565b5f611f60565b611edb565b6121d6915060203d6020116108325761082481836104fc565b5f611e5e565b611e89565b96611e73565b61220a91985060203d602011612211575b61220281836104fc565b810190613386565b965f611e27565b503d6121f8565b63d1b5191160e01b5f52601360045260245ffd5b60a03660031901126101595760043561224481610148565b6024359061225182610148565b6044359161225e836101d7565b6064356001600160401b0381116101595761227d9036906004016101e8565b9290916084356001600160401b0381116101595761229f9036906004016101e8565b92905f5160206153a05f395f51905f525c6001600160a01b031661037557335f5160206153a05f395f51905f525d6122d56133ad565b6122dd612f9d565b936122e6612f9d565b6001600160a01b03858116999197919085168a146113a85761230a610c4a866127f1565b6113945761232661231a866127f1565b54600160ff1b16151590565b80156127df575b156127cb576001606d1b6001600160801b0361234e83600261121a8a6127f1565b16101561036157612367612361866127f1565b54614c2e565b9915988915928361277a575b61241d928c928a9261239b9291612395916001600160801b038416338d61349f565b83612a81565b6123da6123ca6123b960036123af8c6127f1565b0154608081901c91565b6001600160801b031660a086015290565b6001600160801b03166080840152565b61240f6123ff6123ee60026123af8c6127f1565b6001600160801b031660e086015290565b6001600160801b031660c0840152565b612418886127f1565b614313565b612639575b505061242c61053e565b3381526001600160a01b03821660208201526001600160a01b038316604082015261245690614025565b6040840180519097919591906124769082906001600160801b0316612ab1565b978861248a885f52600260205260405f2090565b60208881015190860151845160608b018051909694938a936001600160801b0319608092831b81166001600160801b039283161794898316931b169190911791166124d58982612ab1565b6001600160801b031660809190911b1760608a01805190999193918d916001600160801b0316906125069082612ab1565b6001600160801b031660809190911b1794612520966140c1565b516001600160801b031660801b6001600160801b039091161795516001600160801b031690516001600160801b03166001600160801b031660809190911b1791516001600160801b031690516001600160801b03166001600160801b031660809190911b17604080516001600160a01b03948516815293909416602084015292820193909352606081019290925260808201528060a08101037fee89c9fd704272905456294f1b2b88581ebe0241f72c15b4f3db31d19388f6af91a261260e91901561262b575b337f0000000000000000000000000000000000000000000000000000000000000000614141565b5061261761340a565b61261f61339b565b60405160018152602090f35b61263490612a61565b6125e7565b612645610c4a856127f1565b611394576127739161276c610d0061275b8b612756896126de838e6127458f6126f1906126eb604061204c610702611ad26120be60e06126de8b8f6126bc60026123af8361269a60036123af6126ce976127f1565b6001600160801b031660a088019081529b906001600160801b03166080880152565b6001600160801b031694909201938452565b6001600160801b031660c08d0152565b516001600160801b031690565b90614c43565b6001600160801b03166060830190815294610702612738612711836127f1565b548851612726906001600160801b0316610d00565b603f6127109260d91c16820390040290565b6001600160801b03168752565b84516001600160801b031690614313565b612ab1565b89516001600160801b03169061281e565b338661349f565b5f80612422565b909a61239b61241d938a92612794610d006123618d6127f1565b6001600160801b03821610156127b657612395905b9e94935050935050612373565b506123956127c66123618c6127f1565b6127a9565b63d1b5191160e01b5f52601160045260245ffd5b506127ec61231a876127f1565b61232d565b6001600160a01b03165f90815260016020526040902090565b634e487b7160e01b5f52601160045260245ffd5b6001600160801b03918216908216019190821161283757565b61280a565b6001600160a01b0390911681526001600160801b03909116602082015260400190565b90816020910312610159575190565b6040513d5f823e3d90fd5b906128838261057a565b61289060405191826104fc565b82815280926128a1601f199161057a565b0190602036910137565b634e487b7160e01b5f52603260045260245ffd5b80518210156128d35760209160051b010190565b6128ab565b5f1981019190821161283757565b9190820391821161283757565b9291604084019360408152825180955260206060820193015f955b80871061292a5750506101829394506020818403910152611517565b81516001600160a01b03168552600196909601956020948501949091019061290e565b6001600160a01b038116906001820361296f5761052c915047905b3390613aae565b6040516370a0823160e01b815230600482015291602090839060249082905afa80156108395761052c925f916129a7575b5090612968565b6129c0915060203d6020116108325761082481836104fc565b5f6129a0565b80546001600160a01b0319166001600160a01b03909216919091179055565b907f42e3c955499470d3dc1078d90519d90691c504c8856ea058daf2c1436c2dab4c9160018060a01b0381165f526001602052612a2882600160405f20016129c6565b604080516001600160a01b03928316815292909116602083015290a1565b6001600160801b03908116600b029081169190820361283757565b60011b6002600160801b03811691906002600160811b0316820361283757565b6001600160801b03918216908216029081169190820361283757565b634e487b7160e01b5f52601260045260245ffd5b6001600160801b03909116908115612ad0576001600160801b03160490565b612a9d565b6001600160801b03918216908216039190821161283757565b908160801b91808304600160801b149015171561283757565b908160011b918083046002149015171561283757565b90600a820291808304600a149015171561283757565b908160021b918083046004149015171561283757565b8181029291811591840414171561283757565b929390612b676133ad565b600160ff1b831615612cc8576001600160a01b03612b8960016103ed876127f1565b16612cb4577f8f2eb922ee1b2f92e0051f7949a8c191264807725a1e435e91abebd28583830a94612ca692612bc9916001600160801b038416338861349f565b612bdc8382612bd7876127f1565b613eb7565b612bed612be8856127f1565b613f35565b612c15612bf861053e565b3381526001600160a01b03861660208201525f6040820152614025565b92612c65612c2b855f52600260205260405f2090565b6125e78460801c91612c3d8360801b90565b608084901b6001600160801b03851617908a608086901b6001600160801b038a16179361406b565b604080519586526001600160a01b0390961660208601526001600160801b0316948401949094526060830193909352608082019290925290819060a0820190565b0390a160019061052c61340a565b63d1b5191160e01b5f52600560045260245ffd5b63d1b5191160e01b5f526004805260245ffd5b92969496959390919560018060a01b035f5160206153a05f395f51905f525c1661037557335f5160206153a05f395f51905f525d612d176133ad565b612d2661098f61231a866127f1565b612f89576001600160a01b03612d4060016103ed8a6127f1565b16612cb457612d94612ee596612f7396612d837f3fc0293a5a7bc73de220f0814bbbebc31e77ffcd41bf5e8be187471747bd7caa9b8760801c96878d339061349f565b6001600160801b038616338861349f565b612daf612d9f612f9d565b8094612daa876127f1565b6141b9565b612f22612e57611ad26120be612f14612dc78c6127f1565b96612deb8760408b0199612de584611a8f8d5160018060801b031690565b90613eb7565b612eea8d612e168c611d84612dfe61053e565b338152916001600160a01b0385166020840152611d74565b9d8e8d8d8d612e6b612e57612e49612e37602086015160018060801b031690565b6001600160801b031660808c901b1790565b92516001600160801b031690565b608081901b6001600160801b039091161790565b90612ec3612e98606060808c901b6001600160801b038d161795018051909f6001600160801b0390911690565b94612eb3612ea461054d565b6001600160a01b03909a168a52565b6001600160a01b03166020890152565b60408701526060860152608085015260a08401525f52600260205260405f2090565b612fea565b8751611ad290612f06906125e7906001600160801b0316612a61565b98516001600160801b031690565b96516001600160801b031690565b604080519788526001600160a01b039889166020890152949097169386019390935260608501929092526001600160801b03909116608084015260a083015260c082019290925290819060e0820190565b0390a1612f7e61340a565b60019061052c61339b565b63d1b5191160e01b5f52600660045260245ffd5b6040519061010082018281106001600160401b038211176104a6576040525f60e0838281528260208201528260408201528260608201528260808201528260a08201528260c08201520152565b9060a0600591613002600180841b03825116856129c6565b61301a600180841b03602083015116600186016129c6565b6040810151600285015560608101516003850155608081015160048501550151910155565b6130476133ad565b6130508261057a565b9161305e60405193846104fc565b808352601f1961306d8261057a565b015f5b8181106130e65750505f5b81811061308e575050509061052c61340a565b5f8061309b8385876130f7565b906130ab60405180938193613138565b0390305af46130b8613160565b90156130de57906001916130cc82876128bf565b526130d781866128bf565b500161307b565b602081519101fd5b806060602080938801015201613070565b91908110156128d35760051b81013590601e19813603018212156101595701908135916001600160401b038311610159576020018236038113610159579190565b908092918237015f815290565b6001600160401b0381116104a657601f01601f191660200190565b3d1561318a573d9061317182613145565b9161317f60405193846104fc565b82523d5f602084013e565b606090565b6001600160a01b0381165f9081526001602052604081209291906131c06131bb60fb85901c5b60071690565b612b1d565b6131d56131d06131b58660f71c90565b612b07565b6131ea6131e56131b58760f41c90565b612b33565b6131fd6131f78760ef1c90565b601f1690565b9061320b6131f78860ea1c90565b926132196131f78960e51c90565b9480158015613320575b8015613318575b8015613310575b8015613308575b8015613300575b6132f8575b60649593613260613260946132606132659895613260956139c6565b6139c6565b146132f0575b156132dc577fe40cf68f61d9a4e510244481f5aa34ba68de31cf3f9aa360604d688115d640c8926132ba6132a86132a28560df1c90565b60df1b90565b82546001600160df1b03165b906139c6565b9055604080516001600160a01b039290921682526020820192909252a1600190565b63d1b5191160e01b5f52601860045260245ffd5b50600161326b565b5f9650613244565b50851561323f565b508415613238565b508315613231565b50821561322a565b508115613223565b5f54336001600160a01b03821603613348576001600160a01b0319165f55565b63d1b5191160e01b5f52601660045260245ffd5b60405190613369826104c6565b5f6080838281528260208201528260408201528260608201520152565b90816020910312610159575161018281610148565b5f5f5160206153a05f395f51905f525d565b5f5160206153805f395f51905f525c156133e5575b60015f5160206153805f395f51905f525c015f5160206153805f395f51905f525d565b345f5160206153c05f395f51905f525d5f5f5160206153805f395f51905f525d6133c2565b5f195f5160206153805f395f51905f525c015f5160206153805f395f51905f525d5f5160206153805f395f51905f525c1580613488575b61344757565b5f8080805f5160206153c05f395f51905f525c815f5160206153c05f395f51905f525d335af11561347457565b63d1b5191160e01b5f52601f60045260245ffd5b505f5160206153c05f395f51905f525c1515613441565b90936001600160801b0390921692909160016001600160a01b038416036134cd5750505061052c9150615335565b806134df57505061052c9230916152e6565b906134ec91810190614c6c565b60ff6134f9825160ff1690565b16600281036136da5750602061351a91015160208082518301019101614e7d565b6001600160a01b03821690736b175474e89094c44da98b954eedeac495271d0f820361365457604051623f675f60e91b81526001600160a01b038616600482015291602090839060249082905afa9081156108395761360c5f939284938491613635575b506135fe602084015193613596604082015160ff1690565b60608201516080909201516040516323f2ebc360e21b60208201526001600160a01b038d16602482015230604482015260648101959095526084850196909652600160a485015260ff1660c484015260e4830152610104820193909352918290610124820190565b03601f1981018352826104fc565b60208151910182855af1156136265761052c9230916152e6565b63203aa5b560e11b5f5260045ffd5b61364e915060203d6020116108325761082481836104fc565b5f61357e565b5f9150806136d58392516135fe602084015193613675604082015160ff1690565b606082015160809092015160405163d505accf60e01b60208201526001600160a01b038d1660248201523060448201526064810195909552608485019690965260ff1660a484015260c483015260e4820193909352918290610104820190565b61360c565b919392916003810361376c5750506136f1906152cd565b6e22d473030f116ddee9f6b43ac78ba33b1561015957604051631b63c28b60e11b81526001600160a01b0392831660048201523060248201529082166044820152911660648201525f81608481836e22d473030f116ddee9f6b43ac78ba35af180156108395761375e5750565b8061108c5f61052c936104fc565b600481036138ba5750602061378c91015160208082518301019101614d0d565b9061384161379a83516152cd565b926137f46137b1604083015165ffffffffffff1690565b6137d96137bc61051d565b6001600160a01b038a168152966001600160a01b03166020880152565b65ffffffffffff604087015265ffffffffffff166060860152565b602081015161380161053e565b948552306020860152604085015260808101519061383b61382b606060a084015193015160ff1690565b60f81b6001600160f81b03191690565b91614d66565b916e22d473030f116ddee9f6b43ac78ba33b15610159576040516302b67b5760e41b8152925f918491829161387b91908860048501614e05565b0381836e22d473030f116ddee9f6b43ac78ba35af1918215610839576136f1926138a6575b506152cd565b8061108c5f6138b4936104fc565b5f6138a0565b9293926005146138cb575b50505050565b6138e5602061395392015160208082518301019101614d0d565b80516139016138f261055c565b6001600160a01b039096168652565b6020850152604081015160208201519061391961053e565b9586526020860152604085015261392e61055c565b30815292602084015260808101519061383b61382b606060a084015193015160ff1690565b916e22d473030f116ddee9f6b43ac78ba33b156101595761398a5f93604051958694859463187945bd60e11b865260048601614d91565b0381836e22d473030f116ddee9f6b43ac78ba35af18015610839576139b2575b8080806138c5565b8061108c5f6139c0936104fc565b5f6139aa565b9190820180921161283757565b608082811c9082901c818101936001600160801b03908116931683810193918510159283613aa3575b5082613a98575b5081613a8d575b5080613a7d575b80613a6d575b15613a28576101829160801b6139c6565b60405162461bcd60e51b815260206004820152601b60248201527f54545377617055494e543235363a20616464206f766572666c6f7700000000006044820152606490fd5b506001600160801b038210613a17565b506001600160801b038110613a11565b90508110155f613a0a565b83101591505f613a03565b85101592505f6139fc565b90919060016001600160a01b03821603613ae757505f80808093613ad2955af11590565b613ad857565b633607a14f60e11b5f5260045ffd5b60445f8080936020956040519763a9059cbb60e01b84526004526024525af13d15601f3d1160015f5114161716905f60605260405215613b2357565b633c9fd93960e21b5f5260045ffd5b8115612ad0570490565b61012081015181516001600160801b03166001600160801b031661271060cc9290921c607f1602046001600160801b03166040820190815281516001600160801b031681516001600160801b0316613b939161281e565b6001600160801b03908116835260c08301805160a085018051909593613bbd929181169116612b49565b82516001600160801b03166001600160801b0316613bda91612b49565b613be390612b07565b60808301805161010085018051909792939291613c0c916001600160801b039081169116612b49565b613c1590612b07565b83518651613c2f916001600160801b039182169116612b49565b613c38916128e6565b90518551613c52916001600160801b039182169116612b49565b613c5b916128e6565b613c6491613b32565b613c6d90614ecc565b6001600160801b03166020840190815290516001600160801b0316825182516001600160801b0316613c9e9161281e565b6001600160801b031660809190911b1781516001600160801b0316613cc291614c43565b6001600160801b03166060840152815190516001600160801b03166001600160801b0316613cef916139d3565b9052825190516001600160801b03166001600160801b0316613d1091614f30565b80835290516001600160801b0316608081901b6001600160801b0390911617613d38916139d3565b9052565b613da3613d96613d6c60e0840151613d5d610d00865160018060801b031690565b607f6127109260c51c16020490565b6001600160801b0316604084019081528351613d90906001600160801b03166120be565b90612ad5565b6001600160801b03168252565b613d38613e1c613e17613de26131d0613dc8610d00608088015160018060801b031690565b8651613ddc906001600160801b0316610d00565b90612b49565b60c0850151613e1190613dfd906001600160801b0316612b07565b86516132b4906001600160801b0316610d00565b90613b32565b614ecc565b6001600160801b03166060830190815291613e9b6020613e8b613e17610100850196613e11613e6b6131d0613e578b5160018060801b031690565b8451613ddc906001600160801b0316610d00565b916132b4610d00612e496131d0610d0060a08d015160018060801b031690565b6001600160801b03169201918252565b82519051613eb1906001600160801b0316610d00565b90614f30565b608082811b6001600160801b0384168117600284015592901c9091176003820155600160801b600160df1b039190911662c3508160e61b8101919082106128375760016001600160801b03613f0b84614c2e565b1611613f215761052c91815560013391016129c6565b63d1b5191160e01b5f52601960045260245ffd5b5f613f436131bb60166131b5565b613f516131d06101616131b5565b613f5f6131e5610b0d6131b5565b613f6b620161a86131f7565b90613f78622c35086131f7565b92613f86630586a1026131f7565b948015801561401d575b8015614015575b801561400d575b8015614005575b8015613ffd575b613ff5575b6064959361326061326094613260613fcd9895613260956139c6565b14613fed575b156132dc57613fe96132a8640161a840806132a2565b9055565b506001613fd3565b5f9650613fb1565b508515613fac565b508415613fa5565b508315613f9e565b508215613f97565b508115613f90565b6040805182516001600160a01b039081166020808401918252850151821683850152939092015190911660608083019190915281526140656080826104fc565b51902090565b60036140a891613fe995939694600482019760018060801b03895416156140b1575b5061409d600283019182546139d3565b9055019182546139d3565b905582546139d3565b6140bb90836129c6565b5f61408d565b949092936141009294600487019460018060801b0386541615614131575b506140ef600288019182546139d3565b90556140a8600387019182546139d3565b90556001600160a01b03811661411557505050565b816141286005926001613fe995016129c6565b019182546139d3565b61413b90886129c6565b5f6140df565b91614166926020925f60405180968195829463067e356d60e21b84526004840161283c565b03926001600160a01b03165af1908115610839575f91614184575090565b90506020813d6020116141b1575b8161419f602093836104fc565b810103126101595751610182816101d7565b3d9150614192565b80549092919061271060d99190911c603f166001600160801b03831602046001600160801b0316825281516001600160801b03166141f79082612ad5565b6001600160801b03166060830190815291600384018054600286018054929491929091608084901b6001600160801b0383161787516001600160801b031661423e91614c43565b6001600160801b0316604086019081529360801c61425c8360801c90565b6001600160801b031660809190911b1787516001600160801b031661428091614c43565b6001600160801b03166020909501948552608081901b6001600160801b03909116176142ab916139d3565b9055825491516001600160801b031690516001600160801b03166001600160801b031660809190911b176142de916139d3565b9055815490516001600160801b03166142f8600182612ab1565b61430191612ad5565b6001600160801b0316613fe9916139d3565b80549093919061271060d99190911c603f166001600160801b03831602046001600160801b0316835282516001600160801b03166143519082612ad5565b6001600160801b03166060840190815292600385018054600287018054929491929091608084901b6001600160801b0383161788516001600160801b031661439891614c43565b6001600160801b0316604086019081529360801c6143b68360801c90565b6001600160801b031660809190911b1788516001600160801b03166143da91614c43565b6001600160801b03166020909501948552608081901b6001600160801b0390911617614405916139d3565b9055825491516001600160801b031690516001600160801b03166001600160801b031660809190911b17614438916139d3565b9055825491516001600160801b0316906142f89082612ab1565b908154603f8160df1c1680156144cf575b6001600160801b0361447484614c2e565b166001600160801b03909116106144bb576001600160801b0381166001600160df1b031990911690810190811061283757613fe991600160801b600160df1b0316906139c6565b63d1b5191160e01b5f52601760045260245ffd5b506001614463565b919390936144e361335c565b506144ec61335c565b84519094906001600160801b03169560048301549161450b8360801c90565b9760028501906145ae6145676145578c6145448561453f61452d895460801c90565b9360801b6001600160801b0385161790565b614c43565b9860801b6001600160801b039091161790565b85516001600160801b03166126eb565b61459e61457261056b565b5f808252602082019081526001600160801b039095166040820152976001600160801b03166060890152565b6001600160801b03166080870152565b614609859a611ad26145f660038a0154926145e36145d082611a8f8760801c90565b60608c01516001600160801b03166126eb565b9360801b6001600160801b039091161790565b60608901516001600160801b03166126eb565b9780549160038201805490614621610d008387614fe2565b8c60801c11614bcb5760608901516001600160801b031694600285019283549661464e610d008985614fe2565b6001600160801b0390911611614bb7576146b66146c6916146a26146956146d3958f610d00606061468692015160018060801b031690565b603f6127109260d31c16020490565b6001600160801b03168852565b611ad26146af8a60801c90565b9160801c90565b89516001600160801b03166126eb565b6001600160801b03168a52565b88516001600160801b031683516146f2906001600160801b0316610d00565b6001600160801b0390911610614b7b5788516148089561471e91613eb1906001600160801b0316612e57565b82556147418c613eb18b611a8f604086549460801c92015160018060801b031690565b905580548251614760919061032a906001600160801b03165b60801b90565b9055815460608801516147929190613eb190610d00906001600160801b031660808c01516001600160801b0316613d90565b825586516147ba90614695906001600160801b031660608a01516001600160801b0316613d90565b86516001600160801b031660208601516001600160a01b03166040870151909190614802906001600160a01b031660808b0151909490613d90906001600160801b03166120be565b93614ffc565b60018501546001600160a01b031661489a575b505050604081015161052c929190859061486c9061484f906001600160801b031660408a01516001600160801b0316611ad2565b6060840151909390611ad2906080906001600160801b031661204c565b6060880151909290614894906001600160801b031660808a01516001600160801b0316611ad2565b9361526e565b9093929196505461495f6148c46148b461452d8460801c90565b86516001600160801b03166126eb565b9161494f6149186149086005880154936148f56148e582611a8f8860801c90565b8b516001600160801b03166126eb565b9460801b6001600160801b039091161790565b88516001600160801b03166126eb565b9161493f61492461056b565b5f80825260208201526001600160801b039096166040870152565b6001600160801b03166060850152565b6001600160801b03166080830152565b8096805491600382015492614977610d008583614fe2565b8960801c11614ba35760608201516001600160801b0316936002840154946149a2610d008785614fe2565b6001600160801b0390911611614b8f57614a17916149f06149e36149d0614a0794611ad26146af8b60801c90565b60408701516001600160801b03166126eb565b6001600160801b03168552565b6060840151614686906001600160801b0316610d00565b6001600160801b03166020830152565b80516001600160801b03166020820151614a39906001600160801b0316610d00565b6001600160801b0390911610614b7b5761052c95614a6a614b7294613eb1612e57606086015160018060801b031690565b600284015560038301546040830151614a929190613eb1908c906001600160801b0316611a8f565b600384015560028301546020830151614ab8919061032a906001600160801b031661475a565b600284015582546060830151614aed9190613eb190610d00906001600160801b031660808701516001600160801b0316613d90565b83558151614b2290614b15906001600160801b031660608501516001600160801b0316613d90565b6001600160801b03168352565b81516001600160801b0316602082015161480290614b55906040906001600160a01b03169401516001600160a01b031690565b6080850151909490613d90906020906001600160801b031661204c565b90915f8061481b565b63d1b5191160e01b5f52602260045260245ffd5b63d1b5191160e01b5f52601d60045260245ffd5b63d1b5191160e01b5f52601c60045260245ffd5b63d1b5191160e01b5f52601b60045260245ffd5b63d1b5191160e01b5f52601a60045260245ffd5b6001600160a01b031691823b1561015957614c13925f9283604051809681958294637bd3ca3560e01b84526004840161283c565b03925af1801561083957614c245750565b5f61052c916104fc565b60bb1c603f168015614c3d5790565b50600190565b610182916001600160801b0380831660809390931c91160204614ecc565b60ff81160361015957565b602081830312610159578035906001600160401b0382116101595701906040828203126101595760405191614ca0836104e1565b8035614cab81614c61565b83526020810135906001600160401b038211610159570181601f8201121561015957803590614cd982613145565b92614ce760405194856104fc565b8284526020838301011161015957815f9260208093018386013783010152602082015290565b908160c09103126101595760a060405191614d27836104ab565b8051835260208101516020840152604081015160408401526060810151614d4d81614c61565b606084015260808101516080840152015160a082015290565b929190604051936020850152604084015260ff60f81b1660608301526041825261052c6061836104fc565b9092614de96101009360406101829796614dbe8682516020809160018060a01b0381511684520151910152565b60208181015187840152910151606086015281516001600160a01b03166080860152015160a0840152565b6001600160a01b031660c082015260e0810182905201906116dd565b604061018294936101009360018060a01b0316835265ffffffffffff6060825160018060a01b03815116602087015260018060a01b036020820151168587015282858201511682870152015116608084015260018060a01b0360208201511660a0840152015160c08201528160e082015201906116dd565b908160a091031261015957608060405191614e97836104c6565b80518352602081015160208401526040810151614eb381614c61565b6040840152606081015160608401520151608082015290565b6001600160801b0381169190829003614ee157565b60405162461bcd60e51b815260206004820152602160248201527f54545377617055494e543235363a20746f55696e74313238206f766572666c6f6044820152607760f81b6064820152608490fd5b608082811c9082901c818103936001600160801b039081169316838103938286111593929184614fd7575b84614fcc575b505082614fc1575b505015614f7c576101829160801b6139c6565b60405162461bcd60e51b815260206004820152601b60248201527f54545377617055494e543235363a20737562206f766572666c6f7700000000006044820152606490fd5b101590505f80614f69565b101592505f80614f61565b808611159450614f5b565b60b11c6103ff168015614ff85761018291612ab1565b5090565b80549094919391929091615026606460e585901c601f166001600160801b03881602048096612ad5565b6001600160801b03811694909290600a60fb86901c60071687020492603260f787901c600f168802049561507e601960f483901c6007168a020498606460ef84901c601f168202049290601f60649260ea1c16020490565b976001600160a01b03831661514f5750505061509a908361281e565b6001600160801b0316335f908152600490980160208190526040909820908154906150c4916139c6565b90556150d0858561281e565b6001600160801b03166001600160a01b039091165f908152602088905260409020908154906150fe916139c6565b905561510991612ad5565b9061511391612ad5565b9061511d91612ad5565b906151279161281e565b6001600160801b031690615142905f805260205260405f2090565b90815490613fe9916139c6565b6102c6959396509961524099929a61522d9995610d0099615179600185015460018060a01b031690565b6001600160a01b0381161561525d576001600160a01b03165f90815260048501602052604090206151b8905b805490926001600160801b0316906139c6565b90555b6001600160a01b03811615615243576001600160a01b03165f90815260048084016020526040909120615210936151a59390916151f59085565b90555b019b8c9060018060a01b03165f5260205260405f2090565b90556152266151a58a5f805260205260405f2090565b905561281e565b335f908152602093909352604090922090565b55565b5060046152576151a592615210949661281e565b946151f8565b50615268919561281e565b936151bb565b909391613fe99360029360018060a01b036001850154166152b6575b5061529a60048401918254614f30565b90556152ab60038301918254614f30565b905501918254614f30565b6152c560058501918254614f30565b90555f61528a565b6001600160a01b0381169081036152e15790565b505f90565b6040516323b872dd60e01b81526001600160a01b03928316600482015292909116602483015260448201929092526020915f9160649183905af13d15601f3d1160015f511416171615613b2357565b5f5160206153c05f395f51905f525c811161536b575f5160206153c05f395f51905f525c035f5160206153c05f395f51905f525d565b63d1b5191160e01b5f52601e60045260245ffdfe87b52c29898e62efc1f9a9b00a26dcbdaee98d728c56841703077b7c0d20dee7e2afc7ec4dbb9bfdb1b8e8bcf21a055747c25bf2faaea9cb5a134005381f4843cbe27d488af5b5c1b0bd8d89be6fdfeaed3ad42719044fd9b728f33df1d6f1d1a264697066735822122014de4f17e5a89798468b52343f21e894e9dca850c1555e9d9c2d7714db25fd4e64736f6c634300081d0033","linkReferences":{}},"methodIdentifiers":{"buyGood(address,address,uint256,uint128,address,bytes)":"440c8daa","buyGoodCheck(address,address,uint256,bool)":"e6227925","changeGoodOwner(address,address)":"41e12373","collectCommission(address[])":"0d2700ab","disinvestProof(uint256,uint128,address)":"f4662f20","getGoodState(address)":"08238466","getProofState(uint256)":"3f117740","getRecentGoodState(address,address)":"00796f71","goodWelfare(address,uint128,bytes)":"06cf4e7f","initGood(address,uint256,address,uint256,bytes,bytes)":"5f755d65","initMetaGood(address,uint256,uint256,bytes)":"51ff9a16","investGood(address,address,uint128,bytes,bytes)":"f878e809","ishigher(address,address,uint256)":"1412723a","modifyGoodConfig(address,uint256)":"b1efb921","multicall(bytes[])":"ac9650d8","queryCommission(address[],address)":"9b222794","removeSecurityKeeper()":"c9544f18","securityKeeper(address)":"3c9fe544","updateGoodConfig(address,uint256)":"a3b74a49"},"id":26}