{"abi":[{"type":"constructor","inputs":[{"name":"_officialTokenContract","type":"address","internalType":"contract I_TTSwap_Token"},{"name":"_securitykeeper","type":"address","internalType":"address"}],"stateMutability":"nonpayable"},{"type":"receive","stateMutability":"payable"},{"type":"function","name":"allowance","inputs":[{"name":"","type":"address","internalType":"address"},{"name":"","type":"address","internalType":"address"},{"name":"","type":"uint256","internalType":"uint256"}],"outputs":[{"name":"","type":"uint256","internalType":"uint256"}],"stateMutability":"view"},{"type":"function","name":"approve","inputs":[{"name":"spender","type":"address","internalType":"address"},{"name":"id","type":"uint256","internalType":"uint256"},{"name":"amount","type":"uint256","internalType":"uint256"}],"outputs":[{"name":"","type":"bool","internalType":"bool"}],"stateMutability":"nonpayable"},{"type":"function","name":"balanceOf","inputs":[{"name":"","type":"address","internalType":"address"},{"name":"","type":"uint256","internalType":"uint256"}],"outputs":[{"name":"","type":"uint256","internalType":"uint256"}],"stateMutability":"view"},{"type":"function","name":"buyGood","inputs":[{"name":"_goodid1","type":"address","internalType":"address"},{"name":"_goodid2","type":"address","internalType":"address"},{"name":"_swapQuantity","type":"uint128","internalType":"uint128"},{"name":"_tradetimes","type":"uint128","internalType":"uint128"},{"name":"_recipent","type":"address","internalType":"address"},{"name":"data","type":"bytes","internalType":"bytes"}],"outputs":[{"name":"good1change","type":"uint256","internalType":"uint256"},{"name":"good2change","type":"uint256","internalType":"uint256"}],"stateMutability":"payable"},{"type":"function","name":"buyGoodCheck","inputs":[{"name":"_goodid1","type":"address","internalType":"address"},{"name":"_goodid2","type":"address","internalType":"address"},{"name":"_swapQuantity","type":"uint128","internalType":"uint128"},{"name":"_tradetimes","type":"uint128","internalType":"uint128"}],"outputs":[{"name":"good1change","type":"uint256","internalType":"uint256"},{"name":"good2change","type":"uint256","internalType":"uint256"}],"stateMutability":"view"},{"type":"function","name":"changeGoodOwner","inputs":[{"name":"_goodid","type":"address","internalType":"address"},{"name":"_to","type":"address","internalType":"address"}],"outputs":[],"stateMutability":"nonpayable"},{"type":"function","name":"changeReStakingContrat","inputs":[{"name":"_target","type":"address","internalType":"address"}],"outputs":[],"stateMutability":"nonpayable"},{"type":"function","name":"collectCommission","inputs":[{"name":"_goodid","type":"address[]","internalType":"address[]"}],"outputs":[],"stateMutability":"nonpayable"},{"type":"function","name":"disinvestProof","inputs":[{"name":"_proofid","type":"uint256","internalType":"uint256"},{"name":"_goodQuantity","type":"uint128","internalType":"uint128"},{"name":"_gate","type":"address","internalType":"address"}],"outputs":[{"name":"","type":"uint128","internalType":"uint128"},{"name":"","type":"uint128","internalType":"uint128"}],"stateMutability":"nonpayable"},{"type":"function","name":"flashFee","inputs":[{"name":"token","type":"address","internalType":"address"},{"name":"amount","type":"uint256","internalType":"uint256"}],"outputs":[{"name":"","type":"uint256","internalType":"uint256"}],"stateMutability":"view"},{"type":"function","name":"flashLoan","inputs":[{"name":"receiver","type":"address","internalType":"contract IERC3156FlashBorrower"},{"name":"token","type":"address","internalType":"address"},{"name":"amount","type":"uint256","internalType":"uint256"},{"name":"data","type":"bytes","internalType":"bytes"}],"outputs":[{"name":"","type":"bool","internalType":"bool"}],"stateMutability":"nonpayable"},{"type":"function","name":"getGoodState","inputs":[{"name":"goodkey","type":"address","internalType":"address"}],"outputs":[{"name":"","type":"tuple","internalType":"struct S_GoodTmpState","components":[{"name":"goodConfig","type":"uint256","internalType":"uint256"},{"name":"owner","type":"address","internalType":"address"},{"name":"currentState","type":"uint256","internalType":"uint256"},{"name":"investState","type":"uint256","internalType":"uint256"},{"name":"feeQuantityState","type":"uint256","internalType":"uint256"}]}],"stateMutability":"view"},{"type":"function","name":"getProofState","inputs":[{"name":"proofid","type":"uint256","internalType":"uint256"}],"outputs":[{"name":"","type":"tuple","internalType":"struct S_ProofState","components":[{"name":"currentgood","type":"address","internalType":"address"},{"name":"valuegood","type":"address","internalType":"address"},{"name":"state","type":"uint256","internalType":"uint256"},{"name":"invest","type":"uint256","internalType":"uint256"},{"name":"valueinvest","type":"uint256","internalType":"uint256"}]}],"stateMutability":"view"},{"type":"function","name":"getRecentGoodState","inputs":[{"name":"good1","type":"address","internalType":"address"},{"name":"good2","type":"address","internalType":"address"}],"outputs":[{"name":"good1correntstate","type":"uint256","internalType":"uint256"},{"name":"good2correntstate","type":"uint256","internalType":"uint256"}],"stateMutability":"view"},{"type":"function","name":"goodWelfare","inputs":[{"name":"goodid","type":"address","internalType":"address"},{"name":"welfare","type":"uint128","internalType":"uint128"},{"name":"data","type":"bytes","internalType":"bytes"}],"outputs":[],"stateMutability":"payable"},{"type":"function","name":"initGood","inputs":[{"name":"_valuegood","type":"address","internalType":"address"},{"name":"_initial","type":"uint256","internalType":"uint256"},{"name":"_erc20address","type":"address","internalType":"address"},{"name":"_goodConfig","type":"uint256","internalType":"uint256"},{"name":"_normaldata","type":"bytes","internalType":"bytes"},{"name":"_valuedata","type":"bytes","internalType":"bytes"}],"outputs":[{"name":"","type":"bool","internalType":"bool"}],"stateMutability":"payable"},{"type":"function","name":"initMetaGood","inputs":[{"name":"_erc20address","type":"address","internalType":"address"},{"name":"_initial","type":"uint256","internalType":"uint256"},{"name":"_goodConfig","type":"uint256","internalType":"uint256"},{"name":"data","type":"bytes","internalType":"bytes"}],"outputs":[{"name":"","type":"bool","internalType":"bool"}],"stateMutability":"payable"},{"type":"function","name":"investGood","inputs":[{"name":"_togood","type":"address","internalType":"address"},{"name":"_valuegood","type":"address","internalType":"address"},{"name":"_quantity","type":"uint128","internalType":"uint128"},{"name":"data1","type":"bytes","internalType":"bytes"},{"name":"data2","type":"bytes","internalType":"bytes"}],"outputs":[{"name":"","type":"bool","internalType":"bool"}],"stateMutability":"payable"},{"type":"function","name":"isOperator","inputs":[{"name":"","type":"address","internalType":"address"},{"name":"","type":"address","internalType":"address"}],"outputs":[{"name":"","type":"bool","internalType":"bool"}],"stateMutability":"view"},{"type":"function","name":"ishigher","inputs":[{"name":"goodid","type":"address","internalType":"address"},{"name":"valuegood","type":"address","internalType":"address"},{"name":"compareprice","type":"uint256","internalType":"uint256"}],"outputs":[{"name":"","type":"bool","internalType":"bool"}],"stateMutability":"view"},{"type":"function","name":"maxFlashLoan","inputs":[{"name":"good","type":"address","internalType":"address"}],"outputs":[{"name":"","type":"uint256","internalType":"uint256"}],"stateMutability":"view"},{"type":"function","name":"modifyGoodConfig","inputs":[{"name":"_goodid","type":"address","internalType":"address"},{"name":"_goodConfig","type":"uint256","internalType":"uint256"}],"outputs":[{"name":"","type":"bool","internalType":"bool"}],"stateMutability":"nonpayable"},{"type":"function","name":"multicall","inputs":[{"name":"data","type":"bytes[]","internalType":"bytes[]"}],"outputs":[{"name":"results","type":"bytes[]","internalType":"bytes[]"}],"stateMutability":"payable"},{"type":"function","name":"queryCommission","inputs":[{"name":"_goodid","type":"address[]","internalType":"address[]"},{"name":"_recipent","type":"address","internalType":"address"}],"outputs":[{"name":"","type":"uint256[]","internalType":"uint256[]"}],"stateMutability":"view"},{"type":"function","name":"removeSecurityKeeper","inputs":[],"outputs":[],"stateMutability":"nonpayable"},{"type":"function","name":"securityKeeper","inputs":[{"name":"token","type":"address","internalType":"address"}],"outputs":[],"stateMutability":"nonpayable"},{"type":"function","name":"setOperator","inputs":[{"name":"operator","type":"address","internalType":"address"},{"name":"approved","type":"bool","internalType":"bool"}],"outputs":[{"name":"","type":"bool","internalType":"bool"}],"stateMutability":"nonpayable"},{"type":"function","name":"stakeETH","inputs":[{"name":"token","type":"address","internalType":"address"},{"name":"amount","type":"uint128","internalType":"uint128"}],"outputs":[],"stateMutability":"nonpayable"},{"type":"function","name":"supportsInterface","inputs":[{"name":"interfaceId","type":"bytes4","internalType":"bytes4"}],"outputs":[{"name":"","type":"bool","internalType":"bool"}],"stateMutability":"view"},{"type":"function","name":"syncReward","inputs":[{"name":"token","type":"address","internalType":"address"}],"outputs":[],"stateMutability":"nonpayable"},{"type":"function","name":"transfer","inputs":[{"name":"receiver","type":"address","internalType":"address"},{"name":"id","type":"uint256","internalType":"uint256"},{"name":"amount","type":"uint256","internalType":"uint256"}],"outputs":[{"name":"","type":"bool","internalType":"bool"}],"stateMutability":"nonpayable"},{"type":"function","name":"transferFrom","inputs":[{"name":"sender","type":"address","internalType":"address"},{"name":"receiver","type":"address","internalType":"address"},{"name":"id","type":"uint256","internalType":"uint256"},{"name":"amount","type":"uint256","internalType":"uint256"}],"outputs":[{"name":"","type":"bool","internalType":"bool"}],"stateMutability":"nonpayable"},{"type":"function","name":"unstakeETH","inputs":[{"name":"token","type":"address","internalType":"address"},{"name":"amount","type":"uint128","internalType":"uint128"}],"outputs":[],"stateMutability":"nonpayable"},{"type":"function","name":"updateGoodConfig","inputs":[{"name":"_goodid","type":"address","internalType":"address"},{"name":"_goodConfig","type":"uint256","internalType":"uint256"}],"outputs":[{"name":"","type":"bool","internalType":"bool"}],"stateMutability":"nonpayable"},{"type":"event","name":"Approval","inputs":[{"name":"owner","type":"address","indexed":true,"internalType":"address"},{"name":"spender","type":"address","indexed":true,"internalType":"address"},{"name":"id","type":"uint256","indexed":true,"internalType":"uint256"},{"name":"amount","type":"uint256","indexed":false,"internalType":"uint256"}],"anonymous":false},{"type":"event","name":"OperatorSet","inputs":[{"name":"owner","type":"address","indexed":true,"internalType":"address"},{"name":"operator","type":"address","indexed":true,"internalType":"address"},{"name":"approved","type":"bool","indexed":false,"internalType":"bool"}],"anonymous":false},{"type":"event","name":"Transfer","inputs":[{"name":"caller","type":"address","indexed":false,"internalType":"address"},{"name":"from","type":"address","indexed":true,"internalType":"address"},{"name":"to","type":"address","indexed":true,"internalType":"address"},{"name":"id","type":"uint256","indexed":true,"internalType":"uint256"},{"name":"amount","type":"uint256","indexed":false,"internalType":"uint256"}],"anonymous":false},{"type":"event","name":"debuggaa","inputs":[{"name":"","type":"uint256","indexed":false,"internalType":"uint256"}],"anonymous":false},{"type":"event","name":"e_buyGood","inputs":[{"name":"sellgood","type":"address","indexed":true,"internalType":"address"},{"name":"forgood","type":"address","indexed":true,"internalType":"address"},{"name":"swapvalue","type":"uint256","indexed":false,"internalType":"uint256"},{"name":"good1change","type":"uint256","indexed":false,"internalType":"uint256"},{"name":"good2change","type":"uint256","indexed":false,"internalType":"uint256"}],"anonymous":false},{"type":"event","name":"e_changegoodowner","inputs":[{"name":"goodid","type":"address","indexed":false,"internalType":"address"},{"name":"to","type":"address","indexed":false,"internalType":"address"}],"anonymous":false},{"type":"event","name":"e_collectProtocolFee","inputs":[{"name":"goodid","type":"address","indexed":false,"internalType":"address"},{"name":"feeamount","type":"uint256","indexed":false,"internalType":"uint256"}],"anonymous":false},{"type":"event","name":"e_collectcommission","inputs":[{"name":"_gooid","type":"address[]","indexed":false,"internalType":"address[]"},{"name":"_commisionamount","type":"uint256[]","indexed":false,"internalType":"uint256[]"}],"anonymous":false},{"type":"event","name":"e_disinvestProof","inputs":[{"name":"_proofNo","type":"uint256","indexed":true,"internalType":"uint256"},{"name":"_normalGoodNo","type":"address","indexed":false,"internalType":"address"},{"name":"_valueGoodNo","type":"address","indexed":false,"internalType":"address"},{"name":"_gate","type":"address","indexed":false,"internalType":"address"},{"name":"_value","type":"uint256","indexed":false,"internalType":"uint256"},{"name":"_normalgood","type":"uint256","indexed":false,"internalType":"uint256"},{"name":"_valuegood","type":"uint256","indexed":false,"internalType":"uint256"},{"name":"_profit","type":"uint256","indexed":false,"internalType":"uint256"}],"anonymous":false},{"type":"event","name":"e_goodWelfare","inputs":[{"name":"goodid","type":"address","indexed":false,"internalType":"address"},{"name":"welfare","type":"uint128","indexed":false,"internalType":"uint128"}],"anonymous":false},{"type":"event","name":"e_initGood","inputs":[{"name":"_proofNo","type":"uint256","indexed":false,"internalType":"uint256"},{"name":"_goodid","type":"address","indexed":false,"internalType":"address"},{"name":"_valuegoodNo","type":"address","indexed":false,"internalType":"address"},{"name":"_goodConfig","type":"uint256","indexed":false,"internalType":"uint256"},{"name":"_construct","type":"uint256","indexed":false,"internalType":"uint256"},{"name":"_normalinitial","type":"uint256","indexed":false,"internalType":"uint256"},{"name":"_value","type":"uint256","indexed":false,"internalType":"uint256"}],"anonymous":false},{"type":"event","name":"e_initMetaGood","inputs":[{"name":"_proofNo","type":"uint256","indexed":false,"internalType":"uint256"},{"name":"_goodid","type":"address","indexed":false,"internalType":"address"},{"name":"_construct","type":"uint256","indexed":false,"internalType":"uint256"},{"name":"_goodConfig","type":"uint256","indexed":false,"internalType":"uint256"},{"name":"_initial","type":"uint256","indexed":false,"internalType":"uint256"}],"anonymous":false},{"type":"event","name":"e_investGood","inputs":[{"name":"_proofNo","type":"uint256","indexed":true,"internalType":"uint256"},{"name":"_normalgoodid","type":"address","indexed":false,"internalType":"address"},{"name":"_valueGoodNo","type":"address","indexed":false,"internalType":"address"},{"name":"_value","type":"uint256","indexed":false,"internalType":"uint256"},{"name":"_invest","type":"uint256","indexed":false,"internalType":"uint256"},{"name":"_valueinvest","type":"uint256","indexed":false,"internalType":"uint256"}],"anonymous":false},{"type":"event","name":"e_modifyGoodConfig","inputs":[{"name":"_goodid","type":"address","indexed":false,"internalType":"address"},{"name":"_goodconfig","type":"uint256","indexed":false,"internalType":"uint256"}],"anonymous":false},{"type":"event","name":"e_updateGoodConfig","inputs":[{"name":"_goodid","type":"address","indexed":false,"internalType":"address"},{"name":"_goodConfig","type":"uint256","indexed":false,"internalType":"uint256"}],"anonymous":false},{"type":"error","name":"ApproveFailed","inputs":[]},{"type":"error","name":"ERC20PermitFailed","inputs":[]},{"type":"error","name":"ERC20TransferFailed","inputs":[]},{"type":"error","name":"ERC3156ExceededMaxLoan","inputs":[{"name":"maxLoan","type":"uint256","internalType":"uint256"}]},{"type":"error","name":"ERC3156InvalidReceiver","inputs":[{"name":"receiver","type":"address","internalType":"address"}]},{"type":"error","name":"ERC3156UnsupportedToken","inputs":[{"name":"token","type":"address","internalType":"address"}]},{"type":"error","name":"NativeETHTransferFailed","inputs":[]},{"type":"error","name":"TTSwapError","inputs":[{"name":"seq","type":"uint256","internalType":"uint256"}]}],"bytecode":{"object":"0x60a0346100d557601f615d4d38819003918201601f19168301916001600160401b038311848410176100d95780849260409485528339810103126100d5578051906001600160a01b03821682036100d557602001516001600160a01b03811691908290036100d557608052600680546001600160a01b031916919091179055604051615c5f90816100ee823960805181818161089101528181610a850152818161108b015281816111f401528181611b7101528181611c4a015281816120b401528181612bb6015281816132b301526136b70152f35b5f80fd5b634e487b7160e01b5f52604160045260245ffdfe6080604052600436101561001a575b3615610018575f80fd5b005b5f3560e01c8062796f7114610237578062fdd58e1461023257806301ffc9a71461022d57806306cf4e7f146102285780630823846614610223578063095bcdb61461021e5780630d2700ab14610219578063119ac094146102145780631412723a1461020f5780633bd164361461020a5780633c9fe544146102055780633f1177401461020057806341e12373146101fb578063426a8493146101f657806351ff9a16146101f1578063558a7297146101ec578063598af9e7146101e75780635cffe9de146101e25780635f755d65146101dd578063613255ab146101d857806373db1792146101d357806381a860d1146101ce5780638c706eb5146101c95780639b222794146101c4578063a3b74a49146101bf578063ac9650d8146101ba578063b1efb921146101b5578063b6363cf2146101b0578063c9544f18146101ab578063d9d98ce4146101a6578063f151e786146101a1578063f4662f201461019c578063f878e809146101975763fe99049a0361000e576122b1565b611e34565b611db3565b611d10565b611cc4565b611c1f565b611bcd565b611b33565b611acc565b61199b565b6118cf565b6117f5565b611694565b6114b2565b61145c565b6113e1565b611346565b6112f6565b61125a565b611198565b611117565b611062565b610fa4565b610f27565b610c09565b610b59565b610a4d565b61080a565b610635565b61052c565b6103c1565b61032d565b6102e4565b610279565b6001600160a01b0381160361024d57565b5f80fd5b604090600319011261024d576004356102698161023c565b906024356102768161023c565b90565b3461024d5761028736610251565b6001600160a01b039182165f9081526003602090815260408083206002908101549590941683529182902090920154815193845291830191909152819081015b0390f35b6001600160a01b03165f90815260036020526040902090565b3461024d57604036600319011261024d576004356103018161023c565b6024359060018060a01b03165f52600160205260405f20905f52602052602060405f2054604051908152f35b3461024d57602036600319011261024d5760043563ffffffff60e01b811680910361024d576020906301ffc9a760e01b8114908115610372575b506040519015158152f35b630f632fb360e01b1490505f610367565b6001600160801b0381160361024d57565b9181601f8401121561024d578235916001600160401b03831161024d576020838186019501011161024d57565b606036600319011261024d576004356103d98161023c565b6024356103e581610383565b6044356001600160401b03811161024d57610404903690600401610394565b92905f516020615bea5f395f51905f525c6001600160a01b031661051857335f516020615bea5f395f51905f525d61043a613ad8565b6001600160a01b0382165f908152600360205260409020600401546001606d1b906001600160801b039061047790869060801c612466565b612466565b161015610504577f0dc5e2150c5754dc0bcd8d76ca2d23850fc9a2a3115c69bb4fbdbedc25074a00936104b5916001600160801b0385163385613bca565b6104d560046104c3836102cb565b01546104cf8460801b90565b9061412b565b60046104e0836102cb565b01556104f16040519283928361247f565b0390a16104fc613b35565b610018613ab5565b63d1b5191160e01b5f52600c60045260245ffd5b63d1b5191160e01b5f52600360045260245ffd5b3461024d57602036600319011261024d576102c760043561054c8161023c565b6105546124a2565b506001600160a01b038181165f908152600360205260409020805460019091015490929116906002610585826102cb565b01546105c060046105a2600361059a866102cb565b0154946102cb565b0154936105ad61073e565b9586526001600160a01b03166020860152565b6040840152606083015260808201526040519182918291909160808060a08301948051845260018060a01b03602082015116602085015260408101516040850152606081015160608501520151910152565b606090600319011261024d5760043561062a8161023c565b906024359060443590565b3461024d5761064336610612565b9091335f52600160205260405f20835f5260205260405f208054908382039182116106c9575560018060a01b031690815f52600160205261068f8360405f20905f5260205260405f2090565b61069a8282546124e7565b90555f516020615bca5f395f51905f52604051806106ba339433836124f4565b0390a460405160018152602090f35b612452565b634e487b7160e01b5f52604160045260245ffd5b60a081019081106001600160401b038211176106fd57604052565b6106ce565b604081019081106001600160401b038211176106fd57604052565b90601f801991011681019081106001600160401b038211176106fd57604052565b6040519061074d60a08361071d565b565b6040519061074d6101008361071d565b6040519061074d60608361071d565b6040519061074d60408361071d565b6040519061074d60808361071d565b6001600160401b0381116106fd5760051b60200190565b9080601f8301121561024d5781356107ba8161078c565b926107c8604051948561071d565b81845260208085019260051b82010192831161024d57602001905b8282106107f05750505090565b6020809183356107ff8161023c565b8152019101906107e3565b3461024d57602036600319011261024d576004356001600160401b03811161024d5761083a9036906004016107a3565b5f516020615bea5f395f51905f525c6001600160a01b031661051857335f516020615bea5f395f51905f525d61086e613ad8565b604051635f35b0b360e01b81523360048201526020816024816001600160a01b037f0000000000000000000000000000000000000000000000000000000000000000165afa8015610a48576108d0915f91610a19575b50600160ff1b16151590565b15610a13575f5b60648251116109ff576108ea8251612529565b915f5b81518110156109ce578061093784600561092161091c61090f6001978961256f565b516001600160a01b031690565b6102cb565b019060018060a01b03165f5260205260405f2090565b54610942828761256f565b52600261094f828761256f565b511015610969575f610961828761256f565b525b016108ed565b61097c610976828761256f565b516124cc565b610986828761256f565b526109a66109a085600561092161091c61090f878a61256f565b60019055565b6109c96109b661090f838661256f565b6109c0838861256f565b51903390614154565b610963565b6040517f477bb716eacccc001de50dcdd6e25241283d080e6afb27443908b20f4e738b5e90806104f1878683612588565b63d1b5191160e01b5f52600b60045260245ffd5b336108d7565b610a3b915060203d602011610a41575b610a33818361071d565b81019061250f565b5f6108c4565b503d610a29565b61251e565b3461024d57602036600319011261024d57600435610a6a8161023c565b604051635f35b0b360e01b81523360048201526020816024817f00000000000000000000000000000000000000000000000000000000000000006001600160a01b03165afa908115610a4857610ad591610ad1915f91610b0e575b50600160fc1b16151590565b1590565b610afa57600780546001600160a01b0319166001600160a01b03909216919091179055005b63d1b5191160e01b5f52600160045260245ffd5b610b27915060203d602011610a4157610a33818361071d565b5f610ac5565b606090600319011261024d57600435610b458161023c565b90602435610b528161023c565b9060443590565b3461024d57610be2610b6a36610b2d565b6001600160a01b039283165f908152600360205260408082206002908101549590941682529020909101549291610bd890610bc5610bb56001600160801b038716608084901c6135ca565b6001600160801b038516906135ca565b9460801c906001600160801b03166135ca565b9060801c906135ca565b1015610c00576102c760015b60405190151581529081906020820190565b6102c75f610bee565b3461024d57608036600319011261024d57600435610c268161023c565b60243590610c338261023c565b60443591610c4083610383565b60643592610c4d84610383565b6002610c58846102cb565b0154158015610f13575b8015610f02575b8015610eed575b8015610eda575b610ec65760646001600160801b0385161015610dde57610ca36002610c9b856102cb565b0154936102cb565b5491610d07610cbe6002610cb6846102cb565b0154926102cb565b5495610cc861074f565b6001600160801b03851681529260208401955f875260408501975f89525f6060870152608086015260a085015260c084015260e083019687528261449e565b8051610d28906001600160801b031685516001600160801b03165b90612466565b6001600160801b0383811691161015610dca57610d96610d86610db092610d76610d7695610d70610d62610db79a5160018060801b031690565b93516001600160801b031690565b90612632565b60018060801b03169060801b1790565b955193516001600160801b031690565b926001600160801b038416607f6127109260cc1c16020490565b8092612632565b905b604080519182526020820192909252f35b63d1b5191160e01b5f52602260045260245ffd5b610e6f610e63610dfa6002610df2876102cb565b0154956102cb565b5493610e56610e0d6002610cb6846102cb565b5497610e1761074f565b6001600160801b03871681529260208401975f895260408501995f8b525f6060870152608086015260a085015260c084015260e0830198895282614203565b516001600160801b031690565b6001600160801b031690565b610eb257610ea5610d96610d86610d7693610e93610eac975160018060801b031690565b60801b6001600160801b039091161790565b8092612466565b90610db9565b63d1b5191160e01b5f52602160045260245ffd5b63d1b5191160e01b5f52602360045260245ffd5b5060c86001600160801b03851611610c77565b506001600160a01b0383811690831614610c70565b506001600160801b03811615610c69565b506002610f1f836102cb565b015415610c62565b3461024d57602036600319011261024d57600435610f448161023c565b610f4c613ad8565b6006546001600160a01b0316330361024d57610f9c90610f6c308261475d565b6001600160a01b038083165f90815260036020526040812060048101829055600201556006549192911690614154565b610018613b35565b3461024d57602036600319011261024d57600435610fc06124a2565b505f5260046020526102c760405f20600460405191610fde836106e2565b60018060a01b03815416835260018060a01b0360018201541660208401526002810154604084015260038101546060840152015460808201526040519182918291909160808060a083019460018060a01b03815116845260018060a01b03602082015116602085015260408101516040850152606081015160608501520151910152565b3461024d5761107036610251565b604051635f35b0b360e01b81523360048201526020816024817f00000000000000000000000000000000000000000000000000000000000000006001600160a01b03165afa908115610a48576110d791610ad1915f916110f8575b50600160fb1b16151590565b6110e45761001891612652565b63d1b5191160e01b5f52600260045260245ffd5b611111915060203d602011610a4157610a33818361071d565b5f6110cb565b3461024d5761112536610612565b9091335f52600260205261114c8160405f209060018060a01b03165f5260205260405f2090565b835f526020528160405f205560405191825260018060a01b0316907fb3fd5071835887567a0671151121894ddccc2842f1d10bedad13e0d17cace9a760203392a4602060405160018152f35b608036600319011261024d576004356111b08161023c565b602435906044356064356001600160401b03811161024d576111d6903690600401610394565b604051635f35b0b360e01b81523360048201529092906020816024817f00000000000000000000000000000000000000000000000000000000000000006001600160a01b03165afa908115610a485761123f91610ad1915f91610b0e5750600160fc1b16151590565b610afa576102c794610bee946126b3565b8015150361024d57565b3461024d57604036600319011261024d576004356112778161023c565b6024359061128482611250565b335f908152602081815260408083206001600160a01b038516845290915290209115159160ff1981541660ff841617905560405191825260018060a01b0316907fceb576d9f15e4e200fdb5096d64d5dfd667e16def20c1eefd14256d8e3faa26760203392a360405160018152602090f35b3461024d5761133161130736610b2d565b929160018060a01b03165f52600260205260405f209060018060a01b03165f5260205260405f2090565b905f52602052602060405f2054604051908152f35b3461024d57608036600319011261024d576004356113638161023c565b602435906113708261023c565b6044356064356001600160401b03811161024d57611392903690600401610394565b915f516020615bea5f395f51905f525c6001600160a01b03166113cd576102c7946113c5946113c033613ac7565b612872565b610bee613ab5565b63d1b5191160e01b5f52600360045260245ffd5b60c036600319011261024d576004356113f98161023c565b604435906024356114098361023c565b606435916084356001600160401b03811161024d5761142c903690600401610394565b9060a435946001600160401b03861161024d576102c796611454610bee973690600401610394565b9690956129ce565b3461024d57602036600319011261024d57602061148560043561147e8161023c565b309061475d565b604051908152f35b604090600319011261024d576004356114a58161023c565b9060243561027681610383565b3461024d576114c03661148d565b905f516020615bea5f395f51905f525c6001600160a01b031661051857335f516020615bea5f395f51905f525d336001600160a01b036115126001611504856102cb565b01546001600160a01b031690565b1614801590611682575b61166e5761152981614af9565b156115d15760055461154d90611548906001600160801b0385166104cf565b600555565b60075461156a906001600160a01b03165b6001600160a01b031690565b91823b1561024d57805f9261159594604051809681958294638efa048760e01b84526004840161247f565b03926001600160801b0316905af18015610a48576115b7575b50610018613ab5565b806115c55f6115cb9361071d565b80611c15565b5f6115ae565b6115e46115486005546104cf8560801b90565b6007546116059083906115ff906001600160a01b031661155e565b83614cb8565b60075461161a906001600160a01b031661155e565b91823b1561024d57611645925f9283604051809681958294638efa048760e01b84526004840161247f565b03925af18015610a485761165a575b506104fc565b806115c55f6116689361071d565b5f611654565b63d1b5191160e01b5f52602460048190525ffd5b5061168f610ad182614c8c565b61151c565b3461024d576116a23661148d565b5f516020615bea5f395f51905f525c6001600160a01b031661051857335f516020615bea5f395f51905f525d336001600160a01b036116e56001611504866102cb565b16148015906117e3575b61166e57600754611708906001600160a01b031661155e565b9060206040518093630620458b60e11b8252815f8161172b878a6004840161247f565b03925af1918215610a485760049261178f92611789925f926117b2575b5061175286614af9565b15611799576005546117739161154891906001600160801b03165b90614db5565b61176d84611780876102cb565b01549160801b90565b926102cb565b0155610018613ab5565b6115486117ad9161176d6005549160801b90565b611773565b6117d591925060203d6020116117dc575b6117cd818361071d565b810190612d4a565b905f611748565b503d6117c3565b506117f0610ad183614c8c565b6116ef565b3461024d57602036600319011261024d576004356118128161023c565b600754604051638c706eb560e01b81526001600160a01b0383811660048301529091602091839160249183915f91165af18015610a4857611789611868916004935f9161186c575b5061176d84611780876102cb565b0155005b611885915060203d6020116117dc576117cd818361071d565b5f61185a565b90602080835192838152019201905f5b8181106118a85750505090565b825184526020938401939092019160010161189b565b90602061027692818152019061188b565b3461024d57604036600319011261024d576004356001600160401b03811161024d576118ff9036906004016107a3565b6024359061190c8261023c565b606481511015611987576119208151612529565b915f5b8251811015611979576001906001600160a01b03611941828661256f565b51165f9081526003602090815260408083206001600160a01b0387168452600501909152902054611972828761256f565b5201611923565b604051806102c786826118be565b63d1b5191160e01b5f52600b60045260245ffd5b3461024d57604036600319011261024d576004356119b88161023c565b6024356001600160a01b038281165f81815260036020526040902060010154909391163303611a35577f075a13b9dbfb2e30d678551b8c2a4f9ede7468ca5273fa902a41d0e577566669925f526003602052611a178260405f20614dde565b611a26604051928392836124f4565b0390a160405160018152602090f35b63d1b5191160e01b5f52600a60045260245ffd5b805180835260209291819084018484015e5f828201840152601f01601f1916010190565b602081016020825282518091526040820191602060408360051b8301019401925f915b838310611a9f57505050505090565b9091929394602080611abd600193603f198682030187528951611a49565b97019301930191939290611a90565b602036600319011261024d576004356001600160401b03811161024d573660238201121561024d578060040135906001600160401b03821161024d573660248360051b8301011161024d576102c7916024611b279201612d5f565b60405191829182611a6d565b3461024d57604036600319011261024d57600435611b508161023c565b602435604051635f35b0b360e01b81523360048201529091906020816024817f00000000000000000000000000000000000000000000000000000000000000006001600160a01b03165afa908115610a4857611bbc91610ad1915f916110f85750600160fb1b16151590565b6110e4576102c791610bee91612eaf565b3461024d57602060ff611c09611be236610251565b6001600160a01b039182165f90815280865260408082209290931681526020919091522090565b54166040519015158152f35b5f91031261024d57565b3461024d575f36600319011261024d57604051635f35b0b360e01b81523360048201526020816024817f00000000000000000000000000000000000000000000000000000000000000006001600160a01b03165afa8015610a4857611c93915f91611ca5575b50600160ff1b16151561264b565b600680546001600160a01b0319169055005b611cbe915060203d602011610a4157610a33818361071d565b5f611c85565b3461024d57604036600319011261024d576020611485600435611ce68161023c565b6001600160a01b03165f90815260038352604090205461271060df9190911c603f16602435020490565b60c036600319011261024d57600435611d288161023c565b602435611d348161023c565b60443590611d4182610383565b606435611d4d81610383565b60843590611d5a8261023c565b60a4356001600160401b03811161024d57611d79903690600401610394565b9490935f516020615bea5f395f51905f525c6001600160a01b03166113cd57611daa96611da533613ac7565b61303e565b90610db9613ab5565b3461024d57606036600319011261024d57600435602435611dd381610383565b60443590611de08261023c565b5f516020615bea5f395f51905f525c6001600160a01b031661051857611e0e92611e0933613ac7565b6135dd565b90611e17613ab5565b604080516001600160801b03928316815292909116602083015290f35b60a036600319011261024d57600435611e4c8161023c565b602435611e588161023c565b60443590611e6582610383565b6064356001600160401b03811161024d57611e84903690600401610394565b6084949194356001600160401b03811161024d57611ea6903690600401610394565b90915f516020615bea5f395f51905f525c6001600160a01b031661051857335f516020615bea5f395f51905f525d611edc613ad8565b611ee4612ca7565b96611eed612ca7565b966001606d1b6001600160801b03611f11836002611f0a8b6102cb565b0154612466565b161080159061229c575b8015612264575b61225057611f6b9281611f418b611f5394611f3c8b6102cb565b614b5a565b6001600160801b031692833389613bca565b611f656001600160a01b03861661155e565b33614a46565b6001600160a01b03841615918590831561216c575b505050611f8b61075f565b3381526001600160a01b03831660208201526001600160a01b0384166040820152611fb59061494e565b94611fc8865f52600460205260405f2090565b6040820180519196909390916001600160801b031690611fe88260801b90565b60208501519091906001600160801b0316606086018051909a9189916001600160801b03166001600160801b031660809190911b1760208701516001600160801b03166060880180519096918d916001600160801b03166001600160801b031660809190911b1793612059956149d9565b5f146120d86120f47fee89c9fd704272905456294f1b2b88581ebe0241f72c15b4f3db31d19388f6af9a610d766120d86120e66121399b61210299610d769861215857508051610e93906120d8906001600160801b03165b337f0000000000000000000000000000000000000000000000000000000000000000614a9d565b91516001600160801b031690565b99516001600160801b031690565b94516001600160801b031690565b604080516001600160a01b0396871681529690951660208701529385019190915260608401526080830191909152819060a0820190565b0390a2612144613b35565b61214c613ab5565b60405160018152602090f35b6120d8612167610e9392612d2a565b6120b1565b6122066122489361219760026121818a6102cb565b015460408c01516001600160801b0316906153d8565b6001600160801b031660608501908152926121eb6121de6121b78b6102cb565b5486516121cc906001600160801b0316610e63565b603f6127109260d91c16820390040290565b6001600160801b03168552565b83516121ff906001600160801b0316610e63565b338a613bca565b61223661221b6001600160a01b03881661155e565b825161222f906001600160801b0316610e63565b9033614a46565b6122426120d8876102cb565b90614b5a565b5f8481611f80565b63d1b5191160e01b5f52600760045260245ffd5b5061227d612271876102cb565b54600160ff1b16151590565b801561228a575b15611f22565b50612297612271886102cb565b612284565b506001600160a01b0386811690881614611f1b565b3461024d57608036600319011261024d576004356122ce8161023c565b6024356122da8161023c565b604435915f516020615bca5f395f51905f526106ba606435936001600160a01b0384169361233c90879061232f903388141580612422575b612392576001600160a01b03165f90815260016020526040902090565b905f5260205260405f2090565b6123478682546124da565b90556001600160a01b0381165f90815260016020526040902061236b90879061232f565b6123768682546124e7565b90556040516001600160a01b03909116949091829133836124f4565b6123c98361232f336123b48560018060a01b03165f52600260205260405f2090565b9060018060a01b03165f5260205260405f2090565b5489600182016123ef575b50506001600160a01b03165f90815260016020526040902090565b6123f8916124da565b61241a8461232f336123b48660018060a01b03165f52600260205260405f2090565b555f896123d4565b5061244d610ad1612446336123b48560018060a01b03165f525f60205260405f2090565b5460ff1690565b612312565b634e487b7160e01b5f52601160045260245ffd5b6001600160801b0391821690821601919082116106c957565b6001600160a01b0390911681526001600160801b03909116602082015260400190565b604051906124af826106e2565b5f6080838281528260208201528260408201528260608201520152565b5f198101919082116106c957565b919082039182116106c957565b919082018092116106c957565b6001600160a01b039091168152602081019190915260400190565b9081602091031261024d575190565b6040513d5f823e3d90fd5b906125338261078c565b612540604051918261071d565b8281528092612551601f199161078c565b0190602036910137565b634e487b7160e01b5f52603260045260245ffd5b80518210156125835760209160051b010190565b61255b565b9291604084019360408152825180955260206060820193015f955b8087106125bf575050610276939450602081840391015261188b565b81516001600160a01b0316855260019690960195602094850194909101906125a3565b80546001600160a01b0319166001600160a01b03909216919091179055565b6001600160801b0390811660631901919082116106c957565b6001600160801b039081165f1901919082116106c957565b6001600160801b0391821690821603919082116106c957565b1561024d57565b907f42e3c955499470d3dc1078d90519d90691c504c8856ea058daf2c1436c2dab4c9160018060a01b0381165f52600360205261269582600160405f20016125e2565b604080516001600160a01b03928316815292909116602083015290a1565b929193906126bf613ad8565b600160ff1b8516158015612803575b6127f0577f8f2eb922ee1b2f92e0051f7949a8c191264807725a1e435e91abebd28583830a946001600160801b038216936127e29361270f91863389613bca565b612722818361271d886102cb565b614824565b61273361272e866102cb565b61485f565b6127a161275e61274161075f565b3381526001600160a01b03881660208201525f604082015261494e565b946120b1612774875f52600460205260405f2090565b9161278f818760801c948b6127898760801b90565b91614994565b611f656001600160a01b038a1661155e565b604080519586526001600160a01b0390961660208601526001600160801b0316948401949094526060830193909352608082019290925290819060a0820190565b0390a160019061074d613b35565b63d1b5191160e01b5f526004805260245ffd5b506001600160a01b0361281a6001611504876102cb565b1615156126ce565b6001600160a01b039182168152911660208201526040810191909152606081019190915260a060808201819052810183905260c09290918190848401375f828201840152601f01601f1916010190565b92949391909161288183614af9565b6129ba57612898612892308561475d565b60011c90565b8083116129a8575060206128fa916128c4846128b3876102cb565b5490603f6127109260df1c16020490565b6001600160a01b03909616976128db858a88614154565b6040516323e30c8b60e01b8152938492839289888a3360048801612822565b03815f8a5af18015610a48577f439148f0bbc682ca079e46d6e2c2f0c1e3b820f1a291b069d8882abf8cf18dd9915f91612989575b500361296e579061091c6129699495612951610e63610e638761295a976124e7565b90309084614b19565b6004019081549060801b019055565b600190565b62678c5b60e81b5f526001600160a01b03851660045260245ffd5b6129a2915060203d602011610a4157610a33818361071d565b5f61292f565b63fd9a760960e01b5f5260045260245ffd5b63d1b5191160e01b5f52601d60045260245ffd5b96919592939092905f516020615bea5f395f51905f525c6001600160a01b031661051857335f516020615bea5f395f51905f525d612a0a613ad8565b6001600160a01b03612a2060016115048a6102cb565b1615801590612c92575b612c7e57608084901c95612a409187338a613bca565b6001600160801b03831691612a579183338a613bca565b612a5f612ca7565b9182612a6a886102cb565b91612a7492614b5a565b612a7d856102cb565b60408301805190929190859087906001600160801b031660801b6001600160801b0390911617612aac92614824565b612ab461075f565b3381526001600160a01b03871660208201526001600160a01b0388166040820152612ade9061494e565b82519095906001600160801b031660801b60208501519092906001600160801b0316606086018051909491906001600160801b03166001600160801b031660809190911b17612b2b61073e565b6001600160a01b038b168152916001600160a01b038c16602084015260408301528360608301526080820152612b69885f52600460205260405f2090565b90612b7391612cdb565b612b87826001600160a01b038a1633614a46565b612b9b906001600160a01b038a1633614a46565b82516001600160801b0316612baf90612d2a565b612bda90337f0000000000000000000000000000000000000000000000000000000000000000614a9d565b925193519151604080519788526001600160a01b039889166020890152989097169786019790975260608501939093526001600160801b0390811660808581019190915295861b9181169190911760a08401526001600160801b03199190941b16919092161760c08201527f3fc0293a5a7bc73de220f0814bbbebc31e77ffcd41bf5e8be187471747bd7caa9060e090a1612c73613b35565b60019061074d613ab5565b63d1b5191160e01b5f52600560045260245ffd5b50612ca2610ad16122718a6102cb565b612a2a565b60405190608082018281106001600160401b038211176106fd576040525f6060838281528260208201528260408201520152565b906080600491612cf460018060a01b03825116856125e2565b6020810151612d0f906001600160a01b0316600186016125e2565b60408101516002850155606081015160038501550151910155565b60011b6002600160801b03811691906002600160811b031682036106c957565b9081602091031261024d575161027681610383565b612d67613ad8565b612d708261078c565b91612d7e604051938461071d565b808352601f19612d8d8261078c565b015f5b818110612e065750505f5b818110612dae575050509061074d613b35565b5f80612dbb838587612e17565b90612dcb60405180938193612e58565b0390305af4612dd8612e80565b9015612dfe5790600191612dec828761256f565b52612df7818661256f565b5001612d9b565b602081519101fd5b806060602080938801015201612d90565b91908110156125835760051b81013590601e198136030182121561024d5701908135916001600160401b03831161024d57602001823603811361024d579190565b908092918237015f815290565b6001600160401b0381116106fd57601f01601f191660200190565b3d15612eaa573d90612e9182612e65565b91612e9f604051938461071d565b82523d5f602084013e565b606090565b6001600160a01b0381165f908152600360205260408120929190612ee0612edb60fb85901c5b60071690565b613588565b612ef5612ef0612ed58660f71c90565b61359e565b612f0a612f05612ed58760f41c90565b6135b4565b612f1d612f178760ef1c90565b601f1690565b90612f2b612f178860ea1c90565b92612f39612f178960e51c90565b9480158015613036575b801561302e575b8015613026575b801561301e575b8015613016575b61300e575b60649593612f80612f8094612f80612f859895612f80956124e7565b6124e7565b14613006575b15612ff2577fe40cf68f61d9a4e510244481f5aa34ba68de31cf3f9aa360604d688115d640c892612fd9612fc8612fc28560e51c90565b60e51b90565b82546001600160e51b0316906124e7565b9055612fea604051928392836124f4565b0390a1600190565b63d1b5191160e01b5f52602860045260245ffd5b506001612f8b565b5f9650612f64565b508515612f5f565b508415612f58565b508315612f51565b508215612f4a565b508115612f43565b93969591949661304c613ad8565b6002613057866102cb565b015415801561355b575b801561354a575b8015613535575b8015613522575b610ec65760646001600160801b038516101561333d576001600160a01b0381168015159081613332575b506132b1575b5060026130b2856102cb565b01546130bd856102cb565b549060026130ca846102cb565b0154906130d6846102cb565b54956130e061074f565b6001600160801b038a16815260208101995f8b5261312760408301935f855260608401975f89526080850196875260a085015260c0840196875260e084019a8b528361449e565b8151613146906001600160801b031684516001600160801b0316610d22565b6001600160801b03828116911610801590613299575b610dca5782516001600160801b031691516001600160801b031661317f91612632565b6001600160801b031660809190911b1796519851969889976001600160801b0316906001600160801b03821661271060cc9290921c607f16020490816131c491612632565b6001600160801b031660809190911b179a8b966131ec916001600160801b038a16338c613bca565b6131f5886102cb565b915190516001600160801b03169061320c92614dfe565b613215836102cb565b90518460801c9061322592614dfe565b6132396001600160801b0384163384614154565b51604080516001600160801b0390921682526020820194909452928301919091526001600160a01b039081169216907f770ac49eb4a65be664dd014b1b315647b776f18742f5b7e141e8cb18cec6cea890606090a35b919061074d613b35565b508551629896806001600160801b039091161061315c565b7f00000000000000000000000000000000000000000000000000000000000000006001600160a01b0316803b1561024d576040516307543e3f60e41b81523360048201526001600160a01b039290921660248301525f908290604490829084905af18015610a4857156130a657806115c55f61332c9361071d565b5f6130a6565b90503314155f6130a0565b94926001600160a01b03861615610ec6575f95600261335b876102cb565b015491613367876102cb565b54926002613374866102cb565b015491613380866102cb565b54976133d6610e6361339061074f565b6001600160801b0384168152602081019d8e52610e5660408201955f8752606083019a5f8c526080840198895260a084015260c0830198895260e083019d8e5282614203565b1580159061350a575b610eb25781516001600160801b031660801b6001600160801b03909116179751995197998a986001600160801b0316906001600160801b03821661271060cc9290921c607f160204908161343291612466565b6001600160801b031660809190911b179b8c9761345a916001600160801b038a16338a613bca565b613463896102cb565b915190516001600160801b03169061347a92614dfe565b613483846102cb565b90518560801c9061349392614dfe565b6134a8906001600160801b0386169087614154565b516134bb906001600160801b031661356f565b604080519182526020820194909452928301919091526001600160a01b039081169216907f770ac49eb4a65be664dd014b1b315647b776f18742f5b7e141e8cb18cec6cea890606090a361328f565b508551629896806001600160801b03909116106133df565b5060c76001600160801b03851611613076565b506001600160a01b038581169083161461306f565b506001600160801b03861615613068565b506002613567836102cb565b015415613061565b908160801b91808304600160801b14901517156106c957565b90600a820291808304600a14901517156106c957565b908160011b91808304600214901517156106c957565b908160021b91808304600414901517156106c957565b818102929181159184041417156106c957565b909291926135e9613ad8565b8161365d61360f613602835f52600460205260405f2090565b546001600160a01b031690565b6136586136296001611504865f52600460205260405f2090565b61364861363461075f565b338152936001600160a01b03166020850152565b6001600160a01b03166040830152565b61494e565b03613a5e5761366a613a72565b50613673613a72565b50613689613602835f52600460205260405f2090565b906136a16001611504855f52600460205260405f2090565b6040516354c2c80d60e11b8152336004820152957f00000000000000000000000000000000000000000000000000000000000000006001600160a01b038116959093909290916020896024818a5afa988915610a48575f99613a2d575b50604051635f35b0b360e01b81526001600160a01b03821660048201526020816024818b5afa8015610a4857613741915f91613a02575b50600160a01b16151590565b15613a2757505f975b6001600160a01b0389811690821603613a2157505f945b604051635f35b0b360e01b81526001600160a01b038716600482015296602090889060249082905afa958615610a48576138869961388c61384d7f01bd856b4be0836aa20e19ba8f86ff29d99a51a5cf79472b8e899272cfb481969661393e946137de61394e9c61395c9e5f91613a025750600160a01b16151590565b156139fd57505f5b6137ef876102cb565b6137f8896102cb565b9061384861380e8d5f52600460205260405f2090565b9361382961381a61075f565b6001600160801b039097168752565b6001600160a01b03891660208701526001600160a01b03166040860152565b614e18565b909d818f94939b6138633360056109218c6102cb565b5489600182116139cc575b50506001600160a01b038a16613965575b3390615389565b60801b90565b60208901516138b1906001600160801b031660408b01516001600160801b0316610d76565b60208301519091906138f4906138dd906001600160801b031660408601516001600160801b0316610d76565b8b51909490610d76906001600160801b03166120d8565b604080516001600160a01b03988916815298881660208a015294909616938701939093526060860192909252608085019190915260a084015260c0830191909152819060e0820190565b0390a2516001600160801b031690565b92516001600160801b031690565b9061074d613b35565b6139743360056109218d6102cb565b548a60018211613986575b505061387f565b6139c5916139b96139a961155e6139be9461155e6109a0336005610921856102cb565b6139b2836124cc565b9033615338565b6124cc565b338c614154565b5f8a61397f565b6139f6916139b96139a961155e6139ef9461155e6109a0336005610921856102cb565b338b614154565b5f8961386e565b6137e6565b613a1b915060203d602011610a4157610a33818361071d565b5f613735565b94613761565b9761374a565b613a5091995060203d602011613a57575b613a48818361071d565b810190613aa0565b975f6136fe565b503d613a3e565b63d1b5191160e01b5f52600860045260245ffd5b60405190606082018281106001600160401b038211176106fd576040525f6040838281528260208201520152565b9081602091031261024d57516102768161023c565b5f5f516020615bea5f395f51905f525d565b5f516020615bea5f395f51905f525d565b5f516020615baa5f395f51905f525c15613b10575b60015f516020615baa5f395f51905f525c015f516020615baa5f395f51905f525d565b345f516020615c0a5f395f51905f525d5f5f516020615baa5f395f51905f525d613aed565b5f195f516020615baa5f395f51905f525c015f516020615baa5f395f51905f525d5f516020615baa5f395f51905f525c1580613bb3575b613b7257565b5f8080805f516020615c0a5f395f51905f525c815f516020615c0a5f395f51905f525d335af115613b9f57565b63d1b5191160e01b5f52601e60045260245ffd5b505f516020615c0a5f395f51905f525c1515613b6c565b90936001600160801b03909216929091613be383614af9565b15613bf55750505061074d91506157e7565b60036001600160a01b03841603613c145750505061074d913090615737565b80613c2657505061074d923091615798565b90613c3391810190615402565b60ff613c40825160ff1690565b1660028103613e2157506020613c6191015160208082518301019101615625565b6001600160a01b0382169073cafbbad55eb09efe7bec8408cff9932be7d9a7fa8203613d9b57604051623f675f60e91b81526001600160a01b038616600482015291602090839060249082905afa908115610a4857613d535f939284938491613d7c575b50613d45602084015193613cdd604082015160ff1690565b60608201516080909201516040516323f2ebc360e21b60208201526001600160a01b038d16602482015230604482015260648101959095526084850196909652600160a485015260ff1660c484015260e4830152610104820193909352918290610124820190565b03601f19810183528261071d565b60208151910182855af115613d6d5761074d923091615798565b63203aa5b560e11b5f5260045ffd5b613d95915060203d602011610a4157610a33818361071d565b5f613cc5565b5f915080613e1c839251613d45602084015193613dbc604082015160ff1690565b606082015160809092015160405163d505accf60e01b60208201526001600160a01b038d1660248201523060448201526064810195909552608485019690965260ff1660a484015260c483015260e4820193909352918290610104820190565b613d53565b9193929160038103613ebd575050613e3890615b95565b73a50eb0d081e986c280eff32dae089939ea07bd223b1561024d57604051631b63c28b60e11b81526001600160a01b0392831660048201523060248201529082166044820152911660648201525f816084818373a50eb0d081e986c280eff32dae089939ea07bd225af18015610a4857613eaf5750565b806115c55f61074d9361071d565b6004810361401557506020613edd910151602080825183010191016154a3565b90613f92613eeb8351615b95565b92613f45613f02604083015165ffffffffffff1690565b613f2a613f0d61077d565b6001600160a01b038a168152966001600160a01b03166020880152565b65ffffffffffff604087015265ffffffffffff166060860152565b6020810151613f5261075f565b9485523060208601526040850152608081015190613f8c613f7c606060a084015193015160ff1690565b60f81b6001600160f81b03191690565b9161550e565b9173a50eb0d081e986c280eff32dae089939ea07bd223b1561024d576040516302b67b5760e41b8152925f9184918291613fd1919088600485016155ad565b03818373a50eb0d081e986c280eff32dae089939ea07bd225af1918215610a4857613e3892614001575b50615b95565b806115c55f61400f9361071d565b5f613ffb565b929392600514614026575b50505050565b61404060206140ae920151602080825183010191016154a3565b805161405c61404d61076e565b6001600160a01b039096168652565b6020850152604081015160208201519061407461075f565b9586526020860152604085015261408961076e565b308152926020840152608081015190613f8c613f7c606060a084015193015160ff1690565b9173a50eb0d081e986c280eff32dae089939ea07bd223b1561024d576140ea5f93604051958694859463187945bd60e11b865260048601615539565b03818373a50eb0d081e986c280eff32dae089939ea07bd225af18015610a4857614117575b808080614020565b806115c55f6141259361071d565b5f61410f565b610d76906141408360801d8260801d01615674565b926001600160801b03918216911601615674565b91909161416081614af9565b1561418a57505f80808093614175955af11590565b61417b57565b633607a14f60e11b5f5260045ffd5b6001600160a01b0381166003036141ba575061074d91732387fd72c1da19f6486b843f5da562679fbb4057614154565b60445f8080936020956040519763a9059cbb60e01b84526004526024525af13d15601f3d1160015f5114161716905f60605260405261074d575b633c9fd93960e21b5f5260045ffd5b9061420d90612601565b9060a08101916142756142686142586142438651614234610e63885160018060801b031690565b607f6127109260c51c16020490565b6001600160801b031660408601908152610e56565b84516001600160801b0316612466565b6001600160801b03168352565b8151614289906001600160801b0316610e63565b15158061448c575b156144875761429f9061261a565b926143ec83516142be60808501916142b8835160801c90565b906156c6565b60e085018051916142db610e6360c08901946142b8865160801c90565b6001600160801b0390911610614470576142fb90516142b8835160801c90565b915b805161430984826153d8565b875190916001600160801b039182169183168211156143f257505086516143a39190614355906143489083906001600160801b0316612632565b612632565b6001600160801b03168952565b61438a6143638686516153d8565b60208a018051909161437d916001600160801b0316612466565b6001600160801b03169052565b8251906001600160801b0316608086901b175b9061570d565b90526143cf81516143c96143b785836153d8565b6001600160801b0316608086901b1790565b90615722565b90525b606084018051909161437d916001600160801b0316612466565b92614275565b9091506144009294506156ef565b9161442961440f8484516153d8565b602088018051909161437d916001600160801b0316612466565b80518651614452919061439d906001600160801b03165b6001600160801b0316608087901b1790565b905261446681516143c96143b785836153d8565b90525f84526143d2565b5061448186516142b8845160801c90565b916142fd565b505050565b506001600160801b0381161515614291565b60a0810180518251939491936144c19190614234906001600160801b0316610e63565b6001600160801b031660408301908152938451614502906144f5906001600160801b031685516001600160801b0316612632565b6001600160801b03168452565b8251614516906001600160801b0316610e63565b15158061474b575b156146d45761452c9061261a565b93614647845161454560808601916142b8835160801c90565b60e08601805191614562610e6360c08a01946142b8865160801c90565b6001600160801b03909116106146bd5761458290516142b8835160801c90565b915b805161459084826153d8565b885190916001600160801b0391821691831682111561464d575050875161461691906145d7906145ca9083906001600160801b0316612632565b6001600160801b03168a52565b6145ff6145e58686516153d8565b60208b018051909161437d916001600160801b0316612466565b8251906001600160801b0316608086901b176143c9565b905261462a815161439d6143b785836153d8565b90525b606085018051909161437d916001600160801b0316612466565b93614502565b90915061465b9294506156ef565b9161468461466a8484516153d8565b602089018051909161437d916001600160801b0316612466565b8051875161469f91906143c9906001600160801b0316614440565b90526146b3815161439d6143b785836153d8565b90525f855261462d565b506146ce87516142b8845160801c90565b91614584565b5081519093906146ec906001600160801b0316610e63565b92836146f85750505050565b61472b61437d9261437d61471b61474297855190607f6127109260c51c16020490565b82516001600160801b0316612632565b5182516001600160801b031690610d229082614234565b5f808080614020565b506001600160801b038116151561451e565b61476681614af9565b1561477057503190565b60036001600160a01b038216036147e857506040516370a0823160e01b81526001600160a01b03919091166004820152602081602481732387fd72c1da19f6486b843f5da562679fbb40575afa908115610a48575f916147cf575b5090565b610276915060203d602011610a4157610a33818361071d565b6040516370a0823160e01b81526001600160a01b0392831660048201529160209183916024918391165afa908115610a48575f916147cf575090565b60028101829055600381019190915562c3508160e61b6001600160e51b039092169182019182106106c95761074d91815560013391016125e2565b5f61486d612edb6016612ed5565b61487b612ef0610161612ed5565b614889612f05610b0d612ed5565b614895620161a8612f17565b906148a2622c3508612f17565b926148b0630586a102612f17565b9480158015614946575b801561493e575b8015614936575b801561492e575b8015614926575b61491e575b60649593612f80612f8094612f806148f79895612f80956124e7565b14614916575b15612ff257614912612fc8630586a102612fc2565b9055565b5060016148fd565b5f96506148db565b5085156148d6565b5084156148cf565b5083156148c8565b5082156148c1565b5081156148ba565b6040805182516001600160a01b0390811660208084019182528501518216838501529390920151909116606080830191909152815261498e60808261071d565b51902090565b916149c0600261491294959395600381019660018060801b03885416156149c9575b500191825461412b565b9055825461412b565b6149d390826125e2565b5f6149b6565b93614a05919293600386019360018060801b0385541615614a36575b506149c06002870191825461412b565b90556001600160a01b038116614a1a57505050565b81614a2d600492600161491295016125e2565b0191825461412b565b614a4090876125e2565b5f6149f5565b91909160018060a01b031690815f52600160205260405f20835f5260205260405f208054908282018092116106c9575f925f516020615bca5f395f51905f5292614a98925560405191829133836124f4565b0390a4565b91614ac2926020925f60405180968195829463067e356d60e21b84526004840161247f565b03926001600160a01b03165af1908115610a48575f91614ae0575090565b610276915060203d6020116117dc576117cd818361071d565b6001600160a01b031660018114908115614b11575090565b600291501490565b929190614b2584614af9565b15614b3657505061074d91506157e7565b6001600160a01b038416600303614b515761074d9350615737565b61074d93615798565b80549092919061271060d99190911c603f166001600160801b03831602046001600160801b0316825281516001600160801b0316614b9791612632565b6001600160801b0316606082018181526002840180549092614bb8916156ef565b6001600160801b031660408401908152926004850190815490614bdb8260801c90565b60039097018054909760801b6001600160801b039091161784516001600160801b0316614c07916156ef565b6001600160801b03908116602083018181529251614c259216612466565b90516001600160801b03166001600160801b031660809190911b17614c499161412b565b9055815492516001600160801b031690516001600160801b03166001600160801b031660809190911b179182614c7e9161412b565b90558154906149129161412b565b60018060a01b031660038114908115614b11575090565b9081602091031261024d575161027681611250565b9091906001600160a01b031660038103614d69575060405163095ea7b360e01b81529160209183918291614cfb916001600160801b0390911690600484016124f4565b03815f732387fd72c1da19f6486b843f5da562679fbb40575af1908115610a48575f91614d3a575b5015614d2b57565b633e3f8f7360e01b5f5260045ffd5b614d5c915060203d602011614d62575b614d54818361071d565b810190614ca3565b5f614d23565b503d614d4a565b60405163095ea7b360e01b81529260209284929183915f918391614d9c916001600160801b0390911690600484016124f4565b03925af1908115610a48575f91614d3a575015614d2b57565b610d7690614dca8360801d8260801d03615674565b926001600160801b03908116911603615674565b6307ffffff60e51b8154169160018060e51b031682018092116106c95755565b600490614912926002820155019182549060801b9061412b565b9390929192614e25613a72565b50614e2e613a72565b93614e3d600282015460801c90565b60038201549290614e679060801b6001600160801b0385161786516001600160801b0316906156ef565b948754976002810198895490614e89610e63614e838460801c90565b83615831565b6001600160801b038a1611908115615309575b506152f557614f6990614f39614eef614f29614eff614ed7614ec2600489015460801c90565b600389015460018060801b03169060801b1790565b8851614efa906001600160801b0316948580936156ef565b9c610e938160801c90565b6156ef565b614f19614f0a61075f565b6001600160801b03909c168c52565b6001600160801b031660208b0152565b6001600160801b03166040890152565b6040870151969a8b97614f5d906001600160801b031660808c901b175b8093614db5565b90556003830154614db5565b600382015560048101548551614fca91614fbd916001600160801b03166020890151614fae906001600160801b031692608083901b6001600160801b0385161761176d565b60048601556143438b89615847565b6001600160801b03168652565b8054604086015161500a91614ffa91614feb906001600160801b0316610e63565b603f6127109260d31c16020490565b6001600160801b03166020870152565b8451615080906020906001600160801b03168482018051909891615072916040906001600160a01b0316970180519097906001600160a01b0316604085015190919061506b906001600160801b0316868801516001600160801b0316610d70565b9288615923565b01516001600160801b031690565b6001600160801b0381166152d7575b505060018301546001600160a01b03166150a95750505050565b909192955060048201906150be825460801c90565b6003840180549098916150e191899160801b6001600160801b03909116176156ef565b6151128861510d6004890154610e93600261510485614efa85610e938160801c90565b9b015460801c90565b6153d8565b9361512d61511e61075f565b6001600160801b039093168352565b6001600160801b0390961660208201908152956001600160801b03909416604082019081529381998654976002880198895490615170610e63614e838460801c90565b6001600160801b038e16119081156152a6575b50615292576152596152759561523b615267948f61522e6147429f8f8f91614feb9161521f6145ca8f6143439f6151de6152599f610e63976151d5614f56610e569e610d768e5160018060801b031690565b90558254614db5565b905580548c519091906001600160801b03168b51909190615218906001600160801b031693608084901b6001600160801b0386161761176d565b9055612632565b5492516001600160801b031690565b6001600160801b03168252565b956001600160801b03871661527b575b50516001600160801b031690565b95516001600160a01b031690565b95516001600160801b031690565b93615923565b61528a81546104cf8960801b90565b90555f61524b565b63d1b5191160e01b5f52602060045260245ffd5b89519091506152c590610e639084906001600160801b03165b93615831565b6001600160801b03909116115f615183565b6152eb6004916104cf838501549160801b90565b9101555f8061508f565b63d1b5191160e01b5f52601f60045260245ffd5b845190915061532690610e639084906001600160801b03166152bf565b6001600160801b03909116115f614e9c565b91909160018060a01b0316805f52600160205260405f20835f5260205260405f208054908382039182116106c9575f935f516020615bca5f395f51905f5292614a98925560405191829133836124f4565b6001600160a01b031691823b1561024d576153bd925f9283604051809681958294637bd3ca3560e01b84526004840161247f565b03925af18015610a48576153ce5750565b5f61074d9161071d565b61027691608082901c6001600160801b03918216919092160204615674565b60ff81160361024d57565b60208183031261024d578035906001600160401b03821161024d57019060408282031261024d576040519161543683610702565b8035615441816153f7565b83526020810135906001600160401b03821161024d570181601f8201121561024d5780359061546f82612e65565b9261547d604051948561071d565b8284526020838301011161024d57815f9260208093018386013783010152602082015290565b908160c091031261024d576040519060c08201908282106001600160401b038311176106fd5760a09160405280518352602081015160208401526040810151604084015260608101516154f5816153f7565b606084015260808101516080840152015160a082015290565b929190604051936020850152604084015260ff60f81b1660608301526041825261074d60618361071d565b909261559161010093604061027697966155668682516020809160018060a01b0381511684520151910152565b60208181015187840152910151606086015281516001600160a01b03166080860152015160a0840152565b6001600160a01b031660c082015260e081018290520190611a49565b604061027694936101009360018060a01b0316835265ffffffffffff6060825160018060a01b03815116602087015260018060a01b036020820151168587015282858201511682870152015116608084015260018060a01b0360208201511660a0840152015160c08201528160e08201520190611a49565b908160a091031261024d5760806040519161563f836106e2565b8051835260208101516020840152604081015161565b816153f7565b6040840152606081015160608401520151608082015290565b6001600160801b03811161568e576001600160801b031690565b505f90565b6001600160801b039091169081156156b2576001600160801b03160490565b634e487b7160e01b5f52601260045260245ffd5b60bb1c6103ff1680156147cb57600a0260018060801b0381169081036106c95761027691615693565b610276916001600160801b0380831660809390931c91160204615674565b610d7690614dca8360801d8260801d01615674565b610d76906141408360801d8260801d03615674565b6040516323b872dd60e01b81526001600160a01b0391821660048201529116602482015260448101919091526020905f9060649082732387fd72c1da19f6486b843f5da562679fbb40575af13d15601f3d1160015f5114161716156141f457565b6040516323b872dd60e01b81526001600160a01b03928316600482015292909116602483015260448201929092526020915f9160649183905af13d15601f3d1160015f5114161716156141f457565b5f516020615c0a5f395f51905f525c811161581d575f516020615c0a5f395f51905f525c035f516020615c0a5f395f51905f525d565b63d1b5191160e01b5f52601c60045260245ffd5b60b11c6103ff1680156147cb5761027691615693565b9061491290600383016158cb61589a8254956158638760801c90565b906158ab6002820198610d7661587a8b5460801c90565b6001600160801b03908116968a8216968892889291168202839004615674565b936001600160801b03160204615674565b60018201549093906001600160a01b03166158d8575b5050508254614db5565b905582549060801b61176d565b61176d6004615919930193610d76855493615907818460018060801b036158ff8960801c90565b160204615674565b926001600160801b0386160204615674565b90555f80806158c1565b8054909491939192909161594d606460e585901c601f166001600160801b03881602048096612632565b6001600160801b03811694909290600a60fb86901c60071687020492603260f787901c600f16880204956159a5601960f483901c6007168a020498606460ef84901c601f168202049290601f60649260ea1c16020490565b976001600160a01b038316615a76575050506159c19083612466565b6001600160801b0316335f908152600590980160208190526040909820908154906159eb916124e7565b90556159f78585612466565b6001600160801b03166001600160a01b039091165f90815260208890526040902090815490615a25916124e7565b9055615a3091612632565b90615a3a91612632565b90615a4491612632565b90615a4e91612466565b6001600160801b031690615a69905f805260205260405f2090565b90815490614912916124e7565b6104729593965099615b6799929a615b549995610e6399615aa0600185015460018060a01b031690565b6001600160a01b03811615615b84576001600160a01b03165f9081526005850160205260409020615adf905b805490926001600160801b0316906124e7565b90555b6001600160a01b03811615615b6a576001600160a01b03165f90815260058084016020526040909120615b3793615acc939091615b1c9085565b90555b019b8c9060018060a01b03165f5260205260405f2090565b9055615b4d615acc8a5f805260205260405f2090565b9055612466565b335f908152602093909352604090922090565b55565b506005615b7e615acc92615b379496612466565b94615b1f565b50615b8f9195612466565b93615ae2565b6001600160a01b03811690810361568e579056fe87b52c29898e62efc1f9a9b00a26dcbdaee98d728c56841703077b7c0d20dee71b3d7edb2e9c0b0e7c525b20aaaef0f5940d2ed71663c7d39266ecafac728859e2afc7ec4dbb9bfdb1b8e8bcf21a055747c25bf2faaea9cb5a134005381f4843cbe27d488af5b5c1b0bd8d89be6fdfeaed3ad42719044fd9b728f33df1d6f1d1a2646970667358221220e4e179fcf55107ff39dd8f992d40a1e2564ba43f640d08381752c0ddac2d9f2a64736f6c634300081d0033","linkReferences":{}},"methodIdentifiers":{"allowance(address,address,uint256)":"598af9e7","approve(address,uint256,uint256)":"426a8493","balanceOf(address,uint256)":"00fdd58e","buyGood(address,address,uint128,uint128,address,bytes)":"f151e786","buyGoodCheck(address,address,uint128,uint128)":"3bd16436","changeGoodOwner(address,address)":"41e12373","changeReStakingContrat(address)":"119ac094","collectCommission(address[])":"0d2700ab","disinvestProof(uint256,uint128,address)":"f4662f20","flashFee(address,uint256)":"d9d98ce4","flashLoan(address,address,uint256,bytes)":"5cffe9de","getGoodState(address)":"08238466","getProofState(uint256)":"3f117740","getRecentGoodState(address,address)":"00796f71","goodWelfare(address,uint128,bytes)":"06cf4e7f","initGood(address,uint256,address,uint256,bytes,bytes)":"5f755d65","initMetaGood(address,uint256,uint256,bytes)":"51ff9a16","investGood(address,address,uint128,bytes,bytes)":"f878e809","isOperator(address,address)":"b6363cf2","ishigher(address,address,uint256)":"1412723a","maxFlashLoan(address)":"613255ab","modifyGoodConfig(address,uint256)":"b1efb921","multicall(bytes[])":"ac9650d8","queryCommission(address[],address)":"9b222794","removeSecurityKeeper()":"c9544f18","securityKeeper(address)":"3c9fe544","setOperator(address,bool)":"558a7297","stakeETH(address,uint128)":"73db1792","supportsInterface(bytes4)":"01ffc9a7","syncReward(address)":"8c706eb5","transfer(address,uint256,uint256)":"095bcdb6","transferFrom(address,address,uint256,uint256)":"fe99049a","unstakeETH(address,uint128)":"81a860d1","updateGoodConfig(address,uint256)":"a3b74a49"},"id":47}