{"abi":[{"type":"constructor","inputs":[{"name":"_TTS_Contract","type":"address","internalType":"contract I_TTSwap_Token"}],"stateMutability":"nonpayable"},{"type":"function","name":"DOMAIN_SEPARATOR","inputs":[],"outputs":[{"name":"","type":"bytes32","internalType":"bytes32"}],"stateMutability":"view"},{"type":"function","name":"buyGood","inputs":[{"name":"_goodKey1","type":"tuple","internalType":"struct T_GoodKey","components":[{"name":"ercType","type":"uint8","internalType":"uint8"},{"name":"contractAddress","type":"address","internalType":"address"},{"name":"id","type":"uint256","internalType":"uint256"}]},{"name":"_goodKey2","type":"tuple","internalType":"struct T_GoodKey","components":[{"name":"ercType","type":"uint8","internalType":"uint8"},{"name":"contractAddress","type":"address","internalType":"address"},{"name":"id","type":"uint256","internalType":"uint256"}]},{"name":"_swapQuantity","type":"uint256","internalType":"uint256"},{"name":"_recipient","type":"address","internalType":"address"},{"name":"data","type":"bytes","internalType":"bytes"},{"name":"_trader","type":"address","internalType":"address"},{"name":"signature","type":"bytes","internalType":"bytes"},{"name":"external_info","type":"uint256","internalType":"uint256"}],"outputs":[{"name":"good1change","type":"uint256","internalType":"uint256"},{"name":"good2change","type":"uint256","internalType":"uint256"}],"stateMutability":"payable"},{"type":"function","name":"cancelNonce","inputs":[],"outputs":[],"stateMutability":"nonpayable"},{"type":"function","name":"changeGoodOwner","inputs":[{"name":"_goodid","type":"uint256","internalType":"uint256"},{"name":"_to","type":"address","internalType":"address"},{"name":"_trader","type":"address","internalType":"address"},{"name":"signature","type":"bytes","internalType":"bytes"}],"outputs":[],"stateMutability":"nonpayable"},{"type":"function","name":"collectCommission","inputs":[{"name":"_goodid","type":"uint256[]","internalType":"uint256[]"},{"name":"_trader","type":"address","internalType":"address"},{"name":"signature","type":"bytes","internalType":"bytes"}],"outputs":[],"stateMutability":"nonpayable"},{"type":"function","name":"disinvestProof","inputs":[{"name":"_proofid","type":"uint256","internalType":"uint256"},{"name":"_goodshares","type":"uint128","internalType":"uint128"},{"name":"_gate","type":"address","internalType":"address"},{"name":"_trader","type":"address","internalType":"address"},{"name":"signature","type":"bytes","internalType":"bytes"}],"outputs":[{"name":"","type":"uint128","internalType":"uint128"}],"stateMutability":"nonpayable"},{"type":"function","name":"getGoodState","inputs":[{"name":"good","type":"uint256","internalType":"uint256"}],"outputs":[{"name":"","type":"tuple","internalType":"struct S_GoodTmpState","components":[{"name":"goodConfig","type":"uint256","internalType":"uint256"},{"name":"owner","type":"address","internalType":"address"},{"name":"currentState","type":"uint256","internalType":"uint256"},{"name":"investState","type":"uint256","internalType":"uint256"}]}],"stateMutability":"view"},{"type":"function","name":"getProofState","inputs":[{"name":"proofid","type":"uint256","internalType":"uint256"}],"outputs":[{"name":"","type":"tuple","internalType":"struct S_ProofState","components":[{"name":"currentgood","type":"uint256","internalType":"uint256"},{"name":"shares","type":"uint256","internalType":"uint256"},{"name":"state","type":"uint256","internalType":"uint256"},{"name":"invest","type":"uint256","internalType":"uint256"}]}],"stateMutability":"view"},{"type":"function","name":"getRecentGoodState","inputs":[{"name":"good1","type":"uint256","internalType":"uint256"},{"name":"good2","type":"uint256","internalType":"uint256"}],"outputs":[{"name":"good1currentstate","type":"uint256","internalType":"uint256"},{"name":"good2currentstate","type":"uint256","internalType":"uint256"}],"stateMutability":"view"},{"type":"function","name":"goodWelfare","inputs":[{"name":"goodid","type":"uint256","internalType":"uint256"},{"name":"welfare","type":"uint128","internalType":"uint128"},{"name":"data","type":"bytes","internalType":"bytes"},{"name":"_trader","type":"address","internalType":"address"},{"name":"signature","type":"bytes","internalType":"bytes"}],"outputs":[],"stateMutability":"payable"},{"type":"function","name":"initGood","inputs":[{"name":"_goodKey","type":"tuple","internalType":"struct T_GoodKey","components":[{"name":"ercType","type":"uint8","internalType":"uint8"},{"name":"contractAddress","type":"address","internalType":"address"},{"name":"id","type":"uint256","internalType":"uint256"}]},{"name":"_initial","type":"uint256","internalType":"uint256"},{"name":"_normaldata","type":"bytes","internalType":"bytes"},{"name":"_trader","type":"address","internalType":"address"},{"name":"_signature","type":"bytes","internalType":"bytes"}],"outputs":[{"name":"","type":"bool","internalType":"bool"}],"stateMutability":"payable"},{"type":"function","name":"investGood","inputs":[{"name":"_goodKey","type":"tuple","internalType":"struct T_GoodKey","components":[{"name":"ercType","type":"uint8","internalType":"uint8"},{"name":"contractAddress","type":"address","internalType":"address"},{"name":"id","type":"uint256","internalType":"uint256"}]},{"name":"_invest","type":"uint256","internalType":"uint256"},{"name":"_gooddata","type":"bytes","internalType":"bytes"},{"name":"signature","type":"bytes","internalType":"bytes"},{"name":"_trader","type":"address","internalType":"address"}],"outputs":[{"name":"result","type":"bool","internalType":"bool"}],"stateMutability":"payable"},{"type":"function","name":"ishigher","inputs":[{"name":"goodid","type":"uint256","internalType":"uint256"},{"name":"valuegood","type":"uint256","internalType":"uint256"},{"name":"compareprice","type":"uint256","internalType":"uint256"}],"outputs":[{"name":"","type":"bool","internalType":"bool"}],"stateMutability":"view"},{"type":"function","name":"lockGood","inputs":[{"name":"_goodid","type":"uint256","internalType":"uint256"},{"name":"_trader","type":"address","internalType":"address"},{"name":"signature","type":"bytes","internalType":"bytes"}],"outputs":[],"stateMutability":"nonpayable"},{"type":"function","name":"modifyGoodByAdmin","inputs":[{"name":"_goodid","type":"uint256","internalType":"uint256"},{"name":"_goodConfig","type":"uint256","internalType":"uint256"},{"name":"_trader","type":"address","internalType":"address"},{"name":"signature","type":"bytes","internalType":"bytes"}],"outputs":[{"name":"","type":"bool","internalType":"bool"}],"stateMutability":"nonpayable"},{"type":"function","name":"modifyGoodByGoodOwner","inputs":[{"name":"_goodid","type":"uint256","internalType":"uint256"},{"name":"_goodConfig","type":"uint256","internalType":"uint256"},{"name":"_trader","type":"address","internalType":"address"},{"name":"signature","type":"bytes","internalType":"bytes"}],"outputs":[{"name":"","type":"bool","internalType":"bool"}],"stateMutability":"nonpayable"},{"type":"function","name":"modifyGoodByManager","inputs":[{"name":"_goodid","type":"uint256","internalType":"uint256"},{"name":"_goodConfig","type":"uint256","internalType":"uint256"},{"name":"_trader","type":"address","internalType":"address"},{"name":"signature","type":"bytes","internalType":"bytes"}],"outputs":[{"name":"","type":"bool","internalType":"bool"}],"stateMutability":"nonpayable"},{"type":"function","name":"nonces","inputs":[{"name":"_trader","type":"address","internalType":"address"}],"outputs":[{"name":"nonce","type":"uint256","internalType":"uint256"}],"stateMutability":"view"},{"type":"function","name":"queryCommission","inputs":[{"name":"_goodid","type":"uint256[]","internalType":"uint256[]"},{"name":"_recipient","type":"address","internalType":"address"}],"outputs":[{"name":"","type":"uint256[]","internalType":"uint256[]"}],"stateMutability":"view"},{"type":"function","name":"refreshPromise","inputs":[{"name":"_proofid","type":"uint256","internalType":"uint256"}],"outputs":[],"stateMutability":"nonpayable"},{"type":"event","name":"e_buyGood","inputs":[{"name":"sellgood","type":"uint256","indexed":true,"internalType":"uint256"},{"name":"forgood","type":"uint256","indexed":true,"internalType":"uint256"},{"name":"swapvalue","type":"uint256","indexed":false,"internalType":"uint256"},{"name":"good1change","type":"uint256","indexed":false,"internalType":"uint256"},{"name":"good2change","type":"uint256","indexed":false,"internalType":"uint256"},{"name":"_trader","type":"address","indexed":false,"internalType":"address"},{"name":"external_info","type":"uint256","indexed":false,"internalType":"uint256"}],"anonymous":false},{"type":"event","name":"e_changegoodowner","inputs":[{"name":"goodid","type":"uint256","indexed":false,"internalType":"uint256"},{"name":"to","type":"address","indexed":false,"internalType":"address"},{"name":"_trader","type":"address","indexed":false,"internalType":"address"}],"anonymous":false},{"type":"event","name":"e_collectcommission","inputs":[{"name":"_goodid","type":"uint256[]","indexed":false,"internalType":"uint256[]"},{"name":"_commisionamount","type":"uint256[]","indexed":false,"internalType":"uint256[]"},{"name":"_trader","type":"address","indexed":false,"internalType":"address"}],"anonymous":false},{"type":"event","name":"e_disinvestProof","inputs":[{"name":"_proofNo","type":"uint256","indexed":true,"internalType":"uint256"},{"name":"_normalGoodNo","type":"uint256","indexed":false,"internalType":"uint256"},{"name":"_gate","type":"address","indexed":false,"internalType":"address"},{"name":"_value","type":"uint256","indexed":false,"internalType":"uint256"},{"name":"_normalprofit","type":"uint256","indexed":false,"internalType":"uint256"},{"name":"_normaldisvest","type":"uint256","indexed":false,"internalType":"uint256"},{"name":"_trader","type":"address","indexed":false,"internalType":"address"}],"anonymous":false},{"type":"event","name":"e_getPromiseProof","inputs":[{"name":"_goodid","type":"uint256","indexed":true,"internalType":"uint256"},{"name":"_proofid","type":"uint256","indexed":false,"internalType":"uint256"}],"anonymous":false},{"type":"event","name":"e_goodWelfare","inputs":[{"name":"goodid","type":"uint256","indexed":true,"internalType":"uint256"},{"name":"welfare","type":"uint128","indexed":false,"internalType":"uint128"},{"name":"_trader","type":"address","indexed":false,"internalType":"address"}],"anonymous":false},{"type":"event","name":"e_initGood","inputs":[{"name":"_proofNo","type":"uint256","indexed":true,"internalType":"uint256"},{"name":"_goodid","type":"uint256","indexed":true,"internalType":"uint256"},{"name":"_goodinfo","type":"uint256","indexed":false,"internalType":"uint256"},{"name":"_good_id","type":"uint256","indexed":false,"internalType":"uint256"},{"name":"_construct","type":"uint256","indexed":false,"internalType":"uint256"},{"name":"_normalinitial","type":"uint256","indexed":false,"internalType":"uint256"},{"name":"_trader","type":"address","indexed":false,"internalType":"address"}],"anonymous":false},{"type":"event","name":"e_investGood","inputs":[{"name":"_proofNo","type":"uint256","indexed":true,"internalType":"uint256"},{"name":"_goodid","type":"uint256","indexed":true,"internalType":"uint256"},{"name":"_construct","type":"uint256","indexed":false,"internalType":"uint256"},{"name":"_value","type":"uint256","indexed":false,"internalType":"uint256"},{"name":"_invest","type":"uint256","indexed":false,"internalType":"uint256"},{"name":"_trader","type":"address","indexed":false,"internalType":"address"}],"anonymous":false},{"type":"event","name":"e_modifyGoodConfig","inputs":[{"name":"_goodid","type":"uint256","indexed":true,"internalType":"uint256"},{"name":"_goodconfig","type":"uint256","indexed":false,"internalType":"uint256"},{"name":"_trader","type":"address","indexed":false,"internalType":"address"}],"anonymous":false},{"type":"event","name":"e_updateGoodConfig","inputs":[{"name":"_goodid","type":"uint256","indexed":true,"internalType":"uint256"},{"name":"_goodConfig","type":"uint256","indexed":false,"internalType":"uint256"},{"name":"_trader","type":"address","indexed":false,"internalType":"address"}],"anonymous":false},{"type":"error","name":"ERC20PermitFailed","inputs":[]},{"type":"error","name":"ERC20TransferFailed","inputs":[]},{"type":"error","name":"InvalidSignature","inputs":[]},{"type":"error","name":"InvalidSignatureLength","inputs":[]},{"type":"error","name":"InvalidSigner","inputs":[]},{"type":"error","name":"NativeETHTransferFailed","inputs":[]},{"type":"error","name":"TTSwapError","inputs":[{"name":"seq","type":"uint256","internalType":"uint256"}]},{"type":"error","name":"TTSwapUINT256AddOverflow","inputs":[]},{"type":"error","name":"TTSwapUINT256AddSubOverflow","inputs":[]},{"type":"error","name":"TTSwapUINT256SubOverflow","inputs":[]},{"type":"error","name":"TTSwapUINT256ToUint128Overflow","inputs":[]},{"type":"error","name":"UnsupportedTransferType","inputs":[]}],"bytecode":{"object":"0x60a0346100a257601f61483938819003918201601f19168301916001600160401b038311848410176100a6578084926020946040528339810103126100a257516001600160a01b03811681036100a25760805260405161477e90816100bb82396080518181816102c20152818161084f0152818161097501528181610de801528181610f2b01528181611291015281816115d101528181611c02015261209d0152f35b5f80fd5b634e487b7160e01b5f52604160045260245ffdfe60806040526004361015610011575f80fd5b5f3560e01c80633644e515146101545780633f1177401461014f5780636111dba51461014a578063685350d6146101455780636ff73c8e1461014057806376c131b01461013b5780637a006e05146101365780637a5ff394146101315780637ecebe001461012c5780638a3184c5146101275780639291fde914610122578063a5cdc0511461011d578063a6f6a98014610118578063a7fed92514610113578063a9254eb31461010e578063abb027cd14610109578063c2df8ab214610104578063c712c1a1146100ff578063c89a2fce146100fa5763ff5d8ba1146100f5575f80fd5b611953565b61148d565b611366565b6110b8565b610e78565b610dba565b610d53565b610cad565b610a9d565b6109cf565b61090c565b6108d1565b610821565b610781565b610743565b610684565b610536565b610255565b610189565b610167565b5f91031261016357565b5f80fd5b34610163575f366003190112610163576020610181612719565b604051908152f35b34610163576020366003190112610163576004356101a5611d3d565b505f52600460205261021360405f206003604051916101c383610418565b805483526001810154602084015260028101546040840152015460608201526040519182918291909160608060808301948051845260208101516020850152604081015160408501520151910152565b0390f35b6001600160a01b0381160361016357565b9181601f84011215610163578235916001600160401b038311610163576020838186019501011161016357565b346101635760603660031901126101635760043560243561027581610217565b6044356001600160401b03811161016357610294903690600401610228565b505061029f816127c2565b604051635f35b0b360e01b81523360048201526020816024816001600160a01b037f0000000000000000000000000000000000000000000000000000000000000000165afa9081156103ff5761030a91610306915f916103d0575b50600160fb1b16151590565b1590565b806103a0575b61038c577fd42ce27baccd37da31aeb45944c9c24ba208f1542d7c09d22f1f60d28c60769c9061035761034b845f52600360205260405f2090565b8054600160f61b179055565b610369835f52600360205260405f2090565b54604080519182526001600160a01b03909216602082015290819081015b0390a2005b63d1b5191160e01b5f52601460045260245ffd5b503360018060a01b036103c860026103c0865f52600360205260405f2090565b015460601c90565b161415610310565b6103f2915060203d6020116103f8575b6103ea8183610489565b810190611d61565b5f6102fa565b503d6103e0565b611d70565b634e487b7160e01b5f52604160045260245ffd5b608081019081106001600160401b0382111761043357604052565b610404565b606081019081106001600160401b0382111761043357604052565b60a081019081106001600160401b0382111761043357604052565b604081019081106001600160401b0382111761043357604052565b90601f801991011681019081106001600160401b0382111761043357604052565b604051906104b9604083610489565b565b604051906104b9608083610489565b604051906104b9606083610489565b604051906104b960a083610489565b60ff81160361016357565b6060906003190112610163576040519061050c82610438565b81600435610519816104e8565b815260243561052781610217565b60208201526040604435910152565b6101803660031901126101635761054c366104f3565b6060366063190112610163576040519061056582610438565b606435610571816104e8565b825260843561057f81610217565b602083015260a435604083015260c43560e4359261059c84610217565b610104356001600160401b038111610163576105bc903690600401610228565b61012435916105ca83610217565b61014435966001600160401b038811610163576105ee6105fb983690600401610228565b9690956101643598611d7b565b60408051928352602083019190915290f35b9181601f84011215610163578235916001600160401b038311610163576020808501948460051b01011161016357565b90602080835192838152019201905f5b81811061065a5750505090565b825184526020938401939092019160010161064d565b90602061068192818152019061063d565b90565b34610163576040366003190112610163576004356001600160401b038111610163576106b490369060040161060d565b906024356106c181610217565b6064831161072f576106d28361235d565b925f5b8181106106ea57604051806102138782610670565b806106f860019284876123a3565b355f9081526003602090815260408083206001600160a01b0388168452600f0190915290205461072882886123b8565b52016106d5565b63d1b5191160e01b5f52601560045260245ffd5b34610163575f36600319011261016357335f52600160205260405f20546001810180911161077c57335f52600160205260405f20555f80f35b6122e5565b3461016357604036600319011261016357600480355f9081526003602052604080822060058082015491850154602435855292909320928301549290930154608093841b6001600160801b039283161793911691901b176105fb565b9060806003198301126101635760043591602435916044356107fe81610217565b91606435906001600160401b0382116101635761081d91600401610228565b9091565b346101635761082f366107dd565b5050604051635f35b0b360e01b81523360048201529192916020816024817f00000000000000000000000000000000000000000000000000000000000000006001600160a01b03165afa9081156103ff5761089a91610306915f916103d05750600160fb1b16151590565b6108bd57610213926108ab926123cc565b60405190151581529081906020820190565b63d1b5191160e01b5f52600260045260245ffd5b34610163576020366003190112610163576004356108ee81610217565b60018060a01b03165f526001602052602060405f2054604051908152f35b346101635760803660031901126101635760043560243561092c81610217565b6044359061093982610217565b6064356001600160401b03811161016357610958903690600401610228565b5050604051635f35b0b360e01b81523360048201526020816024817f00000000000000000000000000000000000000000000000000000000000000006001600160a01b03165afa9081156103ff576109c091610306915f916103d05750600160fb1b16151590565b6108bd576109cd92612490565b005b3461016357602036600319011261016357600435805f52600460205260405f2054908060406109fc6104aa565b3381528460208201522003610a7857610a1d825f52600360205260405f2090565b8054600160f41b1615159081610a67575b50610a3557005b6040519081527f6beb209060649af1b2e140015c93a218d90cd5bbf7681c9c60d96a56304c28c4908060208101610387565b6002015460601c331490505f610a2e565b63d1b5191160e01b5f52601360045260245ffd5b6001600160801b0381160361016357565b60a036600319011261016357600435602435610ab881610a8c565b6044356001600160401b03811161016357610ad7903690600401610228565b606493919335610ae681610217565b6084356001600160401b03811161016357610b05903690600401610228565b50505f5160206147095f395f51905f525c9360018511610c995760025f5160206147095f395f51905f525d610b3861280b565b610b41826127c2565b5f8481526003602052604090206001600160a01b0390610b63906002906103c0565b1615610c85576001606d1b60018060801b03610b9d83610b986004610b908a5f52600360205260405f2090565b015460801c90565b61232d565b1611610c7157610bfa7fc0a09d27e92394f8a3b273ad63dae7e911f6b517fc30dcc560eaff131c93d83e936109cd97610be6610be1885f52600360205260405f2090565b61352c565b6001600160801b0385169033908190612ceb565b610c2a6004610c11865f52600360205260405f2090565b0154608083901b6001600160801b038416175b90613575565b6004610c3e865f52600360205260405f2090565b0155604080516001600160801b039290921682526001600160a01b03929092166020820152a2610c6c612858565b6127fa565b63d1b5191160e01b5f52601260045260245ffd5b63d1b5191160e01b5f52600c60045260245ffd5b63d1b5191160e01b5f52600360045260245ffd5b3461016357602036600319011261016357610213600435610ccc611d3d565b505f908152600360205260409020805460028201546004830154600590930154919290610d119060601c610cfe6104bb565b9485526001600160a01b03166020850152565b604083810191825260608085019384528151855181526020958601516001600160a01b0316958101959095529151908401529051908201529081906080820190565b34610163576060366003190112610163576102136108ab6004356024356044355f9283526003602052604080842060058181015460049283015495875292909520948501549401549193608090811b6001600160801b03938416179391901b9116176135ef565b3461016357610dc8366107dd565b5050604051635f35b0b360e01b81523360048201529192916020816024817f00000000000000000000000000000000000000000000000000000000000000006001600160a01b03165afa9081156103ff57610e3491610306915f91610e59575b50600160fc1b16151590565b610e4557610213926108ab9261250b565b63d1b5191160e01b5f52600160045260245ffd5b610e72915060203d6020116103f8576103ea8183610489565b5f610e28565b34610163576060366003190112610163576004356001600160401b03811161016357610ea890369060040161060d565b60243590610eb582610217565b6044356001600160401b03811161016357610ed4903690600401610228565b50505f5160206147095f395f51905f525c9160018311610c995760025f5160206147095f395f51905f525d610f08816127c2565b604051635f35b0b360e01b81523360048201526020816024816001600160a01b037f0000000000000000000000000000000000000000000000000000000000000000165afa80156103ff57610f69915f91610e595750600160fc1b16151590565b156110b2575f5b6064831161109e57610f818361235d565b905f5b848110610fcb576109cd867fce39178825edf46da1c247c2d51a053f49645048827a6c291471f54a82b6bf28878a610fc3898960405194859485612598565b0390a16127fa565b8061100783600f610ff1610fe26001968b8e6123a3565b355f52600360205260405f2090565b019060018060a01b03165f5260205260405f2090565b5461101282866123b8565b528588848385611022828a6123b8565b5111611033575b5050505001610f84565b610ff1610fe28261106e96611068968c6110628461105c611056600f9a856123b8565b5161258a565b926123b8565b526123a3565b60019055565b611095611082610be1610fe2848a8d6123a3565b61108c83876123b8565b5190339061337e565b85888483611029565b63d1b5191160e01b5f52601560045260245ffd5b33610f70565b60e0366003190112610163576110cd366104f3565b606435906084356001600160401b038111610163576110f0903690600401610228565b929060a435906110ff82610217565b60c4356001600160401b0381116101635761111e903690600401610228565b50505f5160206147095f395f51905f525c9360018511610c995760025f5160206147095f395f51905f525d61115161280b565b61115a836127c2565b6001600160801b038416906207a12082108015611359575b61134557608085901c916001606d1b83118015611335575b611321576001600160a01b036111b560026103c06111a7866128e1565b5f52600360205260405f2090565b1661130d57611301977f54762165615b1940c444e25cda2d467a32e4f164a5076102c4a544786515a111946111ec92333386612ceb565b61120281866111fd6111a7836128e1565b613641565b6112f66040611210836128e1565b6112186104aa565b3381529060208201522094611272611238875f52600460205260405f2090565b611241856128e1565b61124b8a60801b90565b608088901b6001600160801b038916179160808c901b6001600160801b038d1617936136f3565b61127b836128e1565b966112b5604061128a86613745565b95015195337f000000000000000000000000000000000000000000000000000000000000000061376e565b6040805195865260208601969096526001600160801b03169484019490945260608301939093526001600160a01b03909216608082015290819060a0820190565b0390a3610c6c612858565b60405160018152602090f35b63d1b5191160e01b5f52600560045260245ffd5b63d1b5191160e01b5f52602360045260245ffd5b506601c6bf52634000831061118a565b63d1b5191160e01b5f52602460048190525ffd5b506001606d1b8211611172565b3461016357611374366107dd565b505061137f816127c2565b825f526003602052600260405f20015460601c3303611479576113aa835f52600360205260405f2090565b8054601f8160d61c1680155f14611468575060645b6001600160801b036113d08661429f565b166001600160801b0390911610611454577fd42ce27baccd37da31aeb45944c9c24ba208f1542d7c09d22f1f60d28c60769c93647fffffffff60801b1690647fffffffff60801b191617905561142e835f52600360205260405f2090565b54604080519182526001600160a01b03929092166020820152a260405160018152602090f35b63d1b5191160e01b5f52601760045260245ffd5b6064026001600160801b03166113bf565b63d1b5191160e01b5f52601460045260245ffd5b346101635760a0366003190112610163576004356024356114ad81610a8c565b6044356114b981610217565b606435926114c684610217565b6084356001600160401b038111610163576114e5903690600401610228565b50505f5160206147095f395f51905f525c9260018411610c995760025f5160206147095f395f51905f525d611519856127c2565b81604061152e825f52600460205260405f2090565b546115376104aa565b6001600160a01b03891681529060208201522003610a78576115576125e9565b5061156a825f52600460205260405f2090565b549161158d611581845f52600360205260405f2090565b54600160f61b16151590565b61193f576115b26115a6845f52600360205260405f2090565b54600160f41b16151590565b80611914575b611900576040516354c2c80d60e11b81523360048201527f00000000000000000000000000000000000000000000000000000000000000006001600160a01b03811695909391906020826024818a5afa9182156103ff575f926118cf575b50604051635f35b0b360e01b81526001600160a01b03821660048201526020816024818b5afa80156103ff57611659915f916118a4575b50600160a01b16151590565b156118c957505f905b6001600160a01b03828116908216036118c357505f945b604051635f35b0b360e01b81526001600160a01b038716600482015296602090889060249082905afa9586156103ff576102139961179861176a7f274b28c1974c6f9dab3ff35828f0178f345d51012eada1603b5b500646f4054996611824946116f66118349c61183a9e5f916118a45750600160a01b16151590565b1561189f57505f5b611710875f52600360205260405f2090565b61175f6117258c5f52600460205260405f2090565b926117406117316104bb565b6001600160801b039096168652565b6001600160a01b038b1660208601526001600160a01b03166040850152565b3360608401526137f1565b8092919961178633600f610ff18a5f52600360205260405f2090565b5460018111611854575b503390613c15565b87516117c6906001600160801b031660608a01516001600160801b03165b60018060801b03169060801b1790565b60208901516117eb906001600160801b031660808b01516001600160801b03166117b6565b604080519687526001600160a01b0397881660208801528601929092526060850152608084015290921660a082015290819060c0820190565b0390a2516001600160801b031690565b916127fa565b6040516001600160801b0390911681529081906020820190565b6118999061187361106833600f610ff18d5f52600360205260405f2090565b61189161188b610be18b5f52600360205260405f2090565b9161258a565b90339061337e565b5f611790565b6116fe565b6118bd915060203d6020116103f8576103ea8183610489565b5f61164d565b94611679565b90611662565b6118f291925060203d6020116118f9575b6118ea8183610489565b810190612613565b905f611616565b503d6118e0565b63d1b5191160e01b5f52602860045260245ffd5b5061192c60026103c0855f52600360205260405f2090565b6001600160a01b038781169116146115b8565b63d1b5191160e01b5f52600a60045260245ffd5b60e036600319011261016357611968366104f3565b6064356084356001600160401b0381116101635761198a903690600401610228565b929060a4356001600160401b038111610163576119ab903690600401610228565b505060c435906119ba82610217565b5f5160206147095f395f51905f525c9460018611610c995760025f5160206147095f395f51905f525d6119eb61280b565b846119f5846127c2565b611a016111a7866128e1565b95611a0b87612a80565b608081901c15611cd65750611a21848288613c77565b611cc2575b611a2e612676565b926001606d1b60018060801b03611a498460048b015461232d565b1611610c715783611afa92611a75611a608a613cfd565b9586946001600160801b03841633808d612ceb565b611ab7611aa7611a966005611a8c6111a78d6128e1565b0154608081901c91565b6001600160801b031660a086015290565b6001600160801b03166080840152565b611aef611adf611ace6004611a8c6111a78d6128e1565b6001600160801b031660e086015290565b6001600160801b031660c0840152565b8060801c9089613d67565b60408201805190919064e8d4a510006001600160801b0390911610611cae57611b22856128e1565b611b2a6104aa565b33815290602082015260409020825190959082906001600160801b0316611b50906126c3565b90611b5a916126fa565b96611b6d875f52600460205260405f2090565b611b76836128e1565b60208701516001600160801b031660801b86518b906001600160801b031660801b6001600160801b03909116176060890180519097919291906001600160801b031690611bc2826126c3565b90611bcc916126fa565b6001600160801b031660809190911b1792611be6946136f3565b54611bf090613420565b50611bfa906128e1565b95611c2681337f000000000000000000000000000000000000000000000000000000000000000061376e565b925193519151604080516001600160801b0395861681529285166001600160801b0319608097881b811691909117602085015293861b909316931692909217908201526001600160a01b039290921660608301527f821b7fcbe202b6f6b3277a993ca8d52a41c919b074c659cd7e9b8d3b5bf537f191a3611ca5612858565b611301906127fa565b63d1b5191160e01b5f52602660045260245ffd5b63d1b5191160e01b5f52602f60045260245ffd5b6005870154611d389250611d2690611d1a90611d05906001600160801b03166001600160801b03851690612640565b60048a01546001600160801b03165b90612667565b6001600160801b031690565b60801b6001600160801b039091161790565b611a26565b60405190611d4a82610418565b5f6060838281528260208201528260408201520152565b90816020910312610163575190565b6040513d5f823e3d90fd5b96989199979093959294995f5160206147095f395f51905f525c9960018b11610c99578487918d9460025f5160206147095f395f51905f525d611dbc61280b565b8b8b8597898c8960018060a01b038916330361216a575b5050955050505050506001600160401b039150168015159081612160575b5061214c57611dff886128e1565b611e08866128e1565b1461213857611e196111a7896128e1565b95611e266111a7876128e1565b92611e3088612a80565b611e3984612a80565b6001600160a01b0382168015929083159081612124575b5061209b575b50611e658360801c8099612afc565b98611e708a86612bfe565b9d6305f5e1006001600160801b038c1610612087578e9460018060801b03169460018060801b031694808610908161207d575b5061206957611eb5918a338a8f612ceb565b336001600160a01b03871603611f8c575050611f2a611f1b611f156104b99a611f0f889796611f09611f7a977fde5315adb152ccf56bd825078a75030f0d8885bd072c972a86b84289487251c49b8d61337e565b54613420565b506128e1565b966128e1565b966117b68960801c8092612314565b91611f3d8c6117b68160801c809261232d565b604080516001600160801b038b16815260208101959095528401526001600160a01b039093166060830152608082019290925290819060a0820190565b0390a3611f85612858565b93926127fa565b6005840154600485015492969594939192611fb59160801b6001600160801b039091161761335a565b906001600160801b038216908111612055576104b99a611f0f8f95612048611f2a96611f1b96611f7a997fde5315adb152ccf56bd825078a75030f0d8885bd072c972a86b84289487251c49d611f159861202d61202533600f8a019060018060a01b03165f5260205260405f2090565b918254612307565b905561204d575b61204191611d1a91612314565b908d61337e565b611f09565b8c9250612034565b63d1b5191160e01b5f52603260045260245ffd5b63d1b5191160e01b5f52600f60045260245ffd5b905015155f611ea3565b63d1b5191160e01b5f52600e60045260245ffd5b7f00000000000000000000000000000000000000000000000000000000000000006001600160a01b0316803b15610163576040516307543e3f60e41b81526001600160a01b0389811660048301529290921660248301525f908290604490829084905af180156103ff5715611e5657806121185f61211e93610489565b80610159565b5f611e56565b6001600160a01b038916141590505f611e50565b63d1b5191160e01b5f52600960045260245ffd5b63d1b5191160e01b5f52603160045260245ffd5b905042115f611df1565b6122909961224f612287958b9561225d946121a461224f9a61219c612196612190612719565b9e6128e1565b996128e1565b9436916122a0565b60208151910120906121c68960018060a01b03165f52600160205260405f2090565b938454946121d3866122f9565b9055604051988997602089019b8c949192610100969399989794919961012087019a7f3d661a36902bcbeb165c2a93cd75c36014e5d663363d6ef71473f7971cf7583c885260018060a01b0316602088015260018060a01b031660408701526060860152608085015260a084015260c083015260e08201520152565b03601f198101835282610489565b519020604051928391602083019586909160429261190160f01b8352600283015260228201520190565b5190209161295d565b85845f808b8f8c90898c89611dd3565b9291926001600160401b03821161043357604051916122c9601f8201601f191660200184610489565b829481845281830111610163578281602093845f960137010152565b634e487b7160e01b5f52601160045260245ffd5b5f19811461077c5760010190565b9190820180921161077c57565b6001600160801b03918216908216039190821161077c57565b6001600160801b03918216908216019190821161077c57565b6001600160401b0381116104335760051b60200190565b9061236782612346565b6123746040519182610489565b8281528092612385601f1991612346565b0190602036910137565b634e487b7160e01b5f52603260045260245ffd5b91908110156123b35760051b0190565b61238f565b80518210156123b35760209160051b010190565b916123d6816127c2565b6123df82613484565b1561247c57825f52600360205260405f206123f983613484565b1561247c577f1d162c37ac7235a536e0a9affe2b430a2ccfcf1e270b2d0199daf5ecca7b01919260016801e00000000000000160bf1b0382541690671fffffffffffffff60bf1b16179055612456835f52600360205260405f2090565b54604080519182526001600160a01b03909216602082015290819081015b0390a2600190565b63d1b5191160e01b5f52601860045260245ffd5b7f8db9ed332748068ce104230a86def055ca3599241d43111e1e81bf1353913817926060926124be826127c2565b5f83815260036020526040902060020180546001600160601b0316606083901b6001600160601b031916179055604080519384526001600160a01b039182166020850152911690820152a1565b917f1d162c37ac7235a536e0a9affe2b430a2ccfcf1e270b2d0199daf5ecca7b019191612537826127c2565b5f8481526003602090815260409182902080546001600160f71b03166001600160f71b031994909416939093179283905581519283526001600160a01b0393909316928201929092529081908101612474565b5f1981019190821161077c57565b60608082528101839052939493926001600160fb1b0383116101635760806125d99260409460051b809183880137850181868203016020870152019061063d565b6001600160a01b03909416910152565b604051906125f682610453565b5f6080838281528260208201528260408201528260608201520152565b90816020910312610163575161068181610217565b600181901b91906001600160ff1b0381160361077c57565b8181029291811591840414171561077c57565b634e487b7160e01b5f52601260045260245ffd5b8115612671570490565b612653565b6040519061010082018281106001600160401b03821117610433576040525f60e0838281528260208201528260408201528260608201528260808201528260a08201528260c08201520152565b6001600160801b039081166064029081169190820361077c57565b6001600160801b03918216908216029081169190820361077c57565b6001600160801b03909116908115612671576001600160801b03160490565b6040600d6020825161272b8482610489565b828152016c151514ddd85c17d3585c9ad95d609a1b8152206127bc6005602084516127568682610489565b828152640322e302e360dc1b91019081522083517f8b73c3c69bb8fe3d512ecc4cf759cc79239f7b179b0ffacaa9a75d522b39400f60208083019182526040830195909552948101909301524660808301523060a080840191909152825260c082610489565b51902090565b60018060a01b0316338114908115916127f1575b506127dd57565b63d1b5191160e01b5f52602760045260245ffd5b9050155f6127d6565b5f5160206147095f395f51905f525d565b5f5160206146e95f395f51905f525c15612843575b60015f5160206146e95f395f51905f525c015f5160206146e95f395f51905f525d565b345f5160206147295f395f51905f525d612820565b5f195f5160206146e95f395f51905f525c015f5160206146e95f395f51905f525d5f5160206147295f395f51905f525c5f5160206146e95f395f51905f525c15806128d8575b6128a55750565b5f80808093815f5160206147295f395f51905f525d335af1156128c457565b63d1b5191160e01b5f52601f60045260245ffd5b5080151561289e565b60208101516001600160a01b031660011461291657600160ff825116146129165763d1b5191160e01b5f52602a60045260245ffd5b602001516001600160a01b031690565b9190826040910312610163576020823592013590565b60ff601b9116019060ff821161077c57565b90604010156123b35760400190565b9160418203612a325761299761299161298361297b85870187612926565b95909661294e565b356001600160f81b03191690565b60f81c90565b905b6fa2a8918ca85bafe22016d0b997e4df60600160ff1b038311612a23576129e45f93602095604051948594859094939260ff6060936080840197845216602083015260408201520152565b838052039060015afa156103ff575f516001600160a01b0316908115612a23576001600160a01b031603612a1457565b632057875960e21b5f5260045ffd5b638baa579f60e01b5f5260045ffd5b9160408203612a7157612a4791810190612926565b90916001600160ff1b03821691612a6b90612a669060ff1c5b60ff1690565b61293c565b90612999565b634be6321b60e01b5f5260045ffd5b805490600160f61b8216612ae8576004015415610c8557600160f51b811615612ad45760b31c610fff16612ab9610fff4206600a900690565b14612ac057565b63d1b5191160e01b5f52602e60045260245ffd5b63d1b5191160e01b5f52602560045260245ffd5b63d1b5191160e01b5f52600a60045260245ffd5b6004810180546005830154835491949392909161271060809190911c607f166001600160801b038616020494612b328686612314565b916001600160801b03831690612bb5611d1a94610b9894612bae612ba8612b95611d1a612bc198611d14612b7d612bc79e60018060801b03166002600160811b038a60011b16612640565b91612b906001600160801b038916612628565b612307565b9b6001600160801b031660808e901b1790565b82613575565b845561232d565b95549283915460801c90565b90613fa2565b6001600160801b0390911611612bea576001600160801b031660809190911b1790565b63d1b5191160e01b5f52602d60045260245ffd5b6004810190815490612c46612c37600583015492549560018060801b031693612c2685612628565b6001600160801b0390911690612640565b916001600160801b0316612628565b91820180921161077c57811561267157607f93612c7a92612710920460018060801b031694859160871c1602048093612314565b81546001600160801b03918216608094851b8181179583811c9087901c81019491821690921792169083108015612ce2575b8015612cd1575b612cc257039060801b17905590565b630d7a2d5b60e11b5f5260045ffd5b506001600160801b03831015612cb3565b50818110612cac565b919390926001600160801b0390612d019061400d565b16945f91600160ff612d14865160ff1690565b160361334b5760208401516001600160a01b0316600103612d8057505050506001600160a01b03908116911603612d6c57612d4e9061469e565b60015b15612d5857565b63d1b5191160e01b5f52602a60045260245ffd5b63d1b5191160e01b5f52602760045260245ffd5b6001612d94612a6086979998965160ff1690565b148080613343575b15612dd657505050506001600160a01b03848116911603612d6c5760200151612dcf9230916001600160a01b031661464a565b6001612d51565b92969594928061333a575b612df1575b505050505050612d51565b612e0381612e12936020930190614031565b9201516001600160a01b031690565b9460ff612e20835160ff1690565b1660028103613002575050612e4391506020015160208082518301019101614250565b6001600160a01b0384169073cafbbad55eb09efe7bec8408cff9932be7d9a7fa8203612f7c57604051623f675f60e91b81526001600160a01b038516600482015291602090839060249082905afa9081156103ff57612f275f939284938491612f5d575b5061224f602084015193612ebf604082015160ff1690565b60608201516080909201516040516323f2ebc360e21b60208201526001600160a01b038c16602482015230604482015260648101959095526084850196909652600160a485015260ff1660c484015260e4830152610104820193909352918290610124820190565b60208151910182875af1928315612f4e57612f4392309161464a565b5f8080808080612de6565b63203aa5b560e11b5f5260045ffd5b612f76915060203d6020116103f8576103ea8183610489565b5f612ea7565b5f915080612ffd83925161224f602084015193612f9d604082015160ff1690565b606082015160809092015160405163d505accf60e01b60208201526001600160a01b038c1660248201523060448201526064810195909552608485019690965260ff1660a484015260c483015260e4820193909352918290610104820190565b612f27565b600381036130b9575050506001600160a01b03838116911603612d6c5761302890614621565b73a50eb0d081e986c280eff32dae089939ea07bd223b1561016357604051631b63c28b60e11b81526001600160a01b0392831660048201523060248201529082166044820152911660648201525f816084818373a50eb0d081e986c280eff32dae089939ea07bd225af180156103ff576130a5575b506001612f43565b806121185f6130b393610489565b5f61309d565b919250906004810361321657505060206130de910151602080825183010191016140aa565b906131936130ec8351614621565b92613146613103604083015165ffffffffffff1690565b61312b61310e6104bb565b6001600160a01b038a168152966001600160a01b03166020880152565b65ffffffffffff604087015265ffffffffffff166060860152565b60208101516131536104ca565b948552306020860152604085015260808101519061318d61317d606060a084015193015160ff1690565b60f81b6001600160f81b03191690565b91614115565b9173a50eb0d081e986c280eff32dae089939ea07bd223b15610163576040516302b67b5760e41b8152925f91849182916131d2919088600485016141d8565b03818373a50eb0d081e986c280eff32dae089939ea07bd225af19182156103ff5761302892613202575b50614621565b806121185f61321093610489565b5f6131fc565b909492919060051461322c575b50505050612f43565b6132b99192939450602061324b910151602080825183010191016140aa565b80516132676132586104aa565b6001600160a01b039096168652565b6020850152604081015160208201519061327f6104ca565b958652602086015260408501526132946104aa565b30815292602084015260808101519061318d61317d606060a084015193015160ff1690565b9173a50eb0d081e986c280eff32dae089939ea07bd223b15610163576132f55f93604051958694859463187945bd60e11b865260048601614164565b03818373a50eb0d081e986c280eff32dae089939ea07bd225af180156103ff57613326575b5060015f808080613223565b806121185f61333493610489565b5f61331a565b50811515612de1565b508215612d9c565b634b26f70d60e01b5f5260045ffd5b8060801c801561016357610681916001600160801b0316640ba43b7400020461400d565b602001516001600160a01b0316600181036133b857505f80806133a39481945af11590565b6133a957565b633607a14f60e11b5f5260045ffd5b60405163a9059cbb60e01b81526001600160a01b03909216600483015260248201929092526020905f9060449082855af19081601f3d1160015f5114161516613413575b501561340457565b633c9fd93960e21b5f5260045ffd5b3b153d171590505f6133fc565b600a610fff42060480610fff8360b31c16036134465760b31b90610fff60b31b19161790565b60405162461bcd60e51b81526020600482015260166024820152753a3930b739b0b1ba34b7b710313ab9bc9032b93937b960511b6044820152606490fd5b600a60078260f11c1602601e8260ec1c1690601c8360e81c16601f8460e51c1693601f808260e01c169160db1c169280158015613524575b801561351c575b8015613514575b801561350c575b8015613504575b6134fa57606495612b90612b9094612b906134f698612b9095612307565b1490565b5050505050505f90565b5083156134d8565b5081156134d1565b5085156134ca565b5082156134c3565b5084156134bc565b5f6040805161353a81610438565b8281528260208201520152600360018201549101546040519161355c83610438565b60ff8160581c16835260601c6020830152604082015290565b6001600160801b03818116908316810192608092831c921c82019182109081156135e5575b5080156135d4575b80156135c3575b6135b45760801b1790565b634ccdbb1b60e11b5f5260045ffd5b506002600160801b038210156135a9565b506002600160801b038110156135a2565b905082105f61359a565b6001600160801b03808216608084811c919091029492811c93821693909302908216818102939290921c915f1991098280821091030392818102915f1991098180821091030391118183141691111790565b6001600160801b038216608083811b91821760048401559290921c90911760058201556e0186a10208a000000000108510408160831b81558151600182018054602085015160589390931b60ff60581b166affffffffffffffffffffff9091161760609290921b6001600160601b0319169190911790556104b99160400151806136e8575b5060020180546001600160601b03163360601b6001600160601b031916179055565b60038201555f6136c6565b92613732600261373995969496600381019788549560018060801b0387161561373d575b5061372760018301918254613575565b905501918254613575565b9055613575565b9055565b82555f613717565b6020810151905160a01b60ff60a01b166001600160a01b039190911690810190811061077c5790565b60405163067e356d60e21b81526001600160a01b0392831660048201526001600160801b03939093166024840152602091839160449183915f91165af19081156103ff575f916137bc575090565b90506020813d6020116137e9575b816137d760209383610489565b81010312610163575161068181610a8c565b3d91506137ca565b9290926137fc6125e9565b50600184015460801c936003810154936138168560801c90565b956002830154956138278760801c90565b83516001600160801b03848116911611613c015783516001600160801b0316918260808b901b6001600160801b0386161790613862916142c6565b936001600160801b031660809190911b1784516001600160801b0316613887916142c6565b90896138916104d9565b5f808252602082019081526001600160801b0395861660408301908152968616606083018181529587166080808501918252939e8f9e9799989197939693946138de94901b9116176142c6565b916001600160801b031660809190911b1785516001600160801b0316613903916142c6565b6001600160801b031660809190911b17988960801c9088549160058a0195865461392d81866142ee565b6001600160801b031683118015613bf6575b613be25788516001600160801b03169460048d0191825496613964611d1a89856142ee565b6001600160801b0390911611613bce576139c96139db916139b56139a86139e8958f611d1a613999915160018060801b031690565b603f61271092608e1c16020490565b6001600160801b03168b52565b6117b66139c28a60801c90565b9160801c90565b8c516001600160801b03165b906142c6565b6001600160801b03168552565b83516001600160801b03168651613a07906001600160801b0316611d1a565b6001600160801b0390911610613bba576104b99b8e9a886117b698613b2688613ae78f613b8f9f98613b1999613aad613a7f9f613b819f613b7b9f8f92613a9990613a93610b988f6117b690613a8d613a7f8e613a6d613a939b5160018060801b031690565b9051909586916001600160801b031690565b91516001600160801b031690565b90612314565b90613fc5565b8655845492516001600160801b0316611d26565b905585516001600160801b031680613b95575b505087549051613a9390611d1a906001600160801b031688516001600160801b0316613a8d565b86558051613b1990613b0c906001600160801b031686516001600160801b0316613a8d565b6001600160801b03168252565b516001600160801b031690565b6020840151613b7590606090613b66906001600160a01b03166040880151909590613a8d90613a7f906001600160a01b031698516001600160801b031690565b9501516001600160a01b031690565b94614323565b60801b90565b94516001600160801b031690565b926145ee565b8154613bb191608081901b6001600160801b0390911617610c24565b90555f80613ac0565b63d1b5191160e01b5f52602260045260245ffd5b63d1b5191160e01b5f52601b60045260245ffd5b63d1b5191160e01b5f52601a60045260245ffd5b50612710831061393f565b63d1b5191160e01b5f52602960045260245ffd5b6001600160a01b031691823b1561016357604051637bd3ca3560e01b81526001600160a01b039290921660048301526001600160801b03166024820152905f908290604490829084905af180156103ff57613c6d5750565b5f6104b991610489565b9190613caf613c9660018060801b036004860154168360801c90612640565b600585015490926001600160801b039081169116612640565b10918215613ced575b8215613ccf575b505015613ccb57600190565b5f90565b6002015490915060601c6001600160a01b0390911614155f80613cbf565b8054600160f41b16159250613cb8565b8054613d176004613d0d8361429f565b9301549182612314565b60809190911c906001600160801b038116821115613d5957613d4192613d3c916126de565b6126fa565b60646001600160801b03821610156106815750606490565b90613d4192613d3c916126de565b8054909461373994610c2493611d1a9390613dab90613d9b612710609485901c603f166001600160801b03841602046139db565b83516001600160801b0316613a8d565b92613dca613db982866126de565b60646001600160801b039091160490565b6001600160801b031660608401908152966001600160801b038116613f90575050600160ff1b1615613f0e5760a0810151613e4390613e3390613e23906001600160801b031660e08501516001600160801b03166117b6565b87516001600160801b03166139d5565b6001600160801b03166040830152565b6080810151613efa90613e77908490613e72906001600160801b031660c08601516001600160801b03166117b6565b6142c6565b6001600160801b0316602083019081526004890180548451613ecb9190610c2490613eab906001600160801b03168961232d565b8b516117b6906001600160801b031689516001600160801b03169061232d565b905560058901805491519093610c24916117b6906040906001600160801b03169201516001600160801b031690565b9055855493516001600160801b0316612314565b613f8b613e33611d1a613f52613f38613f33611d1a60a088015160018060801b031690565b612628565b8951613f4c906001600160801b0316611d1a565b90612640565b60e0850151611d1490613f7190613f33906001600160801b0316611d1a565b8a51613f85906001600160801b0316611d1a565b90612307565b613e43565b613f8b9250613e3391613db9916126de565b60cc1c6103ff168015613fc1576103e891026001600160801b03160490565b5090565b608081811c929081901c916001600160801b0391821691168284108015614004575b613ff55703910360801b1790565b631bcdfffb60e01b5f5260045ffd5b50818110613fe7565b6001600160801b038116919082900361402257565b6344b9f66960e01b5f5260045ffd5b602081830312610163578035906001600160401b03821161016357019060408282031261016357604051916140658361046e565b8035614070816104e8565b83526020810135906001600160401b03821161016357019080601f83011215610163578160206140a2933591016122a0565b602082015290565b908160c0910312610163576040519060c08201908282106001600160401b038311176104335760a09160405280518352602081015160208401526040810151604084015260608101516140fc816104e8565b606084015260808101516080840152015160a082015290565b929190604051936020850152604084015260ff60f81b166060830152604182526104b9606183610489565b805180835260209291819084018484015e5f828201840152601f01601f1916010190565b90926141bc61010093604061068197966141918682516020809160018060a01b0381511684520151910152565b60208181015187840152910151606086015281516001600160a01b03166080860152015160a0840152565b6001600160a01b031660c082015260e081018290520190614140565b604061068194936101009360018060a01b0316835265ffffffffffff6060825160018060a01b03815116602087015260018060a01b036020820151168587015282858201511682870152015116608084015260018060a01b0360208201511660a0840152015160c08201528160e08201520190614140565b908160a09103126101635760806040519161426a83610453565b80518352602081015160208401526040810151614286816104e8565b6040840152606081015160608401520151608082015290565b60a21c601f16806142b05750606490565b60640260018060801b03811690810361077c5790565b6001600160801b038116908115610163576106819260018060801b03169060801c020461400d565b609a1c60ff168015613fc157614303916126fa565b60021b6004600160801b038116906004600160821b0316810361077c5790565b8054909594939261434a606460db84901c601f166001600160801b03861602048094612314565b916001600160801b03831691600a60f183901c60071684020495603260ed84901c600f16850204926143a0601960ea83901c60071687020495606460e584901c601f168202049290601f60649260e01c16020490565b946001600160a01b0383166144eb575050506001600160a01b038116614419575050506120259383600f6143e5611d1a61440396610b986137399b99611d1a98612314565b9801976143fc6120258a5f805260205260405f2090565b905561232d565b939060018060a01b03165f5260205260405f2090565b919697909561442b908695949561232d565b6001600160801b031690600f019761445390899060018060a01b03165f5260205260405f2090565b9081549061446091612307565b905561446c868661232d565b6001600160801b03166001600160a01b039091165f9081526020889052604090209081549061449a91612307565b90556144a59161232d565b906144af91612314565b906144b991612314565b906144c391612314565b6001600160801b0316906144de905f805260205260405f2090565b9081549061373991612307565b611d1a9650908b61440398926120259b9795610b98976137399e9c969f600261451691015460601c90565b6001600160a01b038116156145dd576001600160a01b03165f908152600f850160205260409020614555905b805490926001600160801b031690612307565b90555b6001600160a01b038116156145c3576001600160a01b03165f908152600f80840160205260409091206145ad936145429390916145929085565b90555b019d8e9060018060a01b03165f5260205260405f2090565b90556143fc6145428c5f805260205260405f2090565b50600f6145d7614542926145ad949661232d565b94614595565b506145e8919561232d565b93614558565b613739926001929461460560038401918254613fc5565b905561461660028301918254613fc5565b905501918254613fc5565b6001600160a01b038116908190036146365790565b63d1b5191160e01b5f52603460045260245ffd5b6040516323b872dd60e01b81526001600160a01b03928316600482015292909116602483015260448201929092526020905f9060649082855af19081601f3d1160015f511416151661341357501561340457565b5f5160206147295f395f51905f525c81116146d4575f5160206147295f395f51905f525c035f5160206147295f395f51905f525d565b63d1b5191160e01b5f52601e60045260245ffdfe87b52c29898e62efc1f9a9b00a26dcbdaee98d728c56841703077b7c0d20dee7e2afc7ec4dbb9bfdb1b8e8bcf21a055747c25bf2faaea9cb5a134005381f4843cbe27d488af5b5c1b0bd8d89be6fdfeaed3ad42719044fd9b728f33df1d6f1d1a264697066735822122034cf4d2d64a6bac36f6e47d3c87eb0a3690353fe8be55b71c2506d0fa674b2d564736f6c634300081d0033","linkReferences":{}},"methodIdentifiers":{"DOMAIN_SEPARATOR()":"3644e515","buyGood((uint8,address,uint256),(uint8,address,uint256),uint256,address,bytes,address,bytes,uint256)":"685350d6","cancelNonce()":"76c131b0","changeGoodOwner(uint256,address,address,bytes)":"8a3184c5","collectCommission(uint256[],address,bytes)":"abb027cd","disinvestProof(uint256,uint128,address,address,bytes)":"c89a2fce","getGoodState(uint256)":"a6f6a980","getProofState(uint256)":"3f117740","getRecentGoodState(uint256,uint256)":"7a006e05","goodWelfare(uint256,uint128,bytes,address,bytes)":"a5cdc051","initGood((uint8,address,uint256),uint256,bytes,address,bytes)":"c2df8ab2","investGood((uint8,address,uint256),uint256,bytes,bytes,address)":"ff5d8ba1","ishigher(uint256,uint256,uint256)":"a7fed925","lockGood(uint256,address,bytes)":"6111dba5","modifyGoodByAdmin(uint256,uint256,address,bytes)":"a9254eb3","modifyGoodByGoodOwner(uint256,uint256,address,bytes)":"c712c1a1","modifyGoodByManager(uint256,uint256,address,bytes)":"7a5ff394","nonces(address)":"7ecebe00","queryCommission(uint256[],address)":"6ff73c8e","refreshPromise(uint256)":"9291fde9"},"id":44}