{"abi":[{"type":"constructor","inputs":[{"name":"_marketconfig","type":"uint256","internalType":"uint256"},{"name":"_officialTokenContract","type":"address","internalType":"address"},{"name":"_marketcreator","type":"address","internalType":"address"},{"name":"_securitykeeper","type":"address","internalType":"address"}],"stateMutability":"nonpayable"},{"type":"receive","stateMutability":"payable"},{"type":"function","name":"addbanlist","inputs":[{"name":"_user","type":"address","internalType":"address"}],"outputs":[{"name":"","type":"bool","internalType":"bool"}],"stateMutability":"nonpayable"},{"type":"function","name":"allowance","inputs":[{"name":"","type":"address","internalType":"address"},{"name":"","type":"address","internalType":"address"},{"name":"","type":"uint256","internalType":"uint256"}],"outputs":[{"name":"","type":"uint256","internalType":"uint256"}],"stateMutability":"view"},{"type":"function","name":"approve","inputs":[{"name":"spender","type":"address","internalType":"address"},{"name":"id","type":"uint256","internalType":"uint256"},{"name":"amount","type":"uint256","internalType":"uint256"}],"outputs":[{"name":"","type":"bool","internalType":"bool"}],"stateMutability":"nonpayable"},{"type":"function","name":"balanceOf","inputs":[{"name":"","type":"address","internalType":"address"},{"name":"","type":"uint256","internalType":"uint256"}],"outputs":[{"name":"","type":"uint256","internalType":"uint256"}],"stateMutability":"view"},{"type":"function","name":"buyGood","inputs":[{"name":"_goodid1","type":"address","internalType":"address"},{"name":"_goodid2","type":"address","internalType":"address"},{"name":"_swapQuantity","type":"uint128","internalType":"uint128"},{"name":"_tradetimes","type":"uint128","internalType":"uint128"},{"name":"_recipent","type":"address","internalType":"address"},{"name":"data","type":"bytes","internalType":"bytes"}],"outputs":[{"name":"good1change","type":"uint256","internalType":"uint256"},{"name":"good2change","type":"uint256","internalType":"uint256"}],"stateMutability":"payable"},{"type":"function","name":"buyGoodCheck","inputs":[{"name":"_goodid1","type":"address","internalType":"address"},{"name":"_goodid2","type":"address","internalType":"address"},{"name":"_swapQuantity","type":"uint128","internalType":"uint128"},{"name":"_tradetimes","type":"uint128","internalType":"uint128"}],"outputs":[{"name":"good1change","type":"uint256","internalType":"uint256"},{"name":"good2change","type":"uint256","internalType":"uint256"}],"stateMutability":"view"},{"type":"function","name":"changeGoodOwner","inputs":[{"name":"_goodid","type":"address","internalType":"address"},{"name":"_to","type":"address","internalType":"address"}],"outputs":[],"stateMutability":"nonpayable"},{"type":"function","name":"changeReStakingContrat","inputs":[{"name":"_target","type":"address","internalType":"address"}],"outputs":[],"stateMutability":"nonpayable"},{"type":"function","name":"changemarketcreator","inputs":[{"name":"_newmarketor","type":"address","internalType":"address"}],"outputs":[],"stateMutability":"nonpayable"},{"type":"function","name":"collectCommission","inputs":[{"name":"_goodid","type":"address[]","internalType":"address[]"}],"outputs":[],"stateMutability":"nonpayable"},{"type":"function","name":"disinvestProof","inputs":[{"name":"_proofid","type":"uint256","internalType":"uint256"},{"name":"_goodQuantity","type":"uint128","internalType":"uint128"},{"name":"_gate","type":"address","internalType":"address"}],"outputs":[{"name":"","type":"uint128","internalType":"uint128"},{"name":"","type":"uint128","internalType":"uint128"}],"stateMutability":"nonpayable"},{"type":"function","name":"flashFee","inputs":[{"name":"token","type":"address","internalType":"address"},{"name":"amount","type":"uint256","internalType":"uint256"}],"outputs":[{"name":"","type":"uint256","internalType":"uint256"}],"stateMutability":"view"},{"type":"function","name":"flashLoan","inputs":[{"name":"receiver","type":"address","internalType":"contract IERC3156FlashBorrower"},{"name":"token","type":"address","internalType":"address"},{"name":"amount","type":"uint256","internalType":"uint256"},{"name":"data","type":"bytes","internalType":"bytes"}],"outputs":[{"name":"","type":"bool","internalType":"bool"}],"stateMutability":"nonpayable"},{"type":"function","name":"getGoodState","inputs":[{"name":"goodkey","type":"address","internalType":"address"}],"outputs":[{"name":"","type":"tuple","internalType":"struct S_GoodTmpState","components":[{"name":"goodConfig","type":"uint256","internalType":"uint256"},{"name":"owner","type":"address","internalType":"address"},{"name":"currentState","type":"uint256","internalType":"uint256"},{"name":"investState","type":"uint256","internalType":"uint256"},{"name":"feeQuantityState","type":"uint256","internalType":"uint256"}]}],"stateMutability":"view"},{"type":"function","name":"getProofState","inputs":[{"name":"proofid","type":"uint256","internalType":"uint256"}],"outputs":[{"name":"","type":"tuple","internalType":"struct S_ProofState","components":[{"name":"currentgood","type":"address","internalType":"address"},{"name":"valuegood","type":"address","internalType":"address"},{"name":"state","type":"uint256","internalType":"uint256"},{"name":"invest","type":"uint256","internalType":"uint256"},{"name":"valueinvest","type":"uint256","internalType":"uint256"}]}],"stateMutability":"view"},{"type":"function","name":"getRecentGoodState","inputs":[{"name":"good1","type":"address","internalType":"address"},{"name":"good2","type":"address","internalType":"address"}],"outputs":[{"name":"good1correntstate","type":"uint256","internalType":"uint256"},{"name":"good2correntstate","type":"uint256","internalType":"uint256"}],"stateMutability":"view"},{"type":"function","name":"goodWelfare","inputs":[{"name":"goodid","type":"address","internalType":"address"},{"name":"welfare","type":"uint128","internalType":"uint128"},{"name":"data","type":"bytes","internalType":"bytes"}],"outputs":[],"stateMutability":"payable"},{"type":"function","name":"initGood","inputs":[{"name":"_valuegood","type":"address","internalType":"address"},{"name":"_initial","type":"uint256","internalType":"uint256"},{"name":"_erc20address","type":"address","internalType":"address"},{"name":"_goodConfig","type":"uint256","internalType":"uint256"},{"name":"_normaldata","type":"bytes","internalType":"bytes"},{"name":"_valuedata","type":"bytes","internalType":"bytes"}],"outputs":[{"name":"","type":"bool","internalType":"bool"}],"stateMutability":"payable"},{"type":"function","name":"initMetaGood","inputs":[{"name":"_erc20address","type":"address","internalType":"address"},{"name":"_initial","type":"uint256","internalType":"uint256"},{"name":"_goodConfig","type":"uint256","internalType":"uint256"},{"name":"data","type":"bytes","internalType":"bytes"}],"outputs":[{"name":"","type":"bool","internalType":"bool"}],"stateMutability":"payable"},{"type":"function","name":"investGood","inputs":[{"name":"_togood","type":"address","internalType":"address"},{"name":"_valuegood","type":"address","internalType":"address"},{"name":"_quantity","type":"uint128","internalType":"uint128"},{"name":"data1","type":"bytes","internalType":"bytes"},{"name":"data2","type":"bytes","internalType":"bytes"}],"outputs":[{"name":"","type":"bool","internalType":"bool"}],"stateMutability":"payable"},{"type":"function","name":"isOperator","inputs":[{"name":"","type":"address","internalType":"address"},{"name":"","type":"address","internalType":"address"}],"outputs":[{"name":"","type":"bool","internalType":"bool"}],"stateMutability":"view"},{"type":"function","name":"ishigher","inputs":[{"name":"goodid","type":"address","internalType":"address"},{"name":"valuegood","type":"address","internalType":"address"},{"name":"compareprice","type":"uint256","internalType":"uint256"}],"outputs":[{"name":"","type":"bool","internalType":"bool"}],"stateMutability":"view"},{"type":"function","name":"marketconfig","inputs":[],"outputs":[{"name":"","type":"uint256","internalType":"uint256"}],"stateMutability":"view"},{"type":"function","name":"marketcreator","inputs":[],"outputs":[{"name":"","type":"address","internalType":"address"}],"stateMutability":"view"},{"type":"function","name":"maxFlashLoan","inputs":[{"name":"good","type":"address","internalType":"address"}],"outputs":[{"name":"","type":"uint256","internalType":"uint256"}],"stateMutability":"view"},{"type":"function","name":"modifyGoodConfig","inputs":[{"name":"_goodid","type":"address","internalType":"address"},{"name":"_goodConfig","type":"uint256","internalType":"uint256"}],"outputs":[{"name":"","type":"bool","internalType":"bool"}],"stateMutability":"nonpayable"},{"type":"function","name":"multicall","inputs":[{"name":"data","type":"bytes[]","internalType":"bytes[]"}],"outputs":[{"name":"results","type":"bytes[]","internalType":"bytes[]"}],"stateMutability":"payable"},{"type":"function","name":"queryCommission","inputs":[{"name":"_goodid","type":"address[]","internalType":"address[]"},{"name":"_recipent","type":"address","internalType":"address"}],"outputs":[{"name":"","type":"uint256[]","internalType":"uint256[]"}],"stateMutability":"view"},{"type":"function","name":"removeSecurityKeeper","inputs":[],"outputs":[],"stateMutability":"nonpayable"},{"type":"function","name":"removebanlist","inputs":[{"name":"_user","type":"address","internalType":"address"}],"outputs":[{"name":"","type":"bool","internalType":"bool"}],"stateMutability":"nonpayable"},{"type":"function","name":"securityKeeper","inputs":[{"name":"token","type":"address","internalType":"address"}],"outputs":[],"stateMutability":"nonpayable"},{"type":"function","name":"setAuth","inputs":[{"name":"_newmarketor","type":"address","internalType":"address"},{"name":"auth","type":"uint256","internalType":"uint256"}],"outputs":[],"stateMutability":"nonpayable"},{"type":"function","name":"setMarketConfig","inputs":[{"name":"_marketconfig","type":"uint256","internalType":"uint256"}],"outputs":[{"name":"","type":"bool","internalType":"bool"}],"stateMutability":"nonpayable"},{"type":"function","name":"setOperator","inputs":[{"name":"operator","type":"address","internalType":"address"},{"name":"approved","type":"bool","internalType":"bool"}],"outputs":[{"name":"","type":"bool","internalType":"bool"}],"stateMutability":"nonpayable"},{"type":"function","name":"stakeETH","inputs":[{"name":"token","type":"address","internalType":"address"},{"name":"amount","type":"uint128","internalType":"uint128"}],"outputs":[],"stateMutability":"nonpayable"},{"type":"function","name":"supportsInterface","inputs":[{"name":"interfaceId","type":"bytes4","internalType":"bytes4"}],"outputs":[{"name":"","type":"bool","internalType":"bool"}],"stateMutability":"view"},{"type":"function","name":"syncReward","inputs":[{"name":"token","type":"address","internalType":"address"}],"outputs":[],"stateMutability":"nonpayable"},{"type":"function","name":"transfer","inputs":[{"name":"receiver","type":"address","internalType":"address"},{"name":"id","type":"uint256","internalType":"uint256"},{"name":"amount","type":"uint256","internalType":"uint256"}],"outputs":[{"name":"","type":"bool","internalType":"bool"}],"stateMutability":"nonpayable"},{"type":"function","name":"transferFrom","inputs":[{"name":"sender","type":"address","internalType":"address"},{"name":"receiver","type":"address","internalType":"address"},{"name":"id","type":"uint256","internalType":"uint256"},{"name":"amount","type":"uint256","internalType":"uint256"}],"outputs":[{"name":"","type":"bool","internalType":"bool"}],"stateMutability":"nonpayable"},{"type":"function","name":"unstakeETH","inputs":[{"name":"token","type":"address","internalType":"address"},{"name":"amount","type":"uint128","internalType":"uint128"}],"outputs":[],"stateMutability":"nonpayable"},{"type":"function","name":"updateGoodConfig","inputs":[{"name":"_goodid","type":"address","internalType":"address"},{"name":"_goodConfig","type":"uint256","internalType":"uint256"}],"outputs":[{"name":"","type":"bool","internalType":"bool"}],"stateMutability":"nonpayable"},{"type":"function","name":"userConfig","inputs":[{"name":"","type":"address","internalType":"address"}],"outputs":[{"name":"","type":"uint256","internalType":"uint256"}],"stateMutability":"view"},{"type":"event","name":"Approval","inputs":[{"name":"owner","type":"address","indexed":true,"internalType":"address"},{"name":"spender","type":"address","indexed":true,"internalType":"address"},{"name":"id","type":"uint256","indexed":true,"internalType":"uint256"},{"name":"amount","type":"uint256","indexed":false,"internalType":"uint256"}],"anonymous":false},{"type":"event","name":"OperatorSet","inputs":[{"name":"owner","type":"address","indexed":true,"internalType":"address"},{"name":"operator","type":"address","indexed":true,"internalType":"address"},{"name":"approved","type":"bool","indexed":false,"internalType":"bool"}],"anonymous":false},{"type":"event","name":"Transfer","inputs":[{"name":"caller","type":"address","indexed":false,"internalType":"address"},{"name":"from","type":"address","indexed":true,"internalType":"address"},{"name":"to","type":"address","indexed":true,"internalType":"address"},{"name":"id","type":"uint256","indexed":true,"internalType":"uint256"},{"name":"amount","type":"uint256","indexed":false,"internalType":"uint256"}],"anonymous":false},{"type":"event","name":"e_buyGood","inputs":[{"name":"sellgood","type":"address","indexed":true,"internalType":"address"},{"name":"forgood","type":"address","indexed":true,"internalType":"address"},{"name":"swapvalue","type":"uint256","indexed":false,"internalType":"uint256"},{"name":"good1change","type":"uint256","indexed":false,"internalType":"uint256"},{"name":"good2change","type":"uint256","indexed":false,"internalType":"uint256"}],"anonymous":false},{"type":"event","name":"e_changegoodowner","inputs":[{"name":"goodid","type":"address","indexed":false,"internalType":"address"},{"name":"to","type":"address","indexed":false,"internalType":"address"}],"anonymous":false},{"type":"event","name":"e_changemarketcreator","inputs":[{"name":"_newmarketor","type":"address","indexed":false,"internalType":"address"}],"anonymous":false},{"type":"event","name":"e_collectProtocolFee","inputs":[{"name":"goodid","type":"address","indexed":false,"internalType":"address"},{"name":"feeamount","type":"uint256","indexed":false,"internalType":"uint256"}],"anonymous":false},{"type":"event","name":"e_collectcommission","inputs":[{"name":"_gooid","type":"address[]","indexed":false,"internalType":"address[]"},{"name":"_commisionamount","type":"uint256[]","indexed":false,"internalType":"uint256[]"}],"anonymous":false},{"type":"event","name":"e_disinvestProof","inputs":[{"name":"_proofNo","type":"uint256","indexed":true,"internalType":"uint256"},{"name":"_normalGoodNo","type":"address","indexed":false,"internalType":"address"},{"name":"_valueGoodNo","type":"address","indexed":false,"internalType":"address"},{"name":"_gate","type":"address","indexed":false,"internalType":"address"},{"name":"_value","type":"uint256","indexed":false,"internalType":"uint256"},{"name":"_normalgood","type":"uint256","indexed":false,"internalType":"uint256"},{"name":"_valuegood","type":"uint256","indexed":false,"internalType":"uint256"},{"name":"_profit","type":"uint256","indexed":false,"internalType":"uint256"}],"anonymous":false},{"type":"event","name":"e_goodWelfare","inputs":[{"name":"goodid","type":"address","indexed":false,"internalType":"address"},{"name":"welfare","type":"uint128","indexed":false,"internalType":"uint128"}],"anonymous":false},{"type":"event","name":"e_initGood","inputs":[{"name":"_proofNo","type":"uint256","indexed":false,"internalType":"uint256"},{"name":"_goodid","type":"address","indexed":false,"internalType":"address"},{"name":"_valuegoodNo","type":"address","indexed":false,"internalType":"address"},{"name":"_goodConfig","type":"uint256","indexed":false,"internalType":"uint256"},{"name":"_construct","type":"uint256","indexed":false,"internalType":"uint256"},{"name":"_normalinitial","type":"uint256","indexed":false,"internalType":"uint256"},{"name":"_value","type":"uint256","indexed":false,"internalType":"uint256"}],"anonymous":false},{"type":"event","name":"e_initMetaGood","inputs":[{"name":"_proofNo","type":"uint256","indexed":false,"internalType":"uint256"},{"name":"_goodid","type":"address","indexed":false,"internalType":"address"},{"name":"_construct","type":"uint256","indexed":false,"internalType":"uint256"},{"name":"_goodConfig","type":"uint256","indexed":false,"internalType":"uint256"},{"name":"_initial","type":"uint256","indexed":false,"internalType":"uint256"}],"anonymous":false},{"type":"event","name":"e_investGood","inputs":[{"name":"_proofNo","type":"uint256","indexed":true,"internalType":"uint256"},{"name":"_normalgoodid","type":"address","indexed":false,"internalType":"address"},{"name":"_valueGoodNo","type":"address","indexed":false,"internalType":"address"},{"name":"_value","type":"uint256","indexed":false,"internalType":"uint256"},{"name":"_invest","type":"uint256","indexed":false,"internalType":"uint256"},{"name":"_valueinvest","type":"uint256","indexed":false,"internalType":"uint256"}],"anonymous":false},{"type":"event","name":"e_modifiedUserConfig","inputs":[{"name":"_user","type":"address","indexed":false,"internalType":"address"},{"name":"config","type":"uint256","indexed":false,"internalType":"uint256"}],"anonymous":false},{"type":"event","name":"e_modifyGoodConfig","inputs":[{"name":"_goodid","type":"address","indexed":false,"internalType":"address"},{"name":"_goodconfig","type":"uint256","indexed":false,"internalType":"uint256"}],"anonymous":false},{"type":"event","name":"e_setMarketConfig","inputs":[{"name":"_marketconfig","type":"uint256","indexed":false,"internalType":"uint256"}],"anonymous":false},{"type":"event","name":"e_transferdel","inputs":[{"name":"delproofid","type":"uint256","indexed":false,"internalType":"uint256"},{"name":"existsproofid","type":"uint256","indexed":false,"internalType":"uint256"}],"anonymous":false},{"type":"event","name":"e_updateGoodConfig","inputs":[{"name":"_goodid","type":"address","indexed":false,"internalType":"address"},{"name":"_goodConfig","type":"uint256","indexed":false,"internalType":"uint256"}],"anonymous":false},{"type":"error","name":"ApproveFailed","inputs":[]},{"type":"error","name":"ERC20PermitFailed","inputs":[]},{"type":"error","name":"ERC20TransferFailed","inputs":[]},{"type":"error","name":"ERC3156ExceededMaxLoan","inputs":[{"name":"maxLoan","type":"uint256","internalType":"uint256"}]},{"type":"error","name":"ERC3156InvalidReceiver","inputs":[{"name":"receiver","type":"address","internalType":"address"}]},{"type":"error","name":"ERC3156UnsupportedToken","inputs":[{"name":"token","type":"address","internalType":"address"}]},{"type":"error","name":"NativeETHTransferFailed","inputs":[]},{"type":"error","name":"TTSwapError","inputs":[{"name":"seq","type":"uint256","internalType":"uint256"}]}],"bytecode":{"object":"0x60a0346100c857601f615bd738819003918201601f19168301916001600160401b038311848410176100cc578084926080946040528339810103126100c85780519061004d602082016100e0565b91610066606061005f604085016100e0565b93016100e0565b608093909352600755600880546001600160a01b039283166001600160a01b03199182161790915560098054929093169116179055604051615ae290816100f582396080518181816112eb01528181612c63015281816131d101526135930152f35b5f80fd5b634e487b7160e01b5f52604160045260245ffd5b51906001600160a01b03821682036100c85756fe6080604052600436101561001a575b3615610018575f80fd5b005b5f3560e01c8062796f71146102b7578062fdd58e146102b257806301ffc9a7146102ad57806306cf4e7f146102a857806308238466146102a3578063095bcdb61461029e5780630d2700ab14610299578063119ac094146102945780631412723a1461028f5780633bd164361461028a5780633c9fe544146102855780633d995173146102805780633f1177401461027b578063402f5ab51461027657806341e1237314610271578063426a84931461026c57806345818e4c1461026757806351ff9a1614610262578063558a72971461025d578063598af9e7146102585780635cffe9de146102535780635f35b0b31461024e5780635f755d6514610249578063613255ab1461024457806373db17921461023f57806381a860d11461023a5780638c706eb5146102355780639551177a146102305780639b2227941461022b578063a06ad0e814610226578063a3b74a4914610221578063ac9650d81461021c578063b153b92014610217578063b1efb92114610212578063b6363cf21461020d578063c9544f1814610208578063d9d98ce414610203578063f151e786146101fe578063f4662f20146101f9578063f878e809146101f4578063fa704db2146101ef5763fe99049a0361000e57612525565b6124bf565b612077565b611ff6565b611f53565b611f07565b611ed3565b611e8b565b611e17565b611da3565b611d3c565b611c1a565b611ba0565b611ad4565b611a0c565b611976565b611815565b611644565b6115ee565b611573565b611538565b61149d565b61144d565b6113b1565b611193565b611131565b6110b0565b611013565b610ff6565b610f38565b610f10565b610e89565b610b6b565b610abb565b610a2a565b61088a565b6106b5565b6105ac565b610441565b6103ad565b610364565b6102f9565b6001600160a01b038116036102cd57565b5f80fd5b60409060031901126102cd576004356102e9816102bc565b906024356102f6816102bc565b90565b346102cd57610307366102d1565b6001600160a01b039182165f9081526003602090815260408083206002908101549590941683529182902090920154815193845291830191909152819081015b0390f35b6001600160a01b03165f90815260036020526040902090565b346102cd5760403660031901126102cd57600435610381816102bc565b6024359060018060a01b03165f52600160205260405f20905f52602052602060405f2054604051908152f35b346102cd5760203660031901126102cd5760043563ffffffff60e01b81168091036102cd576020906301ffc9a760e01b81149081156103f2575b506040519015158152f35b630f632fb360e01b1490505f6103e7565b6001600160801b038116036102cd57565b9181601f840112156102cd578235916001600160401b0383116102cd57602083818601950101116102cd57565b60603660031901126102cd57600435610459816102bc565b60243561046581610403565b6044356001600160401b0381116102cd57610484903690600401610414565b92905f516020615a6d5f395f51905f525c6001600160a01b031661059857335f516020615a6d5f395f51905f525d6104ba61398c565b6001600160a01b0382165f908152600360205260409020600401546001606d1b906001600160801b03906104f790869060801c6126da565b6126da565b161015610584577f0dc5e2150c5754dc0bcd8d76ca2d23850fc9a2a3115c69bb4fbdbedc25074a0093610535916001600160801b0385163385613a7e565b61055560046105438361034b565b015461054f8460801b90565b90613fdf565b60046105608361034b565b0155610571604051928392836126f3565b0390a161057c6139e9565b610018613969565b63d1b5191160e01b5f52600c60045260245ffd5b63d1b5191160e01b5f52600360045260245ffd5b346102cd5760203660031901126102cd576103476004356105cc816102bc565b6105d4612716565b506001600160a01b038181165f9081526003602052604090208054600190910154909291169060026106058261034b565b01546106406004610622600361061a8661034b565b01549461034b565b01549361062d6107be565b9586526001600160a01b03166020860152565b6040840152606083015260808201526040519182918291909160808060a08301948051845260018060a01b03602082015116602085015260408101516040850152606081015160608501520151910152565b60609060031901126102cd576004356106aa816102bc565b906024359060443590565b346102cd576106c336610692565b9091335f52600160205260405f20835f5260205260405f20805490838203918211610749575560018060a01b031690815f52600160205261070f8360405f20905f5260205260405f2090565b61071a82825461275b565b90555f516020615a4d5f395f51905f526040518061073a33943383612768565b0390a460405160018152602090f35b6126c6565b634e487b7160e01b5f52604160045260245ffd5b60a081019081106001600160401b0382111761077d57604052565b61074e565b604081019081106001600160401b0382111761077d57604052565b90601f801991011681019081106001600160401b0382111761077d57604052565b604051906107cd60a08361079d565b565b604051906107cd6101008361079d565b604051906107cd60608361079d565b604051906107cd60408361079d565b604051906107cd60808361079d565b6001600160401b03811161077d5760051b60200190565b9080601f830112156102cd57813561083a8161080c565b92610848604051948561079d565b81845260208085019260051b8201019283116102cd57602001905b8282106108705750505090565b60208091833561087f816102bc565b815201910190610863565b346102cd5760203660031901126102cd576004356001600160401b0381116102cd576108ba903690600401610823565b5f516020615a6d5f395f51905f525c6001600160a01b031661059857335f516020615a6d5f395f51905f525d6108ee61398c565b6064815111610a16576109018151612783565b5f5b82518110156109e45760019061094d336005610937610932610925868a6127c9565b516001600160a01b031690565b61034b565b019060018060a01b03165f5260205260405f2090565b5461095882856127c9565b52600261096582856127c9565b51101561097f575f61097782856127c9565b525b01610903565b61099261098c82856127c9565b51612740565b61099c82856127c9565b526109bc6109b6336005610937610932610925878b6127c9565b60019055565b6109df6109cc61092583876127c9565b6109d683866127c9565b51903390614008565b610979565b507f477bb716eacccc001de50dcdd6e25241283d080e6afb27443908b20f4e738b5e91610571604051928392836127e2565b63d1b5191160e01b5f52600b60045260245ffd5b346102cd5760203660031901126102cd57600435610a47816102bc565b6008546001600160a01b03163303610a7b57600a80546001600160a01b0319166001600160a01b0392909216919091179055005b63d1b5191160e01b5f52600160045260245ffd5b60609060031901126102cd57600435610aa7816102bc565b90602435610ab4816102bc565b9060443590565b346102cd57610b44610acc36610a8f565b6001600160a01b039283165f908152600360205260408082206002908101549590941682529020909101549291610b3a90610b27610b176001600160801b038716608084901c6134a6565b6001600160801b038516906134a6565b9460801c906001600160801b03166134a6565b9060801c906134a6565b1015610b625761034760015b60405190151581529081906020820190565b6103475f610b50565b346102cd5760803660031901126102cd57600435610b88816102bc565b60243590610b95826102bc565b60443591610ba283610403565b60643592610baf84610403565b6002610bba8461034b565b0154158015610e75575b8015610e64575b8015610e4f575b8015610e3c575b610e285760646001600160801b0385161015610d4057610c056002610bfd8561034b565b01549361034b565b5491610c69610c206002610c188461034b565b01549261034b565b5495610c2a6107cf565b6001600160801b03851681529260208401955f875260408501975f89525f6060870152608086015260a085015260c084015260e0830196875282614352565b8051610c8a906001600160801b031685516001600160801b03165b906126da565b6001600160801b0383811691161015610d2c57610cf8610ce8610d1292610cd8610cd895610cd2610cc4610d199a5160018060801b031690565b93516001600160801b031690565b9061288c565b60018060801b03169060801b1790565b955193516001600160801b031690565b926001600160801b038416607f6127109260cc1c16020490565b809261288c565b905b604080519182526020820192909252f35b63d1b5191160e01b5f52602260045260245ffd5b610dd1610dc5610d5c6002610d548761034b565b01549561034b565b5493610db8610d6f6002610c188461034b565b5497610d796107cf565b6001600160801b03871681529260208401975f895260408501995f8b525f6060870152608086015260a085015260c084015260e08301988952826140b7565b516001600160801b031690565b6001600160801b031690565b610e1457610e07610cf8610ce8610cd893610df5610e0e975160018060801b031690565b60801b6001600160801b039091161790565b80926126da565b90610d1b565b63d1b5191160e01b5f52602160045260245ffd5b63d1b5191160e01b5f52602360045260245ffd5b5060c86001600160801b03851611610bd9565b506001600160a01b0383811690831614610bd2565b506001600160801b03811615610bcb565b506002610e818361034b565b015415610bc4565b346102cd5760203660031901126102cd57600435610ea6816102bc565b610eae61398c565b6009546001600160a01b031633036102cd57610efe90610ece3082614611565b6001600160a01b038083165f90815260036020526040812060048101829055600201556009549192911690614008565b6100186139e9565b5f9103126102cd57565b346102cd575f3660031901126102cd576008546040516001600160a01b039091168152602090f35b346102cd5760203660031901126102cd57600435610f54612716565b505f52600460205261034760405f20600460405191610f7283610762565b60018060a01b03815416835260018060a01b0360018201541660208401526002810154604084015260038101546060840152015460808201526040519182918291909160808060a083019460018060a01b03815116845260018060a01b03602082015116602085015260408101516040850152606081015160608501520151910152565b346102cd575f3660031901126102cd576020600754604051908152f35b346102cd57611021366102d1565b335f526005602052600260405f2054161561109c577f42e3c955499470d3dc1078d90519d90691c504c8856ea058daf2c1436c2dab4c9160018060a01b0381165f52600360205261107882600160405f200161283c565b604080516001600160a01b039283168152929091166020830152819081015b0390a1005b63d1b5191160e01b5f52600260045260245ffd5b346102cd576110be36610692565b9091335f5260026020526110e58160405f209060018060a01b03165f5260205260405f2090565b835f526020528160405f205560405191825260018060a01b0316907fb3fd5071835887567a0671151121894ddccc2842f1d10bedad13e0d17cace9a760203392a4602060405160018152f35b346102cd5760203660031901126102cd57600854600435906001600160a01b03163303610a7b576020817fbd209961024f2694b0afb3c8badd20b6477abb77b336b16892c3fa4b906d323c92600755604051908152a160405160018152602090f35b60803660031901126102cd576004356111ab816102bc565b604435906024356064356001600160401b0381116102cd576111d1903690600401610414565b600854919290916001600160a01b03163303610a7b576111ef61398c565b600160ff1b851615611200565b1590565b801561137a575b611367577f8f2eb922ee1b2f92e0051f7949a8c191264807725a1e435e91abebd28583830a946001600160801b038216936113509361124891863389613a7e565b61125b81836112568861034b565b6146d8565b61126c6112678661034b565b6146fd565b61130f61129761127a6107df565b3381526001600160a01b03881660208201525f6040820152614734565b946112e86112ad875f52600460205260405f2090565b916112c8818760801c948b6112c28760801b90565b9161477a565b6112e26001600160a01b038a165b6001600160a01b031690565b33614830565b337f0000000000000000000000000000000000000000000000000000000000000000614887565b604080519586526001600160a01b0390961660208601526001600160801b0316948401949094526060830193909352608082019290925290819060a0820190565b0390a161135b6139e9565b60405160018152602090f35b63d1b5191160e01b5f526004805260245ffd5b506001600160a01b0361139f60016113918761034b565b01546001600160a01b031690565b161515611207565b801515036102cd57565b346102cd5760403660031901126102cd576004356113ce816102bc565b602435906113db826113a7565b335f908152602081815260408083206001600160a01b038516845290915290209115159160ff1981541660ff841617905560405191825260018060a01b0316907fceb576d9f15e4e200fdb5096d64d5dfd667e16def20c1eefd14256d8e3faa26760203392a360405160018152602090f35b346102cd5761148861145e36610a8f565b929160018060a01b03165f52600260205260405f209060018060a01b03165f5260205260405f2090565b905f52602052602060405f2054604051908152f35b346102cd5760803660031901126102cd576004356114ba816102bc565b602435906114c7826102bc565b6044356064356001600160401b0381116102cd576114e9903690600401610414565b915f516020615a6d5f395f51905f525c6001600160a01b0316611524576103479461151c946115173361397b565b61290f565b610b50613969565b63d1b5191160e01b5f52600360045260245ffd5b346102cd5760203660031901126102cd57600435611555816102bc565b60018060a01b03165f526005602052602060405f2054604051908152f35b60c03660031901126102cd5760043561158b816102bc565b6044359060243561159b836102bc565b606435916084356001600160401b0381116102cd576115be903690600401610414565b9060a435946001600160401b0386116102cd57610347966115e6610b50973690600401610414565b969095612a7b565b346102cd5760203660031901126102cd576020611617600435611610816102bc565b3090614611565b604051908152f35b60409060031901126102cd57600435611637816102bc565b906024356102f681610403565b346102cd576116523661161f565b905f516020615a6d5f395f51905f525c6001600160a01b031661059857335f516020615a6d5f395f51905f525d336001600160a01b0361169660016113918561034b565b1614801590611803575b6117ef576116ad816148e3565b15611752576006546116d1906116cc906001600160801b03851661054f565b600655565b600a546116e6906001600160a01b03166112d6565b91823b156102cd57805f9261171194604051809681958294638efa048760e01b8452600484016126f3565b03926001600160801b0316905af1801561174d57611733575b50610018613969565b806117415f6117479361079d565b80610f06565b5f61172a565b612904565b6117656116cc60065461054f8560801b90565b600a54611786908390611780906001600160a01b03166112d6565b83614aa2565b600a5461179b906001600160a01b03166112d6565b91823b156102cd576117c6925f9283604051809681958294638efa048760e01b8452600484016126f3565b03925af1801561174d576117db575b5061057c565b806117415f6117e99361079d565b5f6117d5565b63d1b5191160e01b5f52602460048190525ffd5b506118106111fc82614a76565b6116a0565b346102cd576118233661161f565b5f516020615a6d5f395f51905f525c6001600160a01b031661059857335f516020615a6d5f395f51905f525d336001600160a01b0361186660016113918661034b565b1614801590611964575b6117ef57600a54611889906001600160a01b03166112d6565b9060206040518093630620458b60e11b8252815f816118ac878a600484016126f3565b03925af191821561174d576004926119109261190a925f92611933575b506118d3866148e3565b1561191a576006546118f4916116cc91906001600160801b03165b90614b9f565b6118ee846119018761034b565b01549160801b90565b9261034b565b0155610018613969565b6116cc61192e916118ee6006549160801b90565b6118f4565b61195691925060203d60201161195d575b61194e818361079d565b810190612df7565b905f6118c9565b503d611944565b506119716111fc83614a76565b611870565b346102cd5760203660031901126102cd57600435611993816102bc565b600a54604051638c706eb560e01b81526001600160a01b0383811660048301529091602091839160249183915f91165af1801561174d5761190a6119e9916004935f916119ed575b506118ee846119018761034b565b0155005b611a06915060203d60201161195d5761194e818361079d565b5f6119db565b346102cd5760203660031901126102cd57600435611a29816102bc565b335f526005602052600260405f2054161561109c576001600160a01b0381165f90815260056020526040908190208054600119169081905590515f516020615a0d5f395f51905f529290918291611a81919083612768565b0390a160405160018152602090f35b90602080835192838152019201905f5b818110611aad5750505090565b8251845260209384019390920191600101611aa0565b9060206102f6928181520190611a90565b346102cd5760403660031901126102cd576004356001600160401b0381116102cd57611b04903690600401610823565b60243590611b11826102bc565b606481511015611b8c57611b258151612783565b915f5b8251811015611b7e576001906001600160a01b03611b4682866127c9565b51165f9081526003602090815260408083206001600160a01b0387168452600501909152902054611b7782876127c9565b5201611b28565b604051806103478682611ac3565b63d1b5191160e01b5f52600b60045260245ffd5b346102cd5760203660031901126102cd57600435611bbd816102bc565b60085490336001600160a01b03831603610a7b576001600160a01b03166001600160a01b03199190911681176008556040519081527fa8d3850ce581f2add46670c1408b76ca1d0d4ef627eed4a89802ff670940082d90602090a1005b346102cd5760403660031901126102cd57600435611c37816102bc565b6024356001600160a01b038281165f81815260036020526040902060010154909391163303611ca5577f075a13b9dbfb2e30d678551b8c2a4f9ede7468ca5273fa902a41d0e577566669925f526003602052611c968260405f20614bc8565b611a8160405192839283612768565b63d1b5191160e01b5f52600a60045260245ffd5b805180835260209291819084018484015e5f828201840152601f01601f1916010190565b602081016020825282518091526040820191602060408360051b8301019401925f915b838310611d0f57505050505090565b9091929394602080611d2d600193603f198682030187528951611cb9565b97019301930191939290611d00565b60203660031901126102cd576004356001600160401b0381116102cd57366023820112156102cd578060040135906001600160401b0382116102cd573660248360051b830101116102cd57610347916024611d979201612e0c565b60405191829182611cdd565b346102cd5760203660031901126102cd57600435611dc0816102bc565b335f526005602052600260405f2054161561109c576001600160a01b0381165f908152600560205260409081902080546001179081905590515f516020615a0d5f395f51905f529290918291611a81919083612768565b346102cd5760403660031901126102cd57600435611e34816102bc565b602435335f526005602052600260405f2054161561109c577fe40cf68f61d9a4e510244481f5aa34ba68de31cf3f9aa360604d688115d640c89160018060a01b0381165f526003602052611c968260405f2061471a565b346102cd57602060ff611ec7611ea0366102d1565b6001600160a01b039182165f90815280865260408082209290931681526020919091522090565b54166040519015158152f35b346102cd575f3660031901126102cd576008546001600160a01b031633036102cd57600980546001600160a01b0319169055005b346102cd5760403660031901126102cd576020611617600435611f29816102bc565b6001600160a01b03165f90815260038352604090205461271060df9190911c603f16602435020490565b60c03660031901126102cd57600435611f6b816102bc565b602435611f77816102bc565b60443590611f8482610403565b606435611f9081610403565b60843590611f9d826102bc565b60a4356001600160401b0381116102cd57611fbc903690600401610414565b9490935f516020615a6d5f395f51905f525c6001600160a01b031661152457611fed96611fe83361397b565b612f5c565b90610d1b613969565b346102cd5760603660031901126102cd5760043560243561201681610403565b60443590612023826102bc565b5f516020615a6d5f395f51905f525c6001600160a01b0316610598576120519261204c3361397b565b6134b9565b9061205a613969565b604080516001600160801b03928316815292909116602083015290f35b60a03660031901126102cd5760043561208f816102bc565b60243561209b816102bc565b604435906120a882610403565b6064356001600160401b0381116102cd576120c7903690600401610414565b6084949194356001600160401b0381116102cd576120e9903690600401610414565b90915f516020615a6d5f395f51905f525c6001600160a01b031661059857335f516020615a6d5f395f51905f525d61211f61398c565b612127612d54565b96612130612d54565b966001606d1b6001600160801b0361215483600261214d8b61034b565b01546126da565b16108015906124aa575b8015612472575b61245e576121a892816121848b6121969461217f8b61034b565b614944565b6001600160801b031692833389613a7e565b6112e26001600160a01b0386166112d6565b6001600160a01b03841615918590831561237a575b5050506121c86107df565b3381526001600160a01b03831660208201526001600160a01b03841660408201526121f290614734565b94612205865f52600460205260405f2090565b6040820180519196909390916001600160801b0316906122258260801b90565b60208501519091906001600160801b0316606086018051909a9189916001600160801b03166001600160801b031660809190911b1760208701516001600160801b03166060880180519096918d916001600160801b03166001600160801b031660809190911b1793612296956147c3565b5f146122f261230e7fee89c9fd704272905456294f1b2b88581ebe0241f72c15b4f3db31d19388f6af9a610cd86122f26123006123539b61231c99610cd89861236657508051610df5906122f2906001600160801b03166112e8565b91516001600160801b031690565b99516001600160801b031690565b94516001600160801b031690565b604080516001600160a01b0396871681529690951660208701529385019190915260608401526080830191909152819060a0820190565b0390a261235e6139e9565b61135b613969565b6122f2612375610df592612dd7565b6112e8565b612414612456936123a5600261238f8a61034b565b015460408c01516001600160801b031690615206565b6001600160801b031660608501908152926123f96123ec6123c58b61034b565b5486516123da906001600160801b0316610dc5565b603f6127109260d91c16820390040290565b6001600160801b03168552565b835161240d906001600160801b0316610dc5565b338a613a7e565b6124446124296001600160a01b0388166112d6565b825161243d906001600160801b0316610dc5565b9033614830565b6124506122f28761034b565b90614944565b5f84816121bd565b63d1b5191160e01b5f52600760045260245ffd5b5061248b61247f8761034b565b54600160ff1b16151590565b8015612498575b15612165565b506124a561247f8861034b565b612492565b506001600160a01b038681169088161461215e565b346102cd5760403660031901126102cd576004356124dc816102bc565b6024356008546001600160a01b03163303610a7b575f516020615a0d5f395f51905f529160018060a01b0381165f5260056020528160405f205561109760405192839283612768565b346102cd5760803660031901126102cd57600435612542816102bc565b60243561254e816102bc565b604435915f516020615a4d5f395f51905f5261073a606435936001600160a01b038416936125b09087906125a3903388141580612696575b612606576001600160a01b03165f90815260016020526040902090565b905f5260205260405f2090565b6125bb86825461274e565b90556001600160a01b0381165f9081526001602052604090206125df9087906125a3565b6125ea86825461275b565b90556040516001600160a01b0390911694909182913383612768565b61263d836125a3336126288560018060a01b03165f52600260205260405f2090565b9060018060a01b03165f5260205260405f2090565b548960018201612663575b50506001600160a01b03165f90815260016020526040902090565b61266c9161274e565b61268e846125a3336126288660018060a01b03165f52600260205260405f2090565b555f89612648565b506126c16111fc6126ba336126288560018060a01b03165f525f60205260405f2090565b5460ff1690565b612586565b634e487b7160e01b5f52601160045260245ffd5b6001600160801b03918216908216019190821161074957565b6001600160a01b0390911681526001600160801b03909116602082015260400190565b6040519061272382610762565b5f6080838281528260208201528260408201528260608201520152565b5f1981019190821161074957565b9190820391821161074957565b9190820180921161074957565b6001600160a01b039091168152602081019190915260400190565b9061278d8261080c565b61279a604051918261079d565b82815280926127ab601f199161080c565b0190602036910137565b634e487b7160e01b5f52603260045260245ffd5b80518210156127dd5760209160051b010190565b6127b5565b9291604084019360408152825180955260206060820193015f955b8087106128195750506102f69394506020818403910152611a90565b81516001600160a01b0316855260019690960195602094850194909101906127fd565b80546001600160a01b0319166001600160a01b03909216919091179055565b6001600160801b03908116606319019190821161074957565b6001600160801b039081165f19019190821161074957565b6001600160801b03918216908216039190821161074957565b908160209103126102cd575190565b6001600160a01b039182168152911660208201526040810191909152606081019190915260a060808201819052810183905260c09290918190848401375f828201840152601f01601f1916010190565b6040513d5f823e3d90fd5b92949391909161291e836148e3565b612a675761293561292f3085614611565b60011c90565b808311612a555750602061299791612961846129508761034b565b5490603f6127109260df1c16020490565b6001600160a01b0390961697612978858a88614008565b6040516323e30c8b60e01b8152938492839289888a33600488016128b4565b03815f8a5af1801561174d577f439148f0bbc682ca079e46d6e2c2f0c1e3b820f1a291b069d8882abf8cf18dd9915f91612a26575b5003612a0b5790610932612a0694956129ee610dc5610dc5876129f79761275b565b90309084614903565b6004019081549060801b019055565b600190565b62678c5b60e81b5f526001600160a01b03851660045260245ffd5b612a48915060203d602011612a4e575b612a40818361079d565b8101906128a5565b5f6129cc565b503d612a36565b63fd9a760960e01b5f5260045260245ffd5b63d1b5191160e01b5f52601d60045260245ffd5b96919592939092905f516020615a6d5f395f51905f525c6001600160a01b031661059857335f516020615a6d5f395f51905f525d612ab761398c565b6001600160a01b03612acd60016113918a61034b565b1615801590612d3f575b612d2b57608084901c95612aed9187338a613a7e565b6001600160801b03831691612b049183338a613a7e565b612b0c612d54565b9182612b178861034b565b91612b2192614944565b612b2a8561034b565b60408301805190929190859087906001600160801b031660801b6001600160801b0390911617612b59926146d8565b612b616107df565b3381526001600160a01b03871660208201526001600160a01b0388166040820152612b8b90614734565b82519095906001600160801b031660801b60208501519092906001600160801b0316606086018051909491906001600160801b03166001600160801b031660809190911b17612bd86107be565b6001600160a01b038b168152916001600160a01b038c16602084015260408301528360608301526080820152612c16885f52600460205260405f2090565b90612c2091612d88565b612c34826001600160a01b038a1633614830565b612c48906001600160a01b038a1633614830565b82516001600160801b0316612c5c90612dd7565b612c8790337f0000000000000000000000000000000000000000000000000000000000000000614887565b925193519151604080519788526001600160a01b039889166020890152989097169786019790975260608501939093526001600160801b0390811660808581019190915295861b9181169190911760a08401526001600160801b03199190941b16919092161760c08201527f3fc0293a5a7bc73de220f0814bbbebc31e77ffcd41bf5e8be187471747bd7caa9060e090a1612d206139e9565b6001906107cd613969565b63d1b5191160e01b5f52600560045260245ffd5b50612d4f6111fc61247f8a61034b565b612ad7565b60405190608082018281106001600160401b0382111761077d576040525f6060838281528260208201528260408201520152565b906080600491612da160018060a01b038251168561283c565b6020810151612dbc906001600160a01b03166001860161283c565b60408101516002850155606081015160038501550151910155565b60011b6002600160801b03811691906002600160811b0316820361074957565b908160209103126102cd57516102f681610403565b612e1461398c565b612e1d8261080c565b91612e2b604051938461079d565b808352601f19612e3a8261080c565b015f5b818110612eb35750505f5b818110612e5b57505050906107cd6139e9565b5f80612e68838587612ec4565b90612e7860405180938193612f05565b0390305af4612e85612f2d565b9015612eab5790600191612e9982876127c9565b52612ea481866127c9565b5001612e48565b602081519101fd5b806060602080938801015201612e3d565b91908110156127dd5760051b81013590601e19813603018212156102cd5701908135916001600160401b0383116102cd5760200182360381136102cd579190565b908092918237015f815290565b6001600160401b03811161077d57601f01601f191660200190565b3d15612f57573d90612f3e82612f12565b91612f4c604051938461079d565b82523d5f602084013e565b606090565b939695919496612f6a61398c565b6002612f758661034b565b0154158015613479575b8015613468575b8015613453575b8015613440575b610e285760646001600160801b038516101561325b576001600160a01b0381168015159081613250575b506131cf575b506002612fd08561034b565b0154612fdb8561034b565b54906002612fe88461034b565b015490612ff48461034b565b5495612ffe6107cf565b6001600160801b038a16815260208101995f8b5261304560408301935f855260608401975f89526080850196875260a085015260c0840196875260e084019a8b5283614352565b8151613064906001600160801b031684516001600160801b0316610c84565b6001600160801b038281169116108015906131b7575b610d2c5782516001600160801b031691516001600160801b031661309d9161288c565b6001600160801b031660809190911b1796519851969889976001600160801b0316906001600160801b03821661271060cc9290921c607f16020490816130e29161288c565b6001600160801b031660809190911b179a8b9661310a916001600160801b038a16338c613a7e565b6131138861034b565b915190516001600160801b03169061312a92614be8565b6131338361034b565b90518460801c9061314392614be8565b6131576001600160801b0384163384614008565b51604080516001600160801b0390921682526020820194909452928301919091526001600160a01b039081169216907f770ac49eb4a65be664dd014b1b315647b776f18742f5b7e141e8cb18cec6cea890606090a35b91906107cd6139e9565b508551629896806001600160801b039091161061307a565b7f00000000000000000000000000000000000000000000000000000000000000006001600160a01b0316803b156102cd576040516376549e6760e11b81523360048201526001600160a01b039290921660248301525f908290604490829084905af1801561174d5715612fc457806117415f61324a9361079d565b5f612fc4565b90503314155f612fbe565b94926001600160a01b03861615610e28575f9560026132798761034b565b0154916132858761034b565b549260026132928661034b565b01549161329e8661034b565b54976132f4610dc56132ae6107cf565b6001600160801b0384168152602081019d8e52610db860408201955f8752606083019a5f8c526080840198895260a084015260c0830198895260e083019d8e52826140b7565b15801590613428575b610e145781516001600160801b031660801b6001600160801b03909116179751995197998a986001600160801b0316906001600160801b03821661271060cc9290921c607f1602049081613350916126da565b6001600160801b031660809190911b179b8c97613378916001600160801b038a16338a613a7e565b6133818961034b565b915190516001600160801b03169061339892614be8565b6133a18461034b565b90518560801c906133b192614be8565b6133c6906001600160801b0386169087614008565b516133d9906001600160801b031661348d565b604080519182526020820194909452928301919091526001600160a01b039081169216907f770ac49eb4a65be664dd014b1b315647b776f18742f5b7e141e8cb18cec6cea890606090a36131ad565b508551629896806001600160801b03909116106132fd565b5060c76001600160801b03851611612f94565b506001600160a01b0385811690831614612f8d565b506001600160801b03861615612f86565b5060026134858361034b565b015415612f7f565b908160801b91808304600160801b149015171561074957565b8181029291811591840414171561074957565b9291906134c461398c565b836135386134ea6134dd835f52600460205260405f2090565b546001600160a01b031690565b6135336135046001611391865f52600460205260405f2090565b61352361350f6107df565b338152936001600160a01b03166020850152565b6001600160a01b03166040830152565b614734565b0361390257613545613916565b5061354e613916565b506135646134dd855f52600460205260405f2090565b9061357c6001611391875f52600460205260405f2090565b6040805163b88e6d6360e01b8152336004820152967f00000000000000000000000000000000000000000000000000000000000000009390929091886024816001600160a01b0388165afa94851561174d576137f661381497613806977f01bd856b4be0836aa20e19ba8f86ff29d99a51a5cf79472b8e899272cfb481969561373e9c885f915f946138c6575b509061370592918561363b613632613744979860018060a01b03165f52600560205260405f2090565b54600116151590565b156138c0575081955b6001600160a01b03878116908216036138bb5750815b6001600160a01b0381165f90815260056020526040902061367a90613632565b156138b55750815b61370061368e8a61034b565b916136aa61369b8d61034b565b945f52600460205260405f2090565b946136eb600754916136cc6136bd6107be565b6001600160801b03909a168a52565b6001600160a01b038c1660208a01526001600160a01b03166040890152565b60608701526001600160a01b03166080860152565b614c02565b909d818f94939b61371b3360056109378c61034b565b548960018211613884575b50506001600160a01b038a1661381d575b33906151b7565b60801b90565b6020890151613769906001600160801b031660408b01516001600160801b0316610cd8565b60208301519091906137ac90613795906001600160801b031660408601516001600160801b0316610cd8565b8b51909490610cd8906001600160801b03166122f2565b604080516001600160a01b03988916815298881660208a015294909616938701939093526060860192909252608085019190915260a084015260c0830191909152819060e0820190565b0390a2516001600160801b031690565b92516001600160801b031690565b906107cd6139e9565b61382c3360056109378d61034b565b548a6001821161383e575b5050613737565b61387d916138716138616112d6613876946112d66109b63360056109378561034b565b61386a83612740565b9033615166565b612740565b338c614008565b5f8a613837565b6138ae916138716138616112d66138a7946112d66109b63360056109378561034b565b338b614008565b5f89613726565b91613682565b61365a565b95613644565b61374494506137059392506138f29060403d6040116138fb575b6138ea818361079d565b810190613944565b94509192613609565b503d6138e0565b63d1b5191160e01b5f52600860045260245ffd5b60405190606082018281106001600160401b0382111761077d576040525f6040838281528260208201520152565b91908260409103126102cd576020825161395d816102bc565b9201516102f6816102bc565b5f5f516020615a6d5f395f51905f525d565b5f516020615a6d5f395f51905f525d565b5f516020615a2d5f395f51905f525c156139c4575b60015f516020615a2d5f395f51905f525c015f516020615a2d5f395f51905f525d565b345f516020615a8d5f395f51905f525d5f5f516020615a2d5f395f51905f525d6139a1565b5f195f516020615a2d5f395f51905f525c015f516020615a2d5f395f51905f525d5f516020615a2d5f395f51905f525c1580613a67575b613a2657565b5f8080805f516020615a8d5f395f51905f525c815f516020615a8d5f395f51905f525d335af115613a5357565b63d1b5191160e01b5f52601e60045260245ffd5b505f516020615a8d5f395f51905f525c1515613a20565b90936001600160801b03909216929091613a97836148e3565b15613aa9575050506107cd9150615615565b60036001600160a01b03841603613ac8575050506107cd913090615565565b80613ada5750506107cd9230916155c6565b90613ae791810190615230565b60ff613af4825160ff1690565b1660028103613cd557506020613b1591015160208082518301019101615453565b6001600160a01b0382169073cafbbad55eb09efe7bec8408cff9932be7d9a7fa8203613c4f57604051623f675f60e91b81526001600160a01b038616600482015291602090839060249082905afa90811561174d57613c075f939284938491613c30575b50613bf9602084015193613b91604082015160ff1690565b60608201516080909201516040516323f2ebc360e21b60208201526001600160a01b038d16602482015230604482015260648101959095526084850196909652600160a485015260ff1660c484015260e4830152610104820193909352918290610124820190565b03601f19810183528261079d565b60208151910182855af115613c21576107cd9230916155c6565b63203aa5b560e11b5f5260045ffd5b613c49915060203d602011612a4e57612a40818361079d565b5f613b79565b5f915080613cd0839251613bf9602084015193613c70604082015160ff1690565b606082015160809092015160405163d505accf60e01b60208201526001600160a01b038d1660248201523060448201526064810195909552608485019690965260ff1660a484015260c483015260e4820193909352918290610104820190565b613c07565b9193929160038103613d71575050613cec906159f8565b73a50eb0d081e986c280eff32dae089939ea07bd223b156102cd57604051631b63c28b60e11b81526001600160a01b0392831660048201523060248201529082166044820152911660648201525f816084818373a50eb0d081e986c280eff32dae089939ea07bd225af1801561174d57613d635750565b806117415f6107cd9361079d565b60048103613ec957506020613d91910151602080825183010191016152d1565b90613e46613d9f83516159f8565b92613df9613db6604083015165ffffffffffff1690565b613dde613dc16107fd565b6001600160a01b038a168152966001600160a01b03166020880152565b65ffffffffffff604087015265ffffffffffff166060860152565b6020810151613e066107df565b9485523060208601526040850152608081015190613e40613e30606060a084015193015160ff1690565b60f81b6001600160f81b03191690565b9161533c565b9173a50eb0d081e986c280eff32dae089939ea07bd223b156102cd576040516302b67b5760e41b8152925f9184918291613e85919088600485016153db565b03818373a50eb0d081e986c280eff32dae089939ea07bd225af191821561174d57613cec92613eb5575b506159f8565b806117415f613ec39361079d565b5f613eaf565b929392600514613eda575b50505050565b613ef46020613f62920151602080825183010191016152d1565b8051613f10613f016107ee565b6001600160a01b039096168652565b60208501526040810151602082015190613f286107df565b95865260208601526040850152613f3d6107ee565b308152926020840152608081015190613e40613e30606060a084015193015160ff1690565b9173a50eb0d081e986c280eff32dae089939ea07bd223b156102cd57613f9e5f93604051958694859463187945bd60e11b865260048601615367565b03818373a50eb0d081e986c280eff32dae089939ea07bd225af1801561174d57613fcb575b808080613ed4565b806117415f613fd99361079d565b5f613fc3565b610cd890613ff48360801d8260801d016154a2565b926001600160801b039182169116016154a2565b919091614014816148e3565b1561403e57505f80808093614029955af11590565b61402f57565b633607a14f60e11b5f5260045ffd5b6001600160a01b03811660030361406e57506107cd91732387fd72c1da19f6486b843f5da562679fbb4057614008565b60445f8080936020956040519763a9059cbb60e01b84526004526024525af13d15601f3d1160015f5114161716905f6060526040526107cd575b633c9fd93960e21b5f5260045ffd5b906140c19061285b565b9060a081019161412961411c61410c6140f786516140e8610dc5885160018060801b031690565b607f6127109260c51c16020490565b6001600160801b031660408601908152610db8565b84516001600160801b03166126da565b6001600160801b03168352565b815161413d906001600160801b0316610dc5565b151580614340575b1561433b5761415390612874565b926142a08351614172608085019161416c835160801c90565b906154f4565b60e0850180519161418f610dc560c089019461416c865160801c90565b6001600160801b0390911610614324576141af905161416c835160801c90565b915b80516141bd8482615206565b875190916001600160801b039182169183168211156142a657505086516142579190614209906141fc9083906001600160801b031661288c565b61288c565b6001600160801b03168952565b61423e614217868651615206565b60208a0180519091614231916001600160801b03166126da565b6001600160801b03169052565b8251906001600160801b0316608086901b175b9061553b565b9052614283815161427d61426b8583615206565b6001600160801b0316608086901b1790565b90615550565b90525b6060840180519091614231916001600160801b03166126da565b92614129565b9091506142b492945061551d565b916142dd6142c3848451615206565b6020880180519091614231916001600160801b03166126da565b805186516143069190614251906001600160801b03165b6001600160801b0316608087901b1790565b905261431a815161427d61426b8583615206565b90525f8452614286565b50614335865161416c845160801c90565b916141b1565b505050565b506001600160801b0381161515614145565b60a08101805182519394919361437591906140e8906001600160801b0316610dc5565b6001600160801b0316604083019081529384516143b6906143a9906001600160801b031685516001600160801b031661288c565b6001600160801b03168452565b82516143ca906001600160801b0316610dc5565b1515806145ff575b15614588576143e090612874565b936144fb84516143f9608086019161416c835160801c90565b60e08601805191614416610dc560c08a019461416c865160801c90565b6001600160801b039091161061457157614436905161416c835160801c90565b915b80516144448482615206565b885190916001600160801b0391821691831682111561450157505087516144ca919061448b9061447e9083906001600160801b031661288c565b6001600160801b03168a52565b6144b3614499868651615206565b60208b0180519091614231916001600160801b03166126da565b8251906001600160801b0316608086901b1761427d565b90526144de815161425161426b8583615206565b90525b6060850180519091614231916001600160801b03166126da565b936143b6565b90915061450f92945061551d565b9161453861451e848451615206565b6020890180519091614231916001600160801b03166126da565b80518751614553919061427d906001600160801b03166142f4565b9052614567815161425161426b8583615206565b90525f85526144e1565b50614582875161416c845160801c90565b91614438565b5081519093906145a0906001600160801b0316610dc5565b92836145ac5750505050565b6145df614231926142316145cf6145f697855190607f6127109260c51c16020490565b82516001600160801b031661288c565b5182516001600160801b031690610c8490826140e8565b5f808080613ed4565b506001600160801b03811615156143d2565b61461a816148e3565b1561462457503190565b60036001600160a01b0382160361469c57506040516370a0823160e01b81526001600160a01b03919091166004820152602081602481732387fd72c1da19f6486b843f5da562679fbb40575afa90811561174d575f91614683575b5090565b6102f6915060203d602011612a4e57612a40818361079d565b6040516370a0823160e01b81526001600160a01b0392831660048201529160209183916024918391165afa90811561174d575f91614683575090565b90916107cd92806002840155600383015560018060e51b03168155600133910161283c565b80546001600160e51b0316600160ff1b8101919082106107495755565b60018060e51b038154169160e51b82018092116107495755565b6040805182516001600160a01b0390811660208084019182528501518216838501529390920151909116606080830191909152815261477460808261079d565b51902090565b916147a660026147af94959395600381019660018060801b03885416156147b3575b5001918254613fdf565b90558254613fdf565b9055565b6147bd908261283c565b5f61479c565b936147ef919293600386019360018060801b0385541615614820575b506147a660028701918254613fdf565b90556001600160a01b03811661480457505050565b8161481760049260016147af950161283c565b01918254613fdf565b61482a908761283c565b5f6147df565b91909160018060a01b031690815f52600160205260405f20835f5260205260405f20805490828201809211610749575f925f516020615a4d5f395f51905f529261488292556040519182913383612768565b0390a4565b916148ac926020925f60405180968195829463067e356d60e21b8452600484016126f3565b03926001600160a01b03165af190811561174d575f916148ca575090565b6102f6915060203d60201161195d5761194e818361079d565b6001600160a01b0316600181149081156148fb575090565b600291501490565b92919061490f846148e3565b156149205750506107cd9150615615565b6001600160a01b03841660030361493b576107cd9350615565565b6107cd936155c6565b80549092919061271060d99190911c603f166001600160801b03831602046001600160801b0316825281516001600160801b03166149819161288c565b6001600160801b03166060820181815260028401805490926149a29161551d565b6001600160801b0316604084019081529260048501908154906149c58260801c90565b60039097018054909760801b6001600160801b039091161784516001600160801b03166149f19161551d565b6001600160801b03908116602083018181529251614a0f92166126da565b90516001600160801b03166001600160801b031660809190911b17614a3391613fdf565b9055815492516001600160801b031690516001600160801b03166001600160801b031660809190911b179182614a6891613fdf565b90558154906147af91613fdf565b60018060a01b0316600381149081156148fb575090565b908160209103126102cd57516102f6816113a7565b9091906001600160a01b031660038103614b53575060405163095ea7b360e01b81529160209183918291614ae5916001600160801b039091169060048401612768565b03815f732387fd72c1da19f6486b843f5da562679fbb40575af190811561174d575f91614b24575b5015614b1557565b633e3f8f7360e01b5f5260045ffd5b614b46915060203d602011614b4c575b614b3e818361079d565b810190614a8d565b5f614b0d565b503d614b34565b60405163095ea7b360e01b81529260209284929183915f918391614b86916001600160801b039091169060048401612768565b03925af190811561174d575f91614b24575015614b1557565b610cd890614bb48360801d8260801d036154a2565b926001600160801b039081169116036154a2565b6307ffffff60e51b8154169160018060e51b031682018092116107495755565b6004906147af926002820155019182549060801b90613fdf565b9291939093614c0f613916565b50614c18613916565b93614c27600283015460801c90565b60038301549690614c519060801b6001600160801b0389161786516001600160801b03169061551d565b948254976002840198895490614c73610dc5614c6d8460801c90565b8361565f565b6001600160801b038a1611908115615137575b5061512357614d5390614d23614cd9614d13614ce9614cc1614cac60048c015460801c90565b60038c015460018060801b03169060801b1790565b8851614ce4906001600160801b03169485809361551d565b98610df58160801c90565b61551d565b614d03614cf46107df565b6001600160801b039098168852565b6001600160801b03166020870152565b6001600160801b03166040850152565b6040830151929a8b93614d47906001600160801b031660808c901b175b8093614b9f565b90556003860154614b9f565b600385015560048401548151614db491614da7916001600160801b03166020850151614d98906001600160801b031692608083901b6001600160801b038516176118ee565b60048901556141f78b8a615675565b6001600160801b03168252565b83546040820151614df491614de491614dd5906001600160801b0316610dc5565b603f6127109260d31c16020490565b6001600160801b03166020830152565b80516001600160801b0316916060810194614e886020875194614e7a82860197614e24895160018060a01b031690565b9760408801976080614e3c8a5160018060a01b031690565b91018051909a906001600160a01b03166040870151909390614e73906001600160801b0316888a01516001600160801b0316610cd2565b948a615751565b01516001600160801b031690565b6001600160801b038116615105575b505060018601546001600160a01b0316614eb4575b505050505050565b909192939497506004840192614ecb845460801c90565b600386018054909791614eee918b9160801b6001600160801b039091161761551d565b99614f208a614f1b6004840154610df56002614f1285614ce485610df58160801c90565b96015460801c90565b615206565b95614f3b614f2c6107df565b6001600160801b03909d168d52565b6001600160801b0390911660208c01908152906001600160801b0390961660408c01908152958b8854928c60028b0194855491614f84610dc5614f7e8560801c90565b8461565f565b6001600160801b039091161190828c83156150d4575b5050506150c05761507c61506c8f9461504e61509e9f958f8f80614dd5610dc5610db8946150989f8f6141f79f9061508a9f61507c9f614ffe9061503f95614ff5614d4061447e97610cd8614da79f5160018060801b031690565b90558254614b9f565b905580548c519091906001600160801b03168b51909190615038906001600160801b031693608084901b6001600160801b038616176118ee565b905561288c565b5492516001600160801b031690565b966001600160801b0388166150a9575b50516001600160801b031690565b965197516001600160a01b031690565b97516001600160a01b031690565b97516001600160801b031690565b95615751565b5f8080808080614eac565b6150b8815461054f8a60801b90565b90555f61505e565b63d1b5191160e01b5f52602060045260245ffd5b519192506150f191610dc591906001600160801b03165b9361565f565b6001600160801b03909116115f828c614f9a565b61511960049161054f838501549160801b90565b9101555f80614e97565b63d1b5191160e01b5f52601f60045260245ffd5b845190915061515490610dc59084906001600160801b03166150eb565b6001600160801b03909116115f614c86565b91909160018060a01b0316805f52600160205260405f20835f5260205260405f20805490838203918211610749575f935f516020615a4d5f395f51905f529261488292556040519182913383612768565b6001600160a01b031691823b156102cd576151eb925f9283604051809681958294637bd3ca3560e01b8452600484016126f3565b03925af1801561174d576151fc5750565b5f6107cd9161079d565b6102f691608082901c6001600160801b039182169190921602046154a2565b60ff8116036102cd57565b6020818303126102cd578035906001600160401b0382116102cd5701906040828203126102cd576040519161526483610782565b803561526f81615225565b83526020810135906001600160401b0382116102cd570181601f820112156102cd5780359061529d82612f12565b926152ab604051948561079d565b828452602083830101116102cd57815f9260208093018386013783010152602082015290565b908160c09103126102cd576040519060c08201908282106001600160401b0383111761077d5760a091604052805183526020810151602084015260408101516040840152606081015161532381615225565b606084015260808101516080840152015160a082015290565b929190604051936020850152604084015260ff60f81b166060830152604182526107cd60618361079d565b90926153bf6101009360406102f697966153948682516020809160018060a01b0381511684520151910152565b60208181015187840152910151606086015281516001600160a01b03166080860152015160a0840152565b6001600160a01b031660c082015260e081018290520190611cb9565b60406102f694936101009360018060a01b0316835265ffffffffffff6060825160018060a01b03815116602087015260018060a01b036020820151168587015282858201511682870152015116608084015260018060a01b0360208201511660a0840152015160c08201528160e08201520190611cb9565b908160a09103126102cd5760806040519161546d83610762565b8051835260208101516020840152604081015161548981615225565b6040840152606081015160608401520151608082015290565b6001600160801b0381116154bc576001600160801b031690565b505f90565b6001600160801b039091169081156154e0576001600160801b03160490565b634e487b7160e01b5f52601260045260245ffd5b60bb1c6103ff16801561467f57600a0260018060801b038116908103610749576102f6916154c1565b6102f6916001600160801b0380831660809390931c911602046154a2565b610cd890614bb48360801d8260801d016154a2565b610cd890613ff48360801d8260801d036154a2565b6040516323b872dd60e01b81526001600160a01b0391821660048201529116602482015260448101919091526020905f9060649082732387fd72c1da19f6486b843f5da562679fbb40575af13d15601f3d1160015f5114161716156140a857565b6040516323b872dd60e01b81526001600160a01b03928316600482015292909116602483015260448201929092526020915f9160649183905af13d15601f3d1160015f5114161716156140a857565b5f516020615a8d5f395f51905f525c811161564b575f516020615a8d5f395f51905f525c035f516020615a8d5f395f51905f525d565b63d1b5191160e01b5f52601c60045260245ffd5b60b11c6103ff16801561467f576102f6916154c1565b906147af90600383016156f96156c88254956156918760801c90565b906156d96002820198610cd86156a88b5460801c90565b6001600160801b03908116968a82169688928892911682028390046154a2565b936001600160801b031602046154a2565b60018201549093906001600160a01b0316615706575b5050508254614b9f565b905582549060801b6118ee565b6118ee6004615747930193610cd8855493615735818460018060801b0361572d8960801c90565b1602046154a2565b926001600160801b03861602046154a2565b90555f80806156ef565b9495909390929091615779606460dd83901c601f166001600160801b0388160204809661288c565b6001600160801b03811694909290606460fa84901c87020492606460f482901c603f16880204958a6157cf606460ee85901c603f168b020499606460e886901c603f168202049490603f60649260e21c16020490565b986001600160a01b03831690816158ab5750505050506157ef90836126da565b6001600160801b0316335f908152600590980160208190526040909820908154906158199161275b565b905561582585856126da565b6001600160801b03166001600160a01b039091165f908152602088905260409020908154906158539161275b565b905561585e9161288c565b906158689161288c565b906158729161288c565b9061587c916126da565b6001600160801b03166001600160a01b039092165f90815260209190915260409020908154906147af9161275b565b6104f29850908c94939291610dc59b98976159a69d979b6159b99f60016158d991015460018060a01b031690565b6001600160a01b0395861695811686146159e7576001600160a01b03165f908152600589016020526040902061591d905b805490926001600160801b03169061275b565b90555b6001600160a01b03811684146159d6576001600160a01b03165f90815260058701602052604090206159519061590a565b90555b146159bc576001600160a01b03165f9081526005808401602052604090912061599f9361590a9390916159849085565b90555b019a8b9060018060a01b03165f5260205260405f2090565b90556126da565b335f908152602093909352604090922090565b55565b5060056159d061590a9261599f94956126da565b93615987565b506159e191966126da565b94615954565b506159f291986126da565b96615920565b6001600160a01b0381169081036154bc579056fe5d72191643a9d630c58937d62f5e056dcfa8dbf1aced1cb2f655ee1d7ecaf57787b52c29898e62efc1f9a9b00a26dcbdaee98d728c56841703077b7c0d20dee71b3d7edb2e9c0b0e7c525b20aaaef0f5940d2ed71663c7d39266ecafac728859e2afc7ec4dbb9bfdb1b8e8bcf21a055747c25bf2faaea9cb5a134005381f4843cbe27d488af5b5c1b0bd8d89be6fdfeaed3ad42719044fd9b728f33df1d6f1d1a26469706673582212208b267ebce74b3bab635838022e80e5037f7abd6cba29b7ccab9dd54fd2fe3a4b64736f6c634300081d0033","linkReferences":{}},"methodIdentifiers":{"addbanlist(address)":"b153b920","allowance(address,address,uint256)":"598af9e7","approve(address,uint256,uint256)":"426a8493","balanceOf(address,uint256)":"00fdd58e","buyGood(address,address,uint128,uint128,address,bytes)":"f151e786","buyGoodCheck(address,address,uint128,uint128)":"3bd16436","changeGoodOwner(address,address)":"41e12373","changeReStakingContrat(address)":"119ac094","changemarketcreator(address)":"a06ad0e8","collectCommission(address[])":"0d2700ab","disinvestProof(uint256,uint128,address)":"f4662f20","flashFee(address,uint256)":"d9d98ce4","flashLoan(address,address,uint256,bytes)":"5cffe9de","getGoodState(address)":"08238466","getProofState(uint256)":"3f117740","getRecentGoodState(address,address)":"00796f71","goodWelfare(address,uint128,bytes)":"06cf4e7f","initGood(address,uint256,address,uint256,bytes,bytes)":"5f755d65","initMetaGood(address,uint256,uint256,bytes)":"51ff9a16","investGood(address,address,uint128,bytes,bytes)":"f878e809","isOperator(address,address)":"b6363cf2","ishigher(address,address,uint256)":"1412723a","marketconfig()":"402f5ab5","marketcreator()":"3d995173","maxFlashLoan(address)":"613255ab","modifyGoodConfig(address,uint256)":"b1efb921","multicall(bytes[])":"ac9650d8","queryCommission(address[],address)":"9b222794","removeSecurityKeeper()":"c9544f18","removebanlist(address)":"9551177a","securityKeeper(address)":"3c9fe544","setAuth(address,uint256)":"fa704db2","setMarketConfig(uint256)":"45818e4c","setOperator(address,bool)":"558a7297","stakeETH(address,uint128)":"73db1792","supportsInterface(bytes4)":"01ffc9a7","syncReward(address)":"8c706eb5","transfer(address,uint256,uint256)":"095bcdb6","transferFrom(address,address,uint256,uint256)":"fe99049a","unstakeETH(address,uint128)":"81a860d1","updateGoodConfig(address,uint256)":"a3b74a49","userConfig(address)":"5f35b0b3"},"id":47}