{"abi":[{"type":"constructor","inputs":[{"name":"_officialTokenContract","type":"address","internalType":"contract I_TTSwap_Token"},{"name":"_securitykeeper","type":"address","internalType":"address"}],"stateMutability":"nonpayable"},{"type":"function","name":"buyGood","inputs":[{"name":"_goodid1","type":"address","internalType":"address"},{"name":"_goodid2","type":"address","internalType":"address"},{"name":"_swapQuantity","type":"uint256","internalType":"uint256"},{"name":"_side","type":"uint128","internalType":"uint128"},{"name":"_recipent","type":"address","internalType":"address"},{"name":"data","type":"bytes","internalType":"bytes"}],"outputs":[{"name":"good1change","type":"uint256","internalType":"uint256"},{"name":"good2change","type":"uint256","internalType":"uint256"}],"stateMutability":"payable"},{"type":"function","name":"buyGoodCheck","inputs":[{"name":"_goodid1","type":"address","internalType":"address"},{"name":"_goodid2","type":"address","internalType":"address"},{"name":"_swapQuantity","type":"uint256","internalType":"uint256"},{"name":"side","type":"bool","internalType":"bool"}],"outputs":[{"name":"good1change","type":"uint256","internalType":"uint256"},{"name":"good2change","type":"uint256","internalType":"uint256"}],"stateMutability":"view"},{"type":"function","name":"changeGoodOwner","inputs":[{"name":"_goodid","type":"address","internalType":"address"},{"name":"_to","type":"address","internalType":"address"}],"outputs":[],"stateMutability":"nonpayable"},{"type":"function","name":"collectCommission","inputs":[{"name":"_goodid","type":"address[]","internalType":"address[]"}],"outputs":[],"stateMutability":"nonpayable"},{"type":"function","name":"disinvestProof","inputs":[{"name":"_proofid","type":"uint256","internalType":"uint256"},{"name":"_goodQuantity","type":"uint128","internalType":"uint128"},{"name":"_gate","type":"address","internalType":"address"}],"outputs":[{"name":"","type":"uint128","internalType":"uint128"},{"name":"","type":"uint128","internalType":"uint128"}],"stateMutability":"nonpayable"},{"type":"function","name":"getGoodState","inputs":[{"name":"goodkey","type":"address","internalType":"address"}],"outputs":[{"name":"","type":"tuple","internalType":"struct S_GoodTmpState","components":[{"name":"goodConfig","type":"uint256","internalType":"uint256"},{"name":"owner","type":"address","internalType":"address"},{"name":"currentState","type":"uint256","internalType":"uint256"},{"name":"investState","type":"uint256","internalType":"uint256"},{"name":"feeQuantityState","type":"uint256","internalType":"uint256"}]}],"stateMutability":"view"},{"type":"function","name":"getProofState","inputs":[{"name":"proofid","type":"uint256","internalType":"uint256"}],"outputs":[{"name":"","type":"tuple","internalType":"struct S_ProofState","components":[{"name":"currentgood","type":"address","internalType":"address"},{"name":"valuegood","type":"address","internalType":"address"},{"name":"state","type":"uint256","internalType":"uint256"},{"name":"invest","type":"uint256","internalType":"uint256"},{"name":"valueinvest","type":"uint256","internalType":"uint256"}]}],"stateMutability":"view"},{"type":"function","name":"getRecentGoodState","inputs":[{"name":"good1","type":"address","internalType":"address"},{"name":"good2","type":"address","internalType":"address"}],"outputs":[{"name":"good1currentstate","type":"uint256","internalType":"uint256"},{"name":"good2currentstate","type":"uint256","internalType":"uint256"}],"stateMutability":"view"},{"type":"function","name":"getaddress","inputs":[{"name":"_address","type":"address","internalType":"address"}],"outputs":[],"stateMutability":"nonpayable"},{"type":"function","name":"goodWelfare","inputs":[{"name":"goodid","type":"address","internalType":"address"},{"name":"welfare","type":"uint128","internalType":"uint128"},{"name":"data","type":"bytes","internalType":"bytes"}],"outputs":[],"stateMutability":"payable"},{"type":"function","name":"initGood","inputs":[{"name":"_valuegood","type":"address","internalType":"address"},{"name":"_initial","type":"uint256","internalType":"uint256"},{"name":"_erc20address","type":"address","internalType":"address"},{"name":"_goodConfig","type":"uint256","internalType":"uint256"},{"name":"_normaldata","type":"bytes","internalType":"bytes"},{"name":"_valuedata","type":"bytes","internalType":"bytes"}],"outputs":[{"name":"","type":"bool","internalType":"bool"}],"stateMutability":"payable"},{"type":"function","name":"initMetaGood","inputs":[{"name":"_erc20address","type":"address","internalType":"address"},{"name":"_initial","type":"uint256","internalType":"uint256"},{"name":"_goodConfig","type":"uint256","internalType":"uint256"},{"name":"data","type":"bytes","internalType":"bytes"}],"outputs":[{"name":"","type":"bool","internalType":"bool"}],"stateMutability":"payable"},{"type":"function","name":"investGood","inputs":[{"name":"_togood","type":"address","internalType":"address"},{"name":"_valuegood","type":"address","internalType":"address"},{"name":"_quantity","type":"uint128","internalType":"uint128"},{"name":"data1","type":"bytes","internalType":"bytes"},{"name":"data2","type":"bytes","internalType":"bytes"}],"outputs":[{"name":"","type":"bool","internalType":"bool"}],"stateMutability":"payable"},{"type":"function","name":"ishigher","inputs":[{"name":"goodid","type":"address","internalType":"address"},{"name":"valuegood","type":"address","internalType":"address"},{"name":"compareprice","type":"uint256","internalType":"uint256"}],"outputs":[{"name":"","type":"bool","internalType":"bool"}],"stateMutability":"view"},{"type":"function","name":"modifyGoodConfig","inputs":[{"name":"_goodid","type":"address","internalType":"address"},{"name":"_goodConfig","type":"uint256","internalType":"uint256"}],"outputs":[{"name":"","type":"bool","internalType":"bool"}],"stateMutability":"nonpayable"},{"type":"function","name":"multicall","inputs":[{"name":"data","type":"bytes[]","internalType":"bytes[]"}],"outputs":[{"name":"results","type":"bytes[]","internalType":"bytes[]"}],"stateMutability":"payable"},{"type":"function","name":"queryCommission","inputs":[{"name":"_goodid","type":"address[]","internalType":"address[]"},{"name":"_recipent","type":"address","internalType":"address"}],"outputs":[{"name":"","type":"uint256[]","internalType":"uint256[]"}],"stateMutability":"view"},{"type":"function","name":"removeSecurityKeeper","inputs":[],"outputs":[],"stateMutability":"nonpayable"},{"type":"function","name":"securityKeeper","inputs":[{"name":"erc20","type":"address","internalType":"address"}],"outputs":[],"stateMutability":"nonpayable"},{"type":"function","name":"updateGoodConfig","inputs":[{"name":"_goodid","type":"address","internalType":"address"},{"name":"_goodConfig","type":"uint256","internalType":"uint256"}],"outputs":[{"name":"","type":"bool","internalType":"bool"}],"stateMutability":"nonpayable"},{"type":"event","name":"e_buyGood","inputs":[{"name":"sellgood","type":"address","indexed":true,"internalType":"address"},{"name":"forgood","type":"address","indexed":true,"internalType":"address"},{"name":"swapvalue","type":"uint256","indexed":false,"internalType":"uint256"},{"name":"good1change","type":"uint256","indexed":false,"internalType":"uint256"},{"name":"good2change","type":"uint256","indexed":false,"internalType":"uint256"}],"anonymous":false},{"type":"event","name":"e_changegoodowner","inputs":[{"name":"goodid","type":"address","indexed":false,"internalType":"address"},{"name":"to","type":"address","indexed":false,"internalType":"address"}],"anonymous":false},{"type":"event","name":"e_collectProtocolFee","inputs":[{"name":"goodid","type":"address","indexed":false,"internalType":"address"},{"name":"feeamount","type":"uint256","indexed":false,"internalType":"uint256"}],"anonymous":false},{"type":"event","name":"e_collectcommission","inputs":[{"name":"_gooid","type":"address[]","indexed":false,"internalType":"address[]"},{"name":"_commisionamount","type":"uint256[]","indexed":false,"internalType":"uint256[]"}],"anonymous":false},{"type":"event","name":"e_disinvestProof","inputs":[{"name":"_proofNo","type":"uint256","indexed":true,"internalType":"uint256"},{"name":"_normalGoodNo","type":"address","indexed":false,"internalType":"address"},{"name":"_valueGoodNo","type":"address","indexed":false,"internalType":"address"},{"name":"_gate","type":"address","indexed":false,"internalType":"address"},{"name":"_value","type":"uint256","indexed":false,"internalType":"uint256"},{"name":"_normalprofit","type":"uint256","indexed":false,"internalType":"uint256"},{"name":"_normaldisvest","type":"uint256","indexed":false,"internalType":"uint256"},{"name":"_valueprofit","type":"uint256","indexed":false,"internalType":"uint256"},{"name":"_valuedisvest","type":"uint256","indexed":false,"internalType":"uint256"}],"anonymous":false},{"type":"event","name":"e_goodWelfare","inputs":[{"name":"goodid","type":"address","indexed":false,"internalType":"address"},{"name":"welfare","type":"uint128","indexed":false,"internalType":"uint128"}],"anonymous":false},{"type":"event","name":"e_initGood","inputs":[{"name":"_proofNo","type":"uint256","indexed":false,"internalType":"uint256"},{"name":"_goodid","type":"address","indexed":false,"internalType":"address"},{"name":"_valuegoodNo","type":"address","indexed":false,"internalType":"address"},{"name":"_goodConfig","type":"uint256","indexed":false,"internalType":"uint256"},{"name":"_construct","type":"uint256","indexed":false,"internalType":"uint256"},{"name":"_normalinitial","type":"uint256","indexed":false,"internalType":"uint256"},{"name":"_value","type":"uint256","indexed":false,"internalType":"uint256"}],"anonymous":false},{"type":"event","name":"e_initMetaGood","inputs":[{"name":"_proofNo","type":"uint256","indexed":false,"internalType":"uint256"},{"name":"_goodid","type":"address","indexed":false,"internalType":"address"},{"name":"_construct","type":"uint256","indexed":false,"internalType":"uint256"},{"name":"_goodConfig","type":"uint256","indexed":false,"internalType":"uint256"},{"name":"_initial","type":"uint256","indexed":false,"internalType":"uint256"}],"anonymous":false},{"type":"event","name":"e_investGood","inputs":[{"name":"_proofNo","type":"uint256","indexed":true,"internalType":"uint256"},{"name":"_normalgoodid","type":"address","indexed":false,"internalType":"address"},{"name":"_valueGoodNo","type":"address","indexed":false,"internalType":"address"},{"name":"_value","type":"uint256","indexed":false,"internalType":"uint256"},{"name":"_invest","type":"uint256","indexed":false,"internalType":"uint256"},{"name":"_valueinvest","type":"uint256","indexed":false,"internalType":"uint256"}],"anonymous":false},{"type":"event","name":"e_modifyGoodConfig","inputs":[{"name":"_goodid","type":"address","indexed":false,"internalType":"address"},{"name":"_goodconfig","type":"uint256","indexed":false,"internalType":"uint256"}],"anonymous":false},{"type":"event","name":"e_updateGoodConfig","inputs":[{"name":"_goodid","type":"address","indexed":false,"internalType":"address"},{"name":"_goodConfig","type":"uint256","indexed":false,"internalType":"uint256"}],"anonymous":false},{"type":"error","name":"ERC20PermitFailed","inputs":[]},{"type":"error","name":"ERC20TransferFailed","inputs":[]},{"type":"error","name":"ERC3156ExceededMaxLoan","inputs":[{"name":"maxLoan","type":"uint256","internalType":"uint256"}]},{"type":"error","name":"ERC3156InvalidReceiver","inputs":[{"name":"receiver","type":"address","internalType":"address"}]},{"type":"error","name":"ERC3156UnsupportedToken","inputs":[{"name":"token","type":"address","internalType":"address"}]},{"type":"error","name":"NativeETHTransferFailed","inputs":[]},{"type":"error","name":"TTSwapError","inputs":[{"name":"seq","type":"uint256","internalType":"uint256"}]}],"bytecode":{"object":"0x60a0346100db57601f6150d838819003918201601f19168301916001600160401b038311848410176100df5780849260409485528339810103126100db578051906001600160a01b03821682036100db57602001516001600160a01b03811691908290036100db576080525f80546001600160a01b031916919091179055604051614fe490816100f4823960805181818161062e015281816108fa01528181610a6701528181610e2e015281816111cc015281816115b10152818161164201528181611ad6015281816121520152818161279501526129e90152f35b5f80fd5b634e487b7160e01b5f52604160045260245ffdfe60806040526004361015610011575f80fd5b5f3560e01c8062796f711461014e57806306cf4e7f1461014957806308238466146101445780630d2700ab1461013f5780631412723a1461013a5780633c9fe544146100f95780633f1177401461013557806341e1237314610130578063440c8daa1461012b57806351ff9a16146101265780635f755d65146101215780639b2227941461011c578063a3b74a4914610117578063ac9650d814610112578063b1efb9211461010d578063c9544f1814610108578063e622792514610103578063f4662f20146100fe578063f5458748146100f95763f878e809146100f4575f80fd5b611ea2565b6108c2565b6119a2565b611699565b611617565b611573565b61150c565b6113d1565b611307565b611248565b611170565b610af7565b610a3e565b610980565b6107f5565b6105af565b61038d565b610220565b610190565b6001600160a01b0381160361016457565b5f80fd5b60409060031901126101645760043561018081610153565b9060243561018d81610153565b90565b346101645761019e36610168565b6001600160a01b039182165f9081526001602090815260408083206002908101549590941683529182902090920154815193845291830191909152819081015b0390f35b6001600160801b0381160361016457565b9181601f84011215610164578235916001600160401b038311610164576020838186019501011161016457565b60603660031901126101645760043561023881610153565b602435610244816101e2565b6044356001600160401b038111610164576102639036906004016101f3565b92905f516020614f6f5f395f51905f525c6001600160a01b031661037957335f516020614f6f5f395f51905f525d610299612f15565b6001600160a01b0382165f908152600160205260409020600401546001606d1b906001600160801b03906102d690869060801c6123d6565b6123d6565b161015610365577f0dc5e2150c5754dc0bcd8d76ca2d23850fc9a2a3115c69bb4fbdbedc25074a0093610314916001600160801b0385163385613007565b6103346004610322836123a9565b015461032e8460801b90565b9061353b565b600461033f836123a9565b0155610350604051928392836123f4565b0390a161035b612f72565b610363612f03565b005b63d1b5191160e01b5f52600c60045260245ffd5b63d1b5191160e01b5f52600360045260245ffd5b34610164576020366003190112610164576101de6004356103ad81610153565b6103b5612417565b506001600160a01b038181165f9081526001602081905260409091208054910154909291169060026103e6826123a9565b0154610421600461040360036103fb866123a9565b0154946123a9565b01549361040e6104e3565b9586526001600160a01b03166020860152565b6040840152606083015260808201526040519182918291909160808060a08301948051845260018060a01b03602082015116602085015260408101516040850152606081015160608501520151910152565b634e487b7160e01b5f52604160045260245ffd5b60a081019081106001600160401b038211176104a257604052565b610473565b604081019081106001600160401b038211176104a257604052565b90601f801991011681019081106001600160401b038211176104a257604052565b604051906104f260a0836104c2565b565b604051906104f2610100836104c2565b604051906104f26060836104c2565b604051906104f26040836104c2565b604051906104f26080836104c2565b6001600160401b0381116104a25760051b60200190565b9080601f8301121561016457813561055f81610531565b9261056d60405194856104c2565b81845260208085019260051b82010192831161016457602001905b8282106105955750505090565b6020809183356105a481610153565b815201910190610588565b34610164576020366003190112610164576004356001600160401b038111610164576105df903690600401610548565b5f516020614f6f5f395f51905f525c6001600160a01b031661037957335f516020614f6f5f395f51905f525d604051635f35b0b360e01b81523360048201526020816024816001600160a01b037f0000000000000000000000000000000000000000000000000000000000000000165afa80156107f05761066d915f916107c1575b50600160ff1b16151590565b156107bb575f5b60648251116107a757610687825161245b565b915f5b815181101561076b57806106d484600a6106be6106b96106ac600197896124a1565b516001600160a01b031690565b6123a9565b019060018060a01b03165f5260205260405f2090565b546106df82876124a1565b5260026106ec82876124a1565b511015610706575f6106fe82876124a1565b525b0161068a565b61071961071382876124a1565b516124ba565b61072382876124a1565b5261074361073d85600a6106be6106b96106ac878a6124a1565b60019055565b6107666107536106ac83866124a1565b61075d83886124a1565b51903390613616565b610700565b6040517f477bb716eacccc001de50dcdd6e25241283d080e6afb27443908b20f4e738b5e908061079c8786836124d5565b0390a1610363612f03565b63d1b5191160e01b5f52600b60045260245ffd5b33610674565b6107e3915060203d6020116107e9575b6107db81836104c2565b810190612441565b5f610661565b503d6107d1565b612450565b346101645760603660031901126101645760043561081281610153565b61089b6024359161082283610153565b6001600160a01b039081165f908152600160205260408082206002908101549590931682529020015491604435906108919061087e61086e6001600160801b038716608084901c612683565b6001600160801b03851690612683565b9460801c906001600160801b0316612683565b9060801c90612683565b10156108b9576101de60015b60405190151581529081906020820190565b6101de5f6108a7565b34610164576020366003190112610164576004356108df81610153565b604051635f35b0b360e01b81523360048201526020816024817f00000000000000000000000000000000000000000000000000000000000000006001600160a01b03165afa80156107f057610940915f91610961575b50600160fc1b161590565b61094d576103639061252f565b63d1b5191160e01b5f52600160045260245ffd5b61097a915060203d6020116107e9576107db81836104c2565b5f610935565b346101645760203660031901126101645760043561099c612417565b505f5260026020526101de60405f206004604051916109ba83610487565b60018060a01b03815416835260018060a01b0360018201541660208401526002810154604084015260038101546060840152015460808201526040519182918291909160808060a083019460018060a01b03815116845260018060a01b03602082015116602085015260408101516040850152606081015160608501520151910152565b3461016457610a4c36610168565b604051635f35b0b360e01b81523360048201526020816024817f00000000000000000000000000000000000000000000000000000000000000006001600160a01b03165afa9081156107f057610ab791610ab3915f91610ad8575b50600160fb1b16151590565b1590565b610ac457610363916125c7565b63d1b5191160e01b5f52600260045260245ffd5b610af1915060203d6020116107e9576107db81836104c2565b5f610aa7565b60c036600319011261016457600435610b0f81610153565b60243590610b1c82610153565b6044359060643592610b2d846101e2565b60843590610b3a82610153565b60a4356001600160401b03811161016457610b599036906004016101f3565b90959092905f516020614f6f5f395f51905f525c6001600160a01b031661037957335f516020614f6f5f395f51905f525d610b92612f15565b6002610b9d866123a9565b015415801561115c575b8015611154575b801561113f575b801561112c575b611118576001600160801b0316600103610ebe576001600160a01b0381168015159081610eb3575b50610e2c575b508360801c906002610bfb856123a9565b015495610c07856123a9565b54906002610c14846123a9565b015494610c20846123a9565b5495610c2a6104f4565b6001600160801b03871681529560208701995f8b52610c7160408901985f8a5260608101975f8952608082019e8f5260a082015260c0810194855260e081019a8b526138a1565b8551620f42406001600160801b0390911610908115610e01575b508015610de6575b610dd25786516001600160801b031660801b6001600160801b039091161796519851969889976001600160801b0316906001600160801b03821661271060cc9290921c607f1602049081610ce691612696565b6001600160801b031660809190911b17998a96610d028a6123a9565b915190516001600160801b031690610d1992613883565b610d22856123a9565b90518660801c90610d3292613883565b610d47916001600160801b0387163389613007565b610d5b6001600160801b0384163384613616565b51604080516001600160801b0390921682526020820194909452928301919091526001600160a01b039081169216907f770ac49eb4a65be664dd014b1b315647b776f18742f5b7e141e8cb18cec6cea890606090a35b610db9612f72565b610dc1612f03565b604080519182526020820192909252f35b63d1b5191160e01b5f52602260045260245ffd5b50815188516001600160801b031660809190911c1115610c93565b8b516001600160801b039081169116908111915081610e22575b505f610c8b565b905015155f610e1b565b7f00000000000000000000000000000000000000000000000000000000000000006001600160a01b0316803b15610164576040516307543e3f60e41b81523360048201526001600160a01b039290921660248301525f908290604490829084905af180156107f05715610bea5780610ea75f610ead936104c2565b8061160d565b5f610bea565b90503314155f610be4565b9391906001600160a01b0385161561110457610ed9846123a9565b60020154610ee6856123a9565b5495610ef1836123a9565b6002015494610eff846123a9565b5495610f096104f4565b6001600160801b038316815293602085015f815260408601985f8a5260608701965f88526080810193845260a081019c8d5260c0810194855260e08101918252610f52906136a4565b5190516001600160801b0316906001600160801b03821661271060cc9290921c607f1602049081610f82916123d6565b865160809290921b6001600160801b03918216179b9116620f4240119081156110d9575b81156110a8575b5061109457965189979083906001600160801b031660801b6001600160801b03909116179a8b97610fe9916001600160801b038b16338d613007565b610ff2896123a9565b90518860801c9061100292613883565b61100b856123a9565b90518660801c9061101b92613883565b611032916001600160801b03919091169084613616565b51611045906001600160801b0316612628565b604080519182526020820194909452928301919091526001600160a01b039081169216907f770ac49eb4a65be664dd014b1b315647b776f18742f5b7e141e8cb18cec6cea890606090a3610db1565b63d1b5191160e01b5f52602160045260245ffd5b90506110c66110b8835160801c90565b91516001600160801b031690565b6001600160801b0390911611155f610fad565b9050608084901c6001600160801b038c16811090816110fa575b5090610fa6565b905015155f6110f3565b63d1b5191160e01b5f52602860045260245ffd5b63d1b5191160e01b5f52602360045260245ffd5b5060016001600160801b03821611610bbc565b506001600160a01b0385811690841614610bb5565b508515610bae565b506002611168846123a9565b015415610ba7565b60803660031901126101645760043561118881610153565b602435906044356064356001600160401b038111610164576111ae9036906004016101f3565b604051635f35b0b360e01b81523360048201529092906020816024817f00000000000000000000000000000000000000000000000000000000000000006001600160a01b03165afa9081156107f05761121891610ab3915f91611229575b50600160fc1b16151590565b61094d576101de946108a7946126af565b611242915060203d6020116107e9576107db81836104c2565b5f61120c565b60c03660031901126101645760043561126081610153565b6044359060243561127083610153565b606435916084356001600160401b038111610164576112939036906004016101f3565b9060a435946001600160401b038611610164576101de966112bb6108a79736906004016101f3565b96909561283a565b90602080835192838152019201905f5b8181106112e05750505090565b82518452602093840193909201916001016112d3565b90602061018d9281815201906112c3565b34610164576040366003190112610164576004356001600160401b03811161016457611337903690600401610548565b6024359061134482610153565b6064815110156113bd57611358815161245b565b915f5b82518110156113af576001906001600160a01b0361137982866124a1565b51165f908152602083815260408083206001600160a01b0387168452600a019091529020546113a882876124a1565b520161135b565b604051806101de86826112f6565b63d1b5191160e01b5f52600b60045260245ffd5b34610164576040366003190112610164576004356113ee81610153565b6024356001600160a01b038281165f8181526001602081905260409091200154909391163303611475577f075a13b9dbfb2e30d678551b8c2a4f9ede7468ca5273fa902a41d0e577566669925f52600160205261144e8260405f20613eb7565b604080516001600160a01b039290921682526020820192909252a160405160018152602090f35b63d1b5191160e01b5f52600a60045260245ffd5b805180835260209291819084018484015e5f828201840152601f01601f1916010190565b602081016020825282518091526040820191602060408360051b8301019401925f915b8383106114df57505050505090565b90919293946020806114fd600193603f198682030187528951611489565b970193019301919392906114d0565b6020366003190112610164576004356001600160401b0381116101645736602382011215610164578060040135906001600160401b038211610164573660248360051b83010111610164576101de9160246115679201612b99565b604051918291826114ad565b346101645760403660031901126101645760043561159081610153565b602435604051635f35b0b360e01b81523360048201529091906020816024817f00000000000000000000000000000000000000000000000000000000000000006001600160a01b03165afa9081156107f0576115fc91610ab3915f91610ad85750600160fb1b16151590565b610ac4576101de916108a791612ce9565b5f91031261016457565b34610164575f36600319011261016457604051635f35b0b360e01b81523360048201526020816024817f00000000000000000000000000000000000000000000000000000000000000006001600160a01b03165afa9081156107f05761168d91610ab3915f91610ad85750600160fb1b16151590565b610ac457610363612e82565b34610164576080366003190112610164576004356116b681610153565b602435906116c382610153565b6044359060643580151581036101645760026116de836123a9565b015415801561198e575b8015611986575b8015611971575b6111185715611872578160801c6117196002611711846123a9565b0154926123a9565b54926117316002611729876123a9565b0154956123a9565b5494620f424061173f6104f4565b6001600160801b03851681529461178460208701965f885260408101985f8a5260608201935f8552608083015260a082015260c0810194855260e08101998a526138a1565b516001600160801b031610918215611844575b508115611829575b50610dd2576118006117e66117d6611807936117c4611817975160018060801b031690565b60801b6001600160801b039091161790565b955193516001600160801b031690565b926001600160801b038416607f6127109260cc1c16020490565b8092612696565b60018060801b03169060801b1790565b60408051928352602083019190915290f35b5185516001600160801b031660809190911c1190505f61179f565b84519192506001600160801b0391821691169081119081611868575b50905f611797565b905015155f611860565b916118896002611881856123a9565b0154936123a9565b54916118996002611711846123a9565b54936118a36104f4565b6001600160801b038316815293620f424060208601945f86526118ee60408801975f895260608101925f84526080820196875260a0820195865260c082015260e08101998a526136a4565b516001600160801b031610918215611969575b8215611946575b5050611094576119396117e66117d66118079361192e611940975160018060801b031690565b608091821c911b1790565b80926123d6565b90610dc1565b519091506119569060801c6110b8565b6001600160801b03909116115f80611908565b5f9250611901565b506001600160a01b03828116908516146116f6565b5082156116ef565b50600261199a856123a9565b0154156116e8565b34610164576060366003190112610164576024356004356119c2826101e2565b604435916119cf83610153565b5f516020614f6f5f395f51905f525c6001600160a01b031661037957335f516020614f6f5f395f51905f525d81611a7d611a21611a14835f52600260205260405f2090565b546001600160a01b031690565b611a78611a496001611a3b865f52600260205260405f2090565b01546001600160a01b031690565b611a68611a54610504565b338152936001600160a01b03166020850152565b6001600160a01b03166040830152565b613adf565b03611e8e57611a8a612ada565b50611a93612ada565b50611aa9611a14835f52600260205260405f2090565b611ac06001611a3b855f52600260205260405f2090565b6040516354c2c80d60e11b8152336004820152947f00000000000000000000000000000000000000000000000000000000000000006001600160a01b038116959093909290916020886024818a5afa9788156107f0575f98611e5d575b50604051635f35b0b360e01b81526001600160a01b03821660048201526020816024818b5afa80156107f057611b60915f91611e32575b50600160a01b16151590565b15611e5757505f965b6001600160a01b0388811690821603611e5157505f915b604051635f35b0b360e01b81526001600160a01b038416600482015296602090889060249082905afa9687156107f057611ca398611c696110b8987fc4fd5935c4fcd95833fbc9e12d4b8297dc4a371615a410aa1c793f660838515396611bfa611d959c611d85965f91611e325750600160a01b16151590565b15611e2d57505f5b611c0b866123a9565b611c14886123a9565b90611c64611c2a8c5f52600260205260405f2090565b93611c45611c36610504565b6001600160801b039097168752565b6001600160a01b03881660208701526001600160a01b03166040860152565b613f1c565b909b8c9299611c7d33600a6106be8a6123a9565b5460018111611e06575b506001600160a01b038816611dbb575b8260801c903390614574565b8851611cc5906001600160801b031660408b01516001600160801b0316611807565b60208a0151611cea906001600160801b031660608c01516001600160801b0316611807565b6020840151909290611d3290611d16906001600160801b031660608701516001600160801b0316611807565b855160409096015190956001600160801b039081169116611807565b604080516001600160a01b03998a16815299891660208b015295909716948801949094526060870193909352608086019290925260a085019190915260c084015260e08301919091528190610100820190565b0390a2516001600160801b031690565b90611d9e612f03565b604080516001600160801b03928316815292909116602083015290f35b611dca33600a6106be8b6123a9565b5460018111611dda575b50611c97565b611df9611e0091611df461073d8c600a6106be33926123a9565b6124ba565b338a613616565b5f611dd4565b611e20611e2791611df461073d8b600a6106be33926123a9565b3389613616565b5f611c87565b611c02565b611e4b915060203d6020116107e9576107db81836104c2565b5f611b54565b91611b80565b96611b69565b611e8091985060203d602011611e87575b611e7881836104c2565b810190612eb6565b965f611b1d565b503d611e6e565b63d1b5191160e01b5f52600860045260245ffd5b60a036600319011261016457600435611eba81610153565b60243590611ec782610153565b60443591611ed4836101e2565b6064356001600160401b03811161016457611ef39036906004016101f3565b6084939193356001600160401b03811161016457611f159036906004016101f3565b9095905f516020614f6f5f395f51905f525c6001600160a01b031661037957335f516020614f6f5f395f51905f525d611f4c612f15565b611f54612ada565b91611f5d612ada565b976001606d1b6001600160801b03611f81846002611f7a8b6123a9565b01546123d6565b1610801590612394575b801561235c575b61234857868992611fab611fa5896123a9565b546145c3565b9660018060a01b038316159a898c1594856122ef575b50611fec8a97969594611fe6611ffa958a958d9560018060801b038516903390613007565b83612b7d565b611ff58c6123a9565b613db4565b612231575b5050505061203461200e610504565b3381526001600160a01b03851660208201526001600160a01b0386166040820152613adf565b958515612214575b6040820180519093612056916001600160801b0316612edf565b92612069885f52600260205260405f2090565b81519094906001600160801b031660801b6001600160801b039091161760208401519097906001600160801b031660608501805190969188916001600160801b03166001600160801b031660809190911b1760208601516001600160801b0316606087018051909c918c916001600160801b03166001600160801b031660809190911b17936120f795613b6a565b5f14966118076110b86121926121d7976118076110b86121846121a0987fee89c9fd704272905456294f1b2b88581ebe0241f72c15b4f3db31d19388f6af9f6121f65780516117c4906001600160801b0316915b61217683337f0000000000000000000000000000000000000000000000000000000000000000613bd7565b50516001600160801b031690565b99516001600160801b031690565b94516001600160801b031690565b604080516001600160a01b0396871681529690951660208701529385019190915260608401526080830191909152819060a0820190565b0390a26121e2612f72565b6121ea612f03565b60405160018152602090f35b80516117c49061220e906001600160801b0316612b5d565b9161214b565b604082015161222b906001600160801b0316612b5d565b5061203c565b6122d46122e69461225d60026122468c6123a9565b015460408901516001600160801b03165b906145d8565b6001600160801b031660608501908152926122b96122ac61227d8d6123a9565b54865161229a906001600160801b03165b6001600160801b031690565b603f6127109260d91c16820390040290565b6001600160801b03168552565b83516122cd906001600160801b031661228e565b338c613007565b6122e06110b8896123a9565b90613db4565b5f828782611fff565b89919297969594611fe6611ffa959c8361231161228e611fa5611fec976123a9565b6001600160801b038316101561233557505b9c95505094959697929150508b611fc1565b6123439150611fa5906123a9565b612323565b63d1b5191160e01b5f52600760045260245ffd5b50612375612369876123a9565b54600160ff1b16151590565b8015612382575b15611f92565b5061238f612369886123a9565b61237c565b506001600160a01b0386811690881614611f8b565b6001600160a01b03165f90815260016020526040902090565b634e487b7160e01b5f52601160045260245ffd5b6001600160801b0391821690821601919082116123ef57565b6123c2565b6001600160a01b0390911681526001600160801b03909116602082015260400190565b6040519061242482610487565b5f6080838281528260208201528260408201528260608201520152565b90816020910312610164575190565b6040513d5f823e3d90fd5b9061246582610531565b61247260405191826104c2565b8281528092612483601f1991610531565b0190602036910137565b634e487b7160e01b5f52603260045260245ffd5b80518210156124b55760209160051b010190565b61248d565b5f198101919082116123ef57565b919082039182116123ef57565b9291604084019360408152825180955260206060820193015f955b80871061250c57505061018d93945060208184039101526112c3565b81516001600160a01b0316855260019690960195602094850194909101906124f0565b6001600160a01b0381169060018203612551576104f2915047905b3390613616565b6040516370a0823160e01b815230600482015291602090839060249082905afa80156107f0576104f2925f91612589575b509061254a565b6125a2915060203d6020116107e9576107db81836104c2565b5f612582565b80546001600160a01b0319166001600160a01b03909216919091179055565b907f42e3c955499470d3dc1078d90519d90691c504c8856ea058daf2c1436c2dab4c9160018060a01b0381165f52600160205261260a82600160405f20016125a8565b604080516001600160a01b03928316815292909116602083015290a1565b908160801b91808304600160801b14901517156123ef57565b90600a820291808304600a14901517156123ef57565b908160011b91808304600214901517156123ef57565b908160021b91808304600414901517156123ef57565b818102929181159184041417156123ef57565b6001600160801b0391821690821603919082116123ef57565b9293906126ba612f15565b600160ff1b831615801561281b575b612808577f8f2eb922ee1b2f92e0051f7949a8c191264807725a1e435e91abebd28583830a946127fa92612708916001600160801b0384163388613007565b61271b8382612716876123a9565b6139b0565b61272c612727856123a9565b6139f3565b612754612737610504565b3381526001600160a01b03861660208201525f6040820152613adf565b926127b961276a855f52600260205260405f2090565b608084901c90612792906001600160801b031986168317896001600160801b03881692613b25565b337f0000000000000000000000000000000000000000000000000000000000000000613bd7565b604080519586526001600160a01b0390961660208601526001600160801b0316948401949094526060830193909352608082019290925290819060a0820190565b0390a16001906104f2612f72565b63d1b5191160e01b5f526004805260245ffd5b506001600160a01b036128326001611a3b876123a9565b1615156126c9565b9691959293909291905f516020614f6f5f395f51905f525c6001600160a01b031661037957335f516020614f6f5f395f51905f525d612877612f15565b6001600160a01b0361288d6001611a3b8a6123a9565b1615801590612ac5575b612ab157608084901c956128ad9187338a613007565b6128c2916001600160801b0384163389613007565b6128ca612ada565b90816128d5876123a9565b916128df92613c4f565b6128e8846123a9565b604082018051909190849086906001600160801b031660801b6001600160801b0390911617612916926139b0565b61291e610504565b3381526001600160a01b03861660208201526001600160a01b038716604082015261294890613adf565b815160208401516060850180519397909390926001600160801b0319608082811b82166001600160801b039384161794901b169116176129866104e3565b6001600160a01b038a168152916001600160a01b038b166020840152604083015282606083015260808201526129c4875f52600260205260405f2090565b906129ce91612b0e565b82516001600160801b03166129e290612b5d565b612a0d90337f0000000000000000000000000000000000000000000000000000000000000000613bd7565b925193519151604080519788526001600160a01b039889166020890152989097169786019790975260608501939093526001600160801b0390811660808581019190915295861b9181169190911760a08401526001600160801b03199190941b16919092161760c08201527f3fc0293a5a7bc73de220f0814bbbebc31e77ffcd41bf5e8be187471747bd7caa9060e090a1612aa6612f72565b6001906104f2612f03565b63d1b5191160e01b5f52600560045260245ffd5b50612ad5610ab36123698a6123a9565b612897565b60405190608082018281106001600160401b038211176104a2576040525f6060838281528260208201528260408201520152565b906080600491612b2760018060a01b03825116856125a8565b6020810151612b42906001600160a01b0316600186016125a8565b60408101516002850155606081015160038501550151910155565b60011b6002600160801b03811691906002600160811b031682036123ef57565b6001600160801b0391821690821602908116919082036123ef57565b612ba1612f15565b612baa82610531565b91612bb860405193846104c2565b808352601f19612bc782610531565b015f5b818110612c405750505f5b818110612be857505050906104f2612f72565b5f80612bf5838587612c51565b90612c0560405180938193612c92565b0390305af4612c12612cba565b9015612c385790600191612c2682876124a1565b52612c3181866124a1565b5001612bd5565b602081519101fd5b806060602080938801015201612bca565b91908110156124b55760051b81013590601e19813603018212156101645701908135916001600160401b038311610164576020018236038113610164579190565b908092918237015f815290565b6001600160401b0381116104a257601f01601f191660200190565b3d15612ce4573d90612ccb82612c9f565b91612cd960405193846104c2565b82523d5f602084013e565b606090565b6001600160a01b0381165f908152600160205260408120929190612d1a612d1560fb85901c5b60071690565b612641565b612d2f612d2a612d0f8660f71c90565b612657565b612d44612d3f612d0f8760f41c90565b61266d565b612d57612d518760ef1c90565b601f1690565b90612d65612d518860ea1c90565b92612d73612d518960e51c90565b9480158015612e7a575b8015612e72575b8015612e6a575b8015612e62575b8015612e5a575b612e52575b60649593612dba612dba94612dba612dbf9895612dba9561352e565b61352e565b14612e4a575b15612e36577fe40cf68f61d9a4e510244481f5aa34ba68de31cf3f9aa360604d688115d640c892612e14612e02612dfc8560df1c90565b60df1b90565b82546001600160df1b03165b9061352e565b9055604080516001600160a01b039290921682526020820192909252a1600190565b63d1b5191160e01b5f52602760045260245ffd5b506001612dc5565b5f9650612d9e565b508515612d99565b508415612d92565b508315612d8b565b508215612d84565b508115612d7d565b5f54336001600160a01b03821603612ea2576001600160a01b0319165f55565b63d1b5191160e01b5f52602560045260245ffd5b90816020910312610164575161018d81610153565b634e487b7160e01b5f52601260045260245ffd5b6001600160801b03909116908115612efe576001600160801b03160490565b612ecb565b5f5f516020614f6f5f395f51905f525d565b5f516020614f4f5f395f51905f525c15612f4d575b60015f516020614f4f5f395f51905f525c015f516020614f4f5f395f51905f525d565b345f516020614f8f5f395f51905f525d5f5f516020614f4f5f395f51905f525d612f2a565b5f195f516020614f4f5f395f51905f525c015f516020614f4f5f395f51905f525d5f516020614f4f5f395f51905f525c1580612ff0575b612faf57565b5f8080805f516020614f8f5f395f51905f525c815f516020614f8f5f395f51905f525d335af115612fdc57565b63d1b5191160e01b5f52601e60045260245ffd5b505f516020614f8f5f395f51905f525c1515612fa9565b90936001600160801b0390921692909160016001600160a01b03841603613035575050506104f29150614f04565b806130475750506104f2923091614eb5565b9061305491810190614602565b60ff613061825160ff1690565b16600281036132425750602061308291015160208082518301019101614825565b6001600160a01b03821690736b175474e89094c44da98b954eedeac495271d0f82036131bc57604051623f675f60e91b81526001600160a01b038616600482015291602090839060249082905afa9081156107f0576131745f93928493849161319d575b506131666020840151936130fe604082015160ff1690565b60608201516080909201516040516323f2ebc360e21b60208201526001600160a01b038d16602482015230604482015260648101959095526084850196909652600160a485015260ff1660c484015260e4830152610104820193909352918290610124820190565b03601f1981018352826104c2565b60208151910182855af11561318e576104f2923091614eb5565b63203aa5b560e11b5f5260045ffd5b6131b6915060203d6020116107e9576107db81836104c2565b5f6130e6565b5f91508061323d8392516131666020840151936131dd604082015160ff1690565b606082015160809092015160405163d505accf60e01b60208201526001600160a01b038d1660248201523060448201526064810195909552608485019690965260ff1660a484015260c483015260e4820193909352918290610104820190565b613174565b91939291600381036132d457505061325990614e9c565b6e22d473030f116ddee9f6b43ac78ba33b1561016457604051631b63c28b60e11b81526001600160a01b0392831660048201523060248201529082166044820152911660648201525f81608481836e22d473030f116ddee9f6b43ac78ba35af180156107f0576132c65750565b80610ea75f6104f2936104c2565b60048103613422575060206132f4910151602080825183010191016146a3565b906133a96133028351614e9c565b9261335c613319604083015165ffffffffffff1690565b613341613324610522565b6001600160a01b038a168152966001600160a01b03166020880152565b65ffffffffffff604087015265ffffffffffff166060860152565b6020810151613369610504565b94855230602086015260408501526080810151906133a3613393606060a084015193015160ff1690565b60f81b6001600160f81b03191690565b9161470e565b916e22d473030f116ddee9f6b43ac78ba33b15610164576040516302b67b5760e41b8152925f91849182916133e3919088600485016147ad565b0381836e22d473030f116ddee9f6b43ac78ba35af19182156107f0576132599261340e575b50614e9c565b80610ea75f61341c936104c2565b5f613408565b929392600514613433575b50505050565b61344d60206134bb920151602080825183010191016146a3565b805161346961345a610513565b6001600160a01b039096168652565b60208501526040810151602082015190613481610504565b95865260208601526040850152613496610513565b3081529260208401526080810151906133a3613393606060a084015193015160ff1690565b916e22d473030f116ddee9f6b43ac78ba33b15610164576134f25f93604051958694859463187945bd60e11b865260048601614739565b0381836e22d473030f116ddee9f6b43ac78ba35af180156107f05761351a575b80808061342d565b80610ea75f613528936104c2565b5f613512565b919082018092116123ef57565b608082811c9082901c818101936001600160801b0390811693168381019391851015928361360b575b5082613600575b50816135f5575b50806135e5575b806135d5575b156135905761018d9160801b61352e565b60405162461bcd60e51b815260206004820152601b60248201527f54545377617055494e543235363a20616464206f766572666c6f7700000000006044820152606490fd5b506001600160801b03821061357f565b506001600160801b038110613579565b90508110155f613572565b83101591505f61356b565b85101592505f613564565b90919060016001600160a01b0382160361364f57505f8080809361363a955af11590565b61364057565b633607a14f60e11b5f5260045ffd5b60445f8080936020956040519763a9059cbb60e01b84526004526024525af13d15601f3d1160015f5114161716905f6060526040521561368b57565b633c9fd93960e21b5f5260045ffd5b8115612efe570490565b61370b6136fe6136d460a08401516136c561228e865160018060801b031690565b607f6127109260c51c16020490565b6001600160801b03166040840190815283516136f8906001600160801b03166110b8565b906123d6565b6001600160801b03168252565b60808101805161387f9190613879906001600160801b0316936137df6137da61375d61374960c085019861374361228e8b5160801c90565b90612683565b8451613743906001600160801b031661228e565b6137d46137af61378461377461228e8a5160801c90565b8b516001600160801b0316613743565b6137a961379561228e8b5160801c90565b8851613743906001600160801b031661228e565b906124c8565b6137a96137c061228e8c5160801c90565b8751613743906001600160801b031661228e565b9061369a565b614874565b6001600160801b0316602082019081529261386161382d61381b83516118076138088260801c90565b89519092906001600160801b03166136f8565b86516001600160801b03165b906148d8565b6001600160801b031660608401908152945b82518651909161385b91611807906001600160801b03166110b8565b906148f6565b905284519251611807906001600160801b03166110b8565b906149bc565b9052565b60049061389d926002820155019182549060801b9061353b565b9055565b6138ec6136fe6138c260a08401516136c561228e865160018060801b031690565b6001600160801b03166040840190815283516138e6906001600160801b03166110b8565b90612696565b805161387f90613904906001600160801b031661228e565b916138796139476137da613924608085019661374361228e895160801c90565b86516137d4906001600160801b03168651612e0e906001600160801b031661228e565b6001600160801b0316606083019081529160c081019461386161399a6137da6139796137958a5160018060801b031690565b6137d461228e61398a8c5160801c90565b8a516001600160801b03166136f8565b6001600160801b0316602084019081529261383f565b60028101829055600381019190915562c3508160e61b6b7fffffffffffffffffffffff60801b9092169182019182106123ef576104f291815560013391016125a8565b5f613a01612d156016612d0f565b613a0f612d2a610161612d0f565b613a1d612d3f610b0d612d0f565b613a29620161a8612d51565b90613a36622c3508612d51565b92613a44630586a102612d51565b9480158015613ad7575b8015613acf575b8015613ac7575b8015613abf575b8015613ab7575b613aaf575b60649593612dba612dba94612dba613a8b9895612dba9561352e565b14613aa7575b15612e365761389d612e02640161a84080612dfc565b506001613a91565b5f9650613a6f565b508515613a6a565b508415613a63565b508315613a5c565b508215613a55565b508115613a4e565b6040805182516001600160a01b03908116602080840191825285015182168385015293909201519091166060808301919091528152613b1f6080826104c2565b51902090565b91613b51600261389d94959395600381019660018060801b0388541615613b5a575b500191825461353b565b9055825461353b565b613b6490826125a8565b5f613b47565b93613b96919293600386019360018060801b0385541615613bc7575b50613b516002870191825461353b565b90556001600160a01b038116613bab57505050565b81613bbe600492600161389d95016125a8565b0191825461353b565b613bd190876125a8565b5f613b86565b91613bfc926020925f60405180968195829463067e356d60e21b8452600484016123f4565b03926001600160a01b03165af19081156107f0575f91613c1a575090565b90506020813d602011613c47575b81613c35602093836104c2565b81010312610164575161018d816101e2565b3d9150613c28565b9182613d92613c9861389d94613c88613c7b855460018060801b038416603f6127109260d91c16020490565b6001600160801b03168652565b84516001600160801b03166138e6565b6001600160801b03166060840181815260028401805491929091613cbb91613827565b6001600160801b03166040860190815294613d4b600486019161032e8354916118076110b8613d3b613d1d613d0d6003613cf58960801c90565b9e018054909e60801b6001600160801b039091161790565b8b516001600160801b0316613827565b6001600160801b03166020850190815293516001600160801b031690565b83516001600160801b03166136f8565b905580548551613d74919061032e906001600160801b03165b85516001600160801b0316611807565b905582548451909161032e91611807906001600160801b03166110b8565b90558254905161032e9061228e906001600160801b03166138e6600182612edf565b9261228e61032e9185613e9d613e0561389d9796613df5613de8855460018060801b038416603f6127109260d91c16020490565b6001600160801b03168952565b87516001600160801b03166138e6565b6001600160801b03166060870181815260028401805491929091613e2891613827565b6001600160801b03166040890190815297613e62600486019161032e8354916118076110b8613d3b613d1d613d0d6003613cf58960801c90565b905580548851613e7f919061032e906001600160801b0316613d64565b905582548751909161032e91611807906001600160801b03166110b8565b9055855493516138e6906001600160801b03169182612edf565b8054918260df1c603f81168015613f14575b6001600160801b03613eda846145c3565b166001600160801b03909116106114755760df1b9260801b60801c83018093116123ef576001600160801b03191682019182106123ef5755565b506001613ec9565b90613f949491613f2a612ada565b50613f33612ada565b94600285015492613f448460801c90565b600387015490613f709061228e9060801b6001600160801b0384161785516001600160801b0316613827565b93613f7b85876145d8565b958154906002830191613f9a61228e84549e8f60801c90565b83614a81565b8811908d8215614545575b50506145315761406490614054613ffc613fec613fe1613d0d613fcc60048a015460801c90565b60038a015460018060801b03169060801b1790565b976117c48160801c90565b89516001600160801b0316613827565b885190929061404490614019906001600160801b031680936145d8565b93614034614025610522565b6001600160801b03909a168a52565b6001600160801b03166020890152565b6001600160801b03166040870152565b6001600160801b03166060850152565b614097839b61409161407f604087015160018060801b031690565b6001600160801b031660808a901b1790565b90614a9b565b9055600381015460408301516140bc91906001600160801b0316608088901b17614091565b6003820155600481015482516140ed9190614091906001600160801b031660208601516001600160801b0316611807565b6004820155614104815461409161228e8989612696565b815581516141399061412c906001600160801b031660208501516001600160801b03166138e6565b6001600160801b03168352565b80546040830151614179916141699161415a906001600160801b031661228e565b603f6127109260d31c16020490565b6001600160801b03166020840152565b81516141ef906020906001600160801b031686820180519095916141e1916040906001600160a01b0316990180519099906001600160a01b031660608501519091906141da906001600160801b0316868801516001600160801b03166138e6565b9288614b4d565b01516001600160801b031690565b6001600160801b038116614513575b505060018701546001600160a01b0316614236575b5050506104f29161422f919060018060801b03169060801b1790565b8093614dbf565b92909391965060048401805461424c9060801c90565b60038601805490969161426f91859160801b6001600160801b03909116176148d8565b9160048901549984808c6142838160801c90565b60801b6001600160801b03909116179061429c916148d8565b9b60028c01546142ac9060801c90565b60801b6001600160801b0390911617906142c5916145d8565b966142ce610522565b6001600160801b0390951685526001600160801b03909b16602085019081529a6001600160801b03909716604085019081529660608501925f8452859c85549a60028701908154809d6143218260801c90565b61432b9082614a81565b6001600160801b03168c119182156144e2575b50506144ce5761449b8f61448d6104f29f9b61422f9f978f8f6144af9f9a8f8f61448d9861445d6144a99f8f906138e69f956110b89f61442e61441e8e61440f8f9d61446d9f61442e9f614091916122579f9160029f996143e68b61228e956144509f6143ce9061443b9f6143bc614091915160018060801b031690565b6001600160801b031660808d901b1790565b905582549051614091906001600160801b031661407f565b90556144058d6140918354916118076110b88c5160018060801b031690565b9055895493612696565b8555516001600160801b031690565b85516001600160801b03166138e6565b6001600160801b03168d52565b54875161415a906001600160801b031661228e565b6001600160801b03169052565b015491516001600160801b031690565b87516001600160801b0316806144b7575b5050516001600160801b031690565b96516001600160a01b031690565b96516001600160801b031690565b93614b4d565b918193614213565b81546144c59160801b61032e565b90555f8061447e565b63d1b5191160e01b5f52602060045260245ffd5b89519192506145009161228e91906001600160801b03165b93614a81565b6001600160801b03909116115f8e61433e565b61452760049161032e838501549160801b90565b9101555f806141fe565b63d1b5191160e01b5f52601f60045260245ffd5b88519192506145619161228e91906001600160801b03166144fa565b6001600160801b03909116115f8d613fa5565b6001600160a01b031691823b15610164576145a8925f9283604051809681958294637bd3ca3560e01b8452600484016123f4565b03925af180156107f0576145b95750565b5f6104f2916104c2565b60bb1c603f1680156145d25790565b50600190565b61018d91608082901c6001600160801b03918216919092160204614874565b60ff81160361016457565b602081830312610164578035906001600160401b0382116101645701906040828203126101645760405191614636836104a7565b8035614641816145f7565b83526020810135906001600160401b038211610164570181601f820112156101645780359061466f82612c9f565b9261467d60405194856104c2565b8284526020838301011161016457815f9260208093018386013783010152602082015290565b908160c0910312610164576040519060c08201908282106001600160401b038311176104a25760a09160405280518352602081015160208401526040810151604084015260608101516146f5816145f7565b606084015260808101516080840152015160a082015290565b929190604051936020850152604084015260ff60f81b166060830152604182526104f26061836104c2565b909261479161010093604061018d97966147668682516020809160018060a01b0381511684520151910152565b60208181015187840152910151606086015281516001600160a01b03166080860152015160a0840152565b6001600160a01b031660c082015260e081018290520190611489565b604061018d94936101009360018060a01b0316835265ffffffffffff6060825160018060a01b03815116602087015260018060a01b036020820151168587015282858201511682870152015116608084015260018060a01b0360208201511660a0840152015160c08201528160e08201520190611489565b908160a09103126101645760806040519161483f83610487565b8051835260208101516020840152604081015161485b816145f7565b6040840152606081015160608401520151608082015290565b6001600160801b038116919082900361488957565b60405162461bcd60e51b815260206004820152602160248201527f54545377617055494e543235363a20746f55696e74313238206f766572666c6f6044820152607760f81b6064820152608490fd5b61018d916001600160801b0380831660809390931c91160204614874565b608082811d9082901d818103936001600160801b03938416931683810193841015929190836149b1575b50826149a6575b8261499b575b50508061498b575b156149465761018d9160801b61352e565b60405162461bcd60e51b815260206004820152601e60248201527f54545377617055494e543235363a20737562616464206f766572666c6f7700006044820152606490fd5b506001600160801b038110614935565b101590505f8061492d565b808511159250614927565b84101592505f614920565b608082811c9082901c818101936001600160801b03908116931683810393918510159283614a76575b5082614a6b575b82614a60575b505080614a50575b15614a0b5761018d9160801b61352e565b60405162461bcd60e51b815260206004820152601e60248201527f54545377617055494e543235363a20616464737562206f766572666c6f7700006044820152606490fd5b506001600160801b0382106149fa565b101590505f806149f2565b8084111592506149ec565b85101592505f6149e5565b60b11c6103ff168015614a975761018d91612edf565b5090565b608082811c9082901c818103936001600160801b039081169316838103938286111593929184614b42575b84614b37575b505082614b2c575b505015614ae75761018d9160801b61352e565b60405162461bcd60e51b815260206004820152601b60248201527f54545377617055494e543235363a20737562206f766572666c6f7700000000006044820152606490fd5b101590505f80614ad4565b101592505f80614acc565b808611159450614ac6565b80549094919391929091614b77606460e585901c601f166001600160801b03881602048096612696565b6001600160801b03811694909290600a60fb86901c60071687020492603260f787901c600f1688020495614bcf601960f483901c6007168a020498606460ef84901c601f168202049290601f60649260ea1c16020490565b976001600160a01b038316614ca057505050614beb90836123d6565b6001600160801b0316335f908152600a9098016020819052604090982090815490614c159161352e565b9055614c2185856123d6565b6001600160801b03166001600160a01b039091165f90815260208890526040902090815490614c4f9161352e565b9055614c5a91612696565b90614c6491612696565b90614c6e91612696565b90614c78916123d6565b6001600160801b031690614c93905f805260205260405f2090565b9081549061389d9161352e565b6102d19593965099614d9199929a614d7e999561228e99614cca600185015460018060a01b031690565b6001600160a01b03811615614dae576001600160a01b03165f908152600a850160205260409020614d09905b805490926001600160801b03169061352e565b90555b6001600160a01b03811615614d94576001600160a01b03165f908152600a8084016020526040909120614d6193614cf6939091614d469085565b90555b019b8c9060018060a01b03165f5260205260405f2090565b9055614d77614cf68a5f805260205260405f2090565b90556123d6565b335f908152602093909352604090922090565b55565b50600a614da8614cf692614d6194966123d6565b94614d49565b50614db991956123d6565b93614d0c565b9061389d9060038301614e48614e288254614dda8160801c90565b968560801c928392611807600284019a85614e178d614e0160018060801b03915460801c90565b169889936001600160801b031602839004614874565b936001600160801b03160204614874565b60018201549093906001600160a01b0316614e51575b5050508254614a9b565b90558254614a9b565b6140916004614e92930193611807855493614e80818460018060801b03614e788960801c90565b160204614874565b926001600160801b0386160204614874565b90555f8080614e3e565b6001600160a01b038116908103614eb05790565b505f90565b6040516323b872dd60e01b81526001600160a01b03928316600482015292909116602483015260448201929092526020915f9160649183905af13d15601f3d1160015f51141617161561368b57565b5f516020614f8f5f395f51905f525c8111614f3a575f516020614f8f5f395f51905f525c035f516020614f8f5f395f51905f525d565b63d1b5191160e01b5f52601c60045260245ffdfe87b52c29898e62efc1f9a9b00a26dcbdaee98d728c56841703077b7c0d20dee7e2afc7ec4dbb9bfdb1b8e8bcf21a055747c25bf2faaea9cb5a134005381f4843cbe27d488af5b5c1b0bd8d89be6fdfeaed3ad42719044fd9b728f33df1d6f1d1a26469706673582212203f5bd75100123340f59e986095e1e6258eed8885662748ccb95c380349b0fd1964736f6c634300081d0033","linkReferences":{}},"methodIdentifiers":{"buyGood(address,address,uint256,uint128,address,bytes)":"440c8daa","buyGoodCheck(address,address,uint256,bool)":"e6227925","changeGoodOwner(address,address)":"41e12373","collectCommission(address[])":"0d2700ab","disinvestProof(uint256,uint128,address)":"f4662f20","getGoodState(address)":"08238466","getProofState(uint256)":"3f117740","getRecentGoodState(address,address)":"00796f71","getaddress(address)":"f5458748","goodWelfare(address,uint128,bytes)":"06cf4e7f","initGood(address,uint256,address,uint256,bytes,bytes)":"5f755d65","initMetaGood(address,uint256,uint256,bytes)":"51ff9a16","investGood(address,address,uint128,bytes,bytes)":"f878e809","ishigher(address,address,uint256)":"1412723a","modifyGoodConfig(address,uint256)":"b1efb921","multicall(bytes[])":"ac9650d8","queryCommission(address[],address)":"9b222794","removeSecurityKeeper()":"c9544f18","securityKeeper(address)":"3c9fe544","updateGoodConfig(address,uint256)":"a3b74a49"},"id":46}