{"abi":[{"type":"constructor","inputs":[],"stateMutability":"nonpayable"},{"type":"function","name":"DOMAIN_SEPARATOR","inputs":[],"outputs":[{"name":"","type":"bytes32","internalType":"bytes32"}],"stateMutability":"view"},{"type":"function","name":"addShare","inputs":[{"name":"_share","type":"tuple","internalType":"struct s_share","components":[{"name":"leftamount","type":"uint128","internalType":"uint128"},{"name":"metric","type":"uint120","internalType":"uint120"},{"name":"chips","type":"uint8","internalType":"uint8"}]},{"name":"owner","type":"address","internalType":"address"}],"outputs":[],"stateMutability":"nonpayable"},{"type":"function","name":"allowance","inputs":[{"name":"","type":"address","internalType":"address"},{"name":"","type":"address","internalType":"address"}],"outputs":[{"name":"","type":"uint256","internalType":"uint256"}],"stateMutability":"view"},{"type":"function","name":"approve","inputs":[{"name":"spender","type":"address","internalType":"address"},{"name":"amount","type":"uint256","internalType":"uint256"}],"outputs":[{"name":"","type":"bool","internalType":"bool"}],"stateMutability":"nonpayable"},{"type":"function","name":"balanceOf","inputs":[{"name":"","type":"address","internalType":"address"}],"outputs":[{"name":"","type":"uint256","internalType":"uint256"}],"stateMutability":"view"},{"type":"function","name":"burn","inputs":[{"name":"value","type":"uint256","internalType":"uint256"}],"outputs":[],"stateMutability":"nonpayable"},{"type":"function","name":"burnShare","inputs":[{"name":"owner","type":"address","internalType":"address"}],"outputs":[],"stateMutability":"nonpayable"},{"type":"function","name":"decimals","inputs":[],"outputs":[{"name":"","type":"uint8","internalType":"uint8"}],"stateMutability":"view"},{"type":"function","name":"disableUpgrade","inputs":[],"outputs":[],"stateMutability":"nonpayable"},{"type":"function","name":"getreferral","inputs":[{"name":"_customer","type":"address","internalType":"address"}],"outputs":[{"name":"","type":"address","internalType":"address"}],"stateMutability":"view"},{"type":"function","name":"left_share","inputs":[],"outputs":[{"name":"","type":"uint128","internalType":"uint128"}],"stateMutability":"view"},{"type":"function","name":"name","inputs":[],"outputs":[{"name":"","type":"string","internalType":"string"}],"stateMutability":"view"},{"type":"function","name":"nonces","inputs":[{"name":"","type":"address","internalType":"address"}],"outputs":[{"name":"","type":"uint256","internalType":"uint256"}],"stateMutability":"view"},{"type":"function","name":"permit","inputs":[{"name":"owner","type":"address","internalType":"address"},{"name":"spender","type":"address","internalType":"address"},{"name":"value","type":"uint256","internalType":"uint256"},{"name":"deadline","type":"uint256","internalType":"uint256"},{"name":"v","type":"uint8","internalType":"uint8"},{"name":"r","type":"bytes32","internalType":"bytes32"},{"name":"s","type":"bytes32","internalType":"bytes32"}],"outputs":[],"stateMutability":"nonpayable"},{"type":"function","name":"permitShare","inputs":[{"name":"_share","type":"tuple","internalType":"struct s_share","components":[{"name":"leftamount","type":"uint128","internalType":"uint128"},{"name":"metric","type":"uint120","internalType":"uint120"},{"name":"chips","type":"uint8","internalType":"uint8"}]},{"name":"dealline","type":"uint128","internalType":"uint128"},{"name":"signature","type":"bytes","internalType":"bytes"},{"name":"signer","type":"address","internalType":"address"}],"outputs":[],"stateMutability":"nonpayable"},{"type":"function","name":"poolstate","inputs":[],"outputs":[{"name":"","type":"uint256","internalType":"uint256"}],"stateMutability":"view"},{"type":"function","name":"publicSell","inputs":[{"name":"usdtamount","type":"uint256","internalType":"uint256"},{"name":"data","type":"bytes","internalType":"bytes"}],"outputs":[],"stateMutability":"nonpayable"},{"type":"function","name":"publicsell","inputs":[],"outputs":[{"name":"","type":"uint128","internalType":"uint128"}],"stateMutability":"view"},{"type":"function","name":"setBan","inputs":[{"name":"_recipient","type":"address","internalType":"address"},{"name":"result","type":"bool","internalType":"bool"}],"outputs":[],"stateMutability":"nonpayable"},{"type":"function","name":"setCallMintTTS","inputs":[{"name":"_recipient","type":"address","internalType":"address"},{"name":"result","type":"bool","internalType":"bool"}],"outputs":[],"stateMutability":"nonpayable"},{"type":"function","name":"setDAOAdmin","inputs":[{"name":"_recipient","type":"address","internalType":"address"},{"name":"result","type":"bool","internalType":"bool"}],"outputs":[],"stateMutability":"nonpayable"},{"type":"function","name":"setEnv","inputs":[{"name":"_marketcontract","type":"address","internalType":"address"}],"outputs":[],"stateMutability":"nonpayable"},{"type":"function","name":"setMarketAdmin","inputs":[{"name":"_recipient","type":"address","internalType":"address"},{"name":"result","type":"bool","internalType":"bool"}],"outputs":[],"stateMutability":"nonpayable"},{"type":"function","name":"setMarketManager","inputs":[{"name":"_recipient","type":"address","internalType":"address"},{"name":"result","type":"bool","internalType":"bool"}],"outputs":[],"stateMutability":"nonpayable"},{"type":"function","name":"setRatio","inputs":[{"name":"_ratio","type":"uint256","internalType":"uint256"}],"outputs":[],"stateMutability":"nonpayable"},{"type":"function","name":"setReferral","inputs":[{"name":"user","type":"address","internalType":"address"},{"name":"referral","type":"address","internalType":"address"}],"outputs":[],"stateMutability":"nonpayable"},{"type":"function","name":"setStakeAdmin","inputs":[{"name":"_recipient","type":"address","internalType":"address"},{"name":"result","type":"bool","internalType":"bool"}],"outputs":[],"stateMutability":"nonpayable"},{"type":"function","name":"setStakeManager","inputs":[{"name":"_recipient","type":"address","internalType":"address"},{"name":"result","type":"bool","internalType":"bool"}],"outputs":[],"stateMutability":"nonpayable"},{"type":"function","name":"setTokenAdmin","inputs":[{"name":"_recipient","type":"address","internalType":"address"},{"name":"result","type":"bool","internalType":"bool"}],"outputs":[],"stateMutability":"nonpayable"},{"type":"function","name":"setTokenManager","inputs":[{"name":"_recipient","type":"address","internalType":"address"},{"name":"result","type":"bool","internalType":"bool"}],"outputs":[],"stateMutability":"nonpayable"},{"type":"function","name":"shareHash","inputs":[{"name":"_share","type":"tuple","internalType":"struct s_share","components":[{"name":"leftamount","type":"uint128","internalType":"uint128"},{"name":"metric","type":"uint120","internalType":"uint120"},{"name":"chips","type":"uint8","internalType":"uint8"}]},{"name":"owner","type":"address","internalType":"address"},{"name":"leftamount","type":"uint128","internalType":"uint128"},{"name":"deadline","type":"uint128","internalType":"uint128"},{"name":"nonce","type":"uint256","internalType":"uint256"}],"outputs":[{"name":"","type":"bytes32","internalType":"bytes32"}],"stateMutability":"pure"},{"type":"function","name":"shareMint","inputs":[],"outputs":[],"stateMutability":"nonpayable"},{"type":"function","name":"stake","inputs":[{"name":"_staker","type":"address","internalType":"address"},{"name":"proofvalue","type":"uint128","internalType":"uint128"}],"outputs":[{"name":"netconstruct","type":"uint128","internalType":"uint128"}],"stateMutability":"nonpayable"},{"type":"function","name":"stakeproofinfo","inputs":[{"name":"index","type":"uint256","internalType":"uint256"}],"outputs":[{"name":"","type":"tuple","internalType":"struct s_proof","components":[{"name":"fromcontract","type":"address","internalType":"address"},{"name":"proofstate","type":"uint256","internalType":"uint256"}]}],"stateMutability":"view"},{"type":"function","name":"stakestate","inputs":[],"outputs":[{"name":"","type":"uint256","internalType":"uint256"}],"stateMutability":"view"},{"type":"function","name":"symbol","inputs":[],"outputs":[{"name":"","type":"string","internalType":"string"}],"stateMutability":"view"},{"type":"function","name":"totalSupply","inputs":[],"outputs":[{"name":"","type":"uint256","internalType":"uint256"}],"stateMutability":"view"},{"type":"function","name":"transfer","inputs":[{"name":"to","type":"address","internalType":"address"},{"name":"amount","type":"uint256","internalType":"uint256"}],"outputs":[{"name":"","type":"bool","internalType":"bool"}],"stateMutability":"nonpayable"},{"type":"function","name":"transferFrom","inputs":[{"name":"from","type":"address","internalType":"address"},{"name":"to","type":"address","internalType":"address"},{"name":"amount","type":"uint256","internalType":"uint256"}],"outputs":[{"name":"","type":"bool","internalType":"bool"}],"stateMutability":"nonpayable"},{"type":"function","name":"ttstokenconfig","inputs":[],"outputs":[{"name":"","type":"uint256","internalType":"uint256"}],"stateMutability":"view"},{"type":"function","name":"unstake","inputs":[{"name":"_staker","type":"address","internalType":"address"},{"name":"proofvalue","type":"uint128","internalType":"uint128"}],"outputs":[],"stateMutability":"nonpayable"},{"type":"function","name":"userConfig","inputs":[{"name":"","type":"address","internalType":"address"}],"outputs":[{"name":"","type":"uint256","internalType":"uint256"}],"stateMutability":"view"},{"type":"function","name":"usershares","inputs":[{"name":"user","type":"address","internalType":"address"}],"outputs":[{"name":"","type":"tuple","internalType":"struct s_share","components":[{"name":"leftamount","type":"uint128","internalType":"uint128"},{"name":"metric","type":"uint120","internalType":"uint120"},{"name":"chips","type":"uint8","internalType":"uint8"}]}],"stateMutability":"view"},{"type":"function","name":"withdrawPublicSell","inputs":[{"name":"amount","type":"uint256","internalType":"uint256"},{"name":"recipient","type":"address","internalType":"address"}],"outputs":[],"stateMutability":"nonpayable"},{"type":"event","name":"Approval","inputs":[{"name":"owner","type":"address","indexed":true,"internalType":"address"},{"name":"spender","type":"address","indexed":true,"internalType":"address"},{"name":"amount","type":"uint256","indexed":false,"internalType":"uint256"}],"anonymous":false},{"type":"event","name":"Transfer","inputs":[{"name":"from","type":"address","indexed":true,"internalType":"address"},{"name":"to","type":"address","indexed":true,"internalType":"address"},{"name":"amount","type":"uint256","indexed":false,"internalType":"uint256"}],"anonymous":false},{"type":"event","name":"e_addShare","inputs":[{"name":"recipient","type":"address","indexed":false,"internalType":"address"},{"name":"leftamount","type":"uint128","indexed":false,"internalType":"uint128"},{"name":"metric","type":"uint120","indexed":false,"internalType":"uint120"},{"name":"chips","type":"uint8","indexed":false,"internalType":"uint8"}],"anonymous":false},{"type":"event","name":"e_addreferral","inputs":[{"name":"user","type":"address","indexed":false,"internalType":"address"},{"name":"referal","type":"address","indexed":false,"internalType":"address"}],"anonymous":false},{"type":"event","name":"e_burnShare","inputs":[{"name":"owner","type":"address","indexed":false,"internalType":"address"}],"anonymous":false},{"type":"event","name":"e_publicsell","inputs":[{"name":"usdtamount","type":"uint256","indexed":false,"internalType":"uint256"},{"name":"ttsamount","type":"uint256","indexed":false,"internalType":"uint256"}],"anonymous":false},{"type":"event","name":"e_setenv","inputs":[{"name":"marketcontract","type":"address","indexed":false,"internalType":"address"}],"anonymous":false},{"type":"event","name":"e_shareMint","inputs":[{"name":"mintamount","type":"uint128","indexed":false,"internalType":"uint128"},{"name":"owner","type":"address","indexed":false,"internalType":"address"}],"anonymous":false},{"type":"event","name":"e_stakeinfo","inputs":[{"name":"recipient","type":"address","indexed":false,"internalType":"address"},{"name":"proofvalue","type":"uint256","indexed":false,"internalType":"uint256"},{"name":"unstakestate","type":"uint256","indexed":false,"internalType":"uint256"},{"name":"stakestate","type":"uint256","indexed":false,"internalType":"uint256"},{"name":"poolstate","type":"uint256","indexed":false,"internalType":"uint256"}],"anonymous":false},{"type":"event","name":"e_syncChainStake","inputs":[{"name":"chain","type":"uint32","indexed":false,"internalType":"uint32"},{"name":"poolasset","type":"uint128","indexed":false,"internalType":"uint128"},{"name":"proofstate","type":"uint256","indexed":false,"internalType":"uint256"}],"anonymous":false},{"type":"event","name":"e_updateUserConfig","inputs":[{"name":"user","type":"address","indexed":false,"internalType":"address"},{"name":"config","type":"uint256","indexed":false,"internalType":"uint256"}],"anonymous":false},{"type":"event","name":"e_updatepool","inputs":[{"name":"poolstate","type":"uint256","indexed":false,"internalType":"uint256"}],"anonymous":false},{"type":"event","name":"e_updatettsconfig","inputs":[{"name":"ttsconfig","type":"uint256","indexed":false,"internalType":"uint256"}],"anonymous":false},{"type":"error","name":"ERC20PermitFailed","inputs":[]},{"type":"error","name":"ERC20TransferFailed","inputs":[]},{"type":"error","name":"InvalidSignature","inputs":[]},{"type":"error","name":"InvalidSignatureLength","inputs":[]},{"type":"error","name":"InvalidSigner","inputs":[]},{"type":"error","name":"NativeETHTransferFailed","inputs":[]},{"type":"error","name":"TTSwapError","inputs":[{"name":"seq","type":"uint256","internalType":"uint256"}]}],"bytecode":{"object":"0x60e0604052346103cd576040516100176040826103d1565b600c81526b2a2a29bbb0b8102a37b5b2b760a11b602082015260405161003e6040826103d1565b600381526254545360e81b602082015281516001600160401b038111610300576100685f546103f4565b601f811161037e575b50602092601f821160011461031f57928192935f92610314575b50508160011b915f199060031b1c1916175f555b80516001600160401b038111610300576100ba6001546103f4565b601f811161029d575b50602091601f821160011461023d579181925f92610232575b50508160011b915f199060031b1c1916176001555b60066080524660a0526040515f905f54918161010c846103f4565b9182825260208201946001811690815f1461021657506001146101cc575b610136925003826103d1565b51902060405160208101917f8b73c3c69bb8fe3d512ecc4cf759cc79239f7b179b0ffacaa9a75d522b39400f835260408201524660608201523060808201526080815261018460a0826103d1565b51902060c052600a80546001600160801b0319166528ed6103d000179055604051613808908161042d8239608051816111ce015260a051816123e2015260c051816124080152f35b505f80805290915f516020613c355f395f51905f525b8183106101fa5750509060206101369282010161012a565b60209193508060019154838588010152019101909183926101e2565b60ff191686525061013692151560051b8201602001905061012a565b015190505f806100dc565b601f1982169260015f52805f20915f5b8581106102855750836001951061026d575b505050811b016001556100f1565b01515f1960f88460031b161c191690555f808061025f565b9192602060018192868501518155019401920161024d565b60015f527fb10e2d527612073b26eecdfd717e6a320cf44b4afac2b0732d9fcbe2b7fa0cf6601f830160051c810191602084106102f6575b601f0160051c01905b8181106102eb57506100c3565b5f81556001016102de565b90915081906102d5565b634e487b7160e01b5f52604160045260245ffd5b015190505f8061008b565b601f198216935f8052805f20915f5b868110610366575083600195961061034e575b505050811b015f5561009f565b01515f1960f88460031b161c191690555f8080610341565b9192602060018192868501518155019401920161032e565b5f80525f516020613c355f395f51905f52601f830160051c810191602084106103c3575b601f0160051c01905b8181106103b85750610071565b5f81556001016103ab565b90915081906103a2565b5f80fd5b601f909101601f19168101906001600160401b0382119082101761030057604052565b90600182811c92168015610422575b602083101461040e57565b634e487b7160e01b5f52602260045260245ffd5b91607f169161040356fe60806040526004361015610011575f80fd5b5f3560e01c806306fdde03146102d4578063087425db146102cf57806308b8d7f0146102ca578063095ea7b3146102c55780630f7f0658146102c057806318160ddd146102bb57806319f8d5b4146102b65780631aab145d146102b157806323b872dd146102ac57806328d617fc146102a7578063297f24bf146102a25780632ff908cc1461029d578063313ce567146102985780633644e515146102935780633789f8d11461028e5780633e3b61f4146102895780633e6b1fe41461028457806340a6bc171461027f57806342966c681461027a57806344d91d9a1461027557806345fda70714610270578063473404671461026b5780635f35b0b314610266578063623059a51461026157806367fc91381461025c57806370a08231146102575780637543e3f0146102525780637bd3ca351461024d5780637ecebe0014610248578063845fcee41461024357806395d89b411461023e578063a9059cbb14610239578063a985901a14610234578063b2237ba31461022f578063baf02f1b1461022a578063cae9764014610225578063d505accf14610220578063d8048a461461021b578063dd4fff3a14610216578063dd62ed3e14610211578063de5712d41461020c578063de5d580314610207578063e7b43e7d146102025763ff428a95146101fd575f80fd5b612183565b61209e565b61201c565b611ffc565b611fa5565b611f11565b611ea3565b611cba565b611c9d565b611c15565b611b73565b611b33565b611abf565b611a1a565b6119fd565b6119c5565b611791565b6116a4565b61166c565b611635565b611618565b6115e0565b61156e565b611546565b611433565b6113e0565b611372565b611304565b611282565b611214565b6111f2565b6111b5565b61111f565b610f94565b610ee5565b610daf565b610af4565b6108c5565b6108a8565b6107b0565b61063b565b6105b9565b610500565b6103c7565b5f9103126102e357565b5f80fd5b90600182811c92168015610315575b602083101461030157565b634e487b7160e01b5f52602260045260245ffd5b91607f16916102f6565b634e487b7160e01b5f52604160045260245ffd5b606081019081106001600160401b0382111761034e57604052565b61031f565b604081019081106001600160401b0382111761034e57604052565b90601f801991011681019081106001600160401b0382111761034e57604052565b805180835260209291819084018484015e5f828201840152601f01601f1916010190565b9060206103c492818152019061038f565b90565b346102e3575f3660031901126102e3576040515f5f546103e6816102e7565b808452906001811690811561047a575060011461041e575b61041a8361040e8185038261036e565b604051918291826103b3565b0390f35b5f8080527f290decd9548b62a8d60345a988386fc84ba6bc95484008f6362f93160ef3e563939250905b8082106104605750909150810160200161040e6103fe565b919260018160209254838588010152019101909291610448565b60ff191660208086019190915291151560051b8401909101915061040e90506103fe565b600435906001600160a01b03821682036102e357565b60a435906001600160a01b03821682036102e357565b602435906001600160a01b03821682036102e357565b606435906001600160a01b03821682036102e357565b801515036102e357565b346102e35760403660031901126102e35761051961049e565b60243590610526826104f6565b335f52600b602052600160fe1b60405f205416156105a5576001600160a01b0381165f908152600b60205260409020545f5160206137735f395f51905f529261056e91612607565b610577826115c7565b55610581816115c7565b54604080516001600160a01b0390931683526020830191909152819081015b0390a1005b63d1b5191160e01b5f52603f60045260245ffd5b346102e35760403660031901126102e3576105d261049e565b602435906105df826104f6565b335f52600b602052600160f91b60405f20541615610627576001600160a01b0381165f908152600b60205260409020545f5160206137735f395f51905f529261056e91612628565b63d1b5191160e01b5f52604060045260245ffd5b346102e35760403660031901126102e35761065461049e565b60243590335f5260046020528161067e8260405f209060018060a01b03165f5260205260405f2090565b556040519182526001600160a01b03169033907f8c5be1e5ebec7d5bd14f71427d1e84f3dd0314c0f7b2291e5b200ac8c7c3b92590602090a360405160018152602090f35b604051906106d260408361036e565b565b604051906106d260608361036e565b604051906106d260808361036e565b606435906001600160801b03821682036102e357565b602435906001600160801b03821682036102e357565b60ff8116036102e357565b60609060031901126102e3576040519061074282610333565b816004356001600160801b03811681036102e35781526024356001600160781b03811681036102e357602082015260406044359161077f8361071e565b0152565b9181601f840112156102e3578235916001600160401b0383116102e357602083818601950101116102e357565b346102e35760c03660031901126102e3576107ca36610729565b6107d26106f2565b906084356001600160401b0381116102e3576107f2903690600401610783565b92906107fc6104b4565b6001600160801b03831642116108945761088a9461085f61085a61088395335f52600e60205261083560405f205460018060801b031690565b335f908152600560205260409020805492919061085184612215565b9055338a6124e2565b612649565b9161087861086c826115c7565b54600160fe1b16151590565b1561088c57926126ca565b339061281b565b005b505f926126ca565b63d1b5191160e01b5f52604860045260245ffd5b346102e3575f3660031901126102e3576020600254604051908152f35b346102e35760403660031901126102e3576108de61049e565b6108e6610708565b6109056109016108f5336115c7565b54600160fa1b16151590565b1590565b610ae0577fff4f1caf741747da03068e051490a9f142dac5b961014b67ce28f5465061a68f61041a92610936612a23565b6001610a41604051602081019061096081610952338886612223565b03601f19810183528261036e565b519020610a1e600d5496848060801b038816155f14610aac5761099e6109995f995b60808b901b6001600160801b038c16175b90612b1c565b600d55565b6009546109bd906109b8906001600160801b038416610993565b600955565b6109f2336109d3855f52600f60205260405f2090565b80546001600160a01b0319166001600160a01b03909216919091179055565b6109938886610a09865f52600f60205260405f2090565b01549260801b6001600160801b039091161790565b83610a31835f52600f60205260405f2090565b01555f52600f60205260405f2090565b015490610a8f6001600160801b0385165b600954600d54604080516001600160a01b0390961686526020860196909652948401919091526060830152608082019290925290819060a0820190565b0390a16040516001600160801b0390911681529081906020820190565b61099e610999610ada610abf8b60801c90565b60095460808a901b8a900390811691811690861602046135fe565b99610982565b63d1b5191160e01b5f52604760045260245ffd5b346102e3575f3660031901126102e357610b0f600854612bf7565b15610d9b57600c54610bc890602090610b3e90610b32906001600160a01b031681565b6001600160a01b031690565b6007546001600160a01b031690610b90610b8b610b86610b81610b713360018060a01b03165f52600e60205260405f2090565b5460801c6001600160781b031690565b61223d565b612255565b6122b0565b604051630a09391d60e11b81523060048201526001600160a01b03909316602484015260448301529092839190829081906064820190565b03915afa908115610d96575f91610d67575b5015610d5357335f908152600e602052604090206001600160801b0390610c09905b546001600160801b031690565b1615610d3f57335f908152600e602052604090207fed6a74b410387b51432c864b8acdae396c38c662efa18b7a42f83487ff229595906105a090610c7390610c5090610bfc565b335f908152600e6020526040902054610c6d9060f81c5b60ff1690565b906122eb565b335f908152600e60205260409020610cbd908054610ca09084906001600160801b031661231e565b61231e565b81546001600160801b0319166001600160801b0391909116179055565b335f908152600e60205260409020610d0c908054610ce69060801c6001600160781b0316612337565b8154600160801b600160f81b03191660809190911b600160801b600160f81b0316179055565b610d1f6001600160801b03821633612c0a565b604080516001600160801b03909216825233602083015290918291820190565b63d1b5191160e01b5f52604560045260245ffd5b63d1b5191160e01b5f52604460045260245ffd5b610d89915060203d602011610d8f575b610d81818361036e565b8101906122cb565b5f610bda565b503d610d77565b6122e0565b63d1b5191160e01b5f52603d60045260245ffd5b346102e35760603660031901126102e357610dc861049e565b610dd06104ca565b6001600160a01b0382165f818152600460209081526040808320338452909152902054604435939192919060018101610e82575b506001600160a01b03165f9081526003602052604090205f5160206137935f395f51905f5291610e73915b610e3a868254612367565b90556001600160a01b0381165f9081526003602052604090208054860190556040519485526001600160a01b0316939081906020820190565b0390a360405160018152602090f35b91848303928311610ee057610e2f610e73925f5160206137935f395f51905f5294610ed633610ec18460018060a01b03165f52600460205260405f2090565b9060018060a01b03165f5260205260405f2090565b5592505091610e04565b612201565b346102e35760203660031901126102e357610efe61049e565b5f60408051610f0c81610333565b828152826020820152015260018060a01b03165f52600e60205261041a60405f2060405190610f3a82610333565b546001600160801b0381168083526001600160781b03608083901c8116602080860191825260f89490941c60409586019081528551938452905190911692820192909252905160ff16918101919091529081906060820190565b346102e35760403660031901126102e3576004356024356001600160401b0381116102e357610fc7903690600401610783565b9190610fd4600854612bf7565b15610d9b57600a5461101c90610ff7906001600160801b0385169060801c6123c6565b600a80546001600160801b031660809290921b6001600160801b031916919091179055565b600a5464746a52880060809190911c1161110b576007547fcf0848d99e9b2ad96811072e657199bc9567c2cc9b614097727a852b27f5358d9361106f92909184906001600160a01b031630903390612ef3565b5f9061107d600a5460801c90565b6001600160801b0381166428bed0160081116110c457505090506110a08161229a565b906110ab8233612c0a565b60408051918252602082019290925290819081016105a0565b644bab827200106110eb575090506110db81612284565b906110e68233612c0a565b6110ab565b64746a528800906001600160801b0316116110ab5790506110db8161226e565b63d1b5191160e01b5f52604660045260245ffd5b346102e35760203660031901126102e35761113861049e565b335f52600b602052600160ff1b60405f205416156111a157600c80546001600160a01b0319166001600160a01b039290921691821790556040519081527f5497e30355b3c259b1bd1d2577607edc2872c70543f17f29bcab333caf74c3159080602081016105a0565b63d1b5191160e01b5f52603e60045260245ffd5b346102e3575f3660031901126102e357602060405160ff7f0000000000000000000000000000000000000000000000000000000000000000168152f35b346102e3575f3660031901126102e357602061120c6123df565b604051908152f35b346102e35760403660031901126102e35761122d61049e565b6024359061123a826104f6565b335f52600b602052600160ff1b60405f205416156105a5576001600160a01b0381165f908152600b60205260409020545f5160206137735f395f51905f529261056e9161342a565b346102e35760403660031901126102e35761129b61049e565b602435906112a8826104f6565b335f52600b602052600160fd1b60405f205416156112f0576001600160a01b0381165f908152600b60205260409020545f5160206137735f395f51905f529261056e9161344b565b63d1b5191160e01b5f52604160045260245ffd5b346102e35760403660031901126102e35761131d61049e565b6024359061132a826104f6565b335f52600b602052600160ff1b60405f205416156111a1576001600160a01b0381165f908152600b60205260409020545f5160206137735f395f51905f529261056e9161346a565b346102e35760403660031901126102e35761138b61049e565b60243590611398826104f6565b335f52600b602052600160ff1b60405f205416156111a1576001600160a01b0381165f908152600b60205260409020545f5160206137735f395f51905f529261056e9161348b565b346102e35760203660031901126102e357600435335f52600360205260405f20908154818103908111610ee0575f925580600254036002556040519081525f5160206137935f395f51905f5260203392a3005b346102e35760203660031901126102e35761144c61049e565b611457600854612bf7565b15610d9b57335f52600b602052600160fe1b60405f205416156115325761152f816114e16114bf6114ae6114a26114a2610bfc5f9860018060a01b03165f52600e60205260405f2090565b6001600160401b031690565b600a546001600160801b03166123c6565b600a80546001600160801b0319166001600160801b0392909216919091179055565b6040516001600160a01b03821681527fee1c541a26a2ceb2a600bf578887002fd1bdbbc7fb67e2b4c4bce896eac8a36f90602090a16001600160a01b03165f908152600e6020526040902090565b55005b63d1b5191160e01b5f52603f60045260245ffd5b346102e3575f3660031901126102e357600a546040516001600160801b039091168152602090f35b346102e35760e03660031901126102e35761158836610729565b6115906104e0565b608435916001600160801b03831683036102e35760a4356001600160801b03811681036102e35760209361120c9360c435936124e2565b6001600160a01b03165f908152600b6020526040902090565b346102e35760203660031901126102e3576001600160a01b0361160161049e565b165f52600b602052602060405f2054604051908152f35b346102e3575f3660031901126102e3576020600854604051908152f35b346102e3575f3660031901126102e357335f52600b602052600160ff1b60405f205416156111a1576006805460ff60a01b19169055005b346102e35760203660031901126102e3576001600160a01b0361168d61049e565b165f526003602052602060405f2054604051908152f35b346102e35760403660031901126102e3577f0b5e322b4b5330962013e8d6519462c133d50320ee476828060995c1acadef626116de61049e565b6116e66104ca565b90335f52600b602052600160fa1b60405f205416151580611768575b80611752575b61171c575b6105a060405192839283612223565b61174382611729836115c7565b546001600160a01b0319166001600160a01b039091161790565b61174c826115c7565b5561170d565b506001600160a01b038181169083161415611708565b506001600160a01b0361178a61177d836115c7565b546001600160a01b031690565b1615611702565b346102e35760403660031901126102e3576117aa61049e565b6117b2610708565b6117c16109016108f5336115c7565b610ae0577fff4f1caf741747da03068e051490a9f142dac5b961014b67ce28f5465061a68f916117ef612a23565b604051602081019061180681610952338686612223565b5190209161183861182c6001611824865f52600f60205260405f2090565b015460801c90565b6001600160801b031690565b6001600160801b0382161061194e57506105a0610a526118656001611824865f52600f60205260405f2090565b93600161192961190b82611881855f52600f60205260405f2090565b015480986118a561189a875f52600f60205260405f2090565b60015f918281550155565b6118eb6109b86118b7600d5460801c90565b600954906118e5906118d890869060801b6001600160801b0385161761357d565b946001600160801b031690565b906134cb565b600d54610c9b9061099990608084901b6001600160801b038616176118e5565b92828060801b0384168061193e575b505f52600f60205260405f2090565b01549460801b6001600160801b039091161790565b6119489088612c0a565b5f61191a565b91610a5281600161192961190b61197c88846119756105a0995f52600f60205260405f2090565b01546134ac565b80986119ab85611994885f52600f60205260405f2090565b0154608083901b6001600160801b038516176118e5565b856119be885f52600f60205260405f2090565b01556118a5565b346102e35760203660031901126102e3576001600160a01b036119e661049e565b165f526005602052602060405f2054604051908152f35b346102e3575f3660031901126102e3576020600d54604051908152f35b346102e3575f3660031901126102e3576040515f600154611a3a816102e7565b808452906001811690811561047a5750600114611a615761041a8361040e8185038261036e565b60015f9081527fb10e2d527612073b26eecdfd717e6a320cf44b4afac2b0732d9fcbe2b7fa0cf6939250905b808210611aa55750909150810160200161040e6103fe565b919260018160209254838588010152019101909291611a8d565b346102e35760403660031901126102e357611ad861049e565b60243590335f52600360205260405f20805490838203918211610ee0575560018060a01b031690815f52600360205260405f208181540190555f5160206137935f395f51905f5260405180610e733394829190602083019252565b346102e35760203660031901126102e3576001600160a01b03611b5461049e565b165f52600b602052602060018060a01b0360405f205416604051908152f35b346102e35760203660031901126102e3576004356127108111611c0157335f52600b602052611bae61090160405f2054600160fe1b16151590565b61153257600854611bcc9161ffff1663ffffffff1990911601600855565b6008546040519081527f23a413df5b1fc0945373ace790cb8288a224212397d5bfc6e2a9b82a4396bbc49080602081016105a0565b63d1b5191160e01b5f52604260045260245ffd5b346102e35760803660031901126102e357611c2f36610729565b611c376104e0565b611c42600854612bf7565b15610d9b57600a5482516001600160801b03918216911611611c8957335f52600b602052611c7c61090160405f2054600160fe1b16151590565b6115325761088a9161281b565b63d1b5191160e01b5f52604360045260245ffd5b346102e3575f3660031901126102e3576020600954604051908152f35b346102e35760e03660031901126102e357611cd361049e565b611cdb6104ca565b6044359060205f608435606435611cf18261071e565b611dfa60a4359160c43590611d0842821015612584565b610952611dd08b8b611da78c610952611d1f6123df565b6001600160a01b0386165f90815260056020526040902090989080549060018201905560405195602094879586019889919260a093969594919660c08401977f6e71edae12b1b97f4d1f60370fef10105fa2faae0126114a169c64845d6126c98552600180871b03166020850152600180861b03166040840152606083015260808201520152565b5190206040519283918b83019586909160429261190160f01b8352600283015260228201520190565b51902092604051948594859094939260ff6060936080840197845216602083015260408201520152565b838052039060015afa15610d9657611e8b8183611e6c7f8c5be1e5ebec7d5bd14f71427d1e84f3dd0314c0f7b2291e5b200ac8c7c3b92594610ec15f51611e5360018060a01b0382168015159081611e90575b506125ca565b6001600160a01b03165f90815260046020526040902090565b556040519384526001600160a01b039081169416929081906020820190565b0390a3005b6001600160a01b038d161490505f611e4d565b346102e35760403660031901126102e357611ebc61049e565b60243590611ec9826104f6565b335f52600b602052600160fe1b60405f205416156105a5576001600160a01b0381165f908152600b60205260409020545f5160206137735f395f51905f529261056e9161359b565b346102e35760403660031901126102e357611f2a61049e565b60243590611f37826104f6565b335f908152600b6020526040902054600160ff1b1615611f915761056e5f5160206137735f395f51905f5292611f78611f6f336115c7565b548215906135bc565b611f81336115c7565b55611f8b836115c7565b546135bc565b63d1b5191160e01b5f52603e60045260245ffd5b346102e35760403660031901126102e3576020611ff3611fc361049e565b611fcb6104ca565b6001600160a01b039182165f9081526004855260408082209290931681526020919091522090565b54604051908152f35b346102e3575f3660031901126102e3576020600a5460801c604051908152f35b346102e35760403660031901126102e35761203561049e565b60243590612042826104f6565b335f52600b602052600160fc1b60405f2054161561208a576001600160a01b0381165f908152600b60205260409020545f5160206137735f395f51905f529261056e916135dd565b63d1b5191160e01b5f52600160045260245ffd5b346102e35760403660031901126102e3576004356120ba6104ca565b6120c5600854612bf7565b15610d9b57335f52600b602052600160fe1b60405f205416156105a5576007546001600160a01b03165f19810161211b57505f80806121069481945af11590565b61210c57005b633607a14f60e11b5f5260045ffd5b60405163a9059cbb60e01b81526001600160a01b03909216600483015260248201929092526020905f9060449082855af19081601f3d1160015f5114161516612176575b501561216757005b633c9fd93960e21b5f5260045ffd5b3b153d171590505f61215f565b346102e35760203660031901126102e3576004355f60206040516121a681610353565b82815201525f52600f60205261041a60405f206001604051916121c883610353565b818060a01b038154168352015460208201526040519182918281516001600160a01b031681526020918201519181019190915260400190565b634e487b7160e01b5f52601160045260245ffd5b5f198114610ee05760010190565b6001600160a01b0391821681529116602082015260400190565b6001600160781b031660ff8111610ee0576001901b90565b908160801b91808304600160801b1490151715610ee057565b908160041b9180830460101490151715610ee057565b90601482029180830460141490151715610ee057565b90601882029180830460181490151715610ee057565b9060148201809211610ee057565b91908201809211610ee057565b908160209103126102e357516103c4816104f6565b6040513d5f823e3d90fd5b6001600160801b0390911690811561230a576001600160801b03160490565b634e487b7160e01b5f52601260045260245ffd5b6001600160801b039182169082160391908211610ee057565b6001600160781b0390811660010191908211610ee057565b65b5e620f48000039065b5e620f480008211610ee057565b91908203918211610ee057565b9060405161238181610333565b91546001600160801b0381168352608081901c6001600160781b0316602084015260f81c6040830152565b6001600160801b03908116620151800191908211610ee057565b6001600160801b039182169082160191908211610ee057565b467f00000000000000000000000000000000000000000000000000000000000000000361242a577f000000000000000000000000000000000000000000000000000000000000000090565b604051905f915f549061243c826102e7565b8082526020820192600181169081156124c75750600114612471575b50612469816103c49495038261036e565b519020613727565b5f8080529094507f290decd9548b62a8d60345a988386fc84ba6bc95484008f6362f93160ef3e5635b8582106124b1575081016020019350612469612458565b600181602092548385870101520191019061249a565b60ff1916845250151560051b81016020019350612469612458565b805160408083015160209384015182517f2d6f2462798f043c326ee6ec02c17cbc47b3cd9a1a4c5b8ac68ccf4cfd6f4ea49581019586526001600160801b039485169381019390935260ff9190911660608301526001600160781b031660808201526001600160a01b0390931660a084015292831660c08301529190921660e08301526101008083019390935291815261257e6101208261036e565b51902090565b1561258b57565b60405162461bcd60e51b815260206004820152601760248201527614115493525517d11150511312539157d1561412549151604a1b6044820152606490fd5b156125d157565b60405162461bcd60e51b815260206004820152600e60248201526d24a72b20a624a22fa9a4a3a722a960911b6044820152606490fd5b901561262157600160fd1b905b6001600760fd1b03161790565b5f90612614565b901561264257600160f81b905b600160ff60f81b03161790565b5f90612635565b61095261257e6126576123df565b92604051928391602083019586909160429261190160f01b8352600283015260228201520190565b91908260409103126102e3576020823592013590565b60ff601b9116019060ff8211610ee057565b90604010156126b65760400190565b634e487b7160e01b5f52603260045260245ffd5b906041810361278357906020926127358361270d6127076126f96126f15f9888018861267f565b9490976126a7565b356001600160f81b03191690565b60f81c90565b935b604051948594859094939260ff6060936080840197845216602083015260408201520152565b838052039060015afa15610d96575f516001600160a01b0316908115612774576001600160a01b03160361276557565b632057875960e21b5f5260045ffd5b638baa579f60e01b5f5260045ffd5b90604082036127c9576020926127a0825f9461273594019061267f565b9092906001600160ff1b038116906127c3906127be9060ff1c610c67565b612695565b9361270f565b634be6321b60e01b5f5260045ffd5b8151602083015160409093015160f81b6001600160f81b031916600160801b600160f81b0360809490941b939093166001600160801b0390911617919091179055565b7f68e68b059416c2836fd602f01cc46a42a185922f060ff76722815bac324071299161286a6114bf6128596114a26114a2865160018060801b031690565b600a546001600160801b031661231e565b6001600160a01b0381165f908152600e602052604090206001600160801b039061289390610bfc565b16612936576001600160a01b0381165f908152600e602052604090206128ba9083906127d8565b8151612931906001600160801b031660208401519093906128ea906040906001600160781b031692015160ff1690565b604080516001600160a01b0390951685526001600160801b0390951660208501526001600160781b039091169383019390935260ff90921660608201529081906080820190565b0390a1565b6001600160a01b0381165f908152600e60205260409020612a069061295a90612374565b835161298a9061297d906001600160801b031683516001600160801b03166123c6565b6001600160801b03168252565b6129b96040820161299c815160ff1690565b604087015160ff1660ff811660ff831610612a1a575060ff169052565b60208181018051918601516129ea926001600160781b039081169116808210612a0b57506001600160781b03169052565b6001600160a01b0383165f908152600e602052604090206127d8565b6128ba565b6001600160781b031690915250565b905060ff169052565b600954612a38612a338260801c90565b6123ac565b426001600160801b0390911610612a4c5750565b612a60906109b8906102a360871b90612b1c565b612a6e61182c60025461234f565b620f42406001600160801b0382161015612b005750612aaf610999620f42405b610993612aa9600d54926008549061ffff6127109216020490565b60801b90565b7f640eaa6ba71a4f457fdf8b26b0a8a0a6096d6d2bf731d07d47717534847ce55d612931612af0612ae260095460801c90565b600d54608091821b911c1790565b6040519081529081906020820190565b612aaf906109999061474a6001600160801b0390911604612a8e565b608082811c9082901c818101936001600160801b03908116931683810193918510159283612bec575b5082612be1575b5081612bd6575b5080612bc6575b80612bb6575b15612b71576103c49160801b6122be565b60405162461bcd60e51b815260206004820152601b60248201527f54545377617055494e543235363a20616464206f766572666c6f7700000000006044820152606490fd5b506001600160801b038210612b60565b506001600160801b038110612b5a565b90508110155f612b53565b83101591505f612b4c565b85101592505f612b45565b60ff1c600103612c0657600190565b5f90565b60025490828201809211610ee05760205f5160206137935f395f51905f52915f9360025560018060a01b0316938484526003825260408420818154019055604051908152a3565b6020818303126102e3578035906001600160401b0382116102e35701906040828203126102e35760405191612c8583610353565b8035612c908161071e565b83526020810135906001600160401b0382116102e3570181601f820112156102e3578035906001600160401b03821161034e5760405192612cdb601f8401601f19166020018561036e565b828452602083830101116102e357815f9260208093018386013783010152602082015290565b908160c09103126102e3576040519060c08201908282106001600160401b0383111761034e5760a0916040528051835260208101516020840152604081015160408401526060810151612d538161071e565b606084015260808101516080840152015160a082015290565b929190604051936020850152604084015260ff60f81b166060830152604182526106d260618361036e565b9092612def6101009360406103c49796612dc48682516020809160018060a01b0381511684520151910152565b60208181015187840152910151606086015281516001600160a01b03166080860152015160a0840152565b6001600160a01b031660c082015260e08101829052019061038f565b60406103c494936101009360018060a01b0316835265ffffffffffff6060825160018060a01b03815116602087015260018060a01b036020820151168587015282858201511682870152015116608084015260018060a01b0360208201511660a0840152015160c08201528160e0820152019061038f565b908160a09103126102e3576040519060a08201908282106001600160401b0383111761034e5760809160405280518352602081015160208401526040810151612ecb8161071e565b6040840152606081015160608401520151608082015290565b908160209103126102e3575190565b949293919290919060016001600160a01b03871603612f1a57505050506106d291506136dd565b80612f2a5750506106d29361367b565b90612f3791810190612c51565b60ff612f44825160ff1690565b166002810361312557506020612f6591015160208082518301019101612e83565b6001600160a01b03851690736b175474e89094c44da98b954eedeac495271d0f820361309f57604051623f675f60e91b81526001600160a01b038416600482015291602090839060249082905afa908115610d96576130495f939284938491613070575b50610952602084015193612fe1604082015160ff1690565b60608201516080909201516040516323f2ebc360e21b60208201526001600160a01b038b16602482015230604482015260648101959095526084850196909652600160a485015260ff1660c484015260e4830152610104820193909352918290610124820190565b60208151910182885af115613061576106d29361367b565b63203aa5b560e11b5f5260045ffd5b613092915060203d602011613098575b61308a818361036e565b810190612ee4565b5f612fc9565b503d613080565b5f9150806131208392516109526020840151936130c0604082015160ff1690565b606082015160809092015160405163d505accf60e01b60208201526001600160a01b038b1660248201523060448201526064810195909552608485019690965260ff1660a484015260c483015260e4820193909352918290610104820190565b613049565b9194939091600381036131c1575061313d9150613662565b926e22d473030f116ddee9f6b43ac78ba33b156102e357604051631b63c28b60e11b81526001600160a01b03918216600482015291811660248301529283166044820152911660648201525f81608481836e22d473030f116ddee9f6b43ac78ba35af18015610d96576131ad5750565b806131bb5f6106d29361036e565b806102d9565b6004810361331057509060206131e291015160208082518301019101612d01565b906132976131f08351613662565b9261324a613207604083015165ffffffffffff1690565b61322f6132126106e3565b6001600160a01b038a168152966001600160a01b03166020880152565b65ffffffffffff604087015265ffffffffffff166060860152565b60208101516132576106d4565b9485523060208601526040850152608081015190613291613281606060a084015193015160ff1690565b60f81b6001600160f81b03191690565b91612d6c565b916e22d473030f116ddee9f6b43ac78ba33b156102e3576040516302b67b5760e41b8152925f91849182916132d191908a60048501612e0b565b0381836e22d473030f116ddee9f6b43ac78ba35af1918215610d965761313d926132fc575b50613662565b806131bb5f61330a9361036e565b5f6132f6565b60051461331f575b5050505050565b61333960206133b693015160208082518301019101612d01565b9081516133566133476106c3565b6001600160a01b039097168752565b6020860152604082015160208301519061336e6106d4565b968752602087015260408601526133956133866106c3565b6001600160a01b039095168552565b6020840152608081015190613291613281606060a084015193015160ff1690565b916e22d473030f116ddee9f6b43ac78ba33b156102e3576133ed5f93604051958694859463187945bd60e11b865260048601612d97565b0381836e22d473030f116ddee9f6b43ac78ba35af18015610d9657613416575b80808080613318565b806131bb5f6134249361036e565b5f61340d565b901561344457600160fe1b905b6001600360fe1b03161790565b5f90613437565b901561346357600160a01b905b600160a01b19161790565b5f90613458565b901561348457600160f91b905b6001607f60f91b03161790565b5f90613477565b90156134a557600160fc1b905b6001600f60fc1b03161790565b5f90613498565b6103c491608082901c6001600160801b039182169190921602046135fe565b608082811c9082901c818103936001600160801b039081169316838103938286111593929184613572575b84613567575b50508261355c575b505015613517576103c49160801b6122be565b60405162461bcd60e51b815260206004820152601b60248201527f54545377617055494e543235363a20737562206f766572666c6f7700000000006044820152606490fd5b101590505f80613504565b101592505f806134fc565b8086111594506134f6565b6103c4916001600160801b0380831660809390931c911602046135fe565b90156135b557600160fa1b905b6001603f60fa1b03161790565b5f906135a8565b90156135d657600160ff1b905b6001600160ff1b03161790565b5f906135c9565b90156135f757600160fb1b905b6001601f60fb1b03161790565b5f906135ea565b6001600160801b038116919082900361361357565b60405162461bcd60e51b815260206004820152602160248201527f54545377617055494e543235363a20746f55696e74313238206f766572666c6f6044820152607760f81b6064820152608490fd5b6001600160a01b0381169081036136765790565b505f90565b6040516323b872dd60e01b81526001600160a01b03928316600482015292909116602483015260448201929092526020905f9060649082855af19081601f3d1160015f51141615166136d0575b501561216757565b3b153d171590505f6136c8565b5f5160206137b35f395f51905f525c8111613713575f5160206137b35f395f51905f525c035f5160206137b35f395f51905f525d565b63d1b5191160e01b5f52601e60045260245ffd5b60405160208101917f8b73c3c69bb8fe3d512ecc4cf759cc79239f7b179b0ffacaa9a75d522b39400f835260408201524660608201523060808201526080815261257e60a08261036e56fed29227266ff631bd0acd395a156663b79afd9702bfc8010f0ab7207965d88f7fddf252ad1be2c89b69c2b068fc378daa952ba7f163c4a11628f55a4df523b3efcbe27d488af5b5c1b0bd8d89be6fdfeaed3ad42719044fd9b728f33df1d6f1d1a2646970667358221220754f29d89d48080da7c8791b8ce4d173ca8985268ed5cd0f9fb4e8f3f4e055fd64736f6c634300081d0033290decd9548b62a8d60345a988386fc84ba6bc95484008f6362f93160ef3e563","linkReferences":{}},"methodIdentifiers":{"DOMAIN_SEPARATOR()":"3644e515","addShare((uint128,uint120,uint8),address)":"baf02f1b","allowance(address,address)":"dd62ed3e","approve(address,uint256)":"095ea7b3","balanceOf(address)":"70a08231","burn(uint256)":"42966c68","burnShare(address)":"44d91d9a","decimals()":"313ce567","disableUpgrade()":"67fc9138","getreferral(address)":"a985901a","left_share()":"45fda707","name()":"06fdde03","nonces(address)":"7ecebe00","permit(address,address,uint256,uint256,uint8,bytes32,bytes32)":"d505accf","permitShare((uint128,uint120,uint8),uint128,bytes,address)":"0f7f0658","poolstate()":"845fcee4","publicSell(uint256,bytes)":"297f24bf","publicsell()":"de5712d4","setBan(address,bool)":"3e3b61f4","setCallMintTTS(address,bool)":"d8048a46","setDAOAdmin(address,bool)":"dd4fff3a","setEnv(address)":"2ff908cc","setMarketAdmin(address,bool)":"40a6bc17","setMarketManager(address,bool)":"de5d5803","setRatio(uint256)":"b2237ba3","setReferral(address,address)":"7543e3f0","setStakeAdmin(address,bool)":"3e6b1fe4","setStakeManager(address,bool)":"08b8d7f0","setTokenAdmin(address,bool)":"3789f8d1","setTokenManager(address,bool)":"087425db","shareHash((uint128,uint120,uint8),address,uint128,uint128,uint256)":"47340467","shareMint()":"1aab145d","stake(address,uint128)":"19f8d5b4","stakeproofinfo(uint256)":"ff428a95","stakestate()":"cae97640","symbol()":"95d89b41","totalSupply()":"18160ddd","transfer(address,uint256)":"a9059cbb","transferFrom(address,address,uint256)":"23b872dd","ttstokenconfig()":"623059a5","unstake(address,uint128)":"7bd3ca35","userConfig(address)":"5f35b0b3","usershares(address)":"28d617fc","withdrawPublicSell(uint256,address)":"e7b43e7d"},"id":47}