{"abi":[{"type":"constructor","inputs":[{"name":"_usdt","type":"address","internalType":"address"}],"stateMutability":"nonpayable"},{"type":"function","name":"DOMAIN_SEPARATOR","inputs":[],"outputs":[{"name":"","type":"bytes32","internalType":"bytes32"}],"stateMutability":"view"},{"type":"function","name":"addShare","inputs":[{"name":"_share","type":"tuple","internalType":"struct s_share","components":[{"name":"leftamount","type":"uint128","internalType":"uint128"},{"name":"metric","type":"uint120","internalType":"uint120"},{"name":"chips","type":"uint8","internalType":"uint8"}]},{"name":"owner","type":"address","internalType":"address"}],"outputs":[],"stateMutability":"nonpayable"},{"type":"function","name":"allowance","inputs":[{"name":"","type":"address","internalType":"address"},{"name":"","type":"address","internalType":"address"}],"outputs":[{"name":"","type":"uint256","internalType":"uint256"}],"stateMutability":"view"},{"type":"function","name":"approve","inputs":[{"name":"spender","type":"address","internalType":"address"},{"name":"amount","type":"uint256","internalType":"uint256"}],"outputs":[{"name":"","type":"bool","internalType":"bool"}],"stateMutability":"nonpayable"},{"type":"function","name":"balanceOf","inputs":[{"name":"","type":"address","internalType":"address"}],"outputs":[{"name":"","type":"uint256","internalType":"uint256"}],"stateMutability":"view"},{"type":"function","name":"burn","inputs":[{"name":"value","type":"uint256","internalType":"uint256"}],"outputs":[],"stateMutability":"nonpayable"},{"type":"function","name":"burn","inputs":[{"name":"from","type":"address","internalType":"address"},{"name":"amount","type":"uint256","internalType":"uint256"}],"outputs":[],"stateMutability":"nonpayable"},{"type":"function","name":"burnShare","inputs":[{"name":"owner","type":"address","internalType":"address"}],"outputs":[],"stateMutability":"nonpayable"},{"type":"function","name":"decimals","inputs":[],"outputs":[{"name":"","type":"uint8","internalType":"uint8"}],"stateMutability":"view"},{"type":"function","name":"disableUpgrade","inputs":[],"outputs":[],"stateMutability":"nonpayable"},{"type":"function","name":"getreferral","inputs":[{"name":"_customer","type":"address","internalType":"address"}],"outputs":[{"name":"","type":"address","internalType":"address"}],"stateMutability":"view"},{"type":"function","name":"left_share","inputs":[],"outputs":[{"name":"","type":"uint128","internalType":"uint128"}],"stateMutability":"view"},{"type":"function","name":"mint","inputs":[{"name":"to","type":"address","internalType":"address"},{"name":"amount","type":"uint256","internalType":"uint256"}],"outputs":[],"stateMutability":"nonpayable"},{"type":"function","name":"name","inputs":[],"outputs":[{"name":"","type":"string","internalType":"string"}],"stateMutability":"view"},{"type":"function","name":"nonces","inputs":[{"name":"","type":"address","internalType":"address"}],"outputs":[{"name":"","type":"uint256","internalType":"uint256"}],"stateMutability":"view"},{"type":"function","name":"permit","inputs":[{"name":"owner","type":"address","internalType":"address"},{"name":"spender","type":"address","internalType":"address"},{"name":"value","type":"uint256","internalType":"uint256"},{"name":"deadline","type":"uint256","internalType":"uint256"},{"name":"v","type":"uint8","internalType":"uint8"},{"name":"r","type":"bytes32","internalType":"bytes32"},{"name":"s","type":"bytes32","internalType":"bytes32"}],"outputs":[],"stateMutability":"nonpayable"},{"type":"function","name":"permitShare","inputs":[{"name":"_share","type":"tuple","internalType":"struct s_share","components":[{"name":"leftamount","type":"uint128","internalType":"uint128"},{"name":"metric","type":"uint120","internalType":"uint120"},{"name":"chips","type":"uint8","internalType":"uint8"}]},{"name":"dealline","type":"uint128","internalType":"uint128"},{"name":"signature","type":"bytes","internalType":"bytes"},{"name":"signer","type":"address","internalType":"address"}],"outputs":[],"stateMutability":"nonpayable"},{"type":"function","name":"poolstate","inputs":[],"outputs":[{"name":"","type":"uint256","internalType":"uint256"}],"stateMutability":"view"},{"type":"function","name":"publicSell","inputs":[{"name":"usdtamount","type":"uint256","internalType":"uint256"},{"name":"data","type":"bytes","internalType":"bytes"}],"outputs":[],"stateMutability":"nonpayable"},{"type":"function","name":"publicsell","inputs":[],"outputs":[{"name":"","type":"uint128","internalType":"uint128"}],"stateMutability":"view"},{"type":"function","name":"setBan","inputs":[{"name":"_recipient","type":"address","internalType":"address"},{"name":"result","type":"bool","internalType":"bool"}],"outputs":[],"stateMutability":"nonpayable"},{"type":"function","name":"setCallMintTTS","inputs":[{"name":"_recipient","type":"address","internalType":"address"},{"name":"result","type":"bool","internalType":"bool"}],"outputs":[],"stateMutability":"nonpayable"},{"type":"function","name":"setDAOAdmin","inputs":[{"name":"_recipient","type":"address","internalType":"address"},{"name":"result","type":"bool","internalType":"bool"}],"outputs":[],"stateMutability":"nonpayable"},{"type":"function","name":"setEnv","inputs":[{"name":"_marketcontract","type":"address","internalType":"address"}],"outputs":[],"stateMutability":"nonpayable"},{"type":"function","name":"setMarketAdmin","inputs":[{"name":"_recipient","type":"address","internalType":"address"},{"name":"result","type":"bool","internalType":"bool"}],"outputs":[],"stateMutability":"nonpayable"},{"type":"function","name":"setMarketManager","inputs":[{"name":"_recipient","type":"address","internalType":"address"},{"name":"result","type":"bool","internalType":"bool"}],"outputs":[],"stateMutability":"nonpayable"},{"type":"function","name":"setRatio","inputs":[{"name":"_ratio","type":"uint256","internalType":"uint256"}],"outputs":[],"stateMutability":"nonpayable"},{"type":"function","name":"setReferral","inputs":[{"name":"user","type":"address","internalType":"address"},{"name":"referral","type":"address","internalType":"address"}],"outputs":[],"stateMutability":"nonpayable"},{"type":"function","name":"setStakeAdmin","inputs":[{"name":"_recipient","type":"address","internalType":"address"},{"name":"result","type":"bool","internalType":"bool"}],"outputs":[],"stateMutability":"nonpayable"},{"type":"function","name":"setStakeManager","inputs":[{"name":"_recipient","type":"address","internalType":"address"},{"name":"result","type":"bool","internalType":"bool"}],"outputs":[],"stateMutability":"nonpayable"},{"type":"function","name":"setTokenAdmin","inputs":[{"name":"_recipient","type":"address","internalType":"address"},{"name":"result","type":"bool","internalType":"bool"}],"outputs":[],"stateMutability":"nonpayable"},{"type":"function","name":"setTokenManager","inputs":[{"name":"_recipient","type":"address","internalType":"address"},{"name":"result","type":"bool","internalType":"bool"}],"outputs":[],"stateMutability":"nonpayable"},{"type":"function","name":"shareHash","inputs":[{"name":"_share","type":"tuple","internalType":"struct s_share","components":[{"name":"leftamount","type":"uint128","internalType":"uint128"},{"name":"metric","type":"uint120","internalType":"uint120"},{"name":"chips","type":"uint8","internalType":"uint8"}]},{"name":"owner","type":"address","internalType":"address"},{"name":"leftamount","type":"uint128","internalType":"uint128"},{"name":"deadline","type":"uint128","internalType":"uint128"},{"name":"nonce","type":"uint256","internalType":"uint256"}],"outputs":[{"name":"","type":"bytes32","internalType":"bytes32"}],"stateMutability":"pure"},{"type":"function","name":"shareMint","inputs":[],"outputs":[],"stateMutability":"nonpayable"},{"type":"function","name":"stake","inputs":[{"name":"_staker","type":"address","internalType":"address"},{"name":"proofvalue","type":"uint128","internalType":"uint128"}],"outputs":[{"name":"netconstruct","type":"uint128","internalType":"uint128"}],"stateMutability":"nonpayable"},{"type":"function","name":"stakeproofinfo","inputs":[{"name":"index","type":"uint256","internalType":"uint256"}],"outputs":[{"name":"","type":"tuple","internalType":"struct s_proof","components":[{"name":"fromcontract","type":"address","internalType":"address"},{"name":"proofstate","type":"uint256","internalType":"uint256"}]}],"stateMutability":"view"},{"type":"function","name":"stakestate","inputs":[],"outputs":[{"name":"","type":"uint256","internalType":"uint256"}],"stateMutability":"view"},{"type":"function","name":"symbol","inputs":[],"outputs":[{"name":"","type":"string","internalType":"string"}],"stateMutability":"view"},{"type":"function","name":"totalSupply","inputs":[],"outputs":[{"name":"","type":"uint256","internalType":"uint256"}],"stateMutability":"view"},{"type":"function","name":"transfer","inputs":[{"name":"to","type":"address","internalType":"address"},{"name":"amount","type":"uint256","internalType":"uint256"}],"outputs":[{"name":"","type":"bool","internalType":"bool"}],"stateMutability":"nonpayable"},{"type":"function","name":"transferFrom","inputs":[{"name":"from","type":"address","internalType":"address"},{"name":"to","type":"address","internalType":"address"},{"name":"amount","type":"uint256","internalType":"uint256"}],"outputs":[{"name":"","type":"bool","internalType":"bool"}],"stateMutability":"nonpayable"},{"type":"function","name":"ttstokenconfig","inputs":[],"outputs":[{"name":"","type":"uint256","internalType":"uint256"}],"stateMutability":"view"},{"type":"function","name":"unstake","inputs":[{"name":"_staker","type":"address","internalType":"address"},{"name":"proofvalue","type":"uint128","internalType":"uint128"}],"outputs":[],"stateMutability":"nonpayable"},{"type":"function","name":"userConfig","inputs":[{"name":"","type":"address","internalType":"address"}],"outputs":[{"name":"","type":"uint256","internalType":"uint256"}],"stateMutability":"view"},{"type":"function","name":"usershares","inputs":[{"name":"user","type":"address","internalType":"address"}],"outputs":[{"name":"","type":"tuple","internalType":"struct s_share","components":[{"name":"leftamount","type":"uint128","internalType":"uint128"},{"name":"metric","type":"uint120","internalType":"uint120"},{"name":"chips","type":"uint8","internalType":"uint8"}]}],"stateMutability":"view"},{"type":"function","name":"withdrawPublicSell","inputs":[{"name":"amount","type":"uint256","internalType":"uint256"},{"name":"recipient","type":"address","internalType":"address"}],"outputs":[],"stateMutability":"nonpayable"},{"type":"event","name":"Approval","inputs":[{"name":"owner","type":"address","indexed":true,"internalType":"address"},{"name":"spender","type":"address","indexed":true,"internalType":"address"},{"name":"amount","type":"uint256","indexed":false,"internalType":"uint256"}],"anonymous":false},{"type":"event","name":"Transfer","inputs":[{"name":"from","type":"address","indexed":true,"internalType":"address"},{"name":"to","type":"address","indexed":true,"internalType":"address"},{"name":"amount","type":"uint256","indexed":false,"internalType":"uint256"}],"anonymous":false},{"type":"event","name":"e_addShare","inputs":[{"name":"recipient","type":"address","indexed":false,"internalType":"address"},{"name":"leftamount","type":"uint128","indexed":false,"internalType":"uint128"},{"name":"metric","type":"uint120","indexed":false,"internalType":"uint120"},{"name":"chips","type":"uint8","indexed":false,"internalType":"uint8"}],"anonymous":false},{"type":"event","name":"e_addreferral","inputs":[{"name":"user","type":"address","indexed":false,"internalType":"address"},{"name":"referal","type":"address","indexed":false,"internalType":"address"}],"anonymous":false},{"type":"event","name":"e_burnShare","inputs":[{"name":"owner","type":"address","indexed":false,"internalType":"address"}],"anonymous":false},{"type":"event","name":"e_publicsell","inputs":[{"name":"usdtamount","type":"uint256","indexed":false,"internalType":"uint256"},{"name":"ttsamount","type":"uint256","indexed":false,"internalType":"uint256"}],"anonymous":false},{"type":"event","name":"e_setenv","inputs":[{"name":"marketcontract","type":"address","indexed":false,"internalType":"address"}],"anonymous":false},{"type":"event","name":"e_shareMint","inputs":[{"name":"mintamount","type":"uint128","indexed":false,"internalType":"uint128"},{"name":"owner","type":"address","indexed":false,"internalType":"address"}],"anonymous":false},{"type":"event","name":"e_stakeinfo","inputs":[{"name":"recipient","type":"address","indexed":false,"internalType":"address"},{"name":"proofvalue","type":"uint256","indexed":false,"internalType":"uint256"},{"name":"unstakestate","type":"uint256","indexed":false,"internalType":"uint256"},{"name":"stakestate","type":"uint256","indexed":false,"internalType":"uint256"},{"name":"poolstate","type":"uint256","indexed":false,"internalType":"uint256"}],"anonymous":false},{"type":"event","name":"e_syncChainStake","inputs":[{"name":"chain","type":"uint32","indexed":false,"internalType":"uint32"},{"name":"poolasset","type":"uint128","indexed":false,"internalType":"uint128"},{"name":"proofstate","type":"uint256","indexed":false,"internalType":"uint256"}],"anonymous":false},{"type":"event","name":"e_updateUserConfig","inputs":[{"name":"user","type":"address","indexed":false,"internalType":"address"},{"name":"config","type":"uint256","indexed":false,"internalType":"uint256"}],"anonymous":false},{"type":"event","name":"e_updatepool","inputs":[{"name":"poolstate","type":"uint256","indexed":false,"internalType":"uint256"}],"anonymous":false},{"type":"event","name":"e_updatettsconfig","inputs":[{"name":"ttsconfig","type":"uint256","indexed":false,"internalType":"uint256"}],"anonymous":false},{"type":"error","name":"ERC20PermitFailed","inputs":[]},{"type":"error","name":"ERC20TransferFailed","inputs":[]},{"type":"error","name":"InvalidSignature","inputs":[]},{"type":"error","name":"InvalidSignatureLength","inputs":[]},{"type":"error","name":"InvalidSigner","inputs":[]},{"type":"error","name":"NativeETHTransferFailed","inputs":[]},{"type":"error","name":"TTSwapError","inputs":[{"name":"seq","type":"uint256","internalType":"uint256"}]},{"type":"error","name":"TTSwapUINT256AddOverflow","inputs":[]},{"type":"error","name":"TTSwapUINT256SubOverflow","inputs":[]},{"type":"error","name":"TTSwapUINT256ToUint128Overflow","inputs":[]}],"bytecode":{"object":"0x610100806040523461044557602081613d5380380380916100208285610449565b83398101031261044557516001600160a01b0381168103610445576040519061004a604083610449565b600c82526b2a2a29bbb0b8102a37b5b2b760a11b602083015260405190610072604083610449565b600382526254545360e81b602083015282516001600160401b038111610359575f54600181811c9116801561043b575b602082101461033b57601f81116103d9575b506020601f821160011461037857819293945f9261036d575b50508160011b915f199060031b1c1916175f555b81516001600160401b03811161035957600154600181811c9116801561034f575b602082101461033b57601f81116102d8575b50602092601f821160011461027757928192935f9261026c575b50508160011b915f199060031b1c1916176001555b600c6080524660a05260405161015a604082610449565b600c81526b2a2a29bbb0b82faa37b5b2b760a11b602090910152604080517ff6d9e661b4a86e42f3b88128e120c6649c4858445774b6518d4fe2c589ff63d5916101a49082610449565b600681526020810190650312e31362e360d41b82525190206040519060208201927f8b73c3c69bb8fe3d512ecc4cf759cc79239f7b179b0ffacaa9a75d522b39400f8452604083015260608201524660808201523060a082015260a0815261020d60c082610449565b51902060c052600a80546001600160801b031916680270801d946c94000017905560e0526040516138e6908161046d823960805181611223015260a05181505060c05181505060e051818181610b51015281816110a001526121930152f35b015190505f8061012e565b601f1982169360015f52805f20915f5b8681106102c057508360019596106102a8575b505050811b01600155610143565b01515f1960f88460031b161c191690555f808061029a565b91926020600181928685015181550194019201610287565b60015f527fb10e2d527612073b26eecdfd717e6a320cf44b4afac2b0732d9fcbe2b7fa0cf6601f830160051c81019160208410610331575b601f0160051c01905b8181106103265750610114565b5f8155600101610319565b9091508190610310565b634e487b7160e01b5f52602260045260245ffd5b90607f1690610102565b634e487b7160e01b5f52604160045260245ffd5b015190505f806100cd565b601f198216905f8052805f20915f5b8181106103c1575095836001959697106103a9575b505050811b015f556100e1565b01515f1960f88460031b161c191690555f808061039c565b9192602060018192868b015181550194019201610387565b5f80527f290decd9548b62a8d60345a988386fc84ba6bc95484008f6362f93160ef3e563601f830160051c81019160208410610431575b601f0160051c01905b81811061042657506100b4565b5f8155600101610419565b9091508190610410565b90607f16906100a2565b5f80fd5b601f909101601f19168101906001600160401b038211908210176103595760405256fe60806040526004361015610011575f80fd5b5f3560e01c806306fdde03146102f4578063087425db146102ef57806308b8d7f0146102ea578063095ea7b3146102e55780630f7f0658146102e057806318160ddd146102db57806319f8d5b4146102d65780631aab145d146102d157806323b872dd146102cc57806328d617fc146102c7578063297f24bf146102c25780632ff908cc146102bd578063313ce567146102b85780633644e515146102b35780633789f8d1146102ae5780633e3b61f4146102a95780633e6b1fe4146102a457806340a6bc171461029f57806340c10f191461029a57806342966c681461029557806344d91d9a1461029057806345fda7071461028b57806347340467146102865780635f35b0b314610281578063623059a51461027c57806367fc91381461027757806370a08231146102725780637543e3f01461026d5780637bd3ca35146102685780637ecebe0014610263578063845fcee41461025e57806395d89b41146102595780639dc29fac14610254578063a9059cbb1461024f578063a985901a1461024a578063b2237ba314610245578063baf02f1b14610240578063cae976401461023b578063d505accf14610236578063d8048a4614610231578063dd4fff3a1461022c578063dd62ed3e14610227578063de5712d414610222578063de5d58031461021d578063e7b43e7d146102185763ff428a9514610213575f80fd5b612250565b61214d565b6120cb565b6120ab565b612054565b611fe6565b611f78565b611d8f565b611d72565b611cea565b611c34565b611bf4565b611b80565b611b33565b611a7e565b611a61565b611a29565b6117d0565b6116e7565b6116af565b61167b565b61165e565b611626565b6115b4565b61158c565b61149f565b611482565b611435565b6113c7565b611359565b6112d7565b611269565b611247565b61120a565b611174565b610fd9565b610f2a565b610df4565b610af3565b6108c6565b6108a9565b6107b1565b61063c565b6105ba565b610501565b6103af565b5f91031261030357565b5f80fd5b634e487b7160e01b5f52604160045260245ffd5b606081019081106001600160401b0382111761033657604052565b610307565b604081019081106001600160401b0382111761033657604052565b90601f801991011681019081106001600160401b0382111761033657604052565b805180835260209291819084018484015e5f828201840152601f01601f1916010190565b9060206103ac928181520190610377565b90565b34610303575f366003190112610303576040515f5f548060011c9060018116908115610495575b6020831082146104815782855260208501919081156104685750600114610418575b6104148461040881860382610356565b6040519182918261039b565b0390f35b5f8080529250907f290decd9548b62a8d60345a988386fc84ba6bc95484008f6362f93160ef3e5635b81841061045457505001610408826103f8565b805484840152602090930192600101610441565b60ff191682525090151560051b019050610408826103f8565b634e487b7160e01b5f52602260045260245ffd5b91607f16916103d6565b600435906001600160a01b038216820361030357565b60a435906001600160a01b038216820361030357565b602435906001600160a01b038216820361030357565b606435906001600160a01b038216820361030357565b8015150361030357565b346103035760403660031901126103035761051a61049f565b60243590610527826104f7565b335f52600b602052600160fe1b60405f205416156105a6576001600160a01b0381165f908152600b60205260409020545f5160206138515f395f51905f529261056f916125dd565b6105788261160d565b556105828161160d565b54604080516001600160a01b0390931683526020830191909152819081015b0390a1005b63d1b5191160e01b5f52603f60045260245ffd5b34610303576040366003190112610303576105d361049f565b602435906105e0826104f7565b335f52600b602052600160f91b60405f20541615610628576001600160a01b0381165f908152600b60205260409020545f5160206138515f395f51905f529261056f916125fe565b63d1b5191160e01b5f52604060045260245ffd5b346103035760403660031901126103035761065561049f565b60243590335f5260046020528161067f8260405f209060018060a01b03165f5260205260405f2090565b556040519182526001600160a01b03169033907f8c5be1e5ebec7d5bd14f71427d1e84f3dd0314c0f7b2291e5b200ac8c7c3b92590602090a360405160018152602090f35b604051906106d3606083610356565b565b604051906106d3604083610356565b604051906106d3608083610356565b606435906001600160801b038216820361030357565b602435906001600160801b038216820361030357565b60ff81160361030357565b606090600319011261030357604051906107438261031b565b816004356001600160801b03811681036103035781526024356001600160781b03811681036103035760208201526040604435916107808361071f565b0152565b9181601f84011215610303578235916001600160401b038311610303576020838186019501011161030357565b346103035760c0366003190112610303576107cb3661072a565b6107d36106f3565b906084356001600160401b038111610303576107f3903690600401610784565b92906107fd6104b5565b6001600160801b03831642116108955761088b9461086061085b61088495335f52600e60205261083660405f205460018060801b031690565b335f9081526005602052604090208054929190610852846122e2565b9055338a6124b8565b61261f565b9161087961086d8261160d565b54600160fe1b16151590565b1561088d57926126a0565b3390612804565b005b505f926126a0565b63d1b5191160e01b5f52604860045260245ffd5b34610303575f366003190112610303576020600254604051908152f35b34610303576040366003190112610303576108df61049f565b6108e7610709565b6109066109026108f63361160d565b54600160fa1b16151590565b1590565b610adf577fff4f1caf741747da03068e051490a9f142dac5b961014b67ce28f5465061a68f61041492610937612ab5565b6001610a426040516020810190610961816109533388866122f0565b03601f198101835282610356565b519020610a1f600d5496848060801b038816155f14610aad5761099f61099a5f995b60808b901b6001600160801b038c16175b90612be6565b600d55565b6009546109be906109b9906001600160801b038416610994565b600955565b6109f3336109d4855f52600f60205260405f2090565b80546001600160a01b0319166001600160a01b03909216919091179055565b6109948886610a0a865f52600f60205260405f2090565b01549260801b6001600160801b039091161790565b83610a32835f52600f60205260405f2090565b01555f52600f60205260405f2090565b015490610a906001600160801b0385165b600954600d54604080516001600160a01b0390961686526020860196909652948401919091526060830152608082019290925290819060a0820190565b0390a16040516001600160801b0390911681529081906020820190565b61099f61099a610ad9610ac08b60801c90565b60095460808a901b8a9003908116918682169116612bd3565b99610983565b63d1b5191160e01b5f52604760045260245ffd5b34610303575f36600319011261030357610b0e600754612c60565b15610de057610c126020610b38610b236106c4565b6001815230818401525b5f6040820152612c73565b610b7a610b436106c4565b600181526001600160a01b037f00000000000000000000000000000000000000000000000000000000000000001681850152610b2d565b600c54610b9d90610b91906001600160a01b031681565b6001600160a01b031690565b90610be3610bde610bd9610bd4610bc43360018060a01b03165f52600e60205260405f2090565b5460801c6001600160781b031690565b61230a565b612322565b61238d565b926040519586948593849363a7fed92560e01b8552600485016040919493926060820195825260208201520152565b03915afa908115610ddb575f91610dac575b5015610d9857335f908152600e602052604090206001600160801b0390610c53905b546001600160801b031690565b1615610d8457335f908152600e602052604090207fed6a74b410387b51432c864b8acdae396c38c662efa18b7a42f83487ff229595906105a190610cbd90610c9a90610c46565b335f908152600e6020526040902054610cb79060f81c5b60ff1690565b906123be565b335f908152600e60205260409020610d02908054610ce59084906001600160801b03166123f1565b81546001600160801b0319166001600160801b0391909116179055565b335f908152600e60205260409020610d51908054610d2b9060801c6001600160781b031661240a565b8154600160801b600160f81b03191660809190911b600160801b600160f81b0316179055565b610d646001600160801b03821633612cad565b604080516001600160801b03909216825233602083015290918291820190565b63d1b5191160e01b5f52604560045260245ffd5b63d1b5191160e01b5f52604460045260245ffd5b610dce915060203d602011610dd4575b610dc68183610356565b81019061239e565b5f610c24565b503d610dbc565b6123b3565b63d1b5191160e01b5f52603d60045260245ffd5b3461030357606036600319011261030357610e0d61049f565b610e156104cb565b6001600160a01b0382165f818152600460209081526040808320338452909152902054604435939192919060018101610ec7575b506001600160a01b03165f9081526003602052604090205f5160206138715f395f51905f5291610eb8915b610e7f868254612440565b90556001600160a01b0381165f9081526003602052604090208054860190556040519485526001600160a01b0316939081906020820190565b0390a360405160018152602090f35b91848303928311610f2557610e74610eb8925f5160206138715f395f51905f5294610f1b33610f068460018060a01b03165f52600460205260405f2090565b9060018060a01b03165f5260205260405f2090565b5592505091610e49565b6122ce565b3461030357602036600319011261030357610f4361049f565b5f60408051610f518161031b565b828152826020820152015260018060a01b03165f52600e60205261041460405f2060405190610f7f8261031b565b546001600160801b0381168083526001600160781b03608083901c8116602080860191825260f89490941c60409586019081528551938452905190911692820192909252905160ff16918101919091529081906060820190565b34610303576040366003190112610303576004356024356001600160401b0381116103035761100c903690600401610784565b9190611019600754612c60565b15610de057600a546110619061103c906001600160801b0385169060801c61249f565b600a80546001600160801b031660809290921b6001600160801b031916919091179055565b600a54643a3529440060809190911c11611160577fcf0848d99e9b2ad96811072e657199bc9567c2cc9b614097727a852b27f5358d926110c4918333337f0000000000000000000000000000000000000000000000000000000000000000612cf4565b5f906110d2600a5460801c90565b6001600160801b03811664145f680b00811161111957505090506110f581612371565b906111008233612cad565b60408051918252602082019290925290819081016105a1565b6425d5c13900106111405750905061113081612355565b9061113b8233612cad565b611100565b643a35294400906001600160801b0316116111005790506111308161233b565b63d1b5191160e01b5f52604660045260245ffd5b346103035760203660031901126103035761118d61049f565b335f52600b602052600160ff1b60405f205416156111f657600c80546001600160a01b0319166001600160a01b039290921691821790556040519081527f5497e30355b3c259b1bd1d2577607edc2872c70543f17f29bcab333caf74c3159080602081016105a1565b63d1b5191160e01b5f52603e60045260245ffd5b34610303575f36600319011261030357602060405160ff7f0000000000000000000000000000000000000000000000000000000000000000168152f35b34610303575f366003190112610303576020611261613274565b604051908152f35b346103035760403660031901126103035761128261049f565b6024359061128f826104f7565b335f52600b602052600160ff1b60405f205416156105a6576001600160a01b0381165f908152600b60205260409020545f5160206138515f395f51905f529261056f91613317565b34610303576040366003190112610303576112f061049f565b602435906112fd826104f7565b335f52600b602052600160fd1b60405f20541615611345576001600160a01b0381165f908152600b60205260409020545f5160206138515f395f51905f529261056f91613338565b63d1b5191160e01b5f52604160045260245ffd5b346103035760403660031901126103035761137261049f565b6024359061137f826104f7565b335f52600b602052600160ff1b60405f205416156111f6576001600160a01b0381165f908152600b60205260409020545f5160206138515f395f51905f529261056f91613357565b34610303576040366003190112610303576113e061049f565b602435906113ed826104f7565b335f52600b602052600160ff1b60405f205416156111f6576001600160a01b0381165f908152600b60205260409020545f5160206138515f395f51905f529261056f91613378565b346103035760403660031901126103035761144e61049f565b60243561145c600754612c60565b15610de057335f52600b602052600160ff1b60405f205416156111f65761088b91612cad565b346103035760203660031901126103035761088b60043533613399565b34610303576020366003190112610303576114b861049f565b6114c3600754612c60565b15610de057335f52600b602052600160fe1b60405f205416156105a6576115898161153b611519611508610c465f9660018060a01b03165f52600e60205260405f2090565b600a546001600160801b031661249f565b600a80546001600160801b0319166001600160801b0392909216919091179055565b6040516001600160a01b03821681527fee1c541a26a2ceb2a600bf578887002fd1bdbbc7fb67e2b4c4bce896eac8a36f90602090a16001600160a01b03165f908152600e6020526040902090565b55005b34610303575f36600319011261030357600a546040516001600160801b039091168152602090f35b346103035760e0366003190112610303576115ce3661072a565b6115d66104e1565b608435916001600160801b03831683036103035760a4356001600160801b0381168103610303576020936112619360c435936124b8565b6001600160a01b03165f908152600b6020526040902090565b34610303576020366003190112610303576001600160a01b0361164761049f565b165f52600b602052602060405f2054604051908152f35b34610303575f366003190112610303576020600754604051908152f35b34610303575f36600319011261030357335f52600b602052600160ff1b60405f205416156111f6576008805460ff19169055005b34610303576020366003190112610303576001600160a01b036116d061049f565b165f526003602052602060405f2054604051908152f35b346103035760403660031901126103035761170061049f565b6117086104cb565b335f52600b602052600160fa1b60405f2054161515806117a7575b80611791575b61172f57005b816117788261175e7f0b5e322b4b5330962013e8d6519462c133d50320ee476828060995c1acadef629561160d565b546001600160a01b0319166001600160a01b039091161790565b6117818261160d565b556105a1604051928392836122f0565b506001600160a01b038281169082161415611729565b506001600160a01b036117c96117bc8461160d565b546001600160a01b031690565b1615611723565b34610303576040366003190112610303576117e961049f565b6117f1610709565b6118006109026108f63361160d565b610adf577fff4f1caf741747da03068e051490a9f142dac5b961014b67ce28f5465061a68f9161182e612ab5565b6040516020810190611845816109533386866122f0565b5190209161187761186b6001611863865f52600f60205260405f2090565b015460801c90565b6001600160801b031690565b6001600160801b038216106119b857506105a1610a536118a46001611863865f52600f60205260405f2090565b9360016118b9825f52600f60205260405f2090565b0154946118dc6118d1835f52600f60205260405f2090565b60015f918281550155565b6119226109b96118ee600d5460801c90565b6009549061191c9061190f90869060801b6001600160801b03851617613446565b946001600160801b031690565b906133fe565b600d546119429061099a90608084901b6001600160801b038a161761191c565b856001600160801b0380821690831611156119aa57611966611985916001936123f1565b925b828060801b0384168061199a575b505f52600f60205260405f2090565b01549460801b6001600160801b039091161790565b6119a49088612cad565b5f611976565b505060016119855f92611968565b91610a53816119df8560016119d86105a1965f52600f60205260405f2090565b01546133e2565b94611a0e60016119f7845f52600f60205260405f2090565b0154608083901b6001600160801b0389161761191c565b6001611a22845f52600f60205260405f2090565b01556118dc565b34610303576020366003190112610303576001600160a01b03611a4a61049f565b165f526005602052602060405f2054604051908152f35b34610303575f366003190112610303576020600d54604051908152f35b34610303575f366003190112610303576040515f6001548060011c9060018116908115611b29575b6020831082146104815782855260208501919081156104685750600114611ad7576104148461040881860382610356565b60015f9081529250907fb10e2d527612073b26eecdfd717e6a320cf44b4afac2b0732d9fcbe2b7fa0cf65b818410611b1557505001610408826103f8565b805484840152602090930192600101611b02565b91607f1691611aa6565b3461030357604036600319011261030357611b4c61049f565b602435611b5a600754612c60565b15610de057335f52600b602052600160ff1b60405f205416156111f65761088b91613399565b3461030357604036600319011261030357611b9961049f565b60243590335f52600360205260405f20805490838203918211610f25575560018060a01b031690815f52600360205260405f208181540190555f5160206138715f395f51905f5260405180610eb83394829190602083019252565b34610303576020366003190112610303576001600160a01b03611c1561049f565b165f52600b602052602060018060a01b0360405f205416604051908152f35b34610303576020366003190112610303576004356127108111611cd657335f52600b602052611c6f61090260405f2054600160fe1b16151590565b611cc257600754611c8d9161ffff1663ffffffff1990911601600755565b6007546040519081527f23a413df5b1fc0945373ace790cb8288a224212397d5bfc6e2a9b82a4396bbc49080602081016105a1565b63d1b5191160e01b5f52603f60045260245ffd5b63d1b5191160e01b5f52604260045260245ffd5b3461030357608036600319011261030357611d043661072a565b611d0c6104e1565b611d17600754612c60565b15610de057600a5482516001600160801b03918216911611611d5e57335f52600b602052611d5161090260405f2054600160fe1b16151590565b611cc25761088b91612804565b63d1b5191160e01b5f52604360045260245ffd5b34610303575f366003190112610303576020600954604051908152f35b346103035760e036600319011261030357611da861049f565b611db06104cb565b6044359060205f608435606435611dc68261071f565b611ecf60a4359160c43590611ddd4282101561255a565b610953611ea58b8b611e7c8c610953611df4613274565b6001600160a01b0386165f90815260056020526040902090989080549060018201905560405195602094879586019889919260a093969594919660c08401977f6e71edae12b1b97f4d1f60370fef10105fa2faae0126114a169c64845d6126c98552600180871b03166020850152600180861b03166040840152606083015260808201520152565b5190206040519283918b83019586909160429261190160f01b8352600283015260228201520190565b51902092604051948594859094939260ff6060936080840197845216602083015260408201520152565b838052039060015afa15610ddb57611f608183611f417f8c5be1e5ebec7d5bd14f71427d1e84f3dd0314c0f7b2291e5b200ac8c7c3b92594610f065f51611f2860018060a01b0382168015159081611f65575b506125a0565b6001600160a01b03165f90815260046020526040902090565b556040519384526001600160a01b039081169416929081906020820190565b0390a3005b6001600160a01b038d161490505f611f22565b3461030357604036600319011261030357611f9161049f565b60243590611f9e826104f7565b335f52600b602052600160fe1b60405f205416156105a6576001600160a01b0381165f908152600b60205260409020545f5160206138515f395f51905f529261056f91613461565b3461030357604036600319011261030357611fff61049f565b6024359061200c826104f7565b335f52600b602052600160ff1b60405f205416156111f6576001600160a01b0381165f908152600b60205260409020545f5160206138515f395f51905f529261056f91613482565b346103035760403660031901126103035760206120a261207261049f565b61207a6104cb565b6001600160a01b039182165f9081526004855260408082209290931681526020919091522090565b54604051908152f35b34610303575f366003190112610303576020600a5460801c604051908152f35b34610303576040366003190112610303576120e461049f565b602435906120f1826104f7565b335f52600b602052600160fc1b60405f20541615612139576001600160a01b0381165f908152600b60205260409020545f5160206138515f395f51905f529261056f916134a3565b63d1b5191160e01b5f52600160045260245ffd5b34610303576040366003190112610303576004356121696104cb565b612174600754612c60565b15610de057335f52600b602052600160fe1b60405f205416156105a6577f000000000000000000000000000000000000000000000000000000000000000060016001600160a01b038216036121e857505f80806121d39481945af11590565b6121d957005b633607a14f60e11b5f5260045ffd5b60405163a9059cbb60e01b81526001600160a01b03909216600483015260248201929092526020905f9060449082855af19081601f3d1160015f5114161516612243575b501561223457005b633c9fd93960e21b5f5260045ffd5b3b153d171590505f61222c565b34610303576020366003190112610303576004355f60206040516122738161033b565b82815201525f52600f60205261041460405f206001604051916122958361033b565b818060a01b038154168352015460208201526040519182918281516001600160a01b031681526020918201519181019190915260400190565b634e487b7160e01b5f52601160045260245ffd5b5f198114610f255760010190565b6001600160a01b0391821681529116602082015260400190565b6001600160781b031660ff8111610f25576001901b90565b908160801b91808304600160801b1490151715610f2557565b9062f4240082029180830462f424001490151715610f2557565b906301312d008202918083046301312d001490151715610f2557565b9063017d784082029180830463017d78401490151715610f2557565b906301312d008201809211610f2557565b9081602091031261030357516103ac816104f7565b6040513d5f823e3d90fd5b6001600160801b039091169081156123dd576001600160801b03160490565b634e487b7160e01b5f52601260045260245ffd5b6001600160801b039182169082160391908211610f2557565b6001600160781b0390811660010191908211610f2557565b680ad78ebc5ac62000000390680ad78ebc5ac62000008211610f2557565b91908203918211610f2557565b9060405161245a8161031b565b91546001600160801b0381168352608081901c6001600160781b0316602084015260f81c6040830152565b6001600160801b03908116620151800191908211610f2557565b6001600160801b039182169082160191908211610f2557565b805160408083015160209384015182517f2d6f2462798f043c326ee6ec02c17cbc47b3cd9a1a4c5b8ac68ccf4cfd6f4ea49581019586526001600160801b039485169381019390935260ff9190911660608301526001600160781b031660808201526001600160a01b0390931660a084015292831660c08301529190921660e08301526101008083019390935291815261255461012082610356565b51902090565b1561256157565b60405162461bcd60e51b815260206004820152601760248201527614115493525517d11150511312539157d1561412549151604a1b6044820152606490fd5b156125a757565b60405162461bcd60e51b815260206004820152600e60248201526d24a72b20a624a22fa9a4a3a722a960911b6044820152606490fd5b90156125f757600160fd1b905b6001600760fd1b03161790565b5f906125ea565b901561261857600160f81b905b600160ff60f81b03161790565b5f9061260b565b61095361255461262d613274565b92604051928391602083019586909160429261190160f01b8352600283015260228201520190565b9190826040910312610303576020823592013590565b60ff601b9116019060ff8211610f2557565b906040101561268c5760400190565b634e487b7160e01b5f52603260045260245ffd5b9160418203612775576126da6126d46126c66126be85870187612655565b95909661267d565b356001600160f81b03191690565b60f81c90565b905b6fa2a8918ca85bafe22016d0b997e4df60600160ff1b038311612766576127275f93602095604051948594859094939260ff6060936080840197845216602083015260408201520152565b838052039060015afa15610ddb575f516001600160a01b0316908115612766576001600160a01b03160361275757565b632057875960e21b5f5260045ffd5b638baa579f60e01b5f5260045ffd5b91604082036127b25761278a91810190612655565b90916001600160ff1b038216916127ac906127a79060ff1c610cb1565b61266b565b906126dc565b634be6321b60e01b5f5260045ffd5b8151602083015160409093015160f81b6001600160f81b031916600160801b600160f81b0360809490941b939093166001600160801b0390911617919091179055565b604081019160ff612816845160ff1690565b1615612aa15781516001600160801b031615612a8d5760208201805190929060786001600160781b0390911611612a7957600a546001600160801b0316815190949061286a906001600160801b031661186b565b6001600160801b03861610612a655761293161292961291b846128c46115197f68e68b059416c2836fd602f01cc46a42a185922f060ff76722815bac324071299a6128be612978995160018060801b031690565b906123f1565b6001600160a01b0387165f908152600e602052604090206128e89061186b90610c46565b61297d576001600160a01b0387165f908152600e6020526040902061290e9082906127c1565b516001600160801b031690565b95516001600160781b031690565b915160ff1690565b604080516001600160a01b0390951685526001600160801b0390951660208501526001600160781b039091169383019390935260ff90921660608201529081906080820190565b0390a1565b6001600160a01b0387165f908152600e60205260409020612a48906129a19061244d565b82516129d1906129c4906001600160801b031683516001600160801b031661249f565b6001600160801b03168252565b6129fd604082016129e3815160ff1690565b895160ff1660ff811660ff831610612a5c575060ff169052565b6020810180518b51612a2c92916001600160781b039081169116808210612a4d57506001600160781b03169052565b6001600160a01b0389165f908152600e602052604090206127c1565b61290e565b6001600160781b031690915250565b905060ff169052565b63d1b5191160e01b5f52604360045260245ffd5b63d1b5191160e01b5f52604b60045260245ffd5b63d1b5191160e01b5f52604a60045260245ffd5b63d1b5191160e01b5f52604960045260245ffd5b600954612aca612ac58260801c90565b612485565b426001600160801b0390911610612ade5750565b6001600160801b03164260801b6001600160801b0319161760095560025480680ad78ebc5ac6200000115f14612bcc5761186b612b1a91612422565b64e8d4a510006001600160801b0382161015612bb05750612b5f61099a64e8d4a510005b610994612b59600d54926007549061ffff6127109216020490565b60801b90565b7f640eaa6ba71a4f457fdf8b26b0a8a0a6096d6d2bf731d07d47717534847ce55d612978612ba0612b9260095460801c90565b600d54608091821b911c1790565b6040519081529081906020820190565b612b5f9061099a9061474a6001600160801b0390911604612b3e565b505f612b1a565b91908115610303576103ac9202046134c4565b6001600160801b03818116908316810192608092831c921c8201918210908115612c56575b508015612c45575b8015612c34575b612c255760801b1790565b634ccdbb1b60e11b5f5260045ffd5b506002600160801b03821015612c1a565b506002600160801b03811015612c13565b905082105f612c0b565b60ff1c600103612c6f57600190565b5f90565b60208101516001600160a01b03169060018214612ca9575160ff16600114610b915763d1b5191160e01b5f52602a60045260245ffd5b5090565b60025490828201809211610f255760205f5160206138715f395f51905f52915f9360025560018060a01b0316938484526003825260408420818154019055604051908152a3565b919390926001600160801b0390612d0a906134c4565b169460016001600160a01b03841603612d4f575050506001600160a01b03908116911603612d3b576106d390613806565b63d1b5191160e01b5f52602760045260245ffd5b9394929380612d7c57509293919250906001600160a01b03808516911603612d3b576106d39230916137a4565b90612d89918101906134e8565b60ff612d96825160ff1690565b169460028603612f7e5750612dbc9192939450602001516020808251830101910161370b565b6001600160a01b03821690736b175474e89094c44da98b954eedeac495271d0f8203612ef857604051623f675f60e91b81526001600160a01b038616600482015291602090839060249082905afa908115610ddb57612ea05f939284938491612ec9575b50610953602084015193612e38604082015160ff1690565b60608201516080909201516040516323f2ebc360e21b60208201526001600160a01b038d16602482015230604482015260648101959095526084850196909652600160a485015260ff1660c484015260e4830152610104820193909352918290610124820190565b60208151910182855af115612eba576106d39230916137a4565b63203aa5b560e11b5f5260045ffd5b612eeb915060203d602011612ef1575b612ee38183610356565b81019061376c565b5f612e20565b503d612ed9565b5f915080612f79839251610953602084015193612f19604082015160ff1690565b606082015160809092015160405163d505accf60e01b60208201526001600160a01b038d1660248201523060448201526064810195909552608485019690965260ff1660a484015260c483015260e4820193909352918290610104820190565b612ea0565b91946003810361302b5750506001600160a01b03838116911603612d3b57612fa59061377b565b6e22d473030f116ddee9f6b43ac78ba33b1561030357604051631b63c28b60e11b81526001600160a01b0392831660048201523060248201529082166044820152911660648201525f8180608481015b0381836e22d473030f116ddee9f6b43ac78ba35af18015610ddb576130175750565b806130255f6106d393610356565b806102f9565b9091506004810361317c5750602061304e91015160208082518301019101613589565b9061310361305c835161377b565b926130b6613073604083015165ffffffffffff1690565b61309b61307e6106e4565b6001600160a01b038a168152966001600160a01b03166020880152565b65ffffffffffff604087015265ffffffffffff166060860152565b60208101516130c36106c4565b94855230602086015260408501526080810151906130fd6130ed606060a084015193015160ff1690565b60f81b6001600160f81b03191690565b916135f4565b916e22d473030f116ddee9f6b43ac78ba33b15610303576040516302b67b5760e41b8152925f918491829161313d91908860048501613693565b0381836e22d473030f116ddee9f6b43ac78ba35af1918215610ddb57612fa592613168575b5061377b565b806130255f61317693610356565b5f613162565b929392600503613245576131a0602061320e92015160208082518301019101613589565b80516131bc6131ad6106d5565b6001600160a01b039096168652565b602085015260408101516020820151906131d46106c4565b958652602086015260408501526131e96106d5565b3081529260208401526080810151906130fd6130ed606060a084015193015160ff1690565b916e22d473030f116ddee9f6b43ac78ba33b1561030357612ff55f93604051958694859463187945bd60e11b86526004860161361f565b63d1b5191160e01b5f52602a60045260245ffd5b6001600160401b03811161033657601f01601f191660200190565b6040600c602082516132868482610356565b828152016b2a2a29bbb0b82faa37b5b2b760a11b8152206125546006602084516132b08682610356565b828152650312e31362e360d41b91019081522083517f8b73c3c69bb8fe3d512ecc4cf759cc79239f7b179b0ffacaa9a75d522b39400f60208083019182526040830195909552948101909301524660808301523060a080840191909152825260c082610356565b901561333157600160fe1b905b6001600360fe1b03161790565b5f90613324565b901561335057600160a01b905b600160a01b19161790565b5f90613345565b901561337157600160f91b905b6001607f60f91b03161790565b5f90613364565b901561339257600160fc1b905b6001600f60fc1b03161790565b5f90613385565b6001600160a01b03165f818152600360205260409020805483810391908211610f25575f935f5160206138715f395f51905f5292602092558060025403600255604051908152a3565b6103ac91608082901c916001600160801b039182169116612bd3565b608081811c929081901c916001600160801b039182169116828410801561343d575b61342e5703910360801b1790565b631bcdfffb60e01b5f5260045ffd5b50818110613420565b6103ac916001600160801b038083169291169060801c612bd3565b901561347b57600160fa1b905b6001603f60fa1b03161790565b5f9061346e565b901561349c57600160ff1b905b6001600160ff1b03161790565b5f9061348f565b90156134bd57600160fb1b905b6001601f60fb1b03161790565b5f906134b0565b6001600160801b03811691908290036134d957565b6344b9f66960e01b5f5260045ffd5b602081830312610303578035906001600160401b038211610303570190604082820312610303576040519161351c8361033b565b80356135278161071f565b83526020810135906001600160401b038211610303570181601f820112156103035780359061355582613259565b926135636040519485610356565b8284526020838301011161030357815f9260208093018386013783010152602082015290565b908160c0910312610303576040519060c08201908282106001600160401b038311176103365760a09160405280518352602081015160208401526040810151604084015260608101516135db8161071f565b606084015260808101516080840152015160a082015290565b929190604051936020850152604084015260ff60f81b166060830152604182526106d3606183610356565b90926136776101009360406103ac979661364c8682516020809160018060a01b0381511684520151910152565b60208181015187840152910151606086015281516001600160a01b03166080860152015160a0840152565b6001600160a01b031660c082015260e081018290520190610377565b60406103ac94936101009360018060a01b0316835265ffffffffffff6060825160018060a01b03815116602087015260018060a01b036020820151168587015282858201511682870152015116608084015260018060a01b0360208201511660a0840152015160c08201528160e08201520190610377565b908160a0910312610303576040519060a08201908282106001600160401b0383111761033657608091604052805183526020810151602084015260408101516137538161071f565b6040840152606081015160608401520151608082015290565b90816020910312610303575190565b6001600160a01b038116908190036137905790565b63d1b5191160e01b5f52603460045260245ffd5b6040516323b872dd60e01b81526001600160a01b03928316600482015292909116602483015260448201929092526020905f9060649082855af19081601f3d1160015f51141615166137f9575b501561223457565b3b153d171590505f6137f1565b5f5160206138915f395f51905f525c811161383c575f5160206138915f395f51905f525c035f5160206138915f395f51905f525d565b63d1b5191160e01b5f52601e60045260245ffdfed29227266ff631bd0acd395a156663b79afd9702bfc8010f0ab7207965d88f7fddf252ad1be2c89b69c2b068fc378daa952ba7f163c4a11628f55a4df523b3efcbe27d488af5b5c1b0bd8d89be6fdfeaed3ad42719044fd9b728f33df1d6f1d1a2646970667358221220338dc5ef55685a2511340ca09e56a8ca6ec05d2b113aac808d2ed10fdfa2868c64736f6c634300081d0033","linkReferences":{}},"methodIdentifiers":{"DOMAIN_SEPARATOR()":"3644e515","addShare((uint128,uint120,uint8),address)":"baf02f1b","allowance(address,address)":"dd62ed3e","approve(address,uint256)":"095ea7b3","balanceOf(address)":"70a08231","burn(address,uint256)":"9dc29fac","burn(uint256)":"42966c68","burnShare(address)":"44d91d9a","decimals()":"313ce567","disableUpgrade()":"67fc9138","getreferral(address)":"a985901a","left_share()":"45fda707","mint(address,uint256)":"40c10f19","name()":"06fdde03","nonces(address)":"7ecebe00","permit(address,address,uint256,uint256,uint8,bytes32,bytes32)":"d505accf","permitShare((uint128,uint120,uint8),uint128,bytes,address)":"0f7f0658","poolstate()":"845fcee4","publicSell(uint256,bytes)":"297f24bf","publicsell()":"de5712d4","setBan(address,bool)":"3e3b61f4","setCallMintTTS(address,bool)":"d8048a46","setDAOAdmin(address,bool)":"dd4fff3a","setEnv(address)":"2ff908cc","setMarketAdmin(address,bool)":"40a6bc17","setMarketManager(address,bool)":"de5d5803","setRatio(uint256)":"b2237ba3","setReferral(address,address)":"7543e3f0","setStakeAdmin(address,bool)":"3e6b1fe4","setStakeManager(address,bool)":"08b8d7f0","setTokenAdmin(address,bool)":"3789f8d1","setTokenManager(address,bool)":"087425db","shareHash((uint128,uint120,uint8),address,uint128,uint128,uint256)":"47340467","shareMint()":"1aab145d","stake(address,uint128)":"19f8d5b4","stakeproofinfo(uint256)":"ff428a95","stakestate()":"cae97640","symbol()":"95d89b41","totalSupply()":"18160ddd","transfer(address,uint256)":"a9059cbb","transferFrom(address,address,uint256)":"23b872dd","ttstokenconfig()":"623059a5","unstake(address,uint128)":"7bd3ca35","userConfig(address)":"5f35b0b3","usershares(address)":"28d617fc","withdrawPublicSell(uint256,address)":"e7b43e7d"},"id":1}