{"abi":[{"type":"constructor","inputs":[],"stateMutability":"nonpayable"},{"type":"function","name":"DOMAIN_SEPARATOR","inputs":[],"outputs":[{"name":"","type":"bytes32","internalType":"bytes32"}],"stateMutability":"view"},{"type":"function","name":"addShare","inputs":[{"name":"_share","type":"tuple","internalType":"struct s_share","components":[{"name":"leftamount","type":"uint128","internalType":"uint128"},{"name":"metric","type":"uint120","internalType":"uint120"},{"name":"chips","type":"uint8","internalType":"uint8"}]},{"name":"owner","type":"address","internalType":"address"}],"outputs":[],"stateMutability":"nonpayable"},{"type":"function","name":"allowance","inputs":[{"name":"","type":"address","internalType":"address"},{"name":"","type":"address","internalType":"address"}],"outputs":[{"name":"","type":"uint256","internalType":"uint256"}],"stateMutability":"view"},{"type":"function","name":"approve","inputs":[{"name":"spender","type":"address","internalType":"address"},{"name":"amount","type":"uint256","internalType":"uint256"}],"outputs":[{"name":"","type":"bool","internalType":"bool"}],"stateMutability":"nonpayable"},{"type":"function","name":"balanceOf","inputs":[{"name":"","type":"address","internalType":"address"}],"outputs":[{"name":"","type":"uint256","internalType":"uint256"}],"stateMutability":"view"},{"type":"function","name":"burn","inputs":[{"name":"value","type":"uint256","internalType":"uint256"}],"outputs":[],"stateMutability":"nonpayable"},{"type":"function","name":"burn","inputs":[{"name":"from","type":"address","internalType":"address"},{"name":"amount","type":"uint256","internalType":"uint256"}],"outputs":[],"stateMutability":"nonpayable"},{"type":"function","name":"burnShare","inputs":[{"name":"owner","type":"address","internalType":"address"}],"outputs":[],"stateMutability":"nonpayable"},{"type":"function","name":"decimals","inputs":[],"outputs":[{"name":"","type":"uint8","internalType":"uint8"}],"stateMutability":"view"},{"type":"function","name":"disableUpgrade","inputs":[],"outputs":[],"stateMutability":"nonpayable"},{"type":"function","name":"getreferral","inputs":[{"name":"_customer","type":"address","internalType":"address"}],"outputs":[{"name":"","type":"address","internalType":"address"}],"stateMutability":"view"},{"type":"function","name":"left_share","inputs":[],"outputs":[{"name":"","type":"uint128","internalType":"uint128"}],"stateMutability":"view"},{"type":"function","name":"mint","inputs":[{"name":"to","type":"address","internalType":"address"},{"name":"amount","type":"uint256","internalType":"uint256"}],"outputs":[],"stateMutability":"nonpayable"},{"type":"function","name":"name","inputs":[],"outputs":[{"name":"","type":"string","internalType":"string"}],"stateMutability":"view"},{"type":"function","name":"nonces","inputs":[{"name":"","type":"address","internalType":"address"}],"outputs":[{"name":"","type":"uint256","internalType":"uint256"}],"stateMutability":"view"},{"type":"function","name":"permit","inputs":[{"name":"owner","type":"address","internalType":"address"},{"name":"spender","type":"address","internalType":"address"},{"name":"value","type":"uint256","internalType":"uint256"},{"name":"deadline","type":"uint256","internalType":"uint256"},{"name":"v","type":"uint8","internalType":"uint8"},{"name":"r","type":"bytes32","internalType":"bytes32"},{"name":"s","type":"bytes32","internalType":"bytes32"}],"outputs":[],"stateMutability":"nonpayable"},{"type":"function","name":"permitShare","inputs":[{"name":"_share","type":"tuple","internalType":"struct s_share","components":[{"name":"leftamount","type":"uint128","internalType":"uint128"},{"name":"metric","type":"uint120","internalType":"uint120"},{"name":"chips","type":"uint8","internalType":"uint8"}]},{"name":"dealline","type":"uint128","internalType":"uint128"},{"name":"signature","type":"bytes","internalType":"bytes"},{"name":"signer","type":"address","internalType":"address"}],"outputs":[],"stateMutability":"nonpayable"},{"type":"function","name":"poolstate","inputs":[],"outputs":[{"name":"","type":"uint256","internalType":"uint256"}],"stateMutability":"view"},{"type":"function","name":"publicSell","inputs":[{"name":"usdtamount","type":"uint256","internalType":"uint256"},{"name":"data","type":"bytes","internalType":"bytes"}],"outputs":[],"stateMutability":"nonpayable"},{"type":"function","name":"publicsell","inputs":[],"outputs":[{"name":"","type":"uint128","internalType":"uint128"}],"stateMutability":"view"},{"type":"function","name":"setBan","inputs":[{"name":"_recipient","type":"address","internalType":"address"},{"name":"result","type":"bool","internalType":"bool"}],"outputs":[],"stateMutability":"nonpayable"},{"type":"function","name":"setCallMintTTS","inputs":[{"name":"_recipient","type":"address","internalType":"address"},{"name":"result","type":"bool","internalType":"bool"}],"outputs":[],"stateMutability":"nonpayable"},{"type":"function","name":"setDAOAdmin","inputs":[{"name":"_recipient","type":"address","internalType":"address"},{"name":"result","type":"bool","internalType":"bool"}],"outputs":[],"stateMutability":"nonpayable"},{"type":"function","name":"setEnv","inputs":[{"name":"_marketcontract","type":"address","internalType":"address"}],"outputs":[],"stateMutability":"nonpayable"},{"type":"function","name":"setMarketAdmin","inputs":[{"name":"_recipient","type":"address","internalType":"address"},{"name":"result","type":"bool","internalType":"bool"}],"outputs":[],"stateMutability":"nonpayable"},{"type":"function","name":"setMarketManager","inputs":[{"name":"_recipient","type":"address","internalType":"address"},{"name":"result","type":"bool","internalType":"bool"}],"outputs":[],"stateMutability":"nonpayable"},{"type":"function","name":"setRatio","inputs":[{"name":"_ratio","type":"uint256","internalType":"uint256"}],"outputs":[],"stateMutability":"nonpayable"},{"type":"function","name":"setReferral","inputs":[{"name":"user","type":"address","internalType":"address"},{"name":"referral","type":"address","internalType":"address"}],"outputs":[],"stateMutability":"nonpayable"},{"type":"function","name":"setStakeAdmin","inputs":[{"name":"_recipient","type":"address","internalType":"address"},{"name":"result","type":"bool","internalType":"bool"}],"outputs":[],"stateMutability":"nonpayable"},{"type":"function","name":"setStakeManager","inputs":[{"name":"_recipient","type":"address","internalType":"address"},{"name":"result","type":"bool","internalType":"bool"}],"outputs":[],"stateMutability":"nonpayable"},{"type":"function","name":"setTokenAdmin","inputs":[{"name":"_recipient","type":"address","internalType":"address"},{"name":"result","type":"bool","internalType":"bool"}],"outputs":[],"stateMutability":"nonpayable"},{"type":"function","name":"setTokenManager","inputs":[{"name":"_recipient","type":"address","internalType":"address"},{"name":"result","type":"bool","internalType":"bool"}],"outputs":[],"stateMutability":"nonpayable"},{"type":"function","name":"shareHash","inputs":[{"name":"_share","type":"tuple","internalType":"struct s_share","components":[{"name":"leftamount","type":"uint128","internalType":"uint128"},{"name":"metric","type":"uint120","internalType":"uint120"},{"name":"chips","type":"uint8","internalType":"uint8"}]},{"name":"owner","type":"address","internalType":"address"},{"name":"leftamount","type":"uint128","internalType":"uint128"},{"name":"deadline","type":"uint128","internalType":"uint128"},{"name":"nonce","type":"uint256","internalType":"uint256"}],"outputs":[{"name":"","type":"bytes32","internalType":"bytes32"}],"stateMutability":"pure"},{"type":"function","name":"shareMint","inputs":[],"outputs":[],"stateMutability":"nonpayable"},{"type":"function","name":"stake","inputs":[{"name":"_staker","type":"address","internalType":"address"},{"name":"proofvalue","type":"uint128","internalType":"uint128"}],"outputs":[{"name":"netconstruct","type":"uint128","internalType":"uint128"}],"stateMutability":"nonpayable"},{"type":"function","name":"stakeproofinfo","inputs":[{"name":"index","type":"uint256","internalType":"uint256"}],"outputs":[{"name":"","type":"tuple","internalType":"struct s_proof","components":[{"name":"fromcontract","type":"address","internalType":"address"},{"name":"proofstate","type":"uint256","internalType":"uint256"}]}],"stateMutability":"view"},{"type":"function","name":"stakestate","inputs":[],"outputs":[{"name":"","type":"uint256","internalType":"uint256"}],"stateMutability":"view"},{"type":"function","name":"symbol","inputs":[],"outputs":[{"name":"","type":"string","internalType":"string"}],"stateMutability":"view"},{"type":"function","name":"totalSupply","inputs":[],"outputs":[{"name":"","type":"uint256","internalType":"uint256"}],"stateMutability":"view"},{"type":"function","name":"transfer","inputs":[{"name":"to","type":"address","internalType":"address"},{"name":"amount","type":"uint256","internalType":"uint256"}],"outputs":[{"name":"","type":"bool","internalType":"bool"}],"stateMutability":"nonpayable"},{"type":"function","name":"transferFrom","inputs":[{"name":"from","type":"address","internalType":"address"},{"name":"to","type":"address","internalType":"address"},{"name":"amount","type":"uint256","internalType":"uint256"}],"outputs":[{"name":"","type":"bool","internalType":"bool"}],"stateMutability":"nonpayable"},{"type":"function","name":"ttstokenconfig","inputs":[],"outputs":[{"name":"","type":"uint256","internalType":"uint256"}],"stateMutability":"view"},{"type":"function","name":"unstake","inputs":[{"name":"_staker","type":"address","internalType":"address"},{"name":"proofvalue","type":"uint128","internalType":"uint128"}],"outputs":[],"stateMutability":"nonpayable"},{"type":"function","name":"userConfig","inputs":[{"name":"","type":"address","internalType":"address"}],"outputs":[{"name":"","type":"uint256","internalType":"uint256"}],"stateMutability":"view"},{"type":"function","name":"usershares","inputs":[{"name":"user","type":"address","internalType":"address"}],"outputs":[{"name":"","type":"tuple","internalType":"struct s_share","components":[{"name":"leftamount","type":"uint128","internalType":"uint128"},{"name":"metric","type":"uint120","internalType":"uint120"},{"name":"chips","type":"uint8","internalType":"uint8"}]}],"stateMutability":"view"},{"type":"function","name":"withdrawPublicSell","inputs":[{"name":"amount","type":"uint256","internalType":"uint256"},{"name":"recipient","type":"address","internalType":"address"}],"outputs":[],"stateMutability":"nonpayable"},{"type":"event","name":"Approval","inputs":[{"name":"owner","type":"address","indexed":true,"internalType":"address"},{"name":"spender","type":"address","indexed":true,"internalType":"address"},{"name":"amount","type":"uint256","indexed":false,"internalType":"uint256"}],"anonymous":false},{"type":"event","name":"Transfer","inputs":[{"name":"from","type":"address","indexed":true,"internalType":"address"},{"name":"to","type":"address","indexed":true,"internalType":"address"},{"name":"amount","type":"uint256","indexed":false,"internalType":"uint256"}],"anonymous":false},{"type":"event","name":"e_addShare","inputs":[{"name":"recipient","type":"address","indexed":false,"internalType":"address"},{"name":"leftamount","type":"uint128","indexed":false,"internalType":"uint128"},{"name":"metric","type":"uint120","indexed":false,"internalType":"uint120"},{"name":"chips","type":"uint8","indexed":false,"internalType":"uint8"}],"anonymous":false},{"type":"event","name":"e_addreferral","inputs":[{"name":"user","type":"address","indexed":false,"internalType":"address"},{"name":"referal","type":"address","indexed":false,"internalType":"address"}],"anonymous":false},{"type":"event","name":"e_burnShare","inputs":[{"name":"owner","type":"address","indexed":false,"internalType":"address"}],"anonymous":false},{"type":"event","name":"e_publicsell","inputs":[{"name":"usdtamount","type":"uint256","indexed":false,"internalType":"uint256"},{"name":"ttsamount","type":"uint256","indexed":false,"internalType":"uint256"}],"anonymous":false},{"type":"event","name":"e_setenv","inputs":[{"name":"marketcontract","type":"address","indexed":false,"internalType":"address"}],"anonymous":false},{"type":"event","name":"e_shareMint","inputs":[{"name":"mintamount","type":"uint128","indexed":false,"internalType":"uint128"},{"name":"owner","type":"address","indexed":false,"internalType":"address"}],"anonymous":false},{"type":"event","name":"e_stakeinfo","inputs":[{"name":"recipient","type":"address","indexed":false,"internalType":"address"},{"name":"proofvalue","type":"uint256","indexed":false,"internalType":"uint256"},{"name":"unstakestate","type":"uint256","indexed":false,"internalType":"uint256"},{"name":"stakestate","type":"uint256","indexed":false,"internalType":"uint256"},{"name":"poolstate","type":"uint256","indexed":false,"internalType":"uint256"}],"anonymous":false},{"type":"event","name":"e_syncChainStake","inputs":[{"name":"chain","type":"uint32","indexed":false,"internalType":"uint32"},{"name":"poolasset","type":"uint128","indexed":false,"internalType":"uint128"},{"name":"proofstate","type":"uint256","indexed":false,"internalType":"uint256"}],"anonymous":false},{"type":"event","name":"e_updateUserConfig","inputs":[{"name":"user","type":"address","indexed":false,"internalType":"address"},{"name":"config","type":"uint256","indexed":false,"internalType":"uint256"}],"anonymous":false},{"type":"event","name":"e_updatepool","inputs":[{"name":"poolstate","type":"uint256","indexed":false,"internalType":"uint256"}],"anonymous":false},{"type":"event","name":"e_updatettsconfig","inputs":[{"name":"ttsconfig","type":"uint256","indexed":false,"internalType":"uint256"}],"anonymous":false},{"type":"error","name":"ERC20PermitFailed","inputs":[]},{"type":"error","name":"ERC20TransferFailed","inputs":[]},{"type":"error","name":"InvalidSignature","inputs":[]},{"type":"error","name":"InvalidSignatureLength","inputs":[]},{"type":"error","name":"InvalidSigner","inputs":[]},{"type":"error","name":"NativeETHTransferFailed","inputs":[]},{"type":"error","name":"TTSwapError","inputs":[{"name":"seq","type":"uint256","internalType":"uint256"}]}],"bytecode":{"object":"0x60e0604052346103cd576040516100176040826103d1565b600c81526b2a2a29bbb0b8102a37b5b2b760a11b602082015260405161003e6040826103d1565b600381526254545360e81b602082015281516001600160401b038111610300576100685f546103f4565b601f811161037e575b50602092601f821160011461031f57928192935f92610314575b50508160011b915f199060031b1c1916175f555b80516001600160401b038111610300576100ba6001546103f4565b601f811161029d575b50602091601f821160011461023d579181925f92610232575b50508160011b915f199060031b1c1916176001555b60066080524660a0526040515f905f54918161010c846103f4565b9182825260208201946001811690815f1461021657506001146101cc575b610136925003826103d1565b51902060405160208101917f8b73c3c69bb8fe3d512ecc4cf759cc79239f7b179b0ffacaa9a75d522b39400f835260408201524660608201523060808201526080815261018460a0826103d1565b51902060c052600a80546001600160801b0319166528ed6103d0001790556040516138ed908161042d8239608051816111d5015260a0518161242d015260c051816124530152f35b505f80805290915f516020613d1a5f395f51905f525b8183106101fa5750509060206101369282010161012a565b60209193508060019154838588010152019101909183926101e2565b60ff191686525061013692151560051b8201602001905061012a565b015190505f806100dc565b601f1982169260015f52805f20915f5b8581106102855750836001951061026d575b505050811b016001556100f1565b01515f1960f88460031b161c191690555f808061025f565b9192602060018192868501518155019401920161024d565b60015f527fb10e2d527612073b26eecdfd717e6a320cf44b4afac2b0732d9fcbe2b7fa0cf6601f830160051c810191602084106102f6575b601f0160051c01905b8181106102eb57506100c3565b5f81556001016102de565b90915081906102d5565b634e487b7160e01b5f52604160045260245ffd5b015190505f8061008b565b601f198216935f8052805f20915f5b868110610366575083600195961061034e575b505050811b015f5561009f565b01515f1960f88460031b161c191690555f8080610341565b9192602060018192868501518155019401920161032e565b5f80525f516020613d1a5f395f51905f52601f830160051c810191602084106103c3575b601f0160051c01905b8181106103b85750610071565b5f81556001016103ab565b90915081906103a2565b5f80fd5b601f909101601f19168101906001600160401b0382119082101761030057604052565b90600182811c92168015610422575b602083101461040e57565b634e487b7160e01b5f52602260045260245ffd5b91607f169161040356fe60806040526004361015610011575f80fd5b5f3560e01c806306fdde03146102f4578063087425db146102ef57806308b8d7f0146102ea578063095ea7b3146102e55780630f7f0658146102e057806318160ddd146102db57806319f8d5b4146102d65780631aab145d146102d157806323b872dd146102cc57806328d617fc146102c7578063297f24bf146102c25780632ff908cc146102bd578063313ce567146102b85780633644e515146102b35780633789f8d1146102ae5780633e3b61f4146102a95780633e6b1fe4146102a457806340a6bc171461029f57806340c10f191461029a57806342966c681461029557806344d91d9a1461029057806345fda7071461028b57806347340467146102865780635f35b0b314610281578063623059a51461027c57806367fc91381461027757806370a08231146102725780637543e3f01461026d5780637bd3ca35146102685780637ecebe0014610263578063845fcee41461025e57806395d89b41146102595780639dc29fac14610254578063a9059cbb1461024f578063a985901a1461024a578063b2237ba314610245578063baf02f1b14610240578063cae976401461023b578063d505accf14610236578063d8048a4614610231578063dd4fff3a1461022c578063dd62ed3e14610227578063de5712d414610222578063de5d58031461021d578063e7b43e7d146102185763ff428a9514610213575f80fd5b6121ce565b6120e9565b612067565b612047565b611ff0565b611f5c565b611eee565b611d05565b611ce8565b611c60565b611bbe565b611b7e565b611b0a565b611acd565b611a28565b611a0b565b6119d3565b61179f565b6116b2565b61167a565b611643565b611626565b6115ee565b61157c565b611554565b611441565b611424565b6113e7565b611379565b61130b565b611289565b61121b565b6111f9565b6111bc565b611126565b610fb4565b610f05565b610dcf565b610b14565b6108e5565b6108c8565b6107d0565b61065b565b6105d9565b610520565b6103e7565b5f91031261030357565b5f80fd5b90600182811c92168015610335575b602083101461032157565b634e487b7160e01b5f52602260045260245ffd5b91607f1691610316565b634e487b7160e01b5f52604160045260245ffd5b606081019081106001600160401b0382111761036e57604052565b61033f565b604081019081106001600160401b0382111761036e57604052565b90601f801991011681019081106001600160401b0382111761036e57604052565b805180835260209291819084018484015e5f828201840152601f01601f1916010190565b9060206103e49281815201906103af565b90565b34610303575f366003190112610303576040515f5f5461040681610307565b808452906001811690811561049a575060011461043e575b61043a8361042e8185038261038e565b604051918291826103d3565b0390f35b5f8080527f290decd9548b62a8d60345a988386fc84ba6bc95484008f6362f93160ef3e563939250905b8082106104805750909150810160200161042e61041e565b919260018160209254838588010152019101909291610468565b60ff191660208086019190915291151560051b8401909101915061042e905061041e565b600435906001600160a01b038216820361030357565b60a435906001600160a01b038216820361030357565b602435906001600160a01b038216820361030357565b606435906001600160a01b038216820361030357565b8015150361030357565b34610303576040366003190112610303576105396104be565b6024359061054682610516565b335f52600b602052600160fe1b60405f205416156105c5576001600160a01b0381165f908152600b60205260409020545f5160206138585f395f51905f529261058e91612652565b610597826115d5565b556105a1816115d5565b54604080516001600160a01b0390931683526020830191909152819081015b0390a1005b63d1b5191160e01b5f52603f60045260245ffd5b34610303576040366003190112610303576105f26104be565b602435906105ff82610516565b335f52600b602052600160f91b60405f20541615610647576001600160a01b0381165f908152600b60205260409020545f5160206138585f395f51905f529261058e91612673565b63d1b5191160e01b5f52604060045260245ffd5b34610303576040366003190112610303576106746104be565b60243590335f5260046020528161069e8260405f209060018060a01b03165f5260205260405f2090565b556040519182526001600160a01b03169033907f8c5be1e5ebec7d5bd14f71427d1e84f3dd0314c0f7b2291e5b200ac8c7c3b92590602090a360405160018152602090f35b604051906106f260408361038e565b565b604051906106f260608361038e565b604051906106f260808361038e565b606435906001600160801b038216820361030357565b602435906001600160801b038216820361030357565b60ff81160361030357565b6060906003190112610303576040519061076282610353565b816004356001600160801b03811681036103035781526024356001600160781b038116810361030357602082015260406044359161079f8361073e565b0152565b9181601f84011215610303578235916001600160401b038311610303576020838186019501011161030357565b346103035760c0366003190112610303576107ea36610749565b6107f2610712565b906084356001600160401b038111610303576108129036906004016107a3565b929061081c6104d4565b6001600160801b03831642116108b4576108aa9461087f61087a6108a395335f52600e60205261085560405f205460018060801b031690565b335f908152600560205260409020805492919061087184612260565b9055338a61252d565b612694565b9161089861088c826115d5565b54600160fe1b16151590565b156108ac5792612715565b3390612866565b005b505f92612715565b63d1b5191160e01b5f52604860045260245ffd5b34610303575f366003190112610303576020600254604051908152f35b34610303576040366003190112610303576108fe6104be565b610906610728565b610925610921610915336115d5565b54600160fa1b16151590565b1590565b610b00577fff4f1caf741747da03068e051490a9f142dac5b961014b67ce28f5465061a68f61043a92610956612a6e565b6001610a6160405160208101906109808161097233888661226e565b03601f19810183528261038e565b519020610a3e600d5496848060801b038816155f14610acc576109be6109b95f995b60808b901b6001600160801b038c16175b90612b67565b600d55565b6009546109dd906109d8906001600160801b0384166109b3565b600955565b610a12336109f3855f52600f60205260405f2090565b80546001600160a01b0319166001600160a01b03909216919091179055565b6109b38886610a29865f52600f60205260405f2090565b01549260801b6001600160801b039091161790565b83610a51835f52600f60205260405f2090565b01555f52600f60205260405f2090565b015490610aaf6001600160801b0385165b600954600d54604080516001600160a01b0390961686526020860196909652948401919091526060830152608082019290925290819060a0820190565b0390a16040516001600160801b0390911681529081906020820190565b6109be6109b9610afa610adf8b60801c90565b60095460808a901b8a90039081169181169086160204613441565b996109a2565b63d1b5191160e01b5f52604760045260245ffd5b34610303575f36600319011261030357610b2f600854612c42565b15610dbb57600c54610be890602090610b5e90610b52906001600160a01b031681565b6001600160a01b031690565b6007546001600160a01b031690610bb0610bab610ba6610ba1610b913360018060a01b03165f52600e60205260405f2090565b5460801c6001600160781b031690565b612288565b6122a0565b6122fb565b604051630a09391d60e11b81523060048201526001600160a01b03909316602484015260448301529092839190829081906064820190565b03915afa908115610db6575f91610d87575b5015610d7357335f908152600e602052604090206001600160801b0390610c29905b546001600160801b031690565b1615610d5f57335f908152600e602052604090207fed6a74b410387b51432c864b8acdae396c38c662efa18b7a42f83487ff229595906105c090610c9390610c7090610c1c565b335f908152600e6020526040902054610c8d9060f81c5b60ff1690565b90612336565b335f908152600e60205260409020610cdd908054610cc09084906001600160801b0316612369565b612369565b81546001600160801b0319166001600160801b0391909116179055565b335f908152600e60205260409020610d2c908054610d069060801c6001600160781b0316612382565b8154600160801b600160f81b03191660809190911b600160801b600160f81b0316179055565b610d3f6001600160801b03821633612c55565b604080516001600160801b03909216825233602083015290918291820190565b63d1b5191160e01b5f52604560045260245ffd5b63d1b5191160e01b5f52604460045260245ffd5b610da9915060203d602011610daf575b610da1818361038e565b810190612316565b5f610bfa565b503d610d97565b61232b565b63d1b5191160e01b5f52603d60045260245ffd5b3461030357606036600319011261030357610de86104be565b610df06104ea565b6001600160a01b0382165f818152600460209081526040808320338452909152902054604435939192919060018101610ea2575b506001600160a01b03165f9081526003602052604090205f5160206138785f395f51905f5291610e93915b610e5a8682546123b2565b90556001600160a01b0381165f9081526003602052604090208054860190556040519485526001600160a01b0316939081906020820190565b0390a360405160018152602090f35b91848303928311610f0057610e4f610e93925f5160206138785f395f51905f5294610ef633610ee18460018060a01b03165f52600460205260405f2090565b9060018060a01b03165f5260205260405f2090565b5592505091610e24565b61224c565b3461030357602036600319011261030357610f1e6104be565b5f60408051610f2c81610353565b828152826020820152015260018060a01b03165f52600e60205261043a60405f2060405190610f5a82610353565b546001600160801b0381168083526001600160781b03608083901c8116602080860191825260f89490941c60409586019081528551938452905190911692820192909252905160ff16918101919091529081906060820190565b34610303576040366003190112610303576004356024356001600160401b03811161030357610fe79036906004016107a3565b9190610ff4600854612c42565b15610dbb57600a5461103c90611017906001600160801b0385169060801c612411565b600a80546001600160801b031660809290921b6001600160801b031916919091179055565b600a5464746a52880060809190911c11611112576007547fcf0848d99e9b2ad96811072e657199bc9567c2cc9b614097727a852b27f5358d9361108f92909184906001600160a01b031630903390612c9c565b600a545f919060801c64145f680b0081116110d4575090506110b0816122e5565b906110bb8233612c55565b60408051918252602082019290925290819081016105c0565b6425d5c1390081116110fc575090506110ec816122cf565b906110f78233612c55565b6110bb565b643a35294400106110bb5790506110ec816122b9565b63d1b5191160e01b5f52604660045260245ffd5b346103035760203660031901126103035761113f6104be565b335f52600b602052600160ff1b60405f205416156111a857600c80546001600160a01b0319166001600160a01b039290921691821790556040519081527f5497e30355b3c259b1bd1d2577607edc2872c70543f17f29bcab333caf74c3159080602081016105c0565b63d1b5191160e01b5f52603e60045260245ffd5b34610303575f36600319011261030357602060405160ff7f0000000000000000000000000000000000000000000000000000000000000000168152f35b34610303575f36600319011261030357602061121361242a565b604051908152f35b34610303576040366003190112610303576112346104be565b6024359061124182610516565b335f52600b602052600160ff1b60405f205416156105c5576001600160a01b0381165f908152600b60205260409020545f5160206138585f395f51905f529261058e91613224565b34610303576040366003190112610303576112a26104be565b602435906112af82610516565b335f52600b602052600160fd1b60405f205416156112f7576001600160a01b0381165f908152600b60205260409020545f5160206138585f395f51905f529261058e91613245565b63d1b5191160e01b5f52604160045260245ffd5b34610303576040366003190112610303576113246104be565b6024359061133182610516565b335f52600b602052600160ff1b60405f205416156111a8576001600160a01b0381165f908152600b60205260409020545f5160206138585f395f51905f529261058e91613264565b34610303576040366003190112610303576113926104be565b6024359061139f82610516565b335f52600b602052600160ff1b60405f205416156111a8576001600160a01b0381165f908152600b60205260409020545f5160206138585f395f51905f529261058e91613285565b34610303576040366003190112610303576114006104be565b602435335f52600b602052600160ff1b60405f205416156111a8576108aa91612c55565b34610303576020366003190112610303576108aa600435336132a6565b346103035760203660031901126103035761145a6104be565b611465600854612c42565b15610dbb57335f52600b602052600160fe1b60405f205416156115405761153d816114ef6114cd6114bc6114b06114b0610c1c5f9860018060a01b03165f52600e60205260405f2090565b6001600160401b031690565b600a546001600160801b0316612411565b600a80546001600160801b0319166001600160801b0392909216919091179055565b6040516001600160a01b03821681527fee1c541a26a2ceb2a600bf578887002fd1bdbbc7fb67e2b4c4bce896eac8a36f90602090a16001600160a01b03165f908152600e6020526040902090565b55005b63d1b5191160e01b5f52603f60045260245ffd5b34610303575f36600319011261030357600a546040516001600160801b039091168152602090f35b346103035760e03660031901126103035761159636610749565b61159e610500565b608435916001600160801b03831683036103035760a4356001600160801b0381168103610303576020936112139360c4359361252d565b6001600160a01b03165f908152600b6020526040902090565b34610303576020366003190112610303576001600160a01b0361160f6104be565b165f52600b602052602060405f2054604051908152f35b34610303575f366003190112610303576020600854604051908152f35b34610303575f36600319011261030357335f52600b602052600160ff1b60405f205416156111a8576007805460ff60a01b19169055005b34610303576020366003190112610303576001600160a01b0361169b6104be565b165f526003602052602060405f2054604051908152f35b34610303576040366003190112610303577f0b5e322b4b5330962013e8d6519462c133d50320ee476828060995c1acadef626116ec6104be565b6116f46104ea565b90335f52600b602052600160fa1b60405f205416151580611776575b80611760575b61172a575b6105c06040519283928361226e565b61175182611737836115d5565b546001600160a01b0319166001600160a01b039091161790565b61175a826115d5565b5561171b565b506001600160a01b038181169083161415611716565b506001600160a01b0361179861178b836115d5565b546001600160a01b031690565b1615611710565b34610303576040366003190112610303576117b86104be565b6117c0610728565b6117cf610921610915336115d5565b610b00577fff4f1caf741747da03068e051490a9f142dac5b961014b67ce28f5465061a68f916117fd612a6e565b60405160208101906118148161097233868661226e565b5190209161184661183a6001611832865f52600f60205260405f2090565b015460801c90565b6001600160801b031690565b6001600160801b0382161061195c57506105c0610a726118736001611832865f52600f60205260405f2090565b9360016119376119198261188f855f52600f60205260405f2090565b015480986118b36118a8875f52600f60205260405f2090565b60015f918281550155565b6118f96109d86118c5600d5460801c90565b600954906118f3906118e690869060801b6001600160801b038516176133c0565b946001600160801b031690565b9061330e565b600d54610cbb906109b990608084901b6001600160801b038616176118f3565b92828060801b0384168061194c575b505f52600f60205260405f2090565b01549460801b6001600160801b039091161790565b6119569088612c55565b5f611928565b91610a7281600161193761191961198a88846119836105c0995f52600f60205260405f2090565b01546132ef565b80986119b9856119a2885f52600f60205260405f2090565b0154608083901b6001600160801b038516176118f3565b856119cc885f52600f60205260405f2090565b01556118b3565b34610303576020366003190112610303576001600160a01b036119f46104be565b165f526005602052602060405f2054604051908152f35b34610303575f366003190112610303576020600d54604051908152f35b34610303575f366003190112610303576040515f600154611a4881610307565b808452906001811690811561049a5750600114611a6f5761043a8361042e8185038261038e565b60015f9081527fb10e2d527612073b26eecdfd717e6a320cf44b4afac2b0732d9fcbe2b7fa0cf6939250905b808210611ab35750909150810160200161042e61041e565b919260018160209254838588010152019101909291611a9b565b3461030357604036600319011261030357611ae66104be565b602435335f52600b602052600160ff1b60405f205416156111a8576108aa916132a6565b3461030357604036600319011261030357611b236104be565b60243590335f52600360205260405f20805490838203918211610f00575560018060a01b031690815f52600360205260405f208181540190555f5160206138785f395f51905f5260405180610e933394829190602083019252565b34610303576020366003190112610303576001600160a01b03611b9f6104be565b165f52600b602052602060018060a01b0360405f205416604051908152f35b34610303576020366003190112610303576004356127108111611c4c57335f52600b602052611bf961092160405f2054600160fe1b16151590565b61154057600854611c179161ffff1663ffffffff1990911601600855565b6008546040519081527f23a413df5b1fc0945373ace790cb8288a224212397d5bfc6e2a9b82a4396bbc49080602081016105c0565b63d1b5191160e01b5f52604260045260245ffd5b3461030357608036600319011261030357611c7a36610749565b611c82610500565b611c8d600854612c42565b15610dbb57600a5482516001600160801b03918216911611611cd457335f52600b602052611cc761092160405f2054600160fe1b16151590565b611540576108aa91612866565b63d1b5191160e01b5f52604360045260245ffd5b34610303575f366003190112610303576020600954604051908152f35b346103035760e036600319011261030357611d1e6104be565b611d266104ea565b6044359060205f608435606435611d3c8261073e565b611e4560a4359160c43590611d53428210156125cf565b610972611e1b8b8b611df28c610972611d6a61242a565b6001600160a01b0386165f90815260056020526040902090989080549060018201905560405195602094879586019889919260a093969594919660c08401977f6e71edae12b1b97f4d1f60370fef10105fa2faae0126114a169c64845d6126c98552600180871b03166020850152600180861b03166040840152606083015260808201520152565b5190206040519283918b83019586909160429261190160f01b8352600283015260228201520190565b51902092604051948594859094939260ff6060936080840197845216602083015260408201520152565b838052039060015afa15610db657611ed68183611eb77f8c5be1e5ebec7d5bd14f71427d1e84f3dd0314c0f7b2291e5b200ac8c7c3b92594610ee15f51611e9e60018060a01b0382168015159081611edb575b50612615565b6001600160a01b03165f90815260046020526040902090565b556040519384526001600160a01b039081169416929081906020820190565b0390a3005b6001600160a01b038d161490505f611e98565b3461030357604036600319011261030357611f076104be565b60243590611f1482610516565b335f52600b602052600160fe1b60405f205416156105c5576001600160a01b0381165f908152600b60205260409020545f5160206138585f395f51905f529261058e916133de565b3461030357604036600319011261030357611f756104be565b60243590611f8282610516565b335f908152600b6020526040902054600160ff1b1615611fdc5761058e5f5160206138585f395f51905f5292611fc3611fba336115d5565b548215906133ff565b611fcc336115d5565b55611fd6836115d5565b546133ff565b63d1b5191160e01b5f52603e60045260245ffd5b3461030357604036600319011261030357602061203e61200e6104be565b6120166104ea565b6001600160a01b039182165f9081526004855260408082209290931681526020919091522090565b54604051908152f35b34610303575f366003190112610303576020600a5460801c604051908152f35b34610303576040366003190112610303576120806104be565b6024359061208d82610516565b335f52600b602052600160fc1b60405f205416156120d5576001600160a01b0381165f908152600b60205260409020545f5160206138585f395f51905f529261058e91613420565b63d1b5191160e01b5f52600160045260245ffd5b34610303576040366003190112610303576004356121056104ea565b612110600854612c42565b15610dbb57335f52600b602052600160fe1b60405f205416156105c5576007546001600160a01b03165f19810161216657505f80806121519481945af11590565b61215757005b633607a14f60e11b5f5260045ffd5b60405163a9059cbb60e01b81526001600160a01b03909216600483015260248201929092526020905f9060449082855af19081601f3d1160015f51141615166121c1575b50156121b257005b633c9fd93960e21b5f5260045ffd5b3b153d171590505f6121aa565b34610303576020366003190112610303576004355f60206040516121f181610373565b82815201525f52600f60205261043a60405f2060016040519161221383610373565b818060a01b038154168352015460208201526040519182918281516001600160a01b031681526020918201519181019190915260400190565b634e487b7160e01b5f52601160045260245ffd5b5f198114610f005760010190565b6001600160a01b0391821681529116602082015260400190565b6001600160781b031660ff8111610f00576001901b90565b908160801b91808304600160801b1490151715610f0057565b908160041b9180830460101490151715610f0057565b90601482029180830460141490151715610f0057565b90601882029180830460181490151715610f0057565b9060148201809211610f0057565b91908201809211610f0057565b9081602091031261030357516103e481610516565b6040513d5f823e3d90fd5b6001600160801b03909116908115612355576001600160801b03160490565b634e487b7160e01b5f52601260045260245ffd5b6001600160801b039182169082160391908211610f0057565b6001600160781b0390811660010191908211610f0057565b65b5e620f48000039065b5e620f480008211610f0057565b91908203918211610f0057565b906040516123cc81610353565b91546001600160801b0381168352608081901c6001600160781b0316602084015260f81c6040830152565b6001600160801b03908116620151800191908211610f0057565b6001600160801b039182169082160191908211610f0057565b467f000000000000000000000000000000000000000000000000000000000000000003612475577f000000000000000000000000000000000000000000000000000000000000000090565b604051905f915f549061248782610307565b80825260208201926001811690811561251257506001146124bc575b506124b4816103e49495038261038e565b519020613747565b5f8080529094507f290decd9548b62a8d60345a988386fc84ba6bc95484008f6362f93160ef3e5635b8582106124fc5750810160200193506124b46124a3565b60018160209254838587010152019101906124e5565b60ff1916845250151560051b810160200193506124b46124a3565b805160408083015160209384015182517f2d6f2462798f043c326ee6ec02c17cbc47b3cd9a1a4c5b8ac68ccf4cfd6f4ea49581019586526001600160801b039485169381019390935260ff9190911660608301526001600160781b031660808201526001600160a01b0390931660a084015292831660c08301529190921660e0830152610100808301939093529181526125c96101208261038e565b51902090565b156125d657565b60405162461bcd60e51b815260206004820152601760248201527614115493525517d11150511312539157d1561412549151604a1b6044820152606490fd5b1561261c57565b60405162461bcd60e51b815260206004820152600e60248201526d24a72b20a624a22fa9a4a3a722a960911b6044820152606490fd5b901561266c57600160fd1b905b6001600760fd1b03161790565b5f9061265f565b901561268d57600160f81b905b600160ff60f81b03161790565b5f90612680565b6109726125c96126a261242a565b92604051928391602083019586909160429261190160f01b8352600283015260228201520190565b9190826040910312610303576020823592013590565b60ff601b9116019060ff8211610f0057565b90604010156127015760400190565b634e487b7160e01b5f52603260045260245ffd5b90604181036127ce57906020926127808361275861275261274461273c5f988801886126ca565b9490976126f2565b356001600160f81b03191690565b60f81c90565b935b604051948594859094939260ff6060936080840197845216602083015260408201520152565b838052039060015afa15610db6575f516001600160a01b03169081156127bf576001600160a01b0316036127b057565b632057875960e21b5f5260045ffd5b638baa579f60e01b5f5260045ffd5b9060408203612814576020926127eb825f946127809401906126ca565b9092906001600160ff1b0381169061280e906128099060ff1c610c87565b6126e0565b9361275a565b634be6321b60e01b5f5260045ffd5b8151602083015160409093015160f81b6001600160f81b031916600160801b600160f81b0360809490941b939093166001600160801b0390911617919091179055565b7f68e68b059416c2836fd602f01cc46a42a185922f060ff76722815bac32407129916128b56114cd6128a46114b06114b0865160018060801b031690565b600a546001600160801b0316612369565b6001600160a01b0381165f908152600e602052604090206001600160801b03906128de90610c1c565b16612981576001600160a01b0381165f908152600e60205260409020612905908390612823565b815161297c906001600160801b03166020840151909390612935906040906001600160781b031692015160ff1690565b604080516001600160a01b0390951685526001600160801b0390951660208501526001600160781b039091169383019390935260ff90921660608201529081906080820190565b0390a1565b6001600160a01b0381165f908152600e60205260409020612a51906129a5906123bf565b83516129d5906129c8906001600160801b031683516001600160801b0316612411565b6001600160801b03168252565b612a04604082016129e7815160ff1690565b604087015160ff1660ff811660ff831610612a65575060ff169052565b6020818101805191860151612a35926001600160781b039081169116808210612a5657506001600160781b03169052565b6001600160a01b0383165f908152600e60205260409020612823565b612905565b6001600160781b031690915250565b905060ff169052565b600954612a83612a7e8260801c90565b6123f7565b426001600160801b0390911610612a975750565b612aab906109d8906102a360871b90612b67565b612ab961183a60025461239a565b620f42406001600160801b0382161015612b4b5750612afa6109b9620f42405b6109b3612af4600d54926008549061ffff6127109216020490565b60801b90565b7f640eaa6ba71a4f457fdf8b26b0a8a0a6096d6d2bf731d07d47717534847ce55d61297c612b3b612b2d60095460801c90565b600d54608091821b911c1790565b6040519081529081906020820190565b612afa906109b99061474a6001600160801b0390911604612ad9565b608082811c9082901c818101936001600160801b03908116931683810193918510159283612c37575b5082612c2c575b5081612c21575b5080612c11575b80612c01575b15612bbc576103e49160801b612309565b60405162461bcd60e51b815260206004820152601b60248201527f54545377617055494e543235363a20616464206f766572666c6f7700000000006044820152606490fd5b506001600160801b038210612bab565b506001600160801b038110612ba5565b90508110155f612b9e565b83101591505f612b97565b85101592505f612b90565b60ff1c600103612c5157600190565b5f90565b60025490828201809211610f005760205f5160206138785f395f51905f52915f9360025560018060a01b0316938484526003825260408420818154019055604051908152a3565b6001600160801b0390931694919390929160016001600160a01b03841603612cf0575050506001600160a01b03908116911603612cdc576106f29061380d565b63d1b5191160e01b5f52602760045260245ffd5b9394929380612d1d57509293919250906001600160a01b03808516911603612cdc576106f29230916137ab565b90612d2a918101906134a5565b60ff612d37825160ff1690565b169460028603612f1f5750612d5d919293945060200151602080825183010191016136d7565b6001600160a01b03821690736b175474e89094c44da98b954eedeac495271d0f8203612e9957604051623f675f60e91b81526001600160a01b038616600482015291602090839060249082905afa908115610db657612e415f939284938491612e6a575b50610972602084015193612dd9604082015160ff1690565b60608201516080909201516040516323f2ebc360e21b60208201526001600160a01b038d16602482015230604482015260648101959095526084850196909652600160a485015260ff1660c484015260e4830152610104820193909352918290610124820190565b60208151910182855af115612e5b576106f29230916137ab565b63203aa5b560e11b5f5260045ffd5b612e8c915060203d602011612e92575b612e84818361038e565b810190613738565b5f612dc1565b503d612e7a565b5f915080612f1a839251610972602084015193612eba604082015160ff1690565b606082015160809092015160405163d505accf60e01b60208201526001600160a01b038d1660248201523060448201526064810195909552608485019690965260ff1660a484015260c483015260e4820193909352918290610104820190565b612e41565b919460038103612fc75750506001600160a01b03838116911603612cdc57612f4690613792565b6e22d473030f116ddee9f6b43ac78ba33b1561030357604051631b63c28b60e11b81526001600160a01b0392831660048201523060248201529082166044820152911660648201525f81608481836e22d473030f116ddee9f6b43ac78ba35af18015610db657612fb35750565b80612fc15f6106f29361038e565b806102f9565b9091506004810361311857506020612fea91015160208082518301019101613555565b9061309f612ff88351613792565b9261305261300f604083015165ffffffffffff1690565b61303761301a610703565b6001600160a01b038a168152966001600160a01b03166020880152565b65ffffffffffff604087015265ffffffffffff166060860152565b602081015161305f6106f4565b9485523060208601526040850152608081015190613099613089606060a084015193015160ff1690565b60f81b6001600160f81b03191690565b916135c0565b916e22d473030f116ddee9f6b43ac78ba33b15610303576040516302b67b5760e41b8152925f91849182916130d99190886004850161365f565b0381836e22d473030f116ddee9f6b43ac78ba35af1918215610db657612f4692613104575b50613792565b80612fc15f6131129361038e565b5f6130fe565b929392600514613129575b50505050565b61314360206131b192015160208082518301019101613555565b805161315f6131506106e3565b6001600160a01b039096168652565b602085015260408101516020820151906131776106f4565b9586526020860152604085015261318c6106e3565b308152926020840152608081015190613099613089606060a084015193015160ff1690565b916e22d473030f116ddee9f6b43ac78ba33b15610303576131e85f93604051958694859463187945bd60e11b8652600486016135eb565b0381836e22d473030f116ddee9f6b43ac78ba35af18015610db657613210575b808080613123565b80612fc15f61321e9361038e565b5f613208565b901561323e57600160fe1b905b6001600360fe1b03161790565b5f90613231565b901561325d57600160a01b905b600160a01b19161790565b5f90613252565b901561327e57600160f91b905b6001607f60f91b03161790565b5f90613271565b901561329f57600160fc1b905b6001600f60fc1b03161790565b5f90613292565b6001600160a01b03165f818152600360205260409020805483810391908211610f00575f935f5160206138785f395f51905f5292602092558060025403600255604051908152a3565b6103e491608082901c6001600160801b03918216919092160204613441565b608082811c9082901c818103936001600160801b0390811693168381039382861115939291846133b5575b846133aa575b50508261339f575b50501561335a576103e49160801b612309565b60405162461bcd60e51b815260206004820152601b60248201527f54545377617055494e543235363a20737562206f766572666c6f7700000000006044820152606490fd5b101590505f80613347565b101592505f8061333f565b808611159450613339565b6103e4916001600160801b0380831660809390931c91160204613441565b90156133f857600160fa1b905b6001603f60fa1b03161790565b5f906133eb565b901561341957600160ff1b905b6001600160ff1b03161790565b5f9061340c565b901561343a57600160fb1b905b6001601f60fb1b03161790565b5f9061342d565b6001600160801b038116919082900361345657565b60405162461bcd60e51b815260206004820152602160248201527f54545377617055494e543235363a20746f55696e74313238206f766572666c6f6044820152607760f81b6064820152608490fd5b602081830312610303578035906001600160401b03821161030357019060408282031261030357604051916134d983610373565b80356134e48161073e565b83526020810135906001600160401b038211610303570181601f82011215610303578035906001600160401b03821161036e576040519261352f601f8401601f19166020018561038e565b8284526020838301011161030357815f9260208093018386013783010152602082015290565b908160c0910312610303576040519060c08201908282106001600160401b0383111761036e5760a09160405280518352602081015160208401526040810151604084015260608101516135a78161073e565b606084015260808101516080840152015160a082015290565b929190604051936020850152604084015260ff60f81b166060830152604182526106f260618361038e565b90926136436101009360406103e497966136188682516020809160018060a01b0381511684520151910152565b60208181015187840152910151606086015281516001600160a01b03166080860152015160a0840152565b6001600160a01b031660c082015260e0810182905201906103af565b60406103e494936101009360018060a01b0316835265ffffffffffff6060825160018060a01b03815116602087015260018060a01b036020820151168587015282858201511682870152015116608084015260018060a01b0360208201511660a0840152015160c08201528160e082015201906103af565b908160a0910312610303576040519060a08201908282106001600160401b0383111761036e576080916040528051835260208101516020840152604081015161371f8161073e565b6040840152606081015160608401520151608082015290565b90816020910312610303575190565b60405160208101917f8b73c3c69bb8fe3d512ecc4cf759cc79239f7b179b0ffacaa9a75d522b39400f83526040820152466060820152306080820152608081526125c960a08261038e565b6001600160a01b0381169081036137a65790565b505f90565b6040516323b872dd60e01b81526001600160a01b03928316600482015292909116602483015260448201929092526020905f9060649082855af19081601f3d1160015f5114161516613800575b50156121b257565b3b153d171590505f6137f8565b5f5160206138985f395f51905f525c8111613843575f5160206138985f395f51905f525c035f5160206138985f395f51905f525d565b63d1b5191160e01b5f52601e60045260245ffdfed29227266ff631bd0acd395a156663b79afd9702bfc8010f0ab7207965d88f7fddf252ad1be2c89b69c2b068fc378daa952ba7f163c4a11628f55a4df523b3efcbe27d488af5b5c1b0bd8d89be6fdfeaed3ad42719044fd9b728f33df1d6f1d1a2646970667358221220722abc0c23c3c9a3aa824037b58776ca084386df7ca2e59715fcc11bab40483964736f6c634300081d0033290decd9548b62a8d60345a988386fc84ba6bc95484008f6362f93160ef3e563","linkReferences":{}},"methodIdentifiers":{"DOMAIN_SEPARATOR()":"3644e515","addShare((uint128,uint120,uint8),address)":"baf02f1b","allowance(address,address)":"dd62ed3e","approve(address,uint256)":"095ea7b3","balanceOf(address)":"70a08231","burn(address,uint256)":"9dc29fac","burn(uint256)":"42966c68","burnShare(address)":"44d91d9a","decimals()":"313ce567","disableUpgrade()":"67fc9138","getreferral(address)":"a985901a","left_share()":"45fda707","mint(address,uint256)":"40c10f19","name()":"06fdde03","nonces(address)":"7ecebe00","permit(address,address,uint256,uint256,uint8,bytes32,bytes32)":"d505accf","permitShare((uint128,uint120,uint8),uint128,bytes,address)":"0f7f0658","poolstate()":"845fcee4","publicSell(uint256,bytes)":"297f24bf","publicsell()":"de5712d4","setBan(address,bool)":"3e3b61f4","setCallMintTTS(address,bool)":"d8048a46","setDAOAdmin(address,bool)":"dd4fff3a","setEnv(address)":"2ff908cc","setMarketAdmin(address,bool)":"40a6bc17","setMarketManager(address,bool)":"de5d5803","setRatio(uint256)":"b2237ba3","setReferral(address,address)":"7543e3f0","setStakeAdmin(address,bool)":"3e6b1fe4","setStakeManager(address,bool)":"08b8d7f0","setTokenAdmin(address,bool)":"3789f8d1","setTokenManager(address,bool)":"087425db","shareHash((uint128,uint120,uint8),address,uint128,uint128,uint256)":"47340467","shareMint()":"1aab145d","stake(address,uint128)":"19f8d5b4","stakeproofinfo(uint256)":"ff428a95","stakestate()":"cae97640","symbol()":"95d89b41","totalSupply()":"18160ddd","transfer(address,uint256)":"a9059cbb","transferFrom(address,address,uint256)":"23b872dd","ttstokenconfig()":"623059a5","unstake(address,uint128)":"7bd3ca35","userConfig(address)":"5f35b0b3","usershares(address)":"28d617fc","withdrawPublicSell(uint256,address)":"e7b43e7d"},"id":48}