{"abi":[{"type":"constructor","inputs":[{"name":"_TTS_Contract","type":"address","internalType":"contract I_TTSwap_Token"},{"name":"_securitykeeper","type":"address","internalType":"address"}],"stateMutability":"nonpayable"},{"type":"function","name":"buyGood","inputs":[{"name":"_goodid1","type":"address","internalType":"address"},{"name":"_goodid2","type":"address","internalType":"address"},{"name":"_swapQuantity","type":"uint256","internalType":"uint256"},{"name":"_side","type":"uint128","internalType":"uint128"},{"name":"_recipent","type":"address","internalType":"address"},{"name":"data","type":"bytes","internalType":"bytes"}],"outputs":[{"name":"good1change","type":"uint256","internalType":"uint256"},{"name":"good2change","type":"uint256","internalType":"uint256"}],"stateMutability":"payable"},{"type":"function","name":"buyGoodCheck","inputs":[{"name":"_goodid1","type":"address","internalType":"address"},{"name":"_goodid2","type":"address","internalType":"address"},{"name":"_swapQuantity","type":"uint256","internalType":"uint256"},{"name":"_side","type":"bool","internalType":"bool"}],"outputs":[{"name":"good1change","type":"uint256","internalType":"uint256"},{"name":"good2change","type":"uint256","internalType":"uint256"}],"stateMutability":"view"},{"type":"function","name":"changeGoodOwner","inputs":[{"name":"_goodid","type":"address","internalType":"address"},{"name":"_to","type":"address","internalType":"address"}],"outputs":[],"stateMutability":"nonpayable"},{"type":"function","name":"collectCommission","inputs":[{"name":"_goodid","type":"address[]","internalType":"address[]"}],"outputs":[],"stateMutability":"nonpayable"},{"type":"function","name":"disinvestProof","inputs":[{"name":"_proofid","type":"uint256","internalType":"uint256"},{"name":"_goodshares","type":"uint128","internalType":"uint128"},{"name":"_gate","type":"address","internalType":"address"}],"outputs":[{"name":"","type":"uint128","internalType":"uint128"},{"name":"","type":"uint128","internalType":"uint128"}],"stateMutability":"nonpayable"},{"type":"function","name":"getGoodState","inputs":[{"name":"good","type":"address","internalType":"address"}],"outputs":[{"name":"","type":"tuple","internalType":"struct S_GoodTmpState","components":[{"name":"goodConfig","type":"uint256","internalType":"uint256"},{"name":"owner","type":"address","internalType":"address"},{"name":"currentState","type":"uint256","internalType":"uint256"},{"name":"investState","type":"uint256","internalType":"uint256"}]}],"stateMutability":"view"},{"type":"function","name":"getProofState","inputs":[{"name":"proofid","type":"uint256","internalType":"uint256"}],"outputs":[{"name":"","type":"tuple","internalType":"struct S_ProofState","components":[{"name":"currentgood","type":"address","internalType":"address"},{"name":"valuegood","type":"address","internalType":"address"},{"name":"shares","type":"uint256","internalType":"uint256"},{"name":"state","type":"uint256","internalType":"uint256"},{"name":"invest","type":"uint256","internalType":"uint256"},{"name":"valueinvest","type":"uint256","internalType":"uint256"}]}],"stateMutability":"view"},{"type":"function","name":"getRecentGoodState","inputs":[{"name":"good1","type":"address","internalType":"address"},{"name":"good2","type":"address","internalType":"address"}],"outputs":[{"name":"good1currentstate","type":"uint256","internalType":"uint256"},{"name":"good2currentstate","type":"uint256","internalType":"uint256"}],"stateMutability":"view"},{"type":"function","name":"goodWelfare","inputs":[{"name":"goodid","type":"address","internalType":"address"},{"name":"welfare","type":"uint128","internalType":"uint128"},{"name":"data","type":"bytes","internalType":"bytes"}],"outputs":[],"stateMutability":"payable"},{"type":"function","name":"initGood","inputs":[{"name":"_valuegood","type":"address","internalType":"address"},{"name":"_initial","type":"uint256","internalType":"uint256"},{"name":"_erc20address","type":"address","internalType":"address"},{"name":"_goodConfig","type":"uint256","internalType":"uint256"},{"name":"_normaldata","type":"bytes","internalType":"bytes"},{"name":"_valuedata","type":"bytes","internalType":"bytes"}],"outputs":[{"name":"","type":"bool","internalType":"bool"}],"stateMutability":"payable"},{"type":"function","name":"initMetaGood","inputs":[{"name":"_erc20address","type":"address","internalType":"address"},{"name":"_initial","type":"uint256","internalType":"uint256"},{"name":"_goodConfig","type":"uint256","internalType":"uint256"},{"name":"data","type":"bytes","internalType":"bytes"}],"outputs":[{"name":"","type":"bool","internalType":"bool"}],"stateMutability":"payable"},{"type":"function","name":"investGood","inputs":[{"name":"_togood","type":"address","internalType":"address"},{"name":"_valuegood","type":"address","internalType":"address"},{"name":"_quantity","type":"uint128","internalType":"uint128"},{"name":"data1","type":"bytes","internalType":"bytes"},{"name":"data2","type":"bytes","internalType":"bytes"}],"outputs":[{"name":"","type":"bool","internalType":"bool"}],"stateMutability":"payable"},{"type":"function","name":"ishigher","inputs":[{"name":"goodid","type":"address","internalType":"address"},{"name":"valuegood","type":"address","internalType":"address"},{"name":"compareprice","type":"uint256","internalType":"uint256"}],"outputs":[{"name":"","type":"bool","internalType":"bool"}],"stateMutability":"view"},{"type":"function","name":"modifyGoodConfig","inputs":[{"name":"_goodid","type":"address","internalType":"address"},{"name":"_goodConfig","type":"uint256","internalType":"uint256"}],"outputs":[{"name":"","type":"bool","internalType":"bool"}],"stateMutability":"nonpayable"},{"type":"function","name":"multicall","inputs":[{"name":"data","type":"bytes[]","internalType":"bytes[]"}],"outputs":[{"name":"results","type":"bytes[]","internalType":"bytes[]"}],"stateMutability":"payable"},{"type":"function","name":"queryCommission","inputs":[{"name":"_goodid","type":"address[]","internalType":"address[]"},{"name":"_recipent","type":"address","internalType":"address"}],"outputs":[{"name":"","type":"uint256[]","internalType":"uint256[]"}],"stateMutability":"view"},{"type":"function","name":"removeSecurityKeeper","inputs":[],"outputs":[],"stateMutability":"nonpayable"},{"type":"function","name":"securityKeeper","inputs":[{"name":"erc20","type":"address","internalType":"address"}],"outputs":[],"stateMutability":"nonpayable"},{"type":"function","name":"updateGoodConfig","inputs":[{"name":"_goodid","type":"address","internalType":"address"},{"name":"_goodConfig","type":"uint256","internalType":"uint256"}],"outputs":[{"name":"","type":"bool","internalType":"bool"}],"stateMutability":"nonpayable"},{"type":"event","name":"e_buyGood","inputs":[{"name":"sellgood","type":"address","indexed":true,"internalType":"address"},{"name":"forgood","type":"address","indexed":true,"internalType":"address"},{"name":"swapvalue","type":"uint256","indexed":false,"internalType":"uint256"},{"name":"good1change","type":"uint256","indexed":false,"internalType":"uint256"},{"name":"good2change","type":"uint256","indexed":false,"internalType":"uint256"}],"anonymous":false},{"type":"event","name":"e_changegoodowner","inputs":[{"name":"goodid","type":"address","indexed":false,"internalType":"address"},{"name":"to","type":"address","indexed":false,"internalType":"address"}],"anonymous":false},{"type":"event","name":"e_collectProtocolFee","inputs":[{"name":"goodid","type":"address","indexed":false,"internalType":"address"},{"name":"feeamount","type":"uint256","indexed":false,"internalType":"uint256"}],"anonymous":false},{"type":"event","name":"e_collectcommission","inputs":[{"name":"_gooid","type":"address[]","indexed":false,"internalType":"address[]"},{"name":"_commisionamount","type":"uint256[]","indexed":false,"internalType":"uint256[]"}],"anonymous":false},{"type":"event","name":"e_disinvestProof","inputs":[{"name":"_proofNo","type":"uint256","indexed":true,"internalType":"uint256"},{"name":"_normalGoodNo","type":"address","indexed":false,"internalType":"address"},{"name":"_valueGoodNo","type":"address","indexed":false,"internalType":"address"},{"name":"_gate","type":"address","indexed":false,"internalType":"address"},{"name":"_value","type":"uint256","indexed":false,"internalType":"uint256"},{"name":"_normalprofit","type":"uint256","indexed":false,"internalType":"uint256"},{"name":"_normaldisvest","type":"uint256","indexed":false,"internalType":"uint256"},{"name":"_valueprofit","type":"uint256","indexed":false,"internalType":"uint256"},{"name":"_valuedisvest","type":"uint256","indexed":false,"internalType":"uint256"}],"anonymous":false},{"type":"event","name":"e_goodWelfare","inputs":[{"name":"goodid","type":"address","indexed":false,"internalType":"address"},{"name":"welfare","type":"uint128","indexed":false,"internalType":"uint128"}],"anonymous":false},{"type":"event","name":"e_initGood","inputs":[{"name":"_proofNo","type":"uint256","indexed":false,"internalType":"uint256"},{"name":"_goodid","type":"address","indexed":false,"internalType":"address"},{"name":"_valuegoodNo","type":"address","indexed":false,"internalType":"address"},{"name":"_goodConfig","type":"uint256","indexed":false,"internalType":"uint256"},{"name":"_construct","type":"uint256","indexed":false,"internalType":"uint256"},{"name":"_normalinitial","type":"uint256","indexed":false,"internalType":"uint256"},{"name":"_value","type":"uint256","indexed":false,"internalType":"uint256"}],"anonymous":false},{"type":"event","name":"e_initMetaGood","inputs":[{"name":"_proofNo","type":"uint256","indexed":false,"internalType":"uint256"},{"name":"_goodid","type":"address","indexed":false,"internalType":"address"},{"name":"_construct","type":"uint256","indexed":false,"internalType":"uint256"},{"name":"_goodConfig","type":"uint256","indexed":false,"internalType":"uint256"},{"name":"_initial","type":"uint256","indexed":false,"internalType":"uint256"}],"anonymous":false},{"type":"event","name":"e_investGood","inputs":[{"name":"_proofNo","type":"uint256","indexed":true,"internalType":"uint256"},{"name":"_normalgoodid","type":"address","indexed":false,"internalType":"address"},{"name":"_valueGoodNo","type":"address","indexed":false,"internalType":"address"},{"name":"_value","type":"uint256","indexed":false,"internalType":"uint256"},{"name":"_invest","type":"uint256","indexed":false,"internalType":"uint256"},{"name":"_valueinvest","type":"uint256","indexed":false,"internalType":"uint256"}],"anonymous":false},{"type":"event","name":"e_modifyGoodConfig","inputs":[{"name":"_goodid","type":"address","indexed":false,"internalType":"address"},{"name":"_goodconfig","type":"uint256","indexed":false,"internalType":"uint256"}],"anonymous":false},{"type":"event","name":"e_updateGoodConfig","inputs":[{"name":"_goodid","type":"address","indexed":false,"internalType":"address"},{"name":"_goodConfig","type":"uint256","indexed":false,"internalType":"uint256"}],"anonymous":false},{"type":"error","name":"ERC20PermitFailed","inputs":[]},{"type":"error","name":"ERC20TransferFailed","inputs":[]},{"type":"error","name":"NativeETHTransferFailed","inputs":[]},{"type":"error","name":"TTSwapError","inputs":[{"name":"seq","type":"uint256","internalType":"uint256"}]}],"bytecode":{"object":"0x60a0346100c657601f61554038819003918201601f19168301916001600160401b038311848410176100ca5780849260409485528339810103126100c6578051906001600160a01b03821682036100c657602001516001600160a01b03811691908290036100c6576080525f80546001600160a01b03191691909117905560405161546190816100df82396080518181816105650152818161099301528181610ecb0152818161132b015281816117720152818161180301528181611c1e01526124240152f35b5f80fd5b634e487b7160e01b5f52604160045260245ffdfe60806040526004361015610011575f80fd5b5f3560e01c8062796f711461014357806306cf4e7f1461013e57806308238466146101395780630d2700ab146101345780631412723a1461012f5780633c9fe5441461012a5780633f1177401461012557806341e1237314610120578063440c8daa1461011b57806351ff9a16146101165780635f755d65146101115780639b2227941461010c578063a3b74a4914610107578063ac9650d814610102578063b1efb921146100fd578063c9544f18146100f8578063e6227925146100f3578063f4662f20146100ee5763f878e809146100e9575f80fd5b612055565b611aed565b61185a565b6117d8565b611734565b611666565b61152b565b61145a565b61139b565b6112cf565b610a1f565b61096a565b61087b565b6107b5565b61071a565b610508565b6103bc565b61024e565b610185565b6001600160a01b0381160361015957565b5f80fd5b60409060031901126101595760043561017581610148565b9060243561018281610148565b90565b34610159576101f86101963661015d565b6001600160a01b039182165f90815260016020526040808220600380820154600292830154968616855292909320909201546001600160801b0390941660809190911b179392916101e69061263b565b015460018060801b03169060801b1790565b604080519283526020830191909152819081015b0390f35b6001600160801b0381160361015957565b9181601f84011215610159578235916001600160401b038311610159576020838186019501011161015957565b60603660031901126101595760043561026681610148565b60243561027281610210565b6044356001600160401b03811161015957610291903690600401610221565b92905f5160206153ec5f395f51905f525c6001600160a01b03166103a857335f5160206153ec5f395f51905f525d6102c7613257565b6001600160a01b0382165f908152600160205260409020600201546001606d1b906001600160801b03906102ff90869060801c612668565b1611610394577f0dc5e2150c5754dc0bcd8d76ca2d23850fc9a2a3115c69bb4fbdbedc25074a009361033c916001600160801b0385163385613349565b610363600261034a8361263b565b0154608084901b6001600160801b038516175b9061387d565b600261036e8361263b565b015561037f60405192839283612686565b0390a161038a6132b4565b610392613245565b005b63d1b5191160e01b5f52601260045260245ffd5b63d1b5191160e01b5f52600360045260245ffd5b346101595760203660031901126101595761020c6004356103dc81610148565b5f60606040516103eb816126bd565b828152826020820152826040820152015260018060a01b0381165f52600160205260405f20549061042e60016104208361263b565b01546001600160a01b031690565b90610468600361044a60026104428561263b565b01549361263b565b01549261045561274f565b9485526001600160a01b03166020850152565b604083810191825260608085019384528151855181526020958601516001600160a01b0316958101959095529151908401529051908201529081906080820190565b9181601f84011215610159578235916001600160401b038311610159576020808501948460051b01011161015957565b602060031982011261015957600435906001600160401b03821161015957610504916004016104aa565b9091565b3461015957610516366104da565b5f5160206153ec5f395f51905f525c6001600160a01b03166103a857335f5160206153ec5f395f51905f525d604051635f35b0b360e01b81523360048201526020816024816001600160a01b037f0000000000000000000000000000000000000000000000000000000000000000165afa8015610715576105a4915f916106e6575b50600160fc1b16151590565b156106df575f915b606482116106cb576105bd826127dd565b925f5b8381106106055750506105fa7f477bb716eacccc001de50dcdd6e25241283d080e6afb27443908b20f4e738b5e9360405193849384612871565b0390a1610392613245565b8061063f83600461062961062461061f6001978b8b612823565b612838565b61263b565b019060018060a01b03165f5260205260405f2090565b5461064a8288612842565b5260026106578288612842565b5111610664575b016105c0565b6106776106718288612842565b51612856565b6106818288612842565b526106a261069c84600461062961062461061f878c8c612823565b60019055565b6106c66106b361061f838888612823565b6106bd8389612842565b51903390613958565b61065e565b63d1b5191160e01b5f52601560045260245ffd5b33916105ac565b610708915060203d60201161070e575b610700818361272e565b8101906127ac565b5f610598565b503d6106f6565b6127bb565b346101595760603660031901126101595761020c6107a360043561073d81610148565b60243561074981610148565b61079d6044356001600160a01b039384165f908152600160205260408082206003808201546002928301549888168552929093209092015492956001600160801b031660809190911b17936101e69061263b565b906139f6565b60405190151581529081906020820190565b34610159576020366003190112610159576004356107d281610148565b5f5160206153ec5f395f51905f525c6001600160a01b03166103a857335f5160206153ec5f395f51905f525d5f54336001600160a01b0390911603610867576001600160a01b0381165f90815260016020526040902054600160fe1b1615610839565b1590565b6108535761038a9061084b3082613a56565b903390613958565b63d1b5191160e01b5f52602260045260245ffd5b63d1b5191160e01b5f52601660045260245ffd5b34610159576020366003190112610159576004355f60a060405161089e816126dd565b82815282602082015282604082015282606082015282608082015201525f52600260205261020c60405f206005604051916108d8836126dd565b80546001600160a01b0390811684526001820154166020840152600281015460408401526003810154606084015260048101546080840152015460a08201526040519182918291909160a08060c0830194600180831b038151168452600180831b0360208201511660208501526040810151604085015260608101516060850152608081015160808501520151910152565b34610159576109783661015d565b604051635f35b0b360e01b81523360048201526020816024817f00000000000000000000000000000000000000000000000000000000000000006001600160a01b03165afa908115610715576109df91610835915f91610a00575b50600160fb1b16151590565b6109ec57610392916128eb565b63d1b5191160e01b5f52600260045260245ffd5b610a19915060203d60201161070e57610700818361272e565b5f6109d3565b60c036600319011261015957600435610a3781610148565b602435610a4381610148565b604435606435610a5281610210565b60843591610a5f83610148565b60a4356001600160401b03811161015957610a7e903690600401610221565b90929091905f5160206153ec5f395f51905f525c6001600160a01b03166103a857335f5160206153ec5f395f51905f525d610ab7613257565b6001600160801b031692600184116112bb576001600160a01b0386811695908816948587146112a757610af8610aec8a61263b565b54600160fe1b16151590565b61129357610b08610aec8961263b565b61127f576002610b178a61263b565b01541561126b576002610b298961263b565b01541561125757600103610f5b576001600160a01b0381168015159081610f50575b50610ec9575b506002610b5d8861263b565b015495610b6e8360801c8098612668565b610ba5610b99610b896002610b828d61263b565b0154612967565b610b928c61263b565b54906129db565b6001600160801b031690565b6001600160801b0390911611610eb557610bbe8861263b565b6003015491610bcc8261263b565b6003015498610bda8161263b565b6002015495610be88261263b565b5492610bf38561263b565b600201549b610c018661263b565b54978c610c0c612760565b6001600160801b0390911681525f6020820181815260408301828152606084019283526001600160801b03909b1660808401529099909790936001600160801b031660a083015260c082019b8c5260e082015261010081019e8f526101208101998a52610c7890613d18565b87516001600160801b0316620f424011610ea15785516001600160801b0390811691169081119081610e97575b50610e83578c51610ccd610b99610cbc8b5161294c565b600a6001600160801b039091160490565b6001600160801b0390911610610e6f578c51610cef610b99610cbc8360801c90565b6001600160801b0390911610610e6f57885181518d906001600160801b031660801b6001600160801b0390911617610d269161387d565b8952516001600160801b0316610d3c818d6129db565b6001600160801b031660809190911b1796518451979b8c989091906001600160801b03166001600160801b031661271060cc9290921c607f1602048d519095908e90608088901b6001600160801b03891617610d979161387d565b9052516001600160801b03166001600160801b0316608086901b179c8d99610dbe8661263b565b9051610dca9160020155565b610dd38761263b565b9051610ddf9160020155565b33610de994613349565b610df390856129db565b6001600160801b031633610e0692613958565b51604080516001600160801b0390921682526020820192909252908101919091527f770ac49eb4a65be664dd014b1b315647b776f18742f5b7e141e8cb18cec6cea890606090a35b610e566132b4565b610e5e613245565b604080519182526020820192909252f35b63d1b5191160e01b5f52601060045260245ffd5b63d1b5191160e01b5f52600f60045260245ffd5b905015155f610ca5565b63d1b5191160e01b5f52600e60045260245ffd5b63d1b5191160e01b5f52602160045260245ffd5b7f00000000000000000000000000000000000000000000000000000000000000006001600160a01b0316803b15610159576040516307543e3f60e41b81523360048201526001600160a01b039290921660248301525f908290604490829084905af180156107155715610b515780610f445f610f4a9361272e565b806117ce565b5f610b51565b90503314155f610b4b565b929690959092906001600160a01b0382161561124357610f7a8461263b565b6003015491610f888261263b565b6003015493610f968661263b565b6002015495610fa48161263b565b5496610faf8561263b565b6002015491610fbd8661263b565b549b610fc7612760565b6001600160801b0386168152995f60208c0181815260408d0182815260608e019283526001600160801b03909b1660808e01529b999a9099906001600160801b031660a082015260c0810194855260e08101918252610100810195865261012081019e8f5261103590613aff565b5199516001600160801b0316996001600160801b038b1661271060c59290921c607f160204996001600160801b031660808b901b178851909d906001600160801b0390811616620f424011610ea157608086901c906001600160801b038f1682108061123a575b610e83576110b2610b99610cbc8851935161294c565b6001600160801b0390911610610e6f5784516110d4610b99610cbc8360801c90565b6001600160801b0390911610610e6f576110fa9060026110f38561263b565b0154612668565b611127610b9961111e61111960026111118861263b565b015460801c90565b612967565b610b928661263b565b6001600160801b0390911611610eb55782518d999060808c901b6001600160801b038d16176111559161387d565b8452516001600160801b031661116b81876129db565b6001600160801b031660809190911b179d6111878f9b8b612668565b6001600160801b031661119c92903385613349565b6111a59061263b565b90516111b19160020155565b6111ba8461263b565b90516111c69160020155565b6111dd926001600160801b03919091169190613958565b516111f0906001600160801b03166129f4565b60405192839261121192846040919493926060820195825260208201520152565b037f770ac49eb4a65be664dd014b1b315647b776f18742f5b7e141e8cb18cec6cea891a3610e4e565b5081151561109c565b63d1b5191160e01b5f52602060045260245ffd5b63d1b5191160e01b5f52600d60045260245ffd5b63d1b5191160e01b5f52600c60045260245ffd5b63d1b5191160e01b5f52600b60045260245ffd5b63d1b5191160e01b5f52600a60045260245ffd5b63d1b5191160e01b5f52600960045260245ffd5b63d1b5191160e01b5f52600860045260245ffd5b6080366003190112610159576004356112e781610148565b602435906044356064356001600160401b0381116101595761130d903690600401610221565b604051635f35b0b360e01b81523360048201529092906020816024817f00000000000000000000000000000000000000000000000000000000000000006001600160a01b03165afa9081156107155761137691610835915f916106e65750600160fc1b16151590565b6113875761020c946107a394612a62565b63d1b5191160e01b5f52600160045260245ffd5b60c0366003190112610159576004356113b381610148565b604435906024356113c383610148565b606435916084356001600160401b038111610159576113e6903690600401610221565b9060a435946001600160401b0386116101595761020c9661140e6107a3973690600401610221565b969095612bdb565b90602080835192838152019201905f5b8181106114335750505090565b8251845260209384019390920191600101611426565b906020610182928181520190611416565b34610159576040366003190112610159576004356001600160401b0381116101595761148a9036906004016104aa565b9060243561149781610148565b60648311611517576114a8836127dd565b925f5b8181106114c0576040518061020c8782611449565b806114ce6001928487612823565b356114d881610148565b828060a01b03165f528160205261150584600460405f20019060018060a01b03165f5260205260405f2090565b546115108288612842565b52016114ab565b63d1b5191160e01b5f52601560045260245ffd5b346101595760403660031901126101595760043561154881610148565b6024356001600160a01b038281165f81815260016020819052604090912001549093911633036115cf577f075a13b9dbfb2e30d678551b8c2a4f9ede7468ca5273fa902a41d0e577566669925f5260016020526115a88260405f206144d1565b604080516001600160a01b039290921682526020820192909252a160405160018152602090f35b63d1b5191160e01b5f52601460045260245ffd5b805180835260209291819084018484015e5f828201840152601f01601f1916010190565b602081016020825282518091526040820191602060408360051b8301019401925f915b83831061163957505050505090565b9091929394602080611657600193603f1986820301875289516115e3565b9701930193019193929061162a565b61166f366104da565b90611678613257565b611681826127c6565b9161168f604051938461272e565b808352601f1961169e826127c6565b015f5b8181106117235750505f5b8181106116cb5761020c846116bf6132b4565b60405191829182611607565b5f806116d8838587612fc6565b906116e860405180938193613007565b0390305af46116f561302f565b901561171b57906001916117098287612842565b526117148186612842565b50016116ac565b602081519101fd5b8060606020809388010152016116a1565b346101595760403660031901126101595760043561175181610148565b602435604051635f35b0b360e01b81523360048201529091906020816024817f00000000000000000000000000000000000000000000000000000000000000006001600160a01b03165afa908115610715576117bd91610835915f91610a005750600160fb1b16151590565b6109ec5761020c916107a39161305e565b5f91031261015957565b34610159575f36600319011261015957604051635f35b0b360e01b81523360048201526020816024817f00000000000000000000000000000000000000000000000000000000000000006001600160a01b03165afa9081156107155761184e91610835915f916106e65750600160fc1b16151590565b611387576103926131e6565b346101595760803660031901126101595760043561187781610148565b60243561188381610148565b60443590606435801515810361015957156119cb576119b961199f61198f5f9361197f6119786101f89760801c9261196b8a60036118c08261263b565b0154926118e660026118de60036118d68561263b565b01549461263b565b01549d61263b565b546118fd60026118f58461263b565b01549261263b565b549d61194e61190a612760565b6001600160801b038b16815294602086019e8f525f6040870181815260608801919091526001600160801b0390981660808701526001600160801b031660a0860152565b60c084015260e083015261010082015261012081019b8c52613d18565b516001600160801b031690565b80926129db565b60018060801b03169060801b1790565b945192516001600160801b031690565b916001600160801b038316607f6127109260cc1c16020490565b60801b6001600160801b039091161790565b6119d48361263b565b60030154926119e28261263b565b60030154916119f08261263b565b60020154906119fe8361263b565b5490611a098161263b565b6002015490611a179061263b565b5491611a21612760565b6001600160801b0388168152935f602086018181526040870182815260608801929092526001600160801b03909a16608087015298966001600160801b031660a086015260c085015260e0840152610100830152610120820152611a8490613aff565b611a8d9061263b565b5490516001600160801b0316906001600160801b03821661271060c59290921c607f16020460801b6001600160801b039091161791516001600160801b03169081611ad7916129db565b6001600160801b031660809190911b1790610e5e565b3461015957606036600319011261015957602435600435611b0d82610210565b60443591611b1a83610148565b5f5160206153ec5f395f51905f525c6001600160a01b03166103a857335f5160206153ec5f395f51905f525d816060611b6b611b5e835f52600260205260405f2090565b546001600160a01b031690565b611bb4611b856001610420865f52600260205260405f2090565b611ba4611b90612770565b338152936001600160a01b03166020850152565b6001600160a01b03166040830152565b200361204157611bc2613206565b50611bcb613206565b50611be1611b5e835f52600260205260405f2090565b611bed610aec8261263b565b61129357611c086001610420855f52600260205260405f2090565b6040516354c2c80d60e11b8152336004820152947f0000000000000000000000000000000000000000000000000000000000000000939192916001600160a01b03851691602088602481865afa978815610715575f98612010575b50604051635f35b0b360e01b81526001600160a01b0382166004820152602081602481875afa801561071557611ca6915f91611fe6575b50600160a01b16151590565b1561200a57505f965b6001600160a01b038881169082160361200557505f5b604051635f35b0b360e01b81526001600160a01b038216600482015292602090849060249082905afa92831561071557611d7e93611d0f915f91611fe65750600160a01b16151590565b15611fe157505f5b611d208461263b565b611d298661263b565b90611d79611d3f8a5f52600260205260405f2090565b93611d5a611d4b612770565b6001600160801b039097168752565b6001600160a01b038c1660208701526001600160a01b03166040860152565b614547565b81979295611d913360046106298861263b565b5460018111611fbb575b506001600160a01b038616611f1b575b7fc4fd5935c4fcd95833fbc9e12d4b8297dc4a371615a410aa1c793f660838515393611ee797969383611dec611ed794611ef59c999660801c903390614c1c565b8851611e0e906001600160801b031660608b01516001600160801b031661197f565b60208a0151611e33906001600160801b031660808c01516001600160801b031661197f565b8351909290611e8490611e5c906001600160801b031660608701516001600160801b031661197f565b602086015190959061197f906080906001600160801b03165b9201516001600160801b031690565b604080516001600160a01b03998a16815299891660208b015295909716948801949094526060870193909352608086019290925260a085019190915260c084015260e08301919091528190610100820190565b0390a2516001600160801b031690565b91516001600160801b031690565b90611efe613245565b604080516001600160801b03928316815292909116602083015290f35b92959491509592611f2e610aec8361263b565b61129357611ed7611ee79689611ef599611dec7fc4fd5935c4fcd95833fbc9e12d4b8297dc4a371615a410aa1c793f660838515397611f723360046106298b61263b565b5460018111611f8f575b5094505093969950939697509350611dab565b611fae611fb591611fa961069c8c6004610629339261263b565b612856565b338a613958565b5f611f7c565b611fd4611fdb91611fa961069c3360046106298c61263b565b3387613958565b5f611d9b565b611d17565b611fff915060203d60201161070e57610700818361272e565b5f611c9a565b611cc5565b96611caf565b61203391985060203d60201161203a575b61202b818361272e565b810190613230565b965f611c63565b503d612021565b63d1b5191160e01b5f52601360045260245ffd5b60a03660031901126101595760043561206d81610148565b6024359061207a82610148565b60443561208681610210565b6064356001600160401b038111610159576120a5903690600401610221565b9290936084356001600160401b038111610159576120c7903690600401610221565b9092905f5160206153ec5f395f51905f525c6001600160a01b03166103a857335f5160206153ec5f395f51905f525d6120fe613257565b612106612f24565b9361210f612f24565b6001600160a01b038581169791939190851688146112a757612133610aec8661263b565b6112935760026121428661263b565b01541561126b576121616121558661263b565b54600160ff1b16151590565b8015612629575b15612615576001606d1b6001600160801b036121898360026110f38a61263b565b1611610394576121a161219b8661263b565b54614c6b565b97159889159a8b6125c8575b61224d928a928a926121cb91906001600160801b038416338c613349565b61220a6121fa6121e960036121df8c61263b565b0154608081901c91565b6001600160801b031660a086015290565b6001600160801b03166080840152565b61223f61222f61221e60026121df8c61263b565b6001600160801b031660e086015290565b6001600160801b031660c0840152565b6122488861263b565b6142f3565b604086018051909990620f42406001600160801b03909116106125b457612473575b5050612279612770565b3381526001600160a01b038381166020830152841660408201526060902087519095906122b09082906001600160801b03166129b7565b97886122c4885f52600260205260405f2090565b60208881015190860151845160608b018051909694938a936001600160801b0319608092831b81166001600160801b039283161794898316931b1691909117911661230f89826129b7565b6001600160801b031660809190911b1760608a01805190999193918d916001600160801b03169061234090826129b7565b6001600160801b031660809190911b179461235a96614058565b516001600160801b031660801b6001600160801b039091161795516001600160801b031690516001600160801b03166001600160801b031660809190911b1791516001600160801b031690516001600160801b03166001600160801b031660809190911b17604080516001600160a01b03948516815293909416602084015292820193909352606081019290925260808201528060a08101037fee89c9fd704272905456294f1b2b88581ebe0241f72c15b4f3db31d19388f6af91a2612448919015612465575b337f00000000000000000000000000000000000000000000000000000000000000006140f6565b506124516132b4565b612459613245565b60405160018152602090f35b61246e90612967565b612421565b61247f610aec8661263b565b61127f57600261248e8661263b565b015415611257576125ad916125a6610b996125958a6125908a8f838b61257f61252b61196b94612525611ee7608061197f611ee761196b61250360026121df8f6106248e6124e060036121df8561263b565b6001600160801b031660a083019081529a90916001600160801b03909216910152565b6001600160801b031660e08c0190815291906001600160801b031660c08c0152565b90614c80565b6001600160801b0316606083019081529461062461257261254b8361263b565b548851612560906001600160801b0316610b99565b603f6127109260d91c16820390040290565b6001600160801b03168752565b84516001600160801b0316906142f3565b6129b7565b86516001600160801b031690612668565b3387613349565b5f8061226f565b63d1b5191160e01b5f52602660045260245ffd5b909861224d9289916125df610b9961219b8c61263b565b6001600160801b0382161015612600576121cb905b9b9392505092506121ad565b506121cb61261061219b8b61263b565b6125f4565b63d1b5191160e01b5f52601160045260245ffd5b506126366121558761263b565b612168565b6001600160a01b03165f90815260016020526040902090565b634e487b7160e01b5f52601160045260245ffd5b6001600160801b03918216908216019190821161268157565b612654565b6001600160a01b0390911681526001600160801b03909116602082015260400190565b634e487b7160e01b5f52604160045260245ffd5b608081019081106001600160401b038211176126d857604052565b6126a9565b60c081019081106001600160401b038211176126d857604052565b60a081019081106001600160401b038211176126d857604052565b604081019081106001600160401b038211176126d857604052565b90601f801991011681019081106001600160401b038211176126d857604052565b6040519061275e60808361272e565b565b6040519061275e6101408361272e565b6040519061275e60608361272e565b6040519061275e60c08361272e565b6040519061275e60408361272e565b6040519061275e60a08361272e565b90816020910312610159575190565b6040513d5f823e3d90fd5b6001600160401b0381116126d85760051b60200190565b906127e7826127c6565b6127f4604051918261272e565b8281528092612805601f19916127c6565b0190602036910137565b634e487b7160e01b5f52603260045260245ffd5b91908110156128335760051b0190565b61280f565b3561018281610148565b80518210156128335760209160051b010190565b5f1981019190821161268157565b9190820391821161268157565b93929091938460408201604083525260608101925f955b8087106128a45750506101829394506020818403910152611416565b909360208060019287356128b781610148565b848060a01b0316815201950196019590612888565b80546001600160a01b0319166001600160a01b03909216919091179055565b907f42e3c955499470d3dc1078d90519d90691c504c8856ea058daf2c1436c2dab4c9160018060a01b0381165f52600160205261292e82600160405f20016128cc565b604080516001600160a01b03928316815292909116602083015290a1565b6001600160801b03908116600b029081169190820361268157565b60011b6002600160801b03811691906002600160811b0316820361268157565b6001600160801b03918216908216029081169190820361268157565b634e487b7160e01b5f52601260045260245ffd5b6001600160801b039091169081156129d6576001600160801b03160490565b6129a3565b6001600160801b03918216908216039190821161268157565b908160801b91808304600160801b149015171561268157565b908160011b918083046002149015171561268157565b90600a820291808304600a149015171561268157565b908160021b918083046004149015171561268157565b8181029291811591840414171561268157565b929390612a6d613257565b600160ff1b831615612bc8576001600160a01b03612a8f60016104208761263b565b16612bb4577f8f2eb922ee1b2f92e0051f7949a8c191264807725a1e435e91abebd28583830a94612ba692612acf916001600160801b0384163388613349565b612ae28382612add8761263b565b613e99565b612af3612aee8561263b565b613f0b565b6060612afd612770565b3381526001600160a01b03861660208201525f60408201522092612b65612b2c855f52600260205260405f2090565b612421612b398560801b90565b608086901c92906001600160801b031987168417908a608089901b6001600160801b038a161793613ffe565b604080519586526001600160a01b0390961660208601526001600160801b0316948401949094526060830193909352608082019290925290819060a0820190565b0390a160019061275e6132b4565b63d1b5191160e01b5f52600560045260245ffd5b63d1b5191160e01b5f526004805260245ffd5b9294919596909660018060a01b035f5160206153ec5f395f51905f525c166103a857335f5160206153ec5f395f51905f525d612c15613257565b8760801c946207a12086108015612f17575b612f0357612c3a6108356121558761263b565b612eef576001600160a01b03612c5460016104208b61263b565b16612bb457612c7a93612c699187338b613349565b6001600160801b0388163385613349565b612cbd612c85612f24565b8096612c9b6121fa6121e960036121df8861263b565b612caf61222f61221e60026121df8861263b565b612cb88461263b565b61416e565b604085018051909590631dcd65006001600160801b0390911610612edb577f3fc0293a5a7bc73de220f0814bbbebc31e77ffcd41bf5e8be187471747bd7caa9584612e74612da961197f611ee7612e66612ec599612d3d612e379c612d218f61263b565b8a51612d379085906001600160801b03166119b9565b90613e99565b612e3c8d60608c612d67612d4f612770565b338152916001600160a01b0385166020840152611ba4565b209d8e8d8d8d612dbd612da9612d9b612d89602086015160018060801b031690565b6001600160801b031660808c901b1790565b92516001600160801b031690565b608081901b6001600160801b039091161790565b90612e15612dea606060808c901b6001600160801b038d161795018051909f6001600160801b0390911690565b94612e05612df661277f565b6001600160a01b03909a168a52565b6001600160a01b03166020890152565b60408701526060860152608085015260a08401525f52600260205260405f2090565b612f71565b875161197f90612e5890612421906001600160801b0316612967565b98516001600160801b031690565b96516001600160801b031690565b604080519788526001600160a01b039889166020890152949097169386019390935260608501929092526001600160801b03909116608084015260a083015260c082019290925290819060e0820190565b0390a1612ed06132b4565b60019061275e613245565b63d1b5191160e01b5f52602360045260245ffd5b63d1b5191160e01b5f52600660045260245ffd5b63d1b5191160e01b5f52602460048190525ffd5b506001606d1b8611612c27565b6040519061010082018281106001600160401b038211176126d8576040525f60e0838281528260208201528260408201528260608201528260808201528260a08201528260c08201520152565b9060a0600591612f89600180841b03825116856128cc565b612fa1600180841b03602083015116600186016128cc565b6040810151600285015560608101516003850155608081015160048501550151910155565b91908110156128335760051b81013590601e19813603018212156101595701908135916001600160401b038311610159576020018236038113610159579190565b908092918237015f815290565b6001600160401b0381116126d857601f01601f191660200190565b3d15613059573d9061304082613014565b9161304e604051938461272e565b82523d5f602084013e565b606090565b6001600160a01b0381165f90815260016020526040812092919061308f61308a60fb85901c5b60071690565b612a23565b6130a461309f6130848660f71c90565b612a0d565b6130b96130b46130848760f41c90565b612a39565b6130cc6130c68760ef1c90565b601f1690565b906130da6130c68860ea1c90565b926130e86130c68960e51c90565b94801580156131de575b80156131d6575b80156131ce575b80156131c6575b80156131be575b6131b6575b6064959361312f61312f9461312f613134989561312f95613870565b613870565b146131ae575b1561319a5782546001600160df1b03166001600160df1b0319831601909255604080516001600160a01b03909316835260208301919091527fe40cf68f61d9a4e510244481f5aa34ba68de31cf3f9aa360604d688115d640c891a1600190565b63d1b5191160e01b5f52601860045260245ffd5b50600161313a565b5f9650613113565b50851561310e565b508415613107565b508315613100565b5082156130f9565b5081156130f2565b5f54336001600160a01b03821603610867576001600160a01b0319165f55565b60405190613213826126f8565b5f6080838281528260208201528260408201528260608201520152565b90816020910312610159575161018281610148565b5f5f5160206153ec5f395f51905f525d565b5f5160206153cc5f395f51905f525c1561328f575b60015f5160206153cc5f395f51905f525c015f5160206153cc5f395f51905f525d565b345f51602061540c5f395f51905f525d5f5f5160206153cc5f395f51905f525d61326c565b5f195f5160206153cc5f395f51905f525c015f5160206153cc5f395f51905f525d5f5160206153cc5f395f51905f525c1580613332575b6132f157565b5f8080805f51602061540c5f395f51905f525c815f51602061540c5f395f51905f525d335af11561331e57565b63d1b5191160e01b5f52601f60045260245ffd5b505f51602061540c5f395f51905f525c15156132eb565b90936001600160801b0390921692909160016001600160a01b038416036133775750505061275e9150615381565b8061338957505061275e92309161532d565b9061339691810190614ca9565b60ff6133a3825160ff1690565b1660028103613584575060206133c491015160208082518301019101614eba565b6001600160a01b03821690736b175474e89094c44da98b954eedeac495271d0f82036134fe57604051623f675f60e91b81526001600160a01b038616600482015291602090839060249082905afa908115610715576134b65f9392849384916134df575b506134a8602084015193613440604082015160ff1690565b60608201516080909201516040516323f2ebc360e21b60208201526001600160a01b038d16602482015230604482015260648101959095526084850196909652600160a485015260ff1660c484015260e4830152610104820193909352918290610124820190565b03601f19810183528261272e565b60208151910182855af1156134d05761275e92309161532d565b63203aa5b560e11b5f5260045ffd5b6134f8915060203d60201161070e57610700818361272e565b5f613428565b5f91508061357f8392516134a860208401519361351f604082015160ff1690565b606082015160809092015160405163d505accf60e01b60208201526001600160a01b038d1660248201523060448201526064810195909552608485019690965260ff1660a484015260c483015260e4820193909352918290610104820190565b6134b6565b919392916003810361361657505061359b90615314565b6e22d473030f116ddee9f6b43ac78ba33b1561015957604051631b63c28b60e11b81526001600160a01b0392831660048201523060248201529082166044820152911660648201525f81608481836e22d473030f116ddee9f6b43ac78ba35af18015610715576136085750565b80610f445f61275e9361272e565b600481036137645750602061363691015160208082518301019101614d4a565b906136eb6136448351615314565b9261369e61365b604083015165ffffffffffff1690565b61368361366661274f565b6001600160a01b038a168152966001600160a01b03166020880152565b65ffffffffffff604087015265ffffffffffff166060860152565b60208101516136ab612770565b94855230602086015260408501526080810151906136e56136d5606060a084015193015160ff1690565b60f81b6001600160f81b03191690565b91614da3565b916e22d473030f116ddee9f6b43ac78ba33b15610159576040516302b67b5760e41b8152925f918491829161372591908860048501614e42565b0381836e22d473030f116ddee9f6b43ac78ba35af19182156107155761359b92613750575b50615314565b80610f445f61375e9361272e565b5f61374a565b929392600514613775575b50505050565b61378f60206137fd92015160208082518301019101614d4a565b80516137ab61379c61278e565b6001600160a01b039096168652565b602085015260408101516020820151906137c3612770565b958652602086015260408501526137d861278e565b3081529260208401526080810151906136e56136d5606060a084015193015160ff1690565b916e22d473030f116ddee9f6b43ac78ba33b15610159576138345f93604051958694859463187945bd60e11b865260048601614dce565b0381836e22d473030f116ddee9f6b43ac78ba35af180156107155761385c575b80808061376f565b80610f445f61386a9361272e565b5f613854565b9190820180921161268157565b608082811c9082901c818101936001600160801b0390811693168381019391851015928361394d575b5082613942575b5081613937575b5080613927575b80613917575b156138d2576101829160801b613870565b60405162461bcd60e51b815260206004820152601b60248201527f54545377617055494e543235363a20616464206f766572666c6f7700000000006044820152606490fd5b506001600160801b0382106138c1565b506001600160801b0381106138bb565b90508110155f6138b4565b83101591505f6138ad565b85101592505f6138a6565b60016001600160a01b0382160361398e57505f80806139799481945af11590565b61397f57565b633607a14f60e11b5f5260045ffd5b60405163a9059cbb60e01b81526001600160a01b03909216600483015260248201929092526020905f9060449082855af19081601f3d1160015f51141615166139e9575b50156139da57565b633c9fd93960e21b5f5260045ffd5b3b153d171590505f6139d2565b9091613a4791613a3d90613a2a613a1a6001600160801b038716608084901c612a4f565b6001600160801b03851690612a4f565b9460801c906001600160801b0316612a4f565b9060801c90612a4f565b1015613a5257600190565b5f90565b6001600160a01b031660018103613a6c57503190565b6040516370a0823160e01b81526001600160a01b039092166004830152602090829060249082905afa908115610715575f91613aa7575b5090565b610182915060203d60201161070e57610700818361272e565b15613ac757565b60405162461bcd60e51b815260206004820152600660248201526506220697320360d41b6044820152606490fd5b81156129d6570490565b61012081015181516001600160801b03166001600160801b031661271060cc9290921c607f1602046001600160801b03166040820190815281516001600160801b031681516001600160801b0316613b5691612668565b6001600160801b03908116835260c08301805160a085018051909593613b80929181169116612a4f565b82516001600160801b03166001600160801b0316613b9d91612a4f565b613ba690612a0d565b60808301805161010085018051909792939291613bcf916001600160801b039081169116612a4f565b613bd890612a0d565b83518651613bf2916001600160801b039182169116612a4f565b613bfb91612864565b90518551613c15916001600160801b039182169116612a4f565b613c1e91612864565b613c2b6103e88211613ac0565b613c3491613af5565b613c3d90614f09565b6001600160801b03166020840190815290516001600160801b0316825182516001600160801b031660011c60016001607f1b0316613c7a91612668565b6001600160801b031660809190911b1781516001600160801b0316613c9e91614c80565b6001600160801b03166060840152815190516001600160801b03166001600160801b0316613ccb9161387d565b9052825190516001600160801b03166001600160801b0316613cec91614f6d565b80835290516001600160801b0316608081901b6001600160801b0390911617613d149161387d565b9052565b613d7f613d72613d4860e0840151613d39610b99865160018060801b031690565b607f6127109260c51c16020490565b6001600160801b0316604084019081528351613d6c906001600160801b0316611ee7565b906129db565b6001600160801b03168252565b613d14613dfe613df9613dbe61309f613da4610b99608088015160018060801b031690565b8651613db8906001600160801b0316610b99565b90612a4f565b60c0850151613df390613dd9906001600160801b0316612a0d565b8651613ded906001600160801b0316610b99565b90613870565b90613af5565b614f09565b6001600160801b03166060830190815291613e7d6020613e6d613df9610100850196613df3613e4d61309f613e398b5160018060801b031690565b8451613db8906001600160801b0316610b99565b91613ded610b99612d9b61309f610b9960a08d015160018060801b031690565b6001600160801b03169201918252565b82519051613e93906001600160801b0316610b99565b90614f6d565b6001600160801b03808316608084811b91821760028501559390931c9092176003820155600160801b600160df1b0390921662c3508160e61b019190600190613ee184614c6b565b1611613ef75761275e91815560013391016128cc565b63d1b5191160e01b5f52601960045260245ffd5b5f613f1961308a6016613084565b613f2761309f610161613084565b613f356130b4610b0d613084565b613f41620161a86130c6565b90613f4e622c35086130c6565b92613f5c630586a1026130c6565b9480158015613ff6575b8015613fee575b8015613fe6575b8015613fde575b8015613fd6575b613fce575b6064959361312f61312f9461312f613fa3989561312f95613870565b14613fc6575b1561319a5780546001600160df1b03166302c3508160e61b019055565b506001613fa9565b5f9650613f87565b508515613f82565b508415613f7b565b508315613f74565b508215613f6d565b508115613f66565b600361403b9161404495939694600482019760018060801b0389541615614048575b506140306002830191825461387d565b90550191825461387d565b9055825461387d565b9055565b61405290836128cc565b5f614020565b949092936140979294600487019460018060801b03865416156140e6575b506140866002880191825461387d565b905561403b6003870191825461387d565b90556001600160a01b0381166140ac57505050565b600182018054614044936005939092916001600160a01b0316156140d6575b50500191825461387d565b6140df916128cc565b5f806140cb565b6140f090886128cc565b5f614076565b9161411b926020925f60405180968195829463067e356d60e21b845260048401612686565b03926001600160a01b03165af1908115610715575f91614139575090565b90506020813d602011614166575b816141546020938361272e565b81010312610159575161018281610210565b3d9150614147565b9190614044916141e06141d360016141ce6141898287612987565b6001600160801b03166060860181815289549097916141be91612572916141af90610b99565b603f6127109260d91c16020490565b85516001600160801b0316613d6c565b612987565b6001600160801b03168352565b60a08101516142d19061421d9061420d906001600160801b031660e08501516001600160801b031661197f565b84516001600160801b0316612525565b6001600160801b03166040830190815291608081015161426790614257906001600160801b031660c08401516001600160801b031661197f565b85516001600160801b0316612525565b6001600160801b031660208201908152906142af6002880191614298835461035d612da98a5160018060801b031690565b808455905161035d906001600160801b0316612da9565b90556003860180549151909361035d9161197f906001600160801b0316611ee7565b90558254905161035d90610b99906001600160801b0316613d6c6001826129b7565b929091816143018185612987565b6001600160801b03166060830190815293855485516001600160801b03166001600160801b031661271060d99290921c603f1602046001600160801b0316835282516001600160801b0316614355916129db565b9061435f91612987565b6001600160801b0316835260a08101516001600160801b031660e08201516001600160801b03166001600160801b031660809190911b1783516001600160801b03166143aa91614c80565b6001600160801b0316604082019081529060808101516001600160801b031660c08201516001600160801b03166001600160801b031660809190911b1784516001600160801b03166143fb91614c80565b6001600160801b0316602082019081529060028601805486519192916001600160801b0316608081901b6001600160801b039091161761443a9161387d565b80835590516001600160801b0316608081901b6001600160801b03909116176144629161387d565b905560038501805491519092906001600160801b031690516001600160801b03166001600160801b031660809190911b1761449c9161387d565b9055825491516001600160801b0316906144b690826129b7565b6144bf916129db565b6001600160801b03166140449161387d565b90815490603f8260df1c16801561453f575b6001600160801b036144f483614c6b565b166001600160801b039091161061452b57600160801b600160df1b03166b7fffffffffffffffffffffff60801b1991909116019055565b63d1b5191160e01b5f52601760045260245ffd5b5060016144e3565b91939093614553613206565b5061455c613206565b84519094906001600160801b03169560048301549161457b8360801c90565b97600285019061460e6145c76142578c6145b4856145af61459d895460801c90565b9360801b6001600160801b0385161790565b614c80565b9860801b6001600160801b039091161790565b6145fe6145d261279d565b5f808252602082019081526001600160801b039095166040820152976001600160801b03166060890152565b6001600160801b03166080870152565b614669859a61197f61465660038a015492614643614630826119b98760801c90565b60608c01516001600160801b0316612525565b9360801b6001600160801b039091161790565b60608901516001600160801b0316612525565b9780549160038201805490614681610b99838761501f565b8c60801c11614c085760608901516001600160801b03169460028501928354966146ae610b99898561501f565b6001600160801b0390911611614bf457614716614726916147026146f5614733958f610b9960606146e692015160018060801b031690565b603f6127109260d31c16020490565b6001600160801b03168852565b61197f61470f8a60801c90565b9160801c90565b89516001600160801b0316612525565b6001600160801b03168a52565b88516001600160801b03168351614752906001600160801b0316610b99565b6001600160801b03909116106108535788516148669561477e91613e93906001600160801b0316612da9565b82556147a18c613e938b6119b9604086549460801c92015160018060801b031690565b9055805482516147be919061035d906001600160801b0316612da9565b9055815460608801516147f09190613e9390610b99906001600160801b031660808c01516001600160801b0316613d6c565b82558651614818906146f5906001600160801b031660608a01516001600160801b0316613d6c565b86516001600160801b031660208601516001600160a01b03166040870151909190614860906001600160a01b031660808b0151909490613d6c906001600160801b0316611ee7565b93615035565b60018501546001600160a01b03166148f8575b505050604081015161275e92919085906148ca906148ad906001600160801b031660408a01516001600160801b031661197f565b606084015190939061197f906080906001600160801b0316611e75565b60608801519092906148f2906001600160801b031660808a01516001600160801b031661197f565b936152b5565b909392919650546149bd61492261491261459d8460801c90565b86516001600160801b0316612525565b916149ad614976614966600588015493614953614943826119b98860801c90565b8b516001600160801b0316612525565b9460801b6001600160801b039091161790565b88516001600160801b0316612525565b9161499d61498261279d565b5f80825260208201526001600160801b039096166040870152565b6001600160801b03166060850152565b6001600160801b03166080830152565b80968054916003820154926149d5610b99858361501f565b8960801c11614be05760608201516001600160801b031693600284015494614a00610b99878561501f565b6001600160801b0390911611614bcc57614a7591614a4e614a41614a2e614a659461197f61470f8b60801c90565b60408701516001600160801b0316612525565b6001600160801b03168552565b60608401516146e6906001600160801b0316610b99565b6001600160801b03166020830152565b80516001600160801b03166020820151614a97906001600160801b0316610b99565b6001600160801b03909116106108535761275e95614ac8614bc394613e93612da9606086015160018060801b031690565b600284015560038301546040830151614af09190613e93908c906001600160801b03166119b9565b600384015560028301546020830151614b16919061035d906001600160801b0316612da9565b600284015582546060830151614b4b9190613e9390610b99906001600160801b031660808701516001600160801b0316613d6c565b83558151614b73906141d3906001600160801b031660608501516001600160801b0316613d6c565b81516001600160801b0316602082015161486090614ba6906040906001600160a01b03169401516001600160a01b031690565b6080850151909490613d6c906020906001600160801b0316611e75565b90915f80614879565b63d1b5191160e01b5f52601d60045260245ffd5b63d1b5191160e01b5f52601c60045260245ffd5b63d1b5191160e01b5f52601b60045260245ffd5b63d1b5191160e01b5f52601a60045260245ffd5b6001600160a01b031691823b1561015957614c50925f9283604051809681958294637bd3ca3560e01b845260048401612686565b03925af1801561071557614c615750565b5f61275e9161272e565b60bb1c603f168015614c7a5790565b50600190565b610182916001600160801b0380831660809390931c91160204614f09565b60ff81160361015957565b602081830312610159578035906001600160401b0382116101595701906040828203126101595760405191614cdd83612713565b8035614ce881614c9e565b83526020810135906001600160401b038211610159570181601f8201121561015957803590614d1682613014565b92614d24604051948561272e565b8284526020838301011161015957815f9260208093018386013783010152602082015290565b908160c09103126101595760a060405191614d64836126dd565b8051835260208101516020840152604081015160408401526060810151614d8a81614c9e565b606084015260808101516080840152015160a082015290565b929190604051936020850152604084015260ff60f81b1660608301526041825261275e60618361272e565b9092614e266101009360406101829796614dfb8682516020809160018060a01b0381511684520151910152565b60208181015187840152910151606086015281516001600160a01b03166080860152015160a0840152565b6001600160a01b031660c082015260e0810182905201906115e3565b604061018294936101009360018060a01b0316835265ffffffffffff6060825160018060a01b03815116602087015260018060a01b036020820151168587015282858201511682870152015116608084015260018060a01b0360208201511660a0840152015160c08201528160e082015201906115e3565b908160a091031261015957608060405191614ed4836126f8565b80518352602081015160208401526040810151614ef081614c9e565b6040840152606081015160608401520151608082015290565b6001600160801b0381169190829003614f1e57565b60405162461bcd60e51b815260206004820152602160248201527f54545377617055494e543235363a20746f55696e74313238206f766572666c6f6044820152607760f81b6064820152608490fd5b608082811c9082901c818103936001600160801b039081169316838103938286111593929184615014575b84615009575b505082614ffe575b505015614fb9576101829160801b613870565b60405162461bcd60e51b815260206004820152601b60248201527f54545377617055494e543235363a20737562206f766572666c6f7700000000006044820152606490fd5b101590505f80614fa6565b101592505f80614f9e565b808611159450614f98565b60b11c6103ff168015613aa357610182916129b7565b8054909491939192909161505f606460e585901c601f166001600160801b038816020480966129db565b6001600160801b03811694909290600a60fb86901c60071687020492603260f787901c600f16880204956150b7601960f483901c6007168a020498606460ef84901c601f168202049290601f60649260ea1c16020490565b976001600160a01b038316615188575050506150d39083612668565b6001600160801b0316335f908152600490980160208190526040909820908154906150fd91613870565b90556151098585612668565b6001600160801b03166001600160a01b039091165f9081526020889052604090209081549061513791613870565b9055615142916129db565b9061514c916129db565b90615156916129db565b9061516091612668565b6001600160801b03169061517b905f805260205260405f2090565b9081549061404491613870565b610b999650908a6140449a9261526a9661526f9a6151b66152829d989a979f6001015460018060a01b031690565b6001600160a01b038116156152a4576001600160a01b03165f90815260048501602052604090206151f5905b805490926001600160801b031690613870565b90555b6001600160a01b0381161561528a576001600160a01b03165f9081526004808401602052604090912061524d936151e29390916152329085565b90555b019c8d9060018060a01b03165f5260205260405f2090565b90556152636151e28b5f805260205260405f2090565b9055612668565b612668565b335f908152602094909452604090932090565b918254613870565b50600461529e6151e29261524d9496612668565b94615235565b506152af9195612668565b936151f8565b9093916140449360029360018060a01b036001850154166152fd575b506152e160048401918254614f6d565b90556152f260038301918254614f6d565b905501918254614f6d565b61530c60058501918254614f6d565b90555f6152d1565b6001600160a01b0381169081036153285790565b505f90565b6040516323b872dd60e01b81526001600160a01b03928316600482015292909116602483015260448201929092526020905f9060649082855af19081601f3d1160015f51141615166139e95750156139da57565b5f51602061540c5f395f51905f525c81116153b7575f51602061540c5f395f51905f525c035f51602061540c5f395f51905f525d565b63d1b5191160e01b5f52601e60045260245ffdfe87b52c29898e62efc1f9a9b00a26dcbdaee98d728c56841703077b7c0d20dee7e2afc7ec4dbb9bfdb1b8e8bcf21a055747c25bf2faaea9cb5a134005381f4843cbe27d488af5b5c1b0bd8d89be6fdfeaed3ad42719044fd9b728f33df1d6f1d1a2646970667358221220a6f2685fa84fea33b3363646a934be4025706f159c1cb9788b66b0fc24bb36cf64736f6c634300081d0033","linkReferences":{}},"methodIdentifiers":{"buyGood(address,address,uint256,uint128,address,bytes)":"440c8daa","buyGoodCheck(address,address,uint256,bool)":"e6227925","changeGoodOwner(address,address)":"41e12373","collectCommission(address[])":"0d2700ab","disinvestProof(uint256,uint128,address)":"f4662f20","getGoodState(address)":"08238466","getProofState(uint256)":"3f117740","getRecentGoodState(address,address)":"00796f71","goodWelfare(address,uint128,bytes)":"06cf4e7f","initGood(address,uint256,address,uint256,bytes,bytes)":"5f755d65","initMetaGood(address,uint256,uint256,bytes)":"51ff9a16","investGood(address,address,uint128,bytes,bytes)":"f878e809","ishigher(address,address,uint256)":"1412723a","modifyGoodConfig(address,uint256)":"b1efb921","multicall(bytes[])":"ac9650d8","queryCommission(address[],address)":"9b222794","removeSecurityKeeper()":"c9544f18","securityKeeper(address)":"3c9fe544","updateGoodConfig(address,uint256)":"a3b74a49"},"id":46}