{"abi":[{"type":"constructor","inputs":[{"name":"_TTS_Contract","type":"address","internalType":"contract I_TTSwap_Token"}],"stateMutability":"nonpayable"},{"type":"function","name":"DOMAIN_SEPARATOR","inputs":[],"outputs":[{"name":"","type":"bytes32","internalType":"bytes32"}],"stateMutability":"view"},{"type":"function","name":"buyGood","inputs":[{"name":"_goodid1","type":"address","internalType":"address"},{"name":"_goodid2","type":"address","internalType":"address"},{"name":"_swapQuantity","type":"uint256","internalType":"uint256"},{"name":"_recipent","type":"address","internalType":"address"},{"name":"data","type":"bytes","internalType":"bytes"},{"name":"_trader","type":"address","internalType":"address"},{"name":"signature","type":"bytes","internalType":"bytes"}],"outputs":[{"name":"good1change","type":"uint256","internalType":"uint256"},{"name":"good2change","type":"uint256","internalType":"uint256"}],"stateMutability":"payable"},{"type":"function","name":"changeGoodOwner","inputs":[{"name":"_goodid","type":"address","internalType":"address"},{"name":"_to","type":"address","internalType":"address"},{"name":"_trader","type":"address","internalType":"address"},{"name":"signature","type":"bytes","internalType":"bytes"}],"outputs":[],"stateMutability":"nonpayable"},{"type":"function","name":"collectCommission","inputs":[{"name":"_goodid","type":"address[]","internalType":"address[]"},{"name":"_trader","type":"address","internalType":"address"},{"name":"signature","type":"bytes","internalType":"bytes"}],"outputs":[],"stateMutability":"nonpayable"},{"type":"function","name":"disinvestProof","inputs":[{"name":"_proofid","type":"uint256","internalType":"uint256"},{"name":"_goodshares","type":"uint128","internalType":"uint128"},{"name":"_gate","type":"address","internalType":"address"},{"name":"_trader","type":"address","internalType":"address"},{"name":"signature","type":"bytes","internalType":"bytes"}],"outputs":[{"name":"","type":"uint128","internalType":"uint128"},{"name":"","type":"uint128","internalType":"uint128"}],"stateMutability":"nonpayable"},{"type":"function","name":"getGoodState","inputs":[{"name":"good","type":"address","internalType":"address"}],"outputs":[{"name":"","type":"tuple","internalType":"struct S_GoodTmpState","components":[{"name":"goodConfig","type":"uint256","internalType":"uint256"},{"name":"owner","type":"address","internalType":"address"},{"name":"currentState","type":"uint256","internalType":"uint256"},{"name":"investState","type":"uint256","internalType":"uint256"}]}],"stateMutability":"view"},{"type":"function","name":"getProofState","inputs":[{"name":"proofid","type":"uint256","internalType":"uint256"}],"outputs":[{"name":"","type":"tuple","internalType":"struct S_ProofState","components":[{"name":"currentgood","type":"address","internalType":"address"},{"name":"valuegood","type":"address","internalType":"address"},{"name":"shares","type":"uint256","internalType":"uint256"},{"name":"state","type":"uint256","internalType":"uint256"},{"name":"invest","type":"uint256","internalType":"uint256"},{"name":"valueinvest","type":"uint256","internalType":"uint256"}]}],"stateMutability":"view"},{"type":"function","name":"getRecentGoodState","inputs":[{"name":"good1","type":"address","internalType":"address"},{"name":"good2","type":"address","internalType":"address"}],"outputs":[{"name":"good1currentstate","type":"uint256","internalType":"uint256"},{"name":"good2currentstate","type":"uint256","internalType":"uint256"}],"stateMutability":"view"},{"type":"function","name":"goodWelfare","inputs":[{"name":"goodid","type":"address","internalType":"address"},{"name":"welfare","type":"uint128","internalType":"uint128"},{"name":"data","type":"bytes","internalType":"bytes"},{"name":"_trader","type":"address","internalType":"address"},{"name":"signature","type":"bytes","internalType":"bytes"}],"outputs":[],"stateMutability":"payable"},{"type":"function","name":"initGood","inputs":[{"name":"_valuegood","type":"address","internalType":"address"},{"name":"_initial","type":"uint256","internalType":"uint256"},{"name":"_erc20address","type":"address","internalType":"address"},{"name":"_goodConfig","type":"uint256","internalType":"uint256"},{"name":"_normaldata","type":"bytes","internalType":"bytes"},{"name":"_valuedata","type":"bytes","internalType":"bytes"},{"name":"_trader","type":"address","internalType":"address"},{"name":"signature","type":"bytes","internalType":"bytes"}],"outputs":[{"name":"","type":"bool","internalType":"bool"}],"stateMutability":"payable"},{"type":"function","name":"initMetaGood","inputs":[{"name":"_erc20address","type":"address","internalType":"address"},{"name":"_initial","type":"uint256","internalType":"uint256"},{"name":"_goodConfig","type":"uint256","internalType":"uint256"},{"name":"data","type":"bytes","internalType":"bytes"}],"outputs":[{"name":"","type":"bool","internalType":"bool"}],"stateMutability":"payable"},{"type":"function","name":"investGood","inputs":[{"name":"_togood","type":"address","internalType":"address"},{"name":"_valuegood","type":"address","internalType":"address"},{"name":"_quantity","type":"uint128","internalType":"uint128"},{"name":"data1","type":"bytes","internalType":"bytes"},{"name":"data2","type":"bytes","internalType":"bytes"},{"name":"_trader","type":"address","internalType":"address"},{"name":"signature","type":"bytes","internalType":"bytes"}],"outputs":[{"name":"","type":"bool","internalType":"bool"}],"stateMutability":"payable"},{"type":"function","name":"ishigher","inputs":[{"name":"goodid","type":"address","internalType":"address"},{"name":"valuegood","type":"address","internalType":"address"},{"name":"compareprice","type":"uint256","internalType":"uint256"}],"outputs":[{"name":"","type":"bool","internalType":"bool"}],"stateMutability":"view"},{"type":"function","name":"lockGood","inputs":[{"name":"_goodid","type":"address","internalType":"address"},{"name":"_trader","type":"address","internalType":"address"},{"name":"signature","type":"bytes","internalType":"bytes"}],"outputs":[],"stateMutability":"nonpayable"},{"type":"function","name":"modifyGoodConfig","inputs":[{"name":"_goodid","type":"address","internalType":"address"},{"name":"_goodConfig","type":"uint256","internalType":"uint256"},{"name":"_trader","type":"address","internalType":"address"},{"name":"signature","type":"bytes","internalType":"bytes"}],"outputs":[{"name":"","type":"bool","internalType":"bool"}],"stateMutability":"nonpayable"},{"type":"function","name":"modifyGoodCoreConfig","inputs":[{"name":"_goodid","type":"address","internalType":"address"},{"name":"_goodConfig","type":"uint256","internalType":"uint256"},{"name":"_trader","type":"address","internalType":"address"},{"name":"signature","type":"bytes","internalType":"bytes"}],"outputs":[{"name":"","type":"bool","internalType":"bool"}],"stateMutability":"nonpayable"},{"type":"function","name":"multicall","inputs":[{"name":"data","type":"bytes[]","internalType":"bytes[]"}],"outputs":[{"name":"results","type":"bytes[]","internalType":"bytes[]"}],"stateMutability":"payable"},{"type":"function","name":"payGood","inputs":[{"name":"_goodid1","type":"address","internalType":"address"},{"name":"_goodid2","type":"address","internalType":"address"},{"name":"_swapQuantity","type":"uint256","internalType":"uint256"},{"name":"_recipent","type":"address","internalType":"address"},{"name":"data","type":"bytes","internalType":"bytes"},{"name":"_trader","type":"address","internalType":"address"},{"name":"signature","type":"bytes","internalType":"bytes"},{"name":"data_hash","type":"uint256","internalType":"uint256"}],"outputs":[{"name":"good1change","type":"uint256","internalType":"uint256"},{"name":"good2change","type":"uint256","internalType":"uint256"}],"stateMutability":"payable"},{"type":"function","name":"queryCommission","inputs":[{"name":"_goodid","type":"address[]","internalType":"address[]"},{"name":"_recipent","type":"address","internalType":"address"}],"outputs":[{"name":"","type":"uint256[]","internalType":"uint256[]"}],"stateMutability":"view"},{"type":"function","name":"updateGoodConfig","inputs":[{"name":"_goodid","type":"address","internalType":"address"},{"name":"_goodConfig","type":"uint256","internalType":"uint256"},{"name":"_trader","type":"address","internalType":"address"},{"name":"signature","type":"bytes","internalType":"bytes"}],"outputs":[{"name":"","type":"bool","internalType":"bool"}],"stateMutability":"nonpayable"},{"type":"event","name":"e_buyGood","inputs":[{"name":"sellgood","type":"address","indexed":true,"internalType":"address"},{"name":"forgood","type":"address","indexed":true,"internalType":"address"},{"name":"swapvalue","type":"uint256","indexed":false,"internalType":"uint256"},{"name":"good1change","type":"uint256","indexed":false,"internalType":"uint256"},{"name":"good2change","type":"uint256","indexed":false,"internalType":"uint256"},{"name":"_trader","type":"address","indexed":false,"internalType":"address"}],"anonymous":false},{"type":"event","name":"e_changegoodowner","inputs":[{"name":"goodid","type":"address","indexed":false,"internalType":"address"},{"name":"to","type":"address","indexed":false,"internalType":"address"},{"name":"_trader","type":"address","indexed":false,"internalType":"address"}],"anonymous":false},{"type":"event","name":"e_collectProtocolFee","inputs":[{"name":"goodid","type":"address","indexed":false,"internalType":"address"},{"name":"feeamount","type":"uint256","indexed":false,"internalType":"uint256"},{"name":"_trader","type":"address","indexed":false,"internalType":"address"}],"anonymous":false},{"type":"event","name":"e_collectcommission","inputs":[{"name":"_gooid","type":"address[]","indexed":false,"internalType":"address[]"},{"name":"_commisionamount","type":"uint256[]","indexed":false,"internalType":"uint256[]"},{"name":"_trader","type":"address","indexed":false,"internalType":"address"}],"anonymous":false},{"type":"event","name":"e_disinvestProof","inputs":[{"name":"_proofNo","type":"uint256","indexed":true,"internalType":"uint256"},{"name":"_normalGoodNo","type":"address","indexed":false,"internalType":"address"},{"name":"_valueGoodNo","type":"address","indexed":false,"internalType":"address"},{"name":"_gate","type":"address","indexed":false,"internalType":"address"},{"name":"_value","type":"uint256","indexed":false,"internalType":"uint256"},{"name":"_normalprofit","type":"uint256","indexed":false,"internalType":"uint256"},{"name":"_normaldisvest","type":"uint256","indexed":false,"internalType":"uint256"},{"name":"_valueprofit","type":"uint256","indexed":false,"internalType":"uint256"},{"name":"_valuedisvest","type":"uint256","indexed":false,"internalType":"uint256"},{"name":"_trader","type":"address","indexed":false,"internalType":"address"}],"anonymous":false},{"type":"event","name":"e_goodWelfare","inputs":[{"name":"goodid","type":"address","indexed":false,"internalType":"address"},{"name":"welfare","type":"uint128","indexed":false,"internalType":"uint128"},{"name":"_trader","type":"address","indexed":false,"internalType":"address"}],"anonymous":false},{"type":"event","name":"e_initGood","inputs":[{"name":"_proofNo","type":"uint256","indexed":false,"internalType":"uint256"},{"name":"_goodid","type":"address","indexed":false,"internalType":"address"},{"name":"_valuegoodNo","type":"address","indexed":false,"internalType":"address"},{"name":"_goodConfig","type":"uint256","indexed":false,"internalType":"uint256"},{"name":"_construct","type":"uint256","indexed":false,"internalType":"uint256"},{"name":"_normalinitial","type":"uint256","indexed":false,"internalType":"uint256"},{"name":"_value","type":"uint256","indexed":false,"internalType":"uint256"},{"name":"_trader","type":"address","indexed":false,"internalType":"address"}],"anonymous":false},{"type":"event","name":"e_initMetaGood","inputs":[{"name":"_proofNo","type":"uint256","indexed":false,"internalType":"uint256"},{"name":"_goodid","type":"address","indexed":false,"internalType":"address"},{"name":"_construct","type":"uint256","indexed":false,"internalType":"uint256"},{"name":"_goodConfig","type":"uint256","indexed":false,"internalType":"uint256"},{"name":"_initial","type":"uint256","indexed":false,"internalType":"uint256"}],"anonymous":false},{"type":"event","name":"e_investGood","inputs":[{"name":"_proofNo","type":"uint256","indexed":true,"internalType":"uint256"},{"name":"_normalgoodid","type":"address","indexed":false,"internalType":"address"},{"name":"_valueGoodNo","type":"address","indexed":false,"internalType":"address"},{"name":"_value","type":"uint256","indexed":false,"internalType":"uint256"},{"name":"_invest","type":"uint256","indexed":false,"internalType":"uint256"},{"name":"_valueinvest","type":"uint256","indexed":false,"internalType":"uint256"},{"name":"_trader","type":"address","indexed":false,"internalType":"address"}],"anonymous":false},{"type":"event","name":"e_modifyGoodConfig","inputs":[{"name":"_goodid","type":"address","indexed":false,"internalType":"address"},{"name":"_goodconfig","type":"uint256","indexed":false,"internalType":"uint256"},{"name":"_trader","type":"address","indexed":false,"internalType":"address"}],"anonymous":false},{"type":"event","name":"e_payGood","inputs":[{"name":"sellgood","type":"address","indexed":true,"internalType":"address"},{"name":"forgood","type":"address","indexed":true,"internalType":"address"},{"name":"swapvalue","type":"uint256","indexed":false,"internalType":"uint256"},{"name":"good1change","type":"uint256","indexed":false,"internalType":"uint256"},{"name":"good2change","type":"uint256","indexed":false,"internalType":"uint256"},{"name":"_trader","type":"address","indexed":false,"internalType":"address"},{"name":"_recipent","type":"address","indexed":false,"internalType":"address"},{"name":"data_hash","type":"uint256","indexed":false,"internalType":"uint256"}],"anonymous":false},{"type":"event","name":"e_updateGoodConfig","inputs":[{"name":"_goodid","type":"address","indexed":false,"internalType":"address"},{"name":"_goodConfig","type":"uint256","indexed":false,"internalType":"uint256"},{"name":"_trader","type":"address","indexed":false,"internalType":"address"}],"anonymous":false},{"type":"error","name":"ERC20PermitFailed","inputs":[]},{"type":"error","name":"ERC20TransferFailed","inputs":[]},{"type":"error","name":"InvalidSignature","inputs":[]},{"type":"error","name":"InvalidSignatureLength","inputs":[]},{"type":"error","name":"InvalidSigner","inputs":[]},{"type":"error","name":"NativeETHTransferFailed","inputs":[]},{"type":"error","name":"TTSwapError","inputs":[{"name":"seq","type":"uint256","internalType":"uint256"}]}],"bytecode":{"object":"0x60c0806040523461013a57602081615d35803803809161001f828561013e565b83398101031261013a57516001600160a01b0381169081900361013a57600180546001600160a01b03191691909117905546608052604080519081016001600160401b0381118282101761012657600d91602091604052828152016c151514ddd85c17d3585c9ad95d609a1b81522060405160208101917f8b73c3c69bb8fe3d512ecc4cf759cc79239f7b179b0ffacaa9a75d522b39400f835260408201527fc89efdaa54c0f20c7adf612882df0950f5a951637e0307cdcb4c672f298b8bc660608201524660808201523060a082015260a081526100ff60c08261013e565b51902060a052604051615bd39081610162823960805181612df7015260a05181612e1d0152f35b634e487b7160e01b5f52604160045260245ffd5b5f80fd5b601f909101601f19168101906001600160401b038211908210176101265760405256fe60806040526004361015610011575f80fd5b5f3560e01c8062796f711461015357806302b7f5241461014e57806308238466146101495780630dcbe42b14610144578063130a4de41461013f5780631412723a1461013a57806315f92b02146101355780631e88c0b2146101305780633644e5151461012b5780633f117740146101265780634dbfc09f1461012157806351ff9a161461011c5780639b22279414610117578063ac9650d814610112578063ae6ef6ca1461010d578063c89a2fce14610108578063d0b6ccc914610103578063d8df5233146100fe578063e53cca45146100f95763eaf3eda0146100f4575f80fd5b61171c565b611569565b6114b6565b611404565b610e0b565b610d86565b610c96565b610b41565b610a2b565b61099f565b6108b0565b61088e565b6107e0565b610725565b610689565b6105fc565b61047b565b61038d565b6102bd565b6101b0565b6001600160a01b0381160361016957565b5f80fd5b60a4359061017a82610158565b565b6004359061017a82610158565b6044359061017a82610158565b60c4359061017a82610158565b6024359061017a82610158565b34610169576040366003190112610169576004356101cd81610158565b61022b602435916101dd83610158565b6001600160a01b039081165f908152600260208190526040808320600380820154918401549790951684529220928301549201546001600160801b03948516608092831b17941691901b1790565b604080519283526020830191909152819081015b0390f35b9181601f84011215610169578235916001600160401b038311610169576020838186019501011161016957565b9060806003198301126101695760043561028981610158565b916024359160443561029a81610158565b91606435906001600160401b038211610169576102b991600401610243565b9091565b34610169576102cb36610270565b5050600154604051635f35b0b360e01b815233600482015292939290602090829060249082906001600160a01b03165afa908115610388576103229161031e915f91610359575b50600160fc1b16151590565b1590565b6103455761023f9261033392611a28565b60405190151581529081906020820190565b63d1b5191160e01b5f52600160045260245ffd5b61037b915060203d602011610381575b61037381836119ca565b8101906119eb565b5f610312565b503d610369565b6119fa565b346101695760203660031901126101695761023f6004356103ad81610158565b5f60606040516103bc81611959565b828152826020820152826040820152015260018060a01b0381165f52600260205260405f2054906103ff60016103f18361192c565b01546001600160a01b031690565b90610439600361041b60026104138561192c565b01549361192c565b015492610426611aa9565b9485526001600160a01b03166020850152565b604083810191825260608085019384528151855181526020958601516001600160a01b0316958101959095529151908401529051908201529081906080820190565b346101695760603660031901126101695760043561049881610158565b6024356104a481610158565b6044356001600160401b038111610169576104c3903690600401610243565b5050336001600160a01b038216036105e8576001546104f2906001600160a01b03165b6001600160a01b031690565b604051635f35b0b360e01b815233600482015290602090829060249082905afa80156103885761052f915f916105c9575b50600160fb1b16151590565b80156105b0575b61059c578161057d6105687f3565888e983b51334ee2cf81a2c786753b76f4d597e9abc8ccf7cec646c18d669461192c565b80546001600360fe1b0316600160fe1b019055565b6105976105898261192c565b549260405193849384611a05565b0390a1005b63d1b5191160e01b5f52601460045260245ffd5b50336105c36104e660016103f18661192c565b14610536565b6105e2915060203d6020116103815761037381836119ca565b5f610523565b63d1b5191160e01b5f52602760045260245ffd5b6101003660031901126101695760043561061581610158565b6024359061062282610158565b6044356064359261063284610158565b6084356001600160401b03811161016957610651903690600401610243565b61065961016d565b9160c435966001600160401b0388116101695761067d61022b983690600401610243565b96909560e43598611b04565b346101695760603660031901126101695761023f6103336004356106ac81610158565b6024356106b881610158565b61071f6044356001600160a01b039384165f90815260026020819052604080832060038082015491840154988816855291909320015492956001600160801b031660809290921b919091179361070d9061192c565b015460018060801b03169060801b1790565b906143b1565b6101003660031901126101695761073a61017c565b60243590610746610189565b91606435916084356001600160401b0381116101695761076a903690600401610243565b60a4356001600160401b03811161016957610789903690600401610243565b91610792610196565b9360e435976001600160401b0389116101695761023f996107ba6103339a3690600401610243565b999098612407565b6001600160801b0381160361016957565b6044359061017a826107c2565b60e0366003190112610169576004356107f881610158565b6108006101a3565b906108096107d3565b916064356001600160401b03811161016957610829903690600401610243565b6084939193356001600160401b0381116101695761084b903690600401610243565b9061085461016d565b9260c435966001600160401b0388116101695761023f9861087c610333993690600401610243565b9890976128bc565b5f91031261016957565b34610169575f3660031901126101695760206108a8612df4565b604051908152f35b34610169576020366003190112610169576004355f60a06040516108d381611979565b82815282602082015282604082015282606082015282608082015201525f52600360205261023f60405f2060056040519161090d83611979565b80546001600160a01b0390811684526001820154166020840152600281015460408401526003810154606084015260048101546080840152015460a08201526040519182918291909160a08060c0830194600180831b038151168452600180831b0360208201511660208501526040810151604085015260608101516060850152608081015160808501520151910152565b60e0366003190112610169576004356109b781610158565b6024356109c381610158565b604435916064356109d381610158565b6084356001600160401b038111610169576109f2903690600401610243565b9060a43592610a0084610158565b60c435966001600160401b03881161016957610a2361022b983690600401610243565b979096612ee0565b608036600319011261016957600435610a4381610158565b602435906044356064356001600160401b03811161016957610a69903690600401610243565b600154604051635f35b0b360e01b815233600482015291939190602090829060249082906001600160a01b03165afa90811561038857610ab99161031e915f916103595750600160fc1b16151590565b6103455761023f9461033394613366565b9181601f84011215610169578235916001600160401b038311610169576020808501948460051b01011161016957565b90602080835192838152019201905f5b818110610b175750505090565b8251845260209384019390920191600101610b0a565b906020610b3e928181520190610afa565b90565b34610169576040366003190112610169576004356001600160401b03811161016957610b71903690600401610aca565b90602435610b7e81610158565b60648311610bff57610b8f83613504565b925f5b818110610ba7576040518061023f8782610b2d565b80610bb5600192848761354a565b35610bbf81610158565b828060a01b03165f526002602052610bed84600d60405f20019060018060a01b03165f5260205260405f2090565b54610bf88288613569565b5201610b92565b63d1b5191160e01b5f52601560045260245ffd5b805180835260209291819084018484015e5f828201840152601f01601f1916010190565b602081016020825282518091526040820191602060408360051b8301019401925f915b838310610c6957505050505090565b9091929394602080610c87600193603f198682030187528951610c13565b97019301930191939290610c5a565b6020366003190112610169576004356001600160401b03811161016957610cc1903690600401610aca565b90610cca613812565b610cd3826134ed565b91610ce160405193846119ca565b808352601f19610cf0826134ed565b015f5b818110610d755750505f5b818110610d1d5761023f84610d1161386f565b60405191829182610c37565b5f80610d2a83858761357d565b90610d3a604051809381936135be565b0390305af4610d476135e6565b9015610d6d5790600191610d5b8287613569565b52610d668186613569565b5001610cfe565b602081519101fd5b806060602080938801015201610cf3565b3461016957610d9436610270565b5050600154604051635f35b0b360e01b815233600482015292939290602090829060249082906001600160a01b03165afa90811561038857610de69161031e915f916105c95750600160fb1b16151590565b610df75761023f9261033392613615565b63d1b5191160e01b5f52600260045260245ffd5b346101695760a036600319011261016957600435602435610e2b816107c2565b60443591610e3883610158565b60643590610e4582610158565b6084356001600160401b03811161016957610e64903690600401610243565b50505f516020615b5e5f395f51905f525c6001600160a01b03166113f057335f516020615b5e5f395f51905f525d336001600160a01b038316036105e857806060610ec7610eba835f52600360205260405f2090565b546001600160a01b031690565b610f10610ee160016103f1865f52600360205260405f2090565b610f00610eec611ab8565b338152936001600160a01b03166020850152565b6001600160a01b03166040830152565b20036113dc57610f1e6136be565b50610f276136be565b50610f3d610eba825f52600360205260405f2090565b92610f56610f4a8561192c565b54600160fe1b16151590565b61134257610f7160016103f1845f52600360205260405f2090565b600154909190610f89906001600160a01b03166104e6565b6040516354c2c80d60e11b815233600482015296909190602088602481865afa978815610388575f986113ab575b50604051635f35b0b360e01b81526001600160a01b0382166004820152602081602481875afa801561038857610ffa915f91611381575b50600160a01b16151590565b156113a557505f965b6001600160a01b03888116908216036113a057505f5b604051635f35b0b360e01b81526001600160a01b038216600482015292602090849060249082905afa928315610388576110d893611063915f916113815750600160a01b16151590565b1561137c57505f5b6110748761192c565b61107d8561192c565b906110cd611093885f52600360205260405f2090565b936110ae61109f611aa9565b6001600160801b039097168752565b6001600160a01b038c1660208701526001600160a01b03166040860152565b336060850152614c08565b959194909661110233600d6110ec8661192c565b019060018060a01b03165f5260205260405f2090565b5460018111611356575b50876001600160a01b0385166112a1575b61126d969594927f2d4fde7fbfc9831741bc5bb4c353d329bbce090cc45cd80c5b83854b11d09f66949261125d9261127b9a61116f61116360015460018060a01b031690565b8260801c90339061530a565b895161119d906001600160801b031660608c01516001600160801b03165b60018060801b03169060801b1790565b60208b01516111c8908c9061118d906080906001600160801b03165b9201516001600160801b031690565b835190929061120e906111f1906001600160801b031660608701516001600160801b031661118d565b602086015190959061118d906080906001600160801b03166111b9565b604080516001600160a01b039a8b1681529a8a1660208c0152958916958a01959095526060890152608088015260a087015260c086015260e08501529091166101008301528190610120820190565b0390a2516001600160801b031690565b91516001600160801b031690565b90611284613800565b604080516001600160801b03928316815292909116602083015290f35b50916112b3610f4a859397969561192c565b6113425761125d61126d967f2d4fde7fbfc9831741bc5bb4c353d329bbce090cc45cd80c5b83854b11d09f66948a61127b9a6112f433600d6110ec8a61192c565b5460018111611310575b509a509250929450929495965061111d565b61133561133c9161133061132a8b600d6110ec339261192c565b60019055565b6136fd565b3389613fdb565b5f6112fe565b63d1b5191160e01b5f52600a60045260245ffd5b61136f6113769161133061132a33600d6110ec8a61192c565b3385613fdb565b5f61110c565b61106b565b61139a915060203d6020116103815761037381836119ca565b5f610fee565b611019565b96611003565b6113ce91985060203d6020116113d5575b6113c681836119ca565b8101906136e8565b965f610fb7565b503d6113bc565b63d1b5191160e01b5f52601360045260245ffd5b63d1b5191160e01b5f52600360045260245ffd5b346101695761141236610270565b509192909150336001600160a01b038316036114a2576001600160a01b038181165f9081526002602052604090206001015461144e91166104e6565b330361059c576114877f3565888e983b51334ee2cf81a2c786753b76f4d597e9abc8ccf7cec646c18d66936114828361192c565b61536c565b6114936105898261192c565b0390a160405160018152602090f35b63d1b5191160e01b5f52602760045260245ffd5b34610169576080366003190112610169576004356114d381610158565b6024356114df81610158565b604435906114ec82610158565b6064356001600160401b0381116101695761150b903690600401610243565b5050600154604051635f35b0b360e01b815233600482015290602090829060249082906001600160a01b03165afa9081156103885761155a9161031e915f916105c95750600160fb1b16151590565b610df75761156792613718565b005b60a03660031901126101695760043561158181610158565b60243561158d816107c2565b6044356001600160401b038111610169576115ac903690600401610243565b6064939193356115bb81610158565b6084356001600160401b038111610169576115da903690600401610243565b50505f516020615b5e5f395f51905f525c6001600160a01b03166113f057335f516020615b5e5f395f51905f525d611610613812565b336001600160a01b038216036105e8576001606d1b6001600160801b0361164c86611647600261163f8961192c565b015460801c90565b612380565b1611611708577f4da5e4dc73c698b57d7750f90c121f11bcd1ea69b460a1b452ac645b6c2856a0946116f59261168e916001600160801b038716338088613a40565b6116b5600261169c8561192c565b0154608086901b6001600160801b038716175b906142d1565b60026116c08561192c565b0155604080516001600160a01b0394851681526001600160801b03909516602086015292169183019190915281906060820190565b0390a161170061386f565b611567613800565b63d1b5191160e01b5f52601260045260245ffd5b34610169576060366003190112610169576004356001600160401b0381116101695761174c903690600401610aca565b6024359161175983610158565b6044356001600160401b03811161016957611778903690600401610243565b50505f516020615b5e5f395f51905f525c6001600160a01b03166113f057335f516020615b5e5f395f51905f525d336001600160a01b038416036105e8576001546117cb906001600160a01b03166104e6565b604051635f35b0b360e01b815233600482015290602090829060249082905afa801561038857611807915f916103595750600160fc1b16151590565b15611926575f5b606483116119125761181f83613504565b905f5b8481106118685750507f3168a9be83535a57972668503a3a2adf4c970048ad77b5a7f22adee81c6d500f9361185d9160405194859485613790565b0390a1611567613800565b8061188c83600d6110ec6118876118826001978c8c61354a565b61355f565b61192c565b546118978286613569565b5260026118a48286613569565b51116118b1575b01611822565b6118c46118be8286613569565b516136fd565b6118ce8286613569565b526118e961132a84600d6110ec611887611882878d8d61354a565b61190d6118fa61188283898961354a565b6119048387613569565b51903390613fdb565b6118ab565b63d1b5191160e01b5f52601560045260245ffd5b3361180e565b6001600160a01b03165f90815260026020526040902090565b634e487b7160e01b5f52604160045260245ffd5b608081019081106001600160401b0382111761197457604052565b611945565b60c081019081106001600160401b0382111761197457604052565b60a081019081106001600160401b0382111761197457604052565b604081019081106001600160401b0382111761197457604052565b90601f801991011681019081106001600160401b0382111761197457604052565b90816020910312610169575190565b6040513d5f823e3d90fd5b6001600160a01b0391821681526020810192909252909116604082015260600190565b909190336001600160a01b038316036114a2576001600160a01b0381165f908152600260205260409081902080546001600160fe1b0316600360fe1b9095169490940193849055517f03ab867097b91902825dbf59eb6fc09c45d02b315e9eddc43105b6b21dd1cf929390928392611aa1929084611a05565b0390a1600190565b6040519061017a6080836119ca565b6040519061017a6060836119ca565b6040519061017a610140836119ca565b6040519061017a60c0836119ca565b6040519061017a6040836119ca565b6040519061017a60a0836119ca565b90999893979096919392915f516020615b5e5f395f51905f525c6001600160a01b03166113f057335f516020615b5e5f395f51905f525d611b43613812565b5f905f92611b53610f4a8b61192c565b61134257611b63610f4a8e61192c565b612290576002611b728b61192c565b01541561227c576002611b848e61192c565b015415612268576001600160a01b038516156122545789918991888f888a6001600160a01b0387163303612146575b505050505050505060018060a01b038b1660018060a01b03891614155f1461201657505091611cbb9891608094936003611bec8961192c565b01546003611bf98661192c565b01546002611c068b61192c565b0154611c118b61192c565b5490611c7c6002611c218a61192c565b015493611c6c611c308b61192c565b5496611c3a611ac7565b6001600160801b038c1681529d8e5f602082018190526040820181905260608201526001600160801b03909216910152565b6001600160801b031660a08c0152565b60c08a015260e0890152610100880152610120870152611c9b866140b8565b60e086015160208701516001600160801b03169b611cdd91611cca918e90565b607f6127109260c51c16020490565b9b6001600160801b031660808d901b1790565b6060870151909990620f42406001600160801b039091161061200257608084901c6001600160801b038b16811080611ff9575b611fe557610100880151611d4b611d3f611d2e6101208c01516122f1565b600a6001600160801b039091160490565b6001600160801b031690565b6001600160801b0390911610611fd157610100880151611d71611d3f611d2e8360801c90565b6001600160801b0390911610611fd157611dc4611d3f611db4611daf600261163f8f96611da99083611da28a61192c565b0154612380565b9661192c565b61230c565b611dbd8d61192c565b54906122d8565b6001600160801b0390911611611fbd57899588918d60c08a01519080611df5919060018060801b03169060801b1790565b611dfe916142d1565b60c08a015260408901516001600160801b0316611e1b81886122d8565b6001600160801b031660809190911b179d611e369089612380565b6001600160801b0316611e4a93338d613a40565b611e538861192c565b60c0870151611e629160020155565b611e6b8461192c565b6101008701519081611e7d9160020155565b5f516020615b1e5f395f51905f5296611f3694611ef492336001600160a01b038c1603611f4c5750611eb9906001600160801b03168488613fdb565b611eee611d3f6080611edf611eda611d3f606087015160018060801b031690565b612399565b9301516001600160801b031690565b906122cb565b6040805191825260208201969096529485018b90526001600160a01b0396871660608601528616608085015260a08401529084169490931692819060c0820190565b0390a35b611f4261386f565b919061017a613800565b60a0830151611fb892611fab92611d3f92611f7e91611f73916001600160801b031661118d565b8060c0880152613f9e565b90611f8e33600d6110ec8e61192c565b8054611fa4906001600160801b038516906122cb565b90556122d8565b8060c08401528488613fdb565b611eb9565b63d1b5191160e01b5f52602160045260245ffd5b63d1b5191160e01b5f52601060045260245ffd5b63d1b5191160e01b5f52600f60045260245ffd5b50801515611d10565b63d1b5191160e01b5f52600e60045260245ffd5b978461202e9394959896929b5060801c873388613a40565b336001600160a01b038516036120c457916120bc5f9594925f516020615b1e5f395f51905f529461206860018060801b0388168286613fdb565b60046120738561192c565b0154604080518d815260208101999099526001600160801b03909116908801526001600160a01b0394851660608801528416608087015260a086015291169290819060c0820190565b0390a3611f3a565b965093505f9291816120bc6120f860026120eb5f516020615b1e5f395f51905f529661192c565b0154600361070d8561192c565b96612135611d3f6121088a613f9e565b61211733600d6110ec8961192c565b805461212d906001600160801b038416906122cb565b9055886122d8565b996121418b8286613fdb565b612068565b6122479761221461223e93612206612206968b95612162612df4565b6001600160a01b0388165f908152600460205260409020909a9092835493612189856122b8565b9055604080517f3d454d1592177f66d85704a8b6bdb54c7a8cd874257c081f85212d9d80ecec36602082019081526001600160a01b039b8c1692820192909252968a166060880152978916608087015290971660a085015260c084019690965260e083019590955261010082019490945291928290610120820190565b03601f1981018352826119ca565b519020604051928391602083019586909160429261190160f01b8352600283015260228201520190565b5190209161393b565b87875f80888f888a611bb3565b63d1b5191160e01b5f52602060045260245ffd5b63d1b5191160e01b5f52600d60045260245ffd5b63d1b5191160e01b5f52600c60045260245ffd5b63d1b5191160e01b5f52600b60045260245ffd5b634e487b7160e01b5f52601160045260245ffd5b5f1981146122c65760010190565b6122a4565b919082018092116122c657565b6001600160801b0391821690821603919082116122c657565b6001600160801b03908116600b02908116919082036122c657565b60011b6002600160801b03811691906002600160811b031682036122c657565b6001600160801b0391821690821602908116919082036122c657565b634e487b7160e01b5f52601260045260245ffd5b6001600160801b0390911690811561237b576001600160801b03160490565b612348565b6001600160801b0391821690821601919082116122c657565b908160801b91808304600160801b14901517156122c657565b908160011b91808304600214901517156122c657565b90600a820291808304600a14901517156122c657565b908160021b91808304600414901517156122c657565b818102929181159184041417156122c657565b949396929795919850985060018060a01b035f516020615b5e5f395f51905f525c166113f057335f516020615b5e5f395f51905f525d612445613812565b336001600160a01b038616036105e8578860801c956207a120871080156127ee575b6127da5761248661031e61247a8761192c565b54600160ff1b16151590565b6127c6576001600160a01b036124a060016103f18c61192c565b166127b2576124c8936124b6918833338d613a40565b6001600160801b038916338086613a40565b6125576124d36127fb565b80976125146125046124f360036124e98861192c565b0154608081901c91565b6001600160801b031660a086015290565b6001600160801b03166080840152565b61254961253961252860026124e98861192c565b6001600160801b031660e086015290565b6001600160801b031660c0840152565b6125528461192c565b614411565b604086018051909690631dcd65006001600160801b039091161061279e57868561273761265861118d61126d6127298a6126eb7f59e8716fdd43a35e308f576e8957d9f76555c11daf3abf774d406ea971bad2fa9f8f906126e69f6127889f916125ea6125f0936125d86125ca8761192c565b93516001600160801b031690565b60801b6001600160801b039091161790565b9061477a565b60608c6126166125fe611ab8565b338152916001600160a01b0385166020840152610f00565b209e8f8d8d8d61266c61265861264a612638602086015160018060801b031690565b6001600160801b031660808c901b1790565b92516001600160801b031690565b608081901b6001600160801b039091161790565b906126c4612699606060808c901b6001600160801b038d161795018051909f6001600160801b0390911690565b946126b46126a5611ad7565b6001600160a01b03909a168a52565b6001600160a01b03166020890152565b60408701526060860152608085015260a08401525f52600360205260405f2090565b612867565b60015461118d9061271b906001600160a01b03168a51612713906001600160801b031661230c565b9033906147ec565b98516001600160801b031690565b96516001600160801b031690565b604080519889526001600160a01b03998a1660208a01529489169488019490945260608701526001600160801b0316608086015260a085015260c084015290921660e0820152908190610100820190565b0390a161279361386f565b60019061017a613800565b63d1b5191160e01b5f52602360045260245ffd5b63d1b5191160e01b5f52600560045260245ffd5b63d1b5191160e01b5f52600660045260245ffd5b63d1b5191160e01b5f52602460048190525ffd5b506001606d1b8711612467565b6040519061010082018281106001600160401b03821117611974576040525f60e0838281528260208201528260408201528260608201528260808201528260a08201528260c08201520152565b80546001600160a01b0319166001600160a01b03909216919091179055565b9060a060059161287f600180841b0382511685612848565b612897600180841b0360208301511660018601612848565b6040810151600285015560608101516003850155608081015160048501550151910155565b929850929650949293919290915f516020615b5e5f395f51905f525c6001600160a01b03166113f057335f516020615b5e5f395f51905f525d6128fd613812565b336001600160a01b038316036105e8576129156127fb565b9461291e6127fb565b6001600160a01b03868116989193919086168914612de057612942610f4a8761192c565b6113425760026129518761192c565b01541561227c5761296461247a8761192c565b8015612dce575b15612dba576001606d1b6001600160801b0361298c836002611da28b61192c565b1611611708576129a461299e8761192c565b5461486f565b9815998a159b8c612d6d575b612a05928b928b926129cf91906001600160801b03841633808e613a40565b6129e36125046124f360036124e98d61192c565b6129f761253961252860026124e98d61192c565b612a008961192c565b61459c565b604087018051909a90620f42406001600160801b0390911610612d5957612c09575b5050612a31611ab8565b3381526001600160a01b03848116602083015285166040820152606090208851909690612a689082906001600160801b031661235c565b9889612a7c895f52600360205260405f2090565b60208981015190860151845160608c018051909694938b936001600160801b0319608092831b81166001600160801b039283161794898316931b16919091179116612ac7898261235c565b6001600160801b031660809190911b1760608a01805190999193918e916001600160801b031690612af8908261235c565b6001600160801b031660809190911b1794612b12966148da565b516001600160801b031660801b6001600160801b039091161796516001600160801b031690516001600160801b03166001600160801b031660809190911b1791516001600160801b031690516001600160801b03166001600160801b031660809190911b17604080516001600160a01b03958616815295851660208701528501959095526060840152608083019390935290911660a08201528060c08101037fa3d1c17321235d7b3e7c858b63394225497205157b38292a9ccdeae73116ce2091a2612bf2919015612bfb575b60015433906001600160a01b03166147ec565b5061279361386f565b612c049061230c565b612bdf565b612c15610f4a8761192c565b612290576002612c248761192c565b01541561226857612d5291612d4a611d3f612d398b612d348f612cbc838b8f93612ccf612d2391612cc961126d608061118d61126d612cbc612c9a60026124e98f6118878e612c7760036124e98561192c565b6001600160801b031660a083019081529a90916001600160801b03909216910152565b6001600160801b031660e08c0190815291906001600160801b031660c08c0152565b516001600160801b031690565b90613fbd565b6001600160801b03166060830190815294611887612d16612cef8361192c565b548851612d04906001600160801b0316611d3f565b603f6127109260d91c16820390040290565b6001600160801b03168752565b84516001600160801b03169061459c565b61235c565b86516001600160801b031690612380565b333389613a40565b5f80612a27565b63d1b5191160e01b5f52602660045260245ffd5b9099612a05928a91612d84611d3f61299e8d61192c565b6001600160801b0382161015612da5576129cf905b9c9392505092506129b0565b506129cf612db561299e8c61192c565b612d99565b63d1b5191160e01b5f52601160045260245ffd5b50612ddb61247a8861192c565b61296b565b63d1b5191160e01b5f52600960045260245ffd5b467f000000000000000000000000000000000000000000000000000000000000000003612e3f577f000000000000000000000000000000000000000000000000000000000000000090565b600d6020604051612e516040826119ca565b828152016c151514ddd85c17d3585c9ad95d609a1b81522060405160208101917f8b73c3c69bb8fe3d512ecc4cf759cc79239f7b179b0ffacaa9a75d522b39400f835260408201527fc89efdaa54c0f20c7adf612882df0950f5a951637e0307cdcb4c672f298b8bc660608201524660808201523060a082015260a08152612eda60c0826119ca565b51902090565b9498975092955092939291905f516020615b5e5f395f51905f525c6001600160a01b03166113f057335f516020615b5e5f395f51905f525d612f20613812565b336001600160a01b038516036105e857612f3c610f4a8661192c565b61134257612f4c610f4a8361192c565b612290576002612f5b8661192c565b01541561227c576002612f6d8361192c565b015415612268576001600160a01b0385811690831614612de0576001600160a01b038116801515908161335b575b506132e9575b50612fbc6002612fb08661192c565b01548360801c90612380565b612fe0611d3f612fd76002612fd08961192c565b015461230c565b611dbd8861192c565b6001600160801b0390911611611fbd576003612ffb8561192c565b01549260036130098361192c565b01549360026130178761192c565b01546130228761192c565b54600261302e8661192c565b01549161308661303d8761192c565b549861307661304a611ac7565b60808b901c8152965f602089018190526040890181905260608901526001600160801b03166080880152565b6001600160801b031660a0860152565b60c084015260e083015261010082015261012081019485526130a781614978565b6060810151620f42406001600160801b03909116106120025760208101516001600160801b03166001600160801b038581169116811190816132df575b50611fe5576101008101516130ff611d3f611d2e88516122f1565b6001600160801b0390911610611fd157610100810151613125611d3f611d2e8360801c90565b6001600160801b0390911610611fd15760c08101516040820151608086901c906001600160801b031660801b6001600160801b0390911617613166916142d1565b60c082015260408101516001600160801b031661318781608087901c6122d8565b6001600160801b031660809190911b1794516020820151959788969091906001600160801b03166001600160801b031661271060cc9290921c607f160204610100830151909190608083901b6001600160801b038416176131e7916142d1565b61010084015260208301516001600160801b03166001600160801b0316608083901b179a8b966132168a61192c565b60c08601516132259160020155565b61322e8761192c565b61010086015161323e9160020155565b61324e929060801c33808c613a40565b61325890856122d8565b6001600160801b031661326c903385613fdb565b606001516001600160801b0316604080516001600160801b0390921682526020820195909552938401929092526001600160a01b03918216606084015281169216908060808101037f097e01976dafa32bafca14bb579cfb2746ba03305cba7722aca4b9f23c75406d91a3611f4261386f565b905015155f6130e4565b6001546132fe906001600160a01b03166104e6565b803b15610169576040516307543e3f60e41b81523360048201526001600160a01b039290921660248301525f908290604490829084905af180156103885715612fa1578061334f5f613355936119ca565b80610884565b5f612fa1565b90503314155f612f9b565b929390613371613812565b600160ff1b8316156134da576001600160a01b0361339360016103f18761192c565b166127b2577f8f2eb922ee1b2f92e0051f7949a8c191264807725a1e435e91abebd28583830a946134cc926133d4916001600160801b038416338089613a40565b6133e783826133e28761192c565b61477a565b6133f86133f38561192c565b614ae3565b6134196134048561192c565b80546001600160fe1b0316600160ff1b019055565b6060613423611ab8565b3381526001600160a01b03861660208201525f6040820152209261348b613452855f52600360205260405f2090565b612bdf61345f8560801b90565b608086901c92906001600160801b031987168417908a608089901b6001600160801b038a161793614884565b604080519586526001600160a01b0390961660208601526001600160801b0316948401949094526060830193909352608082019290925290819060a0820190565b0390a160019061017a61386f565b63d1b5191160e01b5f526004805260245ffd5b6001600160401b0381116119745760051b60200190565b9061350e826134ed565b61351b60405191826119ca565b828152809261352c601f19916134ed565b0190602036910137565b634e487b7160e01b5f52603260045260245ffd5b919081101561355a5760051b0190565b613536565b35610b3e81610158565b805182101561355a5760209160051b010190565b919081101561355a5760051b81013590601e19813603018212156101695701908135916001600160401b038311610169576020018236038113610169579190565b908092918237015f815290565b6001600160401b03811161197457601f01601f191660200190565b3d15613610573d906135f7826135cb565b9161360560405193846119ca565b82523d5f602084013e565b606090565b909190336001600160a01b038316036114a25761363183614b12565b156136aa576001600160a01b0381165f90815260026020526040902061365684614b12565b156136aa578054600164018000000160df1b0316637fffffff60df1b909416939093019092557f03ab867097b91902825dbf59eb6fc09c45d02b315e9eddc43105b6b21dd1cf9291611aa16105898261192c565b63d1b5191160e01b5f52601860045260245ffd5b604051906136cb82611994565b5f6080838281528260208201528260408201528260608201520152565b908160209103126101695751610b3e81610158565b5f198101919082116122c657565b919082039182116122c657565b6001600160a01b0390921691903383036114a2577f897f45ea25c9eacf3b9c858435185679a3ddad8f736e61b504244a64a3fe871b9260609260018060a01b031691825f52600260205261377281600160405f2001612848565b604080519384526001600160a01b03919091166020840152820152a1565b929091949394806060850160608652526080840192905f5b8181106137d657505050816137c69184604094036020860152610afa565b6001600160a01b03909416910152565b90919360208060019287356137ea81610158565b848060a01b0316815201950191019190916137a8565b5f5f516020615b5e5f395f51905f525d565b5f516020615b3e5f395f51905f525c1561384a575b60015f516020615b3e5f395f51905f525c015f516020615b3e5f395f51905f525d565b345f516020615b7e5f395f51905f525d5f5f516020615b3e5f395f51905f525d613827565b5f195f516020615b3e5f395f51905f525c015f516020615b3e5f395f51905f525d5f516020615b3e5f395f51905f525c15806138ed575b6138ac57565b5f8080805f516020615b7e5f395f51905f525c815f516020615b7e5f395f51905f525d335af1156138d957565b63d1b5191160e01b5f52601f60045260245ffd5b505f516020615b7e5f395f51905f525c15156138a6565b9190826040910312610169576020823592013590565b60ff601b9116019060ff82116122c657565b906040101561355a5760400190565b90604181036139f457906020926139a68361397e61397861396a6139625f98880188613904565b94909761392c565b356001600160f81b03191690565b60f81c90565b935b604051948594859094939260ff6060936080840197845216602083015260408201520152565b838052039060015afa15610388575f516001600160a01b03169081156139e5576001600160a01b0316036139d657565b632057875960e21b5f5260045ffd5b638baa579f60e01b5f5260045ffd5b9060408203613a3157602092613a11825f946139a6940190613904565b9092906001600160ff1b03811690613a2b9060ff1c61391a565b93613980565b634be6321b60e01b5f5260045ffd5b6001600160801b0390931694919390929160016001600160a01b03841603613a80575050506001600160a01b039081169116036105e85761017a90615ad3565b9394929380613aad57509293919250906001600160a01b038085169116036105e85761017a923091615a7f565b90613aba918101906153ed565b60ff613ac7825160ff1690565b169460028603613c9f5750613aed919293945060200151602080825183010191016155fe565b6001600160a01b03821690736b175474e89094c44da98b954eedeac495271d0f8203613c1957604051623f675f60e91b81526001600160a01b038616600482015291602090839060249082905afa90811561038857613bd15f939284938491613bfa575b50612206602084015193613b69604082015160ff1690565b60608201516080909201516040516323f2ebc360e21b60208201526001600160a01b038d16602482015230604482015260648101959095526084850196909652600160a485015260ff1660c484015260e4830152610104820193909352918290610124820190565b60208151910182855af115613beb5761017a923091615a7f565b63203aa5b560e11b5f5260045ffd5b613c13915060203d6020116103815761037381836119ca565b5f613b51565b5f915080613c9a839251612206602084015193613c3a604082015160ff1690565b606082015160809092015160405163d505accf60e01b60208201526001600160a01b038d1660248201523060448201526064810195909552608485019690965260ff1660a484015260c483015260e4820193909352918290610104820190565b613bd1565b919460038103613d415750506001600160a01b038381169116036105e857613cc690615a66565b6e22d473030f116ddee9f6b43ac78ba33b1561016957604051631b63c28b60e11b81526001600160a01b0392831660048201523060248201529082166044820152911660648201525f81608481836e22d473030f116ddee9f6b43ac78ba35af1801561038857613d335750565b8061334f5f61017a936119ca565b90915060048103613e9257506020613d649101516020808251830101910161548e565b90613e19613d728351615a66565b92613dcc613d89604083015165ffffffffffff1690565b613db1613d94611aa9565b6001600160a01b038a168152966001600160a01b03166020880152565b65ffffffffffff604087015265ffffffffffff166060860152565b6020810151613dd9611ab8565b9485523060208601526040850152608081015190613e13613e03606060a084015193015160ff1690565b60f81b6001600160f81b03191690565b916154e7565b916e22d473030f116ddee9f6b43ac78ba33b15610169576040516302b67b5760e41b8152925f9184918291613e5391908860048501615586565b0381836e22d473030f116ddee9f6b43ac78ba35af191821561038857613cc692613e7e575b50615a66565b8061334f5f613e8c936119ca565b5f613e78565b929392600514613ea3575b50505050565b613ebd6020613f2b9201516020808251830101910161548e565b8051613ed9613eca611ae6565b6001600160a01b039096168652565b60208501526040810151602082015190613ef1611ab8565b95865260208601526040850152613f06611ae6565b308152926020840152608081015190613e13613e03606060a084015193015160ff1690565b916e22d473030f116ddee9f6b43ac78ba33b1561016957613f625f93604051958694859463187945bd60e11b865260048601615512565b0381836e22d473030f116ddee9f6b43ac78ba35af1801561038857613f8a575b808080613e9d565b8061334f5f613f98936119ca565b5f613f82565b610b3e906001600160801b03811660809190911c62030d40020461564d565b610b3e916001600160801b0380831660809390931c9116020461564d565b60016001600160a01b0382160361401157505f8080613ffc9481945af11590565b61400257565b633607a14f60e11b5f5260045ffd5b60405163a9059cbb60e01b81526001600160a01b03909216600483015260248201929092526020905f9060449082855af19081601f3d1160015f511416151661406c575b501561405d57565b633c9fd93960e21b5f5260045ffd5b3b153d171590505f614055565b1561408057565b60405162461bcd60e51b815260206004820152600660248201526506220697320360d41b6044820152606490fd5b811561237b570490565b61012081015181516001600160801b03166001600160801b031661271060cc9290921c607f1602046001600160801b03166040820190815281516001600160801b031681516001600160801b031661410f91612380565b6001600160801b03908116835260c08301805160a0850180519095936141399291811691166123f4565b82516001600160801b03166001600160801b0316614156916123f4565b61415f906123b2565b60808301805161010085018051909792939291614188916001600160801b0390811691166123f4565b614191906123b2565b835186516141ab916001600160801b0391821691166123f4565b6141b49161370b565b905185516141ce916001600160801b0391821691166123f4565b6141d79161370b565b6141e46103e88211614079565b6141ed916140ae565b6141f69061564d565b6001600160801b03166020840190815290516001600160801b0316825182516001600160801b031660011c60016001607f1b031661423391612380565b6001600160801b031660809190911b1781516001600160801b031661425791613fbd565b6001600160801b03166060840152815190516001600160801b03166001600160801b0316614284916142d1565b9052825190516001600160801b03166001600160801b03166142a5916156b1565b80835290516001600160801b0316608081901b6001600160801b03909116176142cd916142d1565b9052565b608082811c9082901c818101936001600160801b039081169316838101939185101592836143a6575b508261439b575b5081614390575b5080614380575b80614370575b1561432b57610b3e9160801b6122cb565b6122cb565b60405162461bcd60e51b815260206004820152601b60248201527f54545377617055494e543235363a20616464206f766572666c6f7700000000006044820152606490fd5b506001600160801b038210614315565b506001600160801b03811061430f565b90508110155f614308565b83101591505f614301565b85101592505f6142fa565b9091614402916143f8906143e56143d56001600160801b038716608084901c6123f4565b6001600160801b038516906123f4565b9460801c906001600160801b03166123f4565b9060801c906123f4565b101561440d57600190565b5f90565b919061459891614485614478600161447361442c828761232c565b6001600160801b031660608601818152895490979161446191612d169161445290611d3f565b603f6127109260d91c16020490565b85516001600160801b03165b906122d8565b61232c565b6001600160801b03168352565b60a0810151614576906144c2906144b2906001600160801b031660e08501516001600160801b031661118d565b84516001600160801b0316612cc9565b6001600160801b03166040830190815291608081015161450c906144fc906001600160801b031660c08401516001600160801b031661118d565b85516001600160801b0316612cc9565b6001600160801b03166020820190815290614554600288019161453d83546116af6126588a5160018060801b031690565b80845590516116af906001600160801b0316612658565b9055600386018054915190936116af9161118d906001600160801b031661126d565b9055825490516116af90611d3f906001600160801b031661446d60018261235c565b9055565b929091816145aa818561232c565b6001600160801b03166060830190815293855485516001600160801b03166001600160801b031661271060d99290921c603f1602046001600160801b0316835282516001600160801b03166145fe916122d8565b906146089161232c565b6001600160801b0316835260a08101516001600160801b031660e08201516001600160801b03166001600160801b031660809190911b1783516001600160801b031661465391613fbd565b6001600160801b0316604082019081529060808101516001600160801b031660c08201516001600160801b03166001600160801b031660809190911b1784516001600160801b03166146a491613fbd565b6001600160801b0316602082019081529060028601805486519192916001600160801b0316608081901b6001600160801b03909116176146e3916142d1565b80835590516001600160801b0316608081901b6001600160801b039091161761470b916142d1565b905560038501805491519092906001600160801b031690516001600160801b03166001600160801b031660809190911b17614745916142d1565b9055825491516001600160801b03169061475f908261235c565b614768916122d8565b6001600160801b0316614598916142d1565b6001600160801b03808316608084811b91821760028501559390931c9092176003820155600160801b600160df1b0390921662c3508160e61b0191906001906147c28461486f565b16116147d85761017a9181556001339101612848565b63d1b5191160e01b5f52601960045260245ffd5b60405163067e356d60e21b81526001600160a01b0392831660048201526001600160801b03939093166024840152602091839160449183915f91165af1908115610388575f9161483a575090565b90506020813d602011614867575b81614855602093836119ca565b810103126101695751610b3e816107c2565b3d9150614848565b60bb1c603f16801561487e5790565b50600190565b60036148c19161459895939694600482019760018060801b03895416156148ca575b506148b6600283019182546142d1565b9055019182546142d1565b905582546142d1565b6148d49083612848565b5f6148a6565b949092936149199294600487019460018060801b0386541615614968575b50614908600288019182546142d1565b90556148c1600387019182546142d1565b90556001600160a01b03811661492e57505050565b600182018054614598936005939092916001600160a01b031615614958575b5050019182546142d1565b61496191612848565b5f8061494d565b6149729088612848565b5f6148f8565b6149ca6149bd61499960e0840151611cbb611d3f865160018060801b031690565b6001600160801b031660408401908152835161446d906001600160801b031661126d565b6001600160801b03168252565b6142cd614a48614a43614a0e614a096149ef611d3f608088015160018060801b031690565b8651614a03906001600160801b0316611d3f565b906123f4565b6123b2565b60c0850151614a3d90614a29906001600160801b03166123b2565b8651611eee906001600160801b0316611d3f565b906140ae565b61564d565b6001600160801b03166060830190815291614ac76020614ab7614a43610100850196614a3d614a97614a09614a838b5160018060801b031690565b8451614a03906001600160801b0316611d3f565b91611eee611d3f61264a614a09611d3f60a08d015160018060801b031690565b6001600160801b03169201918252565b82519051614add906001600160801b0316611d3f565b906156b1565b614af262c3508160e61b614b12565b156136aa578054600164018000000160df1b031662c3508160e61b019055565b905f91614b30614b2b614b258360fb1c90565b60071690565b6123c8565b90614b41614a09614b258360f71c90565b614b56614b51614b258460f41c90565b6123de565b614b69614b638460ef1c90565b601f1690565b91614b84614b63614b7d614b638760ea1c90565b9560e51c90565b9480158015614c00575b8015614bf8575b8015614bf0575b8015614be8575b8015614be0575b614bd8575b6064959361432661432694614326614bcb9895614326956122cb565b14614bd257565b60019150565b5f9750614baf565b508515614baa565b508415614ba3565b508315614b9c565b508215614b95565b508115614b8e565b91939093614c146136be565b50614c1d6136be565b84519094906001600160801b031695600483015491614c3c8360801c90565b976002850190614ccf614c886144fc8c614c7585614c70614c5e895460801c90565b9360801b6001600160801b0385161790565b613fbd565b9860801b6001600160801b039091161790565b614cbf614c93611af5565b5f808252602082019081526001600160801b039095166040820152976001600160801b03166060890152565b6001600160801b03166080870152565b614d2a859a61118d614d1760038a015492614d04614cf1826125d88760801c90565b60608c01516001600160801b0316612cc9565b9360801b6001600160801b039091161790565b60608901516001600160801b0316612cc9565b9780549160038201805490614d42611d3f8387615763565b8c60801c116152f65760608901516001600160801b0316946002850192835496614d6f611d3f8985615763565b6001600160801b03909116116152e257614dd7614de791614dc3614db6614df4958f611d3f6060614da792015160018060801b031690565b603f6127109260d31c16020490565b6001600160801b03168852565b61118d614dd08a60801c90565b9160801c90565b89516001600160801b0316612cc9565b6001600160801b03168a52565b88516001600160801b03168351614e13906001600160801b0316611d3f565b6001600160801b03909116106152a6578851614f3995614e3f91614add906001600160801b0316612658565b8255614e628c614add8b6125d8604086549460801c92015160018060801b031690565b905580548251614e7f91906116af906001600160801b0316612658565b905581546060880151614eb19190614add90611d3f906001600160801b031660808c01516001600160801b031661446d565b82558651614ed990614db6906001600160801b031660608a01516001600160801b031661446d565b86516001600160801b031660208601519091906001600160a01b03166040870151614f21906001600160a01b031660808b015190939061446d906001600160801b031661126d565b60608801519093906001600160a01b03165b9461577d565b60018501546001600160a01b0316614fcb575b505050604081015161017a9291908590614f9d90614f80906001600160801b031660408a01516001600160801b031661118d565b606084015190939061118d906080906001600160801b03166111b9565b6060880151909290614fc5906001600160801b031660808a01516001600160801b031661118d565b93615a07565b9093929196505492615093615008614ff8614fe68760801c90565b9660801b6001600160801b0388161790565b83516001600160801b0316612cc9565b9461508361504c6144fc600588015493615039615029826125d88860801c90565b88516001600160801b0316612cc9565b9460801b6001600160801b039091161790565b91615073615058611af5565b5f80825260208201526001600160801b0390991660408a0152565b6001600160801b03166060880152565b6001600160801b03166080860152565b83968054916003820154926150ab611d3f8583615763565b8960801c116152ce5760608701516001600160801b0316936002840154946150d6611d3f8785615763565b6001600160801b03909116116152ba5761513e91615117614de761510461512e9461118d614dd08b60801c90565b60408c01516001600160801b0316612cc9565b6060890151614da7906001600160801b0316611d3f565b6001600160801b03166020880152565b85516001600160801b03166020870151615160906001600160801b0316611d3f565b6001600160801b03909116106152a6578561519161529d94614add612658606061017a9b015160018060801b031690565b6002840155600383015460408201516151b99190614add908c906001600160801b03166125d8565b6003840155600283015460208201516151df91906116af906001600160801b0316612658565b6002840155825460608201516152149190614add90611d3f906001600160801b031660808601516001600160801b031661446d565b8355805161523c906149bd906001600160801b031660608401516001600160801b031661446d565b80516001600160801b031660208301516001600160a01b031690614f33606061528e615271604088015160018060a01b031690565b608087015190969061446d906020906001600160801b03166111b9565b9501516001600160a01b031690565b90915f80614f4c565b63d1b5191160e01b5f52602260045260245ffd5b63d1b5191160e01b5f52601d60045260245ffd5b63d1b5191160e01b5f52601c60045260245ffd5b63d1b5191160e01b5f52601b60045260245ffd5b63d1b5191160e01b5f52601a60045260245ffd5b6001600160a01b031691823b1561016957604051637bd3ca3560e01b81526001600160a01b039290921660048301526001600160801b03166024820152905f908290604490829084905af18015610388576153625750565b5f61017a916119ca565b90815490603f8260df1c1680156153da575b6001600160801b0361538f8361486f565b166001600160801b03909116106153c657600160801b600160df1b03166b7fffffffffffffffffffffff60801b1991909116019055565b63d1b5191160e01b5f52601760045260245ffd5b50600161537e565b60ff81160361016957565b602081830312610169578035906001600160401b0382116101695701906040828203126101695760405191615421836119af565b803561542c816153e2565b83526020810135906001600160401b038211610169570181601f820112156101695780359061545a826135cb565b9261546860405194856119ca565b8284526020838301011161016957815f9260208093018386013783010152602082015290565b908160c09103126101695760a0604051916154a883611979565b80518352602081015160208401526040810151604084015260608101516154ce816153e2565b606084015260808101516080840152015160a082015290565b929190604051936020850152604084015260ff60f81b1660608301526041825261017a6061836119ca565b909261556a610100936040610b3e979661553f8682516020809160018060a01b0381511684520151910152565b60208181015187840152910151606086015281516001600160a01b03166080860152015160a0840152565b6001600160a01b031660c082015260e081018290520190610c13565b6040610b3e94936101009360018060a01b0316835265ffffffffffff6060825160018060a01b03815116602087015260018060a01b036020820151168587015282858201511682870152015116608084015260018060a01b0360208201511660a0840152015160c08201528160e08201520190610c13565b908160a09103126101695760806040519161561883611994565b80518352602081015160208401526040810151615634816153e2565b6040840152606081015160608401520151608082015290565b6001600160801b038116919082900361566257565b60405162461bcd60e51b815260206004820152602160248201527f54545377617055494e543235363a20746f55696e74313238206f766572666c6f6044820152607760f81b6064820152608490fd5b608082811c9082901c818103936001600160801b039081169316838103938286111593929184615758575b8461574d575b505082615742575b5050156156fd57610b3e9160801b6122cb565b60405162461bcd60e51b815260206004820152601b60248201527f54545377617055494e543235363a20737562206f766572666c6f7700000000006044820152606490fd5b101590505f806156ea565b101592505f806156e2565b8086111594506156dc565b60b11c6103ff16801561577957610b3e9161235c565b5090565b805491949391929091906157a7606460e586901c601f166001600160801b038916020480976122d8565b6001600160801b03811695909390600a60fb87901c60071688020493603260f788901c600f16890204966157ff601960f483901c6007168b020499606460ef84901c601f168202049290601f60649260ea1c16020490565b986001600160a01b0383166158db5750505061581b9084612380565b6001600160801b031690600d019761584390899060018060a01b03165f5260205260405f2090565b90815490615850916122cb565b905561585c8585612380565b6001600160801b03166001600160a01b039091165f9081526020889052604090209081549061588a916122cb565b9055615895916122d8565b9061589f916122d8565b906158a9916122d8565b906158b391612380565b6001600160801b0316906158ce905f805260205260405f2090565b90815490614598916122cb565b6159be975090846145989b926159d49b9597611d3f99959e9b61590a60016116479a015460018060a01b031690565b6001600160a01b038116156159f6576001600160a01b03165f908152600d850160205260409020615949905b805490926001600160801b0316906122cb565b90555b6001600160a01b038116156159dc576001600160a01b03165f908152600d80840160205260409091206159a1936159369390916159869085565b90555b019d8e9060018060a01b03165f5260205260405f2090565b90556159b76159368c5f805260205260405f2090565b9055612380565b939060018060a01b03165f5260205260405f2090565b9182546122cb565b50600d6159f0615936926159a19496612380565b94615989565b50615a019195612380565b9361594c565b9093916145989360029360018060a01b03600185015416615a4f575b50615a33600484019182546156b1565b9055615a44600383019182546156b1565b9055019182546156b1565b615a5e600585019182546156b1565b90555f615a23565b6001600160a01b038116908103615a7a5790565b505f90565b6040516323b872dd60e01b81526001600160a01b03928316600482015292909116602483015260448201929092526020905f9060649082855af19081601f3d1160015f511416151661406c57501561405d57565b5f516020615b7e5f395f51905f525c8111615b09575f516020615b7e5f395f51905f525c035f516020615b7e5f395f51905f525d565b63d1b5191160e01b5f52601e60045260245ffdfe79351e13a68104b7e2fa343f873a183f9cb1bd750602381bb9d65bfe1f2a868c87b52c29898e62efc1f9a9b00a26dcbdaee98d728c56841703077b7c0d20dee7e2afc7ec4dbb9bfdb1b8e8bcf21a055747c25bf2faaea9cb5a134005381f4843cbe27d488af5b5c1b0bd8d89be6fdfeaed3ad42719044fd9b728f33df1d6f1d1a2646970667358221220c6df6e640acdc8c11cc82c4dffc4a2ef6107ac94954d3560743a1c1f8686009f64736f6c634300081d0033","linkReferences":{}},"methodIdentifiers":{"DOMAIN_SEPARATOR()":"3644e515","buyGood(address,address,uint256,address,bytes,address,bytes)":"4dbfc09f","changeGoodOwner(address,address,address,bytes)":"d8df5233","collectCommission(address[],address,bytes)":"eaf3eda0","disinvestProof(uint256,uint128,address,address,bytes)":"c89a2fce","getGoodState(address)":"08238466","getProofState(uint256)":"3f117740","getRecentGoodState(address,address)":"00796f71","goodWelfare(address,uint128,bytes,address,bytes)":"e53cca45","initGood(address,uint256,address,uint256,bytes,bytes,address,bytes)":"15f92b02","initMetaGood(address,uint256,uint256,bytes)":"51ff9a16","investGood(address,address,uint128,bytes,bytes,address,bytes)":"1e88c0b2","ishigher(address,address,uint256)":"1412723a","lockGood(address,address,bytes)":"0dcbe42b","modifyGoodConfig(address,uint256,address,bytes)":"ae6ef6ca","modifyGoodCoreConfig(address,uint256,address,bytes)":"02b7f524","multicall(bytes[])":"ac9650d8","payGood(address,address,uint256,address,bytes,address,bytes,uint256)":"130a4de4","queryCommission(address[],address)":"9b222794","updateGoodConfig(address,uint256,address,bytes)":"d0b6ccc9"},"id":46}