{"abi":[{"type":"constructor","inputs":[],"stateMutability":"nonpayable"},{"type":"function","name":"DOMAIN_SEPARATOR","inputs":[],"outputs":[{"name":"","type":"bytes32","internalType":"bytes32"}],"stateMutability":"view"},{"type":"function","name":"addShare","inputs":[{"name":"_share","type":"tuple","internalType":"struct s_share","components":[{"name":"leftamount","type":"uint128","internalType":"uint128"},{"name":"metric","type":"uint120","internalType":"uint120"},{"name":"chips","type":"uint8","internalType":"uint8"}]},{"name":"owner","type":"address","internalType":"address"}],"outputs":[],"stateMutability":"nonpayable"},{"type":"function","name":"allowance","inputs":[{"name":"","type":"address","internalType":"address"},{"name":"","type":"address","internalType":"address"}],"outputs":[{"name":"","type":"uint256","internalType":"uint256"}],"stateMutability":"view"},{"type":"function","name":"approve","inputs":[{"name":"spender","type":"address","internalType":"address"},{"name":"amount","type":"uint256","internalType":"uint256"}],"outputs":[{"name":"","type":"bool","internalType":"bool"}],"stateMutability":"nonpayable"},{"type":"function","name":"balanceOf","inputs":[{"name":"","type":"address","internalType":"address"}],"outputs":[{"name":"","type":"uint256","internalType":"uint256"}],"stateMutability":"view"},{"type":"function","name":"burn","inputs":[{"name":"value","type":"uint256","internalType":"uint256"}],"outputs":[],"stateMutability":"nonpayable"},{"type":"function","name":"burnShare","inputs":[{"name":"owner","type":"address","internalType":"address"}],"outputs":[],"stateMutability":"nonpayable"},{"type":"function","name":"decimals","inputs":[],"outputs":[{"name":"","type":"uint8","internalType":"uint8"}],"stateMutability":"view"},{"type":"function","name":"disableUpgrade","inputs":[],"outputs":[],"stateMutability":"nonpayable"},{"type":"function","name":"getreferral","inputs":[{"name":"_customer","type":"address","internalType":"address"}],"outputs":[{"name":"","type":"address","internalType":"address"}],"stateMutability":"view"},{"type":"function","name":"left_share","inputs":[],"outputs":[{"name":"","type":"uint128","internalType":"uint128"}],"stateMutability":"view"},{"type":"function","name":"name","inputs":[],"outputs":[{"name":"","type":"string","internalType":"string"}],"stateMutability":"view"},{"type":"function","name":"nonces","inputs":[{"name":"","type":"address","internalType":"address"}],"outputs":[{"name":"","type":"uint256","internalType":"uint256"}],"stateMutability":"view"},{"type":"function","name":"permit","inputs":[{"name":"owner","type":"address","internalType":"address"},{"name":"spender","type":"address","internalType":"address"},{"name":"value","type":"uint256","internalType":"uint256"},{"name":"deadline","type":"uint256","internalType":"uint256"},{"name":"v","type":"uint8","internalType":"uint8"},{"name":"r","type":"bytes32","internalType":"bytes32"},{"name":"s","type":"bytes32","internalType":"bytes32"}],"outputs":[],"stateMutability":"nonpayable"},{"type":"function","name":"permitShare","inputs":[{"name":"_share","type":"tuple","internalType":"struct s_share","components":[{"name":"leftamount","type":"uint128","internalType":"uint128"},{"name":"metric","type":"uint120","internalType":"uint120"},{"name":"chips","type":"uint8","internalType":"uint8"}]},{"name":"dealline","type":"uint128","internalType":"uint128"},{"name":"signature","type":"bytes","internalType":"bytes"},{"name":"signer","type":"address","internalType":"address"}],"outputs":[],"stateMutability":"nonpayable"},{"type":"function","name":"poolstate","inputs":[],"outputs":[{"name":"","type":"uint256","internalType":"uint256"}],"stateMutability":"view"},{"type":"function","name":"publicSell","inputs":[{"name":"usdtamount","type":"uint256","internalType":"uint256"},{"name":"data","type":"bytes","internalType":"bytes"}],"outputs":[],"stateMutability":"nonpayable"},{"type":"function","name":"publicsell","inputs":[],"outputs":[{"name":"","type":"uint128","internalType":"uint128"}],"stateMutability":"view"},{"type":"function","name":"setBan","inputs":[{"name":"_recipient","type":"address","internalType":"address"},{"name":"result","type":"bool","internalType":"bool"}],"outputs":[],"stateMutability":"nonpayable"},{"type":"function","name":"setCallMintTTS","inputs":[{"name":"_recipient","type":"address","internalType":"address"},{"name":"result","type":"bool","internalType":"bool"}],"outputs":[],"stateMutability":"nonpayable"},{"type":"function","name":"setDAOAdmin","inputs":[{"name":"_recipient","type":"address","internalType":"address"},{"name":"result","type":"bool","internalType":"bool"}],"outputs":[],"stateMutability":"nonpayable"},{"type":"function","name":"setEnv","inputs":[{"name":"_marketcontract","type":"address","internalType":"address"}],"outputs":[],"stateMutability":"nonpayable"},{"type":"function","name":"setMarketAdmin","inputs":[{"name":"_recipient","type":"address","internalType":"address"},{"name":"result","type":"bool","internalType":"bool"}],"outputs":[],"stateMutability":"nonpayable"},{"type":"function","name":"setMarketManager","inputs":[{"name":"_recipient","type":"address","internalType":"address"},{"name":"result","type":"bool","internalType":"bool"}],"outputs":[],"stateMutability":"nonpayable"},{"type":"function","name":"setRatio","inputs":[{"name":"_ratio","type":"uint256","internalType":"uint256"}],"outputs":[],"stateMutability":"nonpayable"},{"type":"function","name":"setReferral","inputs":[{"name":"user","type":"address","internalType":"address"},{"name":"referral","type":"address","internalType":"address"}],"outputs":[],"stateMutability":"nonpayable"},{"type":"function","name":"setStakeAdmin","inputs":[{"name":"_recipient","type":"address","internalType":"address"},{"name":"result","type":"bool","internalType":"bool"}],"outputs":[],"stateMutability":"nonpayable"},{"type":"function","name":"setStakeManager","inputs":[{"name":"_recipient","type":"address","internalType":"address"},{"name":"result","type":"bool","internalType":"bool"}],"outputs":[],"stateMutability":"nonpayable"},{"type":"function","name":"setTokenAdmin","inputs":[{"name":"_recipient","type":"address","internalType":"address"},{"name":"result","type":"bool","internalType":"bool"}],"outputs":[],"stateMutability":"nonpayable"},{"type":"function","name":"setTokenManager","inputs":[{"name":"_recipient","type":"address","internalType":"address"},{"name":"result","type":"bool","internalType":"bool"}],"outputs":[],"stateMutability":"nonpayable"},{"type":"function","name":"shareHash","inputs":[{"name":"_share","type":"tuple","internalType":"struct s_share","components":[{"name":"leftamount","type":"uint128","internalType":"uint128"},{"name":"metric","type":"uint120","internalType":"uint120"},{"name":"chips","type":"uint8","internalType":"uint8"}]},{"name":"owner","type":"address","internalType":"address"},{"name":"leftamount","type":"uint128","internalType":"uint128"},{"name":"deadline","type":"uint128","internalType":"uint128"},{"name":"nonce","type":"uint256","internalType":"uint256"}],"outputs":[{"name":"","type":"bytes32","internalType":"bytes32"}],"stateMutability":"pure"},{"type":"function","name":"shareMint","inputs":[],"outputs":[],"stateMutability":"nonpayable"},{"type":"function","name":"stake","inputs":[{"name":"_staker","type":"address","internalType":"address"},{"name":"proofvalue","type":"uint128","internalType":"uint128"}],"outputs":[{"name":"netconstruct","type":"uint128","internalType":"uint128"}],"stateMutability":"nonpayable"},{"type":"function","name":"stakeproofinfo","inputs":[{"name":"index","type":"uint256","internalType":"uint256"}],"outputs":[{"name":"","type":"tuple","internalType":"struct s_proof","components":[{"name":"fromcontract","type":"address","internalType":"address"},{"name":"proofstate","type":"uint256","internalType":"uint256"}]}],"stateMutability":"view"},{"type":"function","name":"stakestate","inputs":[],"outputs":[{"name":"","type":"uint256","internalType":"uint256"}],"stateMutability":"view"},{"type":"function","name":"symbol","inputs":[],"outputs":[{"name":"","type":"string","internalType":"string"}],"stateMutability":"view"},{"type":"function","name":"totalSupply","inputs":[],"outputs":[{"name":"","type":"uint256","internalType":"uint256"}],"stateMutability":"view"},{"type":"function","name":"transfer","inputs":[{"name":"to","type":"address","internalType":"address"},{"name":"amount","type":"uint256","internalType":"uint256"}],"outputs":[{"name":"","type":"bool","internalType":"bool"}],"stateMutability":"nonpayable"},{"type":"function","name":"transferFrom","inputs":[{"name":"from","type":"address","internalType":"address"},{"name":"to","type":"address","internalType":"address"},{"name":"amount","type":"uint256","internalType":"uint256"}],"outputs":[{"name":"","type":"bool","internalType":"bool"}],"stateMutability":"nonpayable"},{"type":"function","name":"ttstokenconfig","inputs":[],"outputs":[{"name":"","type":"uint256","internalType":"uint256"}],"stateMutability":"view"},{"type":"function","name":"unstake","inputs":[{"name":"_staker","type":"address","internalType":"address"},{"name":"proofvalue","type":"uint128","internalType":"uint128"}],"outputs":[],"stateMutability":"nonpayable"},{"type":"function","name":"userConfig","inputs":[{"name":"","type":"address","internalType":"address"}],"outputs":[{"name":"","type":"uint256","internalType":"uint256"}],"stateMutability":"view"},{"type":"function","name":"usershares","inputs":[{"name":"user","type":"address","internalType":"address"}],"outputs":[{"name":"","type":"tuple","internalType":"struct s_share","components":[{"name":"leftamount","type":"uint128","internalType":"uint128"},{"name":"metric","type":"uint120","internalType":"uint120"},{"name":"chips","type":"uint8","internalType":"uint8"}]}],"stateMutability":"view"},{"type":"function","name":"withdrawPublicSell","inputs":[{"name":"amount","type":"uint256","internalType":"uint256"},{"name":"recipient","type":"address","internalType":"address"}],"outputs":[],"stateMutability":"nonpayable"},{"type":"event","name":"Approval","inputs":[{"name":"owner","type":"address","indexed":true,"internalType":"address"},{"name":"spender","type":"address","indexed":true,"internalType":"address"},{"name":"amount","type":"uint256","indexed":false,"internalType":"uint256"}],"anonymous":false},{"type":"event","name":"Transfer","inputs":[{"name":"from","type":"address","indexed":true,"internalType":"address"},{"name":"to","type":"address","indexed":true,"internalType":"address"},{"name":"amount","type":"uint256","indexed":false,"internalType":"uint256"}],"anonymous":false},{"type":"event","name":"e_addShare","inputs":[{"name":"recipient","type":"address","indexed":false,"internalType":"address"},{"name":"leftamount","type":"uint128","indexed":false,"internalType":"uint128"},{"name":"metric","type":"uint120","indexed":false,"internalType":"uint120"},{"name":"chips","type":"uint8","indexed":false,"internalType":"uint8"}],"anonymous":false},{"type":"event","name":"e_addreferral","inputs":[{"name":"user","type":"address","indexed":false,"internalType":"address"},{"name":"referal","type":"address","indexed":false,"internalType":"address"}],"anonymous":false},{"type":"event","name":"e_burnShare","inputs":[{"name":"owner","type":"address","indexed":false,"internalType":"address"}],"anonymous":false},{"type":"event","name":"e_publicsell","inputs":[{"name":"usdtamount","type":"uint256","indexed":false,"internalType":"uint256"},{"name":"ttsamount","type":"uint256","indexed":false,"internalType":"uint256"}],"anonymous":false},{"type":"event","name":"e_setenv","inputs":[{"name":"marketcontract","type":"address","indexed":false,"internalType":"address"}],"anonymous":false},{"type":"event","name":"e_shareMint","inputs":[{"name":"mintamount","type":"uint128","indexed":false,"internalType":"uint128"},{"name":"owner","type":"address","indexed":false,"internalType":"address"}],"anonymous":false},{"type":"event","name":"e_stakeinfo","inputs":[{"name":"recipient","type":"address","indexed":false,"internalType":"address"},{"name":"proofvalue","type":"uint256","indexed":false,"internalType":"uint256"},{"name":"unstakestate","type":"uint256","indexed":false,"internalType":"uint256"},{"name":"stakestate","type":"uint256","indexed":false,"internalType":"uint256"},{"name":"poolstate","type":"uint256","indexed":false,"internalType":"uint256"}],"anonymous":false},{"type":"event","name":"e_syncChainStake","inputs":[{"name":"chain","type":"uint32","indexed":false,"internalType":"uint32"},{"name":"poolasset","type":"uint128","indexed":false,"internalType":"uint128"},{"name":"proofstate","type":"uint256","indexed":false,"internalType":"uint256"}],"anonymous":false},{"type":"event","name":"e_updateUserConfig","inputs":[{"name":"user","type":"address","indexed":false,"internalType":"address"},{"name":"config","type":"uint256","indexed":false,"internalType":"uint256"}],"anonymous":false},{"type":"event","name":"e_updatepool","inputs":[{"name":"poolstate","type":"uint256","indexed":false,"internalType":"uint256"}],"anonymous":false},{"type":"event","name":"e_updatettsconfig","inputs":[{"name":"ttsconfig","type":"uint256","indexed":false,"internalType":"uint256"}],"anonymous":false},{"type":"error","name":"ERC20PermitFailed","inputs":[]},{"type":"error","name":"ERC20TransferFailed","inputs":[]},{"type":"error","name":"InvalidSignature","inputs":[]},{"type":"error","name":"InvalidSignatureLength","inputs":[]},{"type":"error","name":"InvalidSigner","inputs":[]},{"type":"error","name":"NativeETHTransferFailed","inputs":[]},{"type":"error","name":"TTSwapError","inputs":[{"name":"seq","type":"uint256","internalType":"uint256"}]}],"bytecode":{"object":"0x60e0604052346103cd576040516100176040826103d1565b600c81526b2a2a29bbb0b8102a37b5b2b760a11b602082015260405161003e6040826103d1565b600381526254545360e81b602082015281516001600160401b038111610300576100685f546103f4565b601f811161037e575b50602092601f821160011461031f57928192935f92610314575b50508160011b915f199060031b1c1916175f555b80516001600160401b038111610300576100ba6001546103f4565b601f811161029d575b50602091601f821160011461023d579181925f92610232575b50508160011b915f199060031b1c1916176001555b60066080524660a0526040515f905f54918161010c846103f4565b9182825260208201946001811690815f1461021657506001146101cc575b610136925003826103d1565b51902060405160208101917f8b73c3c69bb8fe3d512ecc4cf759cc79239f7b179b0ffacaa9a75d522b39400f835260408201524660608201523060808201526080815261018460a0826103d1565b51902060c052600a80546001600160801b0319166528ed6103d00017905560405161363e908161042d823960805181611193015260a0518161238c015260c051816123b20152f35b505f80805290915f516020613a6b5f395f51905f525b8183106101fa5750509060206101369282010161012a565b60209193508060019154838588010152019101909183926101e2565b60ff191686525061013692151560051b8201602001905061012a565b015190505f806100dc565b601f1982169260015f52805f20915f5b8581106102855750836001951061026d575b505050811b016001556100f1565b01515f1960f88460031b161c191690555f808061025f565b9192602060018192868501518155019401920161024d565b60015f527fb10e2d527612073b26eecdfd717e6a320cf44b4afac2b0732d9fcbe2b7fa0cf6601f830160051c810191602084106102f6575b601f0160051c01905b8181106102eb57506100c3565b5f81556001016102de565b90915081906102d5565b634e487b7160e01b5f52604160045260245ffd5b015190505f8061008b565b601f198216935f8052805f20915f5b868110610366575083600195961061034e575b505050811b015f5561009f565b01515f1960f88460031b161c191690555f8080610341565b9192602060018192868501518155019401920161032e565b5f80525f516020613a6b5f395f51905f52601f830160051c810191602084106103c3575b601f0160051c01905b8181106103b85750610071565b5f81556001016103ab565b90915081906103a2565b5f80fd5b601f909101601f19168101906001600160401b0382119082101761030057604052565b90600182811c92168015610422575b602083101461040e57565b634e487b7160e01b5f52602260045260245ffd5b91607f169161040356fe60806040526004361015610011575f80fd5b5f3560e01c806306fdde03146102d4578063087425db146102cf57806308b8d7f0146102ca578063095ea7b3146102c55780630f7f0658146102c057806318160ddd146102bb57806319f8d5b4146102b65780631aab145d146102b157806323b872dd146102ac57806328d617fc146102a7578063297f24bf146102a25780632ff908cc1461029d578063313ce567146102985780633644e515146102935780633789f8d11461028e5780633e3b61f4146102895780633e6b1fe41461028457806340a6bc171461027f57806342966c681461027a57806344d91d9a1461027557806345fda70714610270578063473404671461026b5780635f35b0b314610266578063623059a51461026157806367fc91381461025c57806370a08231146102575780637543e3f0146102525780637bd3ca351461024d5780637ecebe0014610248578063845fcee41461024357806395d89b411461023e578063a9059cbb14610239578063a985901a14610234578063b2237ba31461022f578063baf02f1b1461022a578063cae9764014610225578063d505accf14610220578063d8048a461461021b578063dd4fff3a14610216578063dd62ed3e14610211578063de5712d41461020c578063de5d580314610207578063e7b43e7d146102025763ff428a95146101fd575f80fd5b61213a565b612061565b611ff3565b611fd3565b611f7c565b611ee8565b611e7a565b611c91565b611c74565b611bed565b611b4c565b611b0c565b611a98565b6119f3565b6119d6565b61199e565b611756565b611669565b611631565b6115e6565b6115c9565b611591565b61151f565b6114f7565b6113e4565b611391565b611323565b6112b5565b611247565b6111d9565b6111b7565b61117a565b6110f8565b610f6d565b610ebe565b610d88565b610ad8565b6108b1565b610894565b61079c565b610627565b6105b9565b610500565b6103c7565b5f9103126102e357565b5f80fd5b90600182811c92168015610315575b602083101461030157565b634e487b7160e01b5f52602260045260245ffd5b91607f16916102f6565b634e487b7160e01b5f52604160045260245ffd5b606081019081106001600160401b0382111761034e57604052565b61031f565b604081019081106001600160401b0382111761034e57604052565b90601f801991011681019081106001600160401b0382111761034e57604052565b805180835260209291819084018484015e5f828201840152601f01601f1916010190565b9060206103c492818152019061038f565b90565b346102e3575f3660031901126102e3576040515f5f546103e6816102e7565b808452906001811690811561047a575060011461041e575b61041a8361040e8185038261036e565b604051918291826103b3565b0390f35b5f8080527f290decd9548b62a8d60345a988386fc84ba6bc95484008f6362f93160ef3e563939250905b8082106104605750909150810160200161040e6103fe565b919260018160209254838588010152019101909291610448565b60ff191660208086019190915291151560051b8401909101915061040e90506103fe565b600435906001600160a01b03821682036102e357565b60a435906001600160a01b03821682036102e357565b602435906001600160a01b03821682036102e357565b606435906001600160a01b03821682036102e357565b801515036102e357565b346102e35760403660031901126102e35761051961049e565b60243590610526826104f6565b335f52600b602052600160fe1b60405f205416156105a5576001600160a01b0381165f908152600b60205260409020545f5160206135a95f395f51905f529261056e916125b1565b61057782611578565b5561058181611578565b54604080516001600160a01b0390931683526020830191909152819081015b0390a1005b63d1b5191160e01b5f52601060045260245ffd5b346102e35760403660031901126102e3576105d261049e565b602435906105df826104f6565b335f52600b602052600160f91b60405f205416156105a5576001600160a01b0381165f908152600b60205260409020545f5160206135a95f395f51905f529261056e916125d2565b346102e35760403660031901126102e35761064061049e565b60243590335f5260046020528161066a8260405f209060018060a01b03165f5260205260405f2090565b556040519182526001600160a01b03169033907f8c5be1e5ebec7d5bd14f71427d1e84f3dd0314c0f7b2291e5b200ac8c7c3b92590602090a360405160018152602090f35b604051906106be60408361036e565b565b604051906106be60608361036e565b604051906106be60808361036e565b606435906001600160801b03821682036102e357565b602435906001600160801b03821682036102e357565b60ff8116036102e357565b60609060031901126102e3576040519061072e82610333565b816004356001600160801b03811681036102e35781526024356001600160781b03811681036102e357602082015260406044359161076b8361070a565b0152565b9181601f840112156102e3578235916001600160401b0383116102e357602083818601950101116102e357565b346102e35760c03660031901126102e3576107b636610715565b6107be6106de565b906084356001600160401b0381116102e3576107de90369060040161076f565b92906107e86104b4565b6001600160801b0383164211610880576108769461084b61084661086f95335f52600e60205261082160405f205460018060801b031690565b335f908152600560205260409020805492919061083d846121cc565b9055338a61248c565b6125f3565b9161086461085882611578565b54600160fe1b16151590565b156108785792612674565b33906127cc565b005b505f92612674565b63d1b5191160e01b5f52602460045260245ffd5b346102e3575f3660031901126102e3576020600254604051908152f35b346102e35760403660031901126102e3576108ca61049e565b6108d26106f4565b6108f16108ed6108e133611578565b54600160fa1b16151590565b1590565b610ac4577fff4f1caf741747da03068e051490a9f142dac5b961014b67ce28f5465061a68f61041a926109226129e8565b6001610a2f604051602081019061094c8161093e3388866121da565b03601f19810183528261036e565b519020610a0c600d5496848060801b03881680155f14610a9a575061098c6109875f995b60808b901b6001600160801b038c16175b90612aea565b600d55565b6009546109ab906109a6906001600160801b038416610981565b600955565b6109e0336109c1855f52600f60205260405f2090565b80546001600160a01b0319166001600160a01b03909216919091179055565b61098188866109f7865f52600f60205260405f2090565b01549260801b6001600160801b039091161790565b83610a1f835f52600f60205260405f2090565b01555f52600f60205260405f2090565b015490610a7d6001600160801b0385165b600954600d54604080516001600160a01b0390961686526020860196909652948401919091526060830152608082019290925290819060a0820190565b0390a16040516001600160801b0390911681529081906020820190565b610987610abe61098c92888060801b036009541690898060801b0386160204613491565b99610970565b63d1b5191160e01b5f52601a60045260245ffd5b346102e3575f3660031901126102e357610af3600854612b13565b15610d7457600c54610bac90602090610b2290610b16906001600160a01b031681565b6001600160a01b031690565b6007546001600160a01b031690610b74610b6f610b6a610b65610b553360018060a01b03165f52600e60205260405f2090565b5460801c6001600160781b031690565b6121f4565b61220c565b612267565b604051630a09391d60e11b81523060048201526001600160a01b03909316602484015260448301529092839190829081906064820190565b03915afa908115610d6f575f91610d40575b50158015610d18575b610d0457335f908152600e602052604090207fed6a74b410387b51432c864b8acdae396c38c662efa18b7a42f83487ff229595906105a090610c3890610c15905b546001600160801b031690565b335f908152600e6020526040902054610c329060f81c5b60ff1690565b90612295565b335f908152600e60205260409020610c82908054610c659084906001600160801b03166122c8565b6122c8565b81546001600160801b0319166001600160801b0391909116179055565b335f908152600e60205260409020610cd1908054610cab9060801c6001600160781b03166122e1565b8154600160801b600160f81b03191660809190911b600160801b600160f81b0316179055565b610ce46001600160801b03821633612b26565b604080516001600160801b03909216825233602083015290918291820190565b63d1b5191160e01b5f52601760045260245ffd5b50335f908152600e602052604090206001600160801b0390610d3990610c08565b1615610bc7565b610d62915060203d602011610d68575b610d5a818361036e565b810190612275565b5f610bbe565b503d610d50565b61228a565b63d1b5191160e01b5f52600f60045260245ffd5b346102e35760603660031901126102e357610da161049e565b610da96104ca565b6001600160a01b0382165f818152600460209081526040808320338452909152902054604435939192919060018101610e5b575b506001600160a01b03165f9081526003602052604090205f5160206135c95f395f51905f5291610e4c915b610e13868254612311565b90556001600160a01b0381165f9081526003602052604090208054860190556040519485526001600160a01b0316939081906020820190565b0390a360405160018152602090f35b91848303928311610eb957610e08610e4c925f5160206135c95f395f51905f5294610eaf33610e9a8460018060a01b03165f52600460205260405f2090565b9060018060a01b03165f5260205260405f2090565b5592505091610ddd565b6121b8565b346102e35760203660031901126102e357610ed761049e565b5f60408051610ee581610333565b828152826020820152015260018060a01b03165f52600e60205261041a60405f2060405190610f1382610333565b546001600160801b0381168083526001600160781b03608083901c8116602080860191825260f89490941c60409586019081528551938452905190911692820192909252905160ff16918101919091529081906060820190565b346102e35760403660031901126102e3576004356024356001600160401b0381116102e357610fa090369060040161076f565b9190610fad600854612b13565b15610d7457600a54610ff590610fd0906001600160801b0385169060801c612370565b600a80546001600160801b031660809290921b6001600160801b031916919091179055565b600a5464746a52880060809190911c116110e4576007547fcf0848d99e9b2ad96811072e657199bc9567c2cc9b614097727a852b27f5358d9361104892909184906001600160a01b031630903390612e0f565b5f90611056600a5460801c90565b6001600160801b0381166428bed01600811161109d575050905061107981612251565b906110848233612b26565b60408051918252602082019290925290819081016105a0565b644bab827200106110c4575090506110b48161223b565b906110bf8233612b26565b611084565b64746a528800906001600160801b0316116110845790506110b481612225565b63d1b5191160e01b5f52601860045260245ffd5b346102e35760203660031901126102e35761111161049e565b335f52600b602052600160ff1b60405f205416156105a557600c80546001600160a01b0319166001600160a01b039290921691821790556040519081527f5497e30355b3c259b1bd1d2577607edc2872c70543f17f29bcab333caf74c3159080602081016105a0565b346102e3575f3660031901126102e357602060405160ff7f0000000000000000000000000000000000000000000000000000000000000000168152f35b346102e3575f3660031901126102e35760206111d1612389565b604051908152f35b346102e35760403660031901126102e3576111f261049e565b602435906111ff826104f6565b335f52600b602052600160ff1b60405f205416156105a5576001600160a01b0381165f908152600b60205260409020545f5160206135a95f395f51905f529261056e91613346565b346102e35760403660031901126102e35761126061049e565b6024359061126d826104f6565b335f52600b602052600160fd1b60405f205416156105a5576001600160a01b0381165f908152600b60205260409020545f5160206135a95f395f51905f529261056e91613367565b346102e35760403660031901126102e3576112ce61049e565b602435906112db826104f6565b335f52600b602052600160ff1b60405f205416156105a5576001600160a01b0381165f908152600b60205260409020545f5160206135a95f395f51905f529261056e91613386565b346102e35760403660031901126102e35761133c61049e565b60243590611349826104f6565b335f52600b602052600160ff1b60405f205416156105a5576001600160a01b0381165f908152600b60205260409020545f5160206135a95f395f51905f529261056e916133a7565b346102e35760203660031901126102e357600435335f52600360205260405f20908154818103908111610eb9575f925580600254036002556040519081525f5160206135c95f395f51905f5260203392a3005b346102e35760203660031901126102e3576113fd61049e565b611408600854612b13565b15610d7457335f52600b602052600160fe1b60405f205416156114e3576114e08161149261147061145f611453611453610c085f9860018060a01b03165f52600e60205260405f2090565b6001600160401b031690565b600a546001600160801b0316612370565b600a80546001600160801b0319166001600160801b0392909216919091179055565b6040516001600160a01b03821681527fee1c541a26a2ceb2a600bf578887002fd1bdbbc7fb67e2b4c4bce896eac8a36f90602090a16001600160a01b03165f908152600e6020526040902090565b55005b63d1b5191160e01b5f52601660045260245ffd5b346102e3575f3660031901126102e357600a546040516001600160801b039091168152602090f35b346102e35760e03660031901126102e35761153936610715565b6115416104e0565b608435916001600160801b03831683036102e35760a4356001600160801b03811681036102e3576020936111d19360c4359361248c565b6001600160a01b03165f908152600b6020526040902090565b346102e35760203660031901126102e3576001600160a01b036115b261049e565b165f52600b602052602060405f2054604051908152f35b346102e3575f3660031901126102e3576020600854604051908152f35b346102e3575f3660031901126102e357335f52600b602052600160ff1b60405f2054161561161d576006805460ff60a01b19169055005b63d1b5191160e01b5f52602560045260245ffd5b346102e35760203660031901126102e3576001600160a01b0361165261049e565b165f526003602052602060405f2054604051908152f35b346102e35760403660031901126102e3577f0b5e322b4b5330962013e8d6519462c133d50320ee476828060995c1acadef626116a361049e565b6116ab6104ca565b90335f52600b602052600160fa1b60405f20541615158061172d575b80611717575b6116e1575b6105a0604051928392836121da565b611708826116ee83611578565b546001600160a01b0319166001600160a01b039091161790565b61171182611578565b556116d2565b506001600160a01b0381811690831614156116cd565b506001600160a01b0361174f61174283611578565b546001600160a01b031690565b16156116c7565b346102e35760403660031901126102e35761176f61049e565b6117776106f4565b6117866108ed6108e133611578565b61198a577fff4f1caf741747da03068e051490a9f142dac5b961014b67ce28f5465061a68f916117b46129e8565b60405160208101906117cb8161093e3386866121da565b519020916117fd6117f160016117e9865f52600f60205260405f2090565b015460801c90565b6001600160801b031690565b6001600160801b0382161061191357506105a0610a4061182a60016117e9865f52600f60205260405f2090565b9360016118ee6118d082611846855f52600f60205260405f2090565b0154809861186a61185f875f52600f60205260405f2090565b60015f918281550155565b6118b06109a661187c600d5460801c90565b600954906118aa9061189d90869060801b6001600160801b03851617613410565b946001600160801b031690565b906133e7565b600d54610c609061098790608084901b6001600160801b038616176118aa565b92828060801b03841680611903575b505f52600f60205260405f2090565b01549460801b6001600160801b039091161790565b61190d9088612b26565b5f6118df565b91610a408160016118ee6118d0611941888461193a6105a0995f52600f60205260405f2090565b01546133c8565b809861197085611959885f52600f60205260405f2090565b0154608083901b6001600160801b038516176118aa565b85611983885f52600f60205260405f2090565b015561186a565b63d1b5191160e01b5f52601b60045260245ffd5b346102e35760203660031901126102e3576001600160a01b036119bf61049e565b165f526005602052602060405f2054604051908152f35b346102e3575f3660031901126102e3576020600d54604051908152f35b346102e3575f3660031901126102e3576040515f600154611a13816102e7565b808452906001811690811561047a5750600114611a3a5761041a8361040e8185038261036e565b60015f9081527fb10e2d527612073b26eecdfd717e6a320cf44b4afac2b0732d9fcbe2b7fa0cf6939250905b808210611a7e5750909150810160200161040e6103fe565b919260018160209254838588010152019101909291611a66565b346102e35760403660031901126102e357611ab161049e565b60243590335f52600360205260405f20805490838203918211610eb9575560018060a01b031690815f52600360205260405f208181540190555f5160206135c95f395f51905f5260405180610e4c3394829190602083019252565b346102e35760203660031901126102e3576001600160a01b03611b2d61049e565b165f52600b602052602060018060a01b0360405f205416604051908152f35b346102e35760203660031901126102e35760043561271081118015611bd3575b611bbf57600854611b8a9161ffff1663ffffffff1990911601600855565b6008546040519081527f23a413df5b1fc0945373ace790cb8288a224212397d5bfc6e2a9b82a4396bbc49080602081016105a0565b63d1b5191160e01b5f52601160045260245ffd5b50335f52600b602052600160fe1b60405f20541615611b6c565b346102e35760803660031901126102e357611c0736610715565b611c0f6104e0565b611c1a600854612b13565b15610d7457600a5482516001600160801b039182169116118015611c5a575b611c4657610876916127cc565b63d1b5191160e01b5f52601260045260245ffd5b50335f52600b602052600160fe1b60405f20541615611c39565b346102e3575f3660031901126102e3576020600954604051908152f35b346102e35760e03660031901126102e357611caa61049e565b611cb26104ca565b6044359060205f608435606435611cc88261070a565b611dd160a4359160c43590611cdf4282101561252e565b61093e611da78b8b611d7e8c61093e611cf6612389565b6001600160a01b0386165f90815260056020526040902090989080549060018201905560405195602094879586019889919260a093969594919660c08401977f6e71edae12b1b97f4d1f60370fef10105fa2faae0126114a169c64845d6126c98552600180871b03166020850152600180861b03166040840152606083015260808201520152565b5190206040519283918b83019586909160429261190160f01b8352600283015260228201520190565b51902092604051948594859094939260ff6060936080840197845216602083015260408201520152565b838052039060015afa15610d6f57611e628183611e437f8c5be1e5ebec7d5bd14f71427d1e84f3dd0314c0f7b2291e5b200ac8c7c3b92594610e9a5f51611e2a60018060a01b0382168015159081611e67575b50612574565b6001600160a01b03165f90815260046020526040902090565b556040519384526001600160a01b039081169416929081906020820190565b0390a3005b6001600160a01b038d161490505f611e24565b346102e35760403660031901126102e357611e9361049e565b60243590611ea0826104f6565b335f52600b602052600160fe1b60405f205416156105a5576001600160a01b0381165f908152600b60205260409020545f5160206135a95f395f51905f529261056e9161342e565b346102e35760403660031901126102e357611f0161049e565b60243590611f0e826104f6565b335f908152600b6020526040902054600160ff1b1615611f685761056e5f5160206135a95f395f51905f5292611f4f611f4633611578565b5482159061344f565b611f5833611578565b55611f6283611578565b5461344f565b63d1b5191160e01b5f52601060045260245ffd5b346102e35760403660031901126102e3576020611fca611f9a61049e565b611fa26104ca565b6001600160a01b039182165f9081526004855260408082209290931681526020919091522090565b54604051908152f35b346102e3575f3660031901126102e3576020600a5460801c604051908152f35b346102e35760403660031901126102e35761200c61049e565b60243590612019826104f6565b335f52600b602052600160fc1b60405f205416156105a5576001600160a01b0381165f908152600b60205260409020545f5160206135a95f395f51905f529261056e91613470565b346102e35760403660031901126102e35760043561207d6104ca565b90612089600854612b13565b15610d7457335f52600b602052600160fe1b60405f20541615612126576007546001600160a01b03165f1981016120df57505f808080936120ca955af11590565b6120d057005b633607a14f60e11b5f5260045ffd5b60445f8080936020956040519763a9059cbb60e01b84526004526024525af13d15601f3d1160015f5114161716906040521561211757005b633c9fd93960e21b5f5260045ffd5b63d1b5191160e01b5f52601960045260245ffd5b346102e35760203660031901126102e3576004355f602060405161215d81610353565b82815201525f52600f60205261041a60405f2060016040519161217f83610353565b818060a01b038154168352015460208201526040519182918281516001600160a01b031681526020918201519181019190915260400190565b634e487b7160e01b5f52601160045260245ffd5b5f198114610eb95760010190565b6001600160a01b0391821681529116602082015260400190565b6001600160781b031660ff8111610eb9576001901b90565b908160801b91808304600160801b1490151715610eb957565b908160041b9180830460101490151715610eb957565b90601482029180830460141490151715610eb957565b90601882029180830460181490151715610eb957565b9060148201809211610eb957565b908160209103126102e357516103c4816104f6565b6040513d5f823e3d90fd5b6001600160801b039091169081156122b4576001600160801b03160490565b634e487b7160e01b5f52601260045260245ffd5b6001600160801b039182169082160391908211610eb957565b6001600160781b0390811660010191908211610eb957565b65b5e620f48000039065b5e620f480008211610eb957565b91908203918211610eb957565b9060405161232b81610333565b91546001600160801b0381168352608081901c6001600160781b0316602084015260f81c6040830152565b6001600160801b03908116620151800191908211610eb957565b6001600160801b039182169082160191908211610eb957565b467f0000000000000000000000000000000000000000000000000000000000000000036123d4577f000000000000000000000000000000000000000000000000000000000000000090565b604051905f915f54906123e6826102e7565b808252602082019260018116908115612471575060011461241b575b50612413816103c49495038261036e565b51902061355d565b5f8080529094507f290decd9548b62a8d60345a988386fc84ba6bc95484008f6362f93160ef3e5635b85821061245b575081016020019350612413612402565b6001816020925483858701015201910190612444565b60ff1916845250151560051b81016020019350612413612402565b805160408083015160209384015182517f2d6f2462798f043c326ee6ec02c17cbc47b3cd9a1a4c5b8ac68ccf4cfd6f4ea49581019586526001600160801b039485169381019390935260ff9190911660608301526001600160781b031660808201526001600160a01b0390931660a084015292831660c08301529190921660e0830152610100808301939093529181526125286101208261036e565b51902090565b1561253557565b60405162461bcd60e51b815260206004820152601760248201527614115493525517d11150511312539157d1561412549151604a1b6044820152606490fd5b1561257b57565b60405162461bcd60e51b815260206004820152600e60248201526d24a72b20a624a22fa9a4a3a722a960911b6044820152606490fd5b90156125cb57600160fd1b905b6001600760fd1b03161790565b5f906125be565b90156125ec57600160f81b905b600160ff60f81b03161790565b5f906125df565b61093e612528612601612389565b92604051928391602083019586909160429261190160f01b8352600283015260228201520190565b91908260409103126102e3576020823592013590565b60ff601b9116019060ff8211610eb957565b90604010156126605760400190565b634e487b7160e01b5f52603260045260245ffd5b906041810361272d57906020926126df836126b76126b16126a361269b5f98880188612629565b949097612651565b356001600160f81b03191690565b60f81c90565b935b604051948594859094939260ff6060936080840197845216602083015260408201520152565b838052039060015afa15610d6f575f516001600160a01b031690811561271e576001600160a01b03160361270f57565b632057875960e21b5f5260045ffd5b638baa579f60e01b5f5260045ffd5b90604082036127735760209261274a825f946126df940190612629565b9092906001600160ff1b0381169061276d906127689060ff1c610c2c565b61263f565b936126b9565b634be6321b60e01b5f5260045ffd5b156102e357565b8151602083015160409093015160f81b6001600160f81b031916600160801b600160f81b0360809490941b939093166001600160801b0390911617919091179055565b600a547f68e68b059416c2836fd602f01cc46a42a185922f060ff76722815bac32407129929061282f90611470906001600160801b0316845161281990611453906001600160801b031681565b90610c606001600160801b038216831115612782565b6001600160a01b0381165f908152600e602052604090206001600160801b039061285890610c08565b166128fb576001600160a01b0381165f908152600e6020526040902061287f908390612789565b81516128f6906001600160801b031660208401519093906128af906040906001600160781b031692015160ff1690565b604080516001600160a01b0390951685526001600160801b0390951660208501526001600160781b039091169383019390935260ff90921660608201529081906080820190565b0390a1565b6001600160a01b0381165f908152600e602052604090206129cb9061291f9061231e565b835161294f90612942906001600160801b031683516001600160801b0316612370565b6001600160801b03168252565b61297e60408201612961815160ff1690565b604087015160ff1660ff811660ff8316106129df575060ff169052565b60208181018051918601516129af926001600160781b0390811691168082106129d057506001600160781b03169052565b6001600160a01b0383165f908152600e60205260409020612789565b61287f565b6001600160781b031690915250565b905060ff169052565b6009546129fd6129f88260801c90565b612356565b426001600160801b0390911610612a115750565b612a25906109a6906102a360871b90612aea565b612a336117f16002546122f9565b620f42406001600160801b0382161015612ace5750612a74610987620f42405b610981612a6e600d54926008549061ffff6127109216020490565b60801b90565b7f640eaa6ba71a4f457fdf8b26b0a8a0a6096d6d2bf731d07d47717534847ce55d6128f6612abe612aa760095460801c90565b600d5460801c5b60018060801b03169060801b1790565b6040519081529081906020820190565b612a74906109879061474a6001600160801b0390911604612a53565b612aae90612aff8360801d8260801d01613491565b926001600160801b03918216911601613491565b60ff1c600103612b2257600190565b5f90565b60025490828201809211610eb95760205f5160206135c95f395f51905f52915f9360025560018060a01b0316938484526003825260408420818154019055604051908152a3565b6020818303126102e3578035906001600160401b0382116102e35701906040828203126102e35760405191612ba183610353565b8035612bac8161070a565b83526020810135906001600160401b0382116102e3570181601f820112156102e3578035906001600160401b03821161034e5760405192612bf7601f8401601f19166020018561036e565b828452602083830101116102e357815f9260208093018386013783010152602082015290565b908160c09103126102e3576040519060c08201908282106001600160401b0383111761034e5760a0916040528051835260208101516020840152604081015160408401526060810151612c6f8161070a565b606084015260808101516080840152015160a082015290565b929190604051936020850152604084015260ff60f81b166060830152604182526106be60618361036e565b9092612d0b6101009360406103c49796612ce08682516020809160018060a01b0381511684520151910152565b60208181015187840152910151606086015281516001600160a01b03166080860152015160a0840152565b6001600160a01b031660c082015260e08101829052019061038f565b60406103c494936101009360018060a01b0316835265ffffffffffff6060825160018060a01b03815116602087015260018060a01b036020820151168587015282858201511682870152015116608084015260018060a01b0360208201511660a0840152015160c08201528160e0820152019061038f565b908160a09103126102e3576040519060a08201908282106001600160401b0383111761034e5760809160405280518352602081015160208401526040810151612de78161070a565b6040840152606081015160608401520151608082015290565b908160209103126102e3575190565b949293919290919060016001600160a01b03871603612e3657505050506106be9150613513565b80612e465750506106be936134c4565b90612e5391810190612b6d565b60ff612e60825160ff1690565b166002810361304157506020612e8191015160208082518301019101612d9f565b6001600160a01b03851690736b175474e89094c44da98b954eedeac495271d0f8203612fbb57604051623f675f60e91b81526001600160a01b038416600482015291602090839060249082905afa908115610d6f57612f655f939284938491612f8c575b5061093e602084015193612efd604082015160ff1690565b60608201516080909201516040516323f2ebc360e21b60208201526001600160a01b038b16602482015230604482015260648101959095526084850196909652600160a485015260ff1660c484015260e4830152610104820193909352918290610124820190565b60208151910182885af115612f7d576106be936134c4565b63203aa5b560e11b5f5260045ffd5b612fae915060203d602011612fb4575b612fa6818361036e565b810190612e00565b5f612ee5565b503d612f9c565b5f91508061303c83925161093e602084015193612fdc604082015160ff1690565b606082015160809092015160405163d505accf60e01b60208201526001600160a01b038b1660248201523060448201526064810195909552608485019690965260ff1660a484015260c483015260e4820193909352918290610104820190565b612f65565b9194939091600381036130dd575061305991506134b0565b926e22d473030f116ddee9f6b43ac78ba33b156102e357604051631b63c28b60e11b81526001600160a01b03918216600482015291811660248301529283166044820152911660648201525f81608481836e22d473030f116ddee9f6b43ac78ba35af18015610d6f576130c95750565b806130d75f6106be9361036e565b806102d9565b6004810361322c57509060206130fe91015160208082518301019101612c1d565b906131b361310c83516134b0565b92613166613123604083015165ffffffffffff1690565b61314b61312e6106cf565b6001600160a01b038a168152966001600160a01b03166020880152565b65ffffffffffff604087015265ffffffffffff166060860152565b60208101516131736106c0565b94855230602086015260408501526080810151906131ad61319d606060a084015193015160ff1690565b60f81b6001600160f81b03191690565b91612c88565b916e22d473030f116ddee9f6b43ac78ba33b156102e3576040516302b67b5760e41b8152925f91849182916131ed91908a60048501612d27565b0381836e22d473030f116ddee9f6b43ac78ba35af1918215610d6f5761305992613218575b506134b0565b806130d75f6132269361036e565b5f613212565b60051461323b575b5050505050565b61325560206132d293015160208082518301019101612c1d565b9081516132726132636106af565b6001600160a01b039097168752565b6020860152604082015160208301519061328a6106c0565b968752602087015260408601526132b16132a26106af565b6001600160a01b039095168552565b60208401526080810151906131ad61319d606060a084015193015160ff1690565b916e22d473030f116ddee9f6b43ac78ba33b156102e3576133095f93604051958694859463187945bd60e11b865260048601612cb3565b0381836e22d473030f116ddee9f6b43ac78ba35af18015610d6f57613332575b80808080613234565b806130d75f6133409361036e565b5f613329565b901561336057600160fe1b905b6001600360fe1b03161790565b5f90613353565b901561337f57600160a01b905b600160a01b19161790565b5f90613374565b90156133a057600160f91b905b6001607f60f91b03161790565b5f90613393565b90156133c157600160fc1b905b6001600f60fc1b03161790565b5f906133b4565b6103c491608082901c6001600160801b03918216919092160204613491565b612aae906133fc8360801d8260801d03613491565b926001600160801b03908116911603613491565b6103c4916001600160801b0380831660809390931c91160204613491565b901561344857600160fa1b905b6001603f60fa1b03161790565b5f9061343b565b901561346957600160ff1b905b6001600160ff1b03161790565b5f9061345c565b901561348a57600160fb1b905b6001601f60fb1b03161790565b5f9061347d565b6001600160801b0381116134ab576001600160801b031690565b505f90565b6001600160a01b0381169081036134ab5790565b6040516323b872dd60e01b81526001600160a01b03928316600482015292909116602483015260448201929092526020915f9160649183905af13d15601f3d1160015f51141617161561211757565b5f5160206135e95f395f51905f525c8111613549575f5160206135e95f395f51905f525c035f5160206135e95f395f51905f525d565b63d1b5191160e01b5f52601c60045260245ffd5b60405160208101917f8b73c3c69bb8fe3d512ecc4cf759cc79239f7b179b0ffacaa9a75d522b39400f835260408201524660608201523060808201526080815261252860a08261036e56fed29227266ff631bd0acd395a156663b79afd9702bfc8010f0ab7207965d88f7fddf252ad1be2c89b69c2b068fc378daa952ba7f163c4a11628f55a4df523b3efcbe27d488af5b5c1b0bd8d89be6fdfeaed3ad42719044fd9b728f33df1d6f1d1a264697066735822122036827c4840e013266ffdb4ac3df0a0a31da8bc1fe499ec089f5d71a6e3aeb6f764736f6c634300081d0033290decd9548b62a8d60345a988386fc84ba6bc95484008f6362f93160ef3e563","linkReferences":{}},"methodIdentifiers":{"DOMAIN_SEPARATOR()":"3644e515","addShare((uint128,uint120,uint8),address)":"baf02f1b","allowance(address,address)":"dd62ed3e","approve(address,uint256)":"095ea7b3","balanceOf(address)":"70a08231","burn(uint256)":"42966c68","burnShare(address)":"44d91d9a","decimals()":"313ce567","disableUpgrade()":"67fc9138","getreferral(address)":"a985901a","left_share()":"45fda707","name()":"06fdde03","nonces(address)":"7ecebe00","permit(address,address,uint256,uint256,uint8,bytes32,bytes32)":"d505accf","permitShare((uint128,uint120,uint8),uint128,bytes,address)":"0f7f0658","poolstate()":"845fcee4","publicSell(uint256,bytes)":"297f24bf","publicsell()":"de5712d4","setBan(address,bool)":"3e3b61f4","setCallMintTTS(address,bool)":"d8048a46","setDAOAdmin(address,bool)":"dd4fff3a","setEnv(address)":"2ff908cc","setMarketAdmin(address,bool)":"40a6bc17","setMarketManager(address,bool)":"de5d5803","setRatio(uint256)":"b2237ba3","setReferral(address,address)":"7543e3f0","setStakeAdmin(address,bool)":"3e6b1fe4","setStakeManager(address,bool)":"08b8d7f0","setTokenAdmin(address,bool)":"3789f8d1","setTokenManager(address,bool)":"087425db","shareHash((uint128,uint120,uint8),address,uint128,uint128,uint256)":"47340467","shareMint()":"1aab145d","stake(address,uint128)":"19f8d5b4","stakeproofinfo(uint256)":"ff428a95","stakestate()":"cae97640","symbol()":"95d89b41","totalSupply()":"18160ddd","transfer(address,uint256)":"a9059cbb","transferFrom(address,address,uint256)":"23b872dd","ttstokenconfig()":"623059a5","unstake(address,uint128)":"7bd3ca35","userConfig(address)":"5f35b0b3","usershares(address)":"28d617fc","withdrawPublicSell(uint256,address)":"e7b43e7d"},"id":50}