{"abi":[{"type":"function","name":"buyGood","inputs":[{"name":"_goodid1","type":"address","internalType":"address"},{"name":"_goodid2","type":"address","internalType":"address"},{"name":"_swapQuantity","type":"uint128","internalType":"uint128"},{"name":"_tradetimes","type":"uint128","internalType":"uint128"},{"name":"_recipent","type":"address","internalType":"address"},{"name":"data","type":"bytes","internalType":"bytes"}],"outputs":[{"name":"good1change","type":"uint256","internalType":"uint256"},{"name":"good2change","type":"uint256","internalType":"uint256"}],"stateMutability":"payable"},{"type":"function","name":"buyGoodCheck","inputs":[{"name":"_goodid1","type":"address","internalType":"address"},{"name":"_goodid2","type":"address","internalType":"address"},{"name":"_swapQuantity","type":"uint128","internalType":"uint128"},{"name":"_tradetimes","type":"uint128","internalType":"uint128"}],"outputs":[{"name":"good1change","type":"uint256","internalType":"uint256"},{"name":"good2change","type":"uint256","internalType":"uint256"}],"stateMutability":"view"},{"type":"function","name":"changeGoodOwner","inputs":[{"name":"_goodid","type":"address","internalType":"address"},{"name":"_to","type":"address","internalType":"address"}],"outputs":[],"stateMutability":"nonpayable"},{"type":"function","name":"collectCommission","inputs":[{"name":"_goodid","type":"address[]","internalType":"address[]"}],"outputs":[],"stateMutability":"nonpayable"},{"type":"function","name":"disableUpgrade","inputs":[],"outputs":[],"stateMutability":"nonpayable"},{"type":"function","name":"disinvestProof","inputs":[{"name":"_proofid","type":"uint256","internalType":"uint256"},{"name":"_goodQuantity","type":"uint128","internalType":"uint128"},{"name":"_gate","type":"address","internalType":"address"}],"outputs":[{"name":"","type":"uint128","internalType":"uint128"},{"name":"","type":"uint128","internalType":"uint128"}],"stateMutability":"nonpayable"},{"type":"function","name":"getGoodState","inputs":[{"name":"goodkey","type":"address","internalType":"address"}],"outputs":[{"name":"","type":"tuple","internalType":"struct S_GoodTmpState","components":[{"name":"goodConfig","type":"uint256","internalType":"uint256"},{"name":"owner","type":"address","internalType":"address"},{"name":"currentState","type":"uint256","internalType":"uint256"},{"name":"investState","type":"uint256","internalType":"uint256"},{"name":"feeQuantityState","type":"uint256","internalType":"uint256"}]}],"stateMutability":"view"},{"type":"function","name":"getProofState","inputs":[{"name":"proofid","type":"uint256","internalType":"uint256"}],"outputs":[{"name":"","type":"tuple","internalType":"struct S_ProofState","components":[{"name":"currentgood","type":"address","internalType":"address"},{"name":"valuegood","type":"address","internalType":"address"},{"name":"state","type":"uint256","internalType":"uint256"},{"name":"invest","type":"uint256","internalType":"uint256"},{"name":"valueinvest","type":"uint256","internalType":"uint256"}]}],"stateMutability":"view"},{"type":"function","name":"getRecentGoodState","inputs":[{"name":"good1","type":"address","internalType":"address"},{"name":"good2","type":"address","internalType":"address"}],"outputs":[{"name":"good1correntstate","type":"uint256","internalType":"uint256"},{"name":"good2correntstate","type":"uint256","internalType":"uint256"}],"stateMutability":"view"},{"type":"function","name":"goodWelfare","inputs":[{"name":"goodid","type":"address","internalType":"address"},{"name":"welfare","type":"uint128","internalType":"uint128"},{"name":"data","type":"bytes","internalType":"bytes"}],"outputs":[],"stateMutability":"payable"},{"type":"function","name":"initGood","inputs":[{"name":"_valuegood","type":"address","internalType":"address"},{"name":"_initial","type":"uint256","internalType":"uint256"},{"name":"_erc20address","type":"address","internalType":"address"},{"name":"_goodConfig","type":"uint256","internalType":"uint256"},{"name":"_normaldata","type":"bytes","internalType":"bytes"},{"name":"_valuedata","type":"bytes","internalType":"bytes"}],"outputs":[{"name":"","type":"bool","internalType":"bool"}],"stateMutability":"payable"},{"type":"function","name":"initMetaGood","inputs":[{"name":"_erc20address","type":"address","internalType":"address"},{"name":"_initial","type":"uint256","internalType":"uint256"},{"name":"_goodConfig","type":"uint256","internalType":"uint256"},{"name":"data","type":"bytes","internalType":"bytes"}],"outputs":[{"name":"","type":"bool","internalType":"bool"}],"stateMutability":"payable"},{"type":"function","name":"investGood","inputs":[{"name":"_togood","type":"address","internalType":"address"},{"name":"_valuegood","type":"address","internalType":"address"},{"name":"_quantity","type":"uint128","internalType":"uint128"},{"name":"data1","type":"bytes","internalType":"bytes"},{"name":"data2","type":"bytes","internalType":"bytes"}],"outputs":[{"name":"","type":"bool","internalType":"bool"}],"stateMutability":"payable"},{"type":"function","name":"ishigher","inputs":[{"name":"goodid","type":"address","internalType":"address"},{"name":"valuegood","type":"address","internalType":"address"},{"name":"compareprice","type":"uint256","internalType":"uint256"}],"outputs":[{"name":"","type":"bool","internalType":"bool"}],"stateMutability":"view"},{"type":"function","name":"modifyGoodConfig","inputs":[{"name":"_goodid","type":"address","internalType":"address"},{"name":"_goodConfig","type":"uint256","internalType":"uint256"}],"outputs":[{"name":"","type":"bool","internalType":"bool"}],"stateMutability":"nonpayable"},{"type":"function","name":"multicall","inputs":[{"name":"data","type":"bytes[]","internalType":"bytes[]"}],"outputs":[{"name":"results","type":"bytes[]","internalType":"bytes[]"}],"stateMutability":"payable"},{"type":"function","name":"queryCommission","inputs":[{"name":"_goodid","type":"address[]","internalType":"address[]"},{"name":"_recipent","type":"address","internalType":"address"}],"outputs":[{"name":"","type":"uint256[]","internalType":"uint256[]"}],"stateMutability":"view"},{"type":"function","name":"updateGoodConfig","inputs":[{"name":"_goodid","type":"address","internalType":"address"},{"name":"_goodConfig","type":"uint256","internalType":"uint256"}],"outputs":[{"name":"","type":"bool","internalType":"bool"}],"stateMutability":"nonpayable"},{"type":"event","name":"e_buyGood","inputs":[{"name":"sellgood","type":"address","indexed":true,"internalType":"address"},{"name":"forgood","type":"address","indexed":true,"internalType":"address"},{"name":"swapvalue","type":"uint256","indexed":false,"internalType":"uint256"},{"name":"good1change","type":"uint256","indexed":false,"internalType":"uint256"},{"name":"good2change","type":"uint256","indexed":false,"internalType":"uint256"}],"anonymous":false},{"type":"event","name":"e_changegoodowner","inputs":[{"name":"goodid","type":"address","indexed":false,"internalType":"address"},{"name":"to","type":"address","indexed":false,"internalType":"address"}],"anonymous":false},{"type":"event","name":"e_collectProtocolFee","inputs":[{"name":"goodid","type":"address","indexed":false,"internalType":"address"},{"name":"feeamount","type":"uint256","indexed":false,"internalType":"uint256"}],"anonymous":false},{"type":"event","name":"e_collectcommission","inputs":[{"name":"_gooid","type":"address[]","indexed":false,"internalType":"address[]"},{"name":"_commisionamount","type":"uint256[]","indexed":false,"internalType":"uint256[]"}],"anonymous":false},{"type":"event","name":"e_disinvestProof","inputs":[{"name":"_proofNo","type":"uint256","indexed":true,"internalType":"uint256"},{"name":"_normalGoodNo","type":"address","indexed":false,"internalType":"address"},{"name":"_valueGoodNo","type":"address","indexed":false,"internalType":"address"},{"name":"_gate","type":"address","indexed":false,"internalType":"address"},{"name":"_value","type":"uint256","indexed":false,"internalType":"uint256"},{"name":"_normalgood","type":"uint256","indexed":false,"internalType":"uint256"},{"name":"_valuegood","type":"uint256","indexed":false,"internalType":"uint256"},{"name":"_profit","type":"uint256","indexed":false,"internalType":"uint256"}],"anonymous":false},{"type":"event","name":"e_goodWelfare","inputs":[{"name":"goodid","type":"address","indexed":false,"internalType":"address"},{"name":"welfare","type":"uint128","indexed":false,"internalType":"uint128"}],"anonymous":false},{"type":"event","name":"e_initGood","inputs":[{"name":"_proofNo","type":"uint256","indexed":false,"internalType":"uint256"},{"name":"_goodid","type":"address","indexed":false,"internalType":"address"},{"name":"_valuegoodNo","type":"address","indexed":false,"internalType":"address"},{"name":"_goodConfig","type":"uint256","indexed":false,"internalType":"uint256"},{"name":"_construct","type":"uint256","indexed":false,"internalType":"uint256"},{"name":"_normalinitial","type":"uint256","indexed":false,"internalType":"uint256"},{"name":"_value","type":"uint256","indexed":false,"internalType":"uint256"}],"anonymous":false},{"type":"event","name":"e_initMetaGood","inputs":[{"name":"_proofNo","type":"uint256","indexed":false,"internalType":"uint256"},{"name":"_goodid","type":"address","indexed":false,"internalType":"address"},{"name":"_construct","type":"uint256","indexed":false,"internalType":"uint256"},{"name":"_goodConfig","type":"uint256","indexed":false,"internalType":"uint256"},{"name":"_initial","type":"uint256","indexed":false,"internalType":"uint256"}],"anonymous":false},{"type":"event","name":"e_investGood","inputs":[{"name":"_proofNo","type":"uint256","indexed":true,"internalType":"uint256"},{"name":"_normalgoodid","type":"address","indexed":false,"internalType":"address"},{"name":"_valueGoodNo","type":"address","indexed":false,"internalType":"address"},{"name":"_value","type":"uint256","indexed":false,"internalType":"uint256"},{"name":"_invest","type":"uint256","indexed":false,"internalType":"uint256"},{"name":"_valueinvest","type":"uint256","indexed":false,"internalType":"uint256"}],"anonymous":false},{"type":"event","name":"e_modifyGoodConfig","inputs":[{"name":"_goodid","type":"address","indexed":false,"internalType":"address"},{"name":"_goodconfig","type":"uint256","indexed":false,"internalType":"uint256"}],"anonymous":false},{"type":"event","name":"e_updateGoodConfig","inputs":[{"name":"_goodid","type":"address","indexed":false,"internalType":"address"},{"name":"_goodConfig","type":"uint256","indexed":false,"internalType":"uint256"}],"anonymous":false},{"type":"error","name":"ERC20PermitFailed","inputs":[]},{"type":"error","name":"ERC20TransferFailed","inputs":[]},{"type":"error","name":"ERC3156ExceededMaxLoan","inputs":[{"name":"maxLoan","type":"uint256","internalType":"uint256"}]},{"type":"error","name":"ERC3156InvalidReceiver","inputs":[{"name":"receiver","type":"address","internalType":"address"}]},{"type":"error","name":"ERC3156UnsupportedToken","inputs":[{"name":"token","type":"address","internalType":"address"}]},{"type":"error","name":"NativeETHTransferFailed","inputs":[]},{"type":"error","name":"TTSwapError","inputs":[{"name":"seq","type":"uint256","internalType":"uint256"}]}],"bytecode":{"object":"0x60808060405234601557614952908161001a8239f35b5f80fdfe60806040526004361015610011575f80fd5b5f3560e01c8062796f711461013357806306cf4e7f1461012e57806308238466146101295780630d2700ab146101245780631412723a1461011f5780633bd164361461011a5780633f1177401461011557806341e123731461011057806351ff9a161461010b5780635f755d651461010657806367fc9138146101015780639b222794146100fc578063a3b74a49146100f7578063ac9650d8146100f2578063b1efb921146100ed578063f151e786146100e8578063f4662f20146100e35763f878e809146100de575f80fd5b611d05565b611833565b61125f565b6111e2565b61117b565b611041565b610f75565b610eae565b610e29565b610d56565b610cb6565b610bf8565b610897565b6107ca565b61058c565b61036a565b6101fd565b610175565b6001600160a01b0381160361014957565b5f80fd5b60409060031901126101495760043561016581610138565b9060243561017281610138565b90565b34610149576101833661014d565b6001600160a01b039182165f908152600260208181526040808420830154959094168352918390200154825193845290830152819081015b0390f35b6001600160801b0381160361014957565b9181601f84011215610149578235916001600160401b038311610149576020838186019501011161014957565b60603660031901126101495760043561021581610138565b602435610221816101bf565b6044356001600160401b038111610149576102409036906004016101d0565b92905f5160206148dd5f395f51905f525c6001600160a01b031661035657335f5160206148dd5f395f51905f525d610276612b86565b6001600160a01b0382165f908152600260205260409020600401546001606d1b906001600160801b03906102b390869060801c61213f565b61213f565b161015610342577f0dc5e2150c5754dc0bcd8d76ca2d23850fc9a2a3115c69bb4fbdbedc25074a00936102f1916001600160801b0385163385612c78565b61031160046102ff83612112565b015461030b8460801b90565b90613194565b600461031c83612112565b015561032d6040519283928361215d565b0390a1610338612be3565b610340612b74565b005b63d1b5191160e01b5f52600c60045260245ffd5b63d1b5191160e01b5f52600360045260245ffd5b34610149576020366003190112610149576101bb60043561038a81610138565b610392612180565b506001600160a01b038181165f9081526002602052604090208054600190910154909291169060026103c382612112565b01546103fe60046103e060036103d886612112565b015494612112565b0154936103eb6104c0565b9586526001600160a01b03166020860152565b6040840152606083015260808201526040519182918291909160808060a08301948051845260018060a01b03602082015116602085015260408101516040850152606081015160608501520151910152565b634e487b7160e01b5f52604160045260245ffd5b60a081019081106001600160401b0382111761047f57604052565b610450565b604081019081106001600160401b0382111761047f57604052565b90601f801991011681019081106001600160401b0382111761047f57604052565b604051906104cf60a08361049f565b565b604051906104cf6101008361049f565b604051906104cf60608361049f565b604051906104cf60408361049f565b604051906104cf60808361049f565b6001600160401b03811161047f5760051b60200190565b9080601f8301121561014957813561053c8161050e565b9261054a604051948561049f565b81845260208085019260051b82010192831161014957602001905b8282106105725750505090565b60208091833561058181610138565b815201910190610565565b34610149576020366003190112610149576004356001600160401b038111610149576105bc903690600401610525565b5f5160206148dd5f395f51905f525c6001600160a01b031661035657335f5160206148dd5f395f51905f525d600154610605906001600160a01b03165b6001600160a01b031690565b604051635f35b0b360e01b815233600482015290602090829060249082905afa80156107c557610642915f91610796575b50600160ff1b16151590565b15610790575f5b606482511161077c5761065c82516121c4565b915f5b815181101561074057806106a984600a61069361068e6106816001978961220a565b516001600160a01b031690565b612112565b019060018060a01b03165f5260205260405f2090565b546106b4828761220a565b5260026106c1828761220a565b5110156106db575f6106d3828761220a565b525b0161065f565b6106ee6106e8828761220a565b51612223565b6106f8828761220a565b5261071861071285600a61069361068e610681878a61220a565b60019055565b61073b610728610681838661220a565b610732838861220a565b519033906131bd565b6106d5565b6040517f477bb716eacccc001de50dcdd6e25241283d080e6afb27443908b20f4e738b5e9080610771878683612231565b0390a1610340612b74565b63d1b5191160e01b5f52600b60045260245ffd5b33610649565b6107b8915060203d6020116107be575b6107b0818361049f565b8101906121aa565b5f610636565b503d6107a6565b6121b9565b34610149576060366003190112610149576004356107e781610138565b610870602435916107f783610138565b6001600160a01b039081165f90815260026020819052604080832082015495909316825291902001549160443590610866906108536108436001600160801b038716608084901c612b1e565b6001600160801b03851690612b1e565b9460801c906001600160801b0316612b1e565b9060801c90612b1e565b101561088e576101bb60015b60405190151581529081906020820190565b6101bb5f61087c565b34610149576080366003190112610149576004356108b481610138565b6024356108c081610138565b604435906108cd826101bf565b606435916108da836101bf565b60026108e585612112565b0154158015610be4575b8015610bd3575b8015610bbe575b8015610bab575b610b975760646001600160801b0384161015610a875761092860026103d886612112565b5492610940600261093885612112565b015493612112565b549461098e61094d6104d1565b6001600160801b03851681529260208401955f875260408501975f895260608601945f8652608087015260a086015260c085015260e08401978852836134dc565b81516109af906001600160801b031686516001600160801b03165b9061213f565b6001600160801b0384811691161080159190610a6e575b50610a5a57610a26610a16610a4092610a06610a0695610a006109f2610a479a5160018060801b031690565b93516001600160801b031690565b906122bc565b60018060801b03169060801b1790565b955193516001600160801b031690565b926001600160801b038416607f6127109260cc1c16020490565b80926122bc565b905b604080519182526020820192909252f35b63d1b5191160e01b5f52602260045260245ffd5b51620f42406001600160801b039091161090505f6109c6565b610a976002610938869596612112565b5492610b1c610b10610ab56002610aad87612112565b015495612112565b5496610b03610ac26104d1565b6001600160801b03871681529160208301975f895260408401995f8b5260608501975f8952608086015260a085015260c084015260e08301998a5282613241565b516001600160801b031690565b6001600160801b031690565b1590811591610b7e575b50610b6a57610b5d610a26610a16610a0693610b4b610b64975160018060801b031690565b60801b6001600160801b039091161790565b809261213f565b90610a49565b63d1b5191160e01b5f52602160045260245ffd5b51620f42406001600160801b039091161090505f610b26565b63d1b5191160e01b5f52602360045260245ffd5b5060c86001600160801b03841611610904565b506001600160a01b03848116908316146108fd565b506001600160801b038116156108f6565b506002610bf083612112565b0154156108ef565b3461014957602036600319011261014957600435610c14612180565b505f5260036020526101bb60405f20600460405191610c3283610464565b60018060a01b03815416835260018060a01b0360018201541660208401526002810154604084015260038101546060840152015460808201526040519182918291909160808060a083019460018060a01b03815116845260018060a01b03602082015116602085015260408101516040850152606081015160608501520151910152565b3461014957610cc43661014d565b600154604051635f35b0b360e01b815233600482015290602090829060249082906001600160a01b03165afa9081156107c557610d1691610d12915f91610d37575b50600160fb1b16151590565b1590565b610d2357610340916122f4565b63d1b5191160e01b5f52600260045260245ffd5b610d50915060203d6020116107be576107b0818361049f565b5f610d06565b608036600319011261014957600435610d6e81610138565b602435906044356064356001600160401b03811161014957610d949036906004016101d0565b600154604051635f35b0b360e01b815233600482015291939190602090829060249082906001600160a01b03165afa9081156107c557610de591610d12915f91610e0a575b50600160fc1b16151590565b610df6576101bb9461087c94612355565b63d1b5191160e01b5f52600160045260245ffd5b610e23915060203d6020116107be576107b0818361049f565b5f610dd9565b60c036600319011261014957600435610e4181610138565b60443590602435610e5183610138565b606435916084356001600160401b03811161014957610e749036906004016101d0565b9060a435946001600160401b038611610149576101bb96610e9c61087c9736906004016101d0565b9690956124ae565b5f91031261014957565b34610149575f36600319011261014957600154604051635f35b0b360e01b815233600482015290602090829060249082906001600160a01b03165afa9081156107c557610f0b91610d12915f916107965750600160ff1b16151590565b610f1d575f805460ff60a01b19169055005b63d1b5191160e01b5f52602560045260245ffd5b90602080835192838152019201905f5b818110610f4e5750505090565b8251845260209384019390920191600101610f41565b906020610172928181520190610f31565b34610149576040366003190112610149576004356001600160401b03811161014957610fa5903690600401610525565b60243590610fb282610138565b60648151101561102d57610fc681516121c4565b915f5b825181101561101f576001906001600160a01b03610fe7828661220a565b51165f9081526002602090815260408083206001600160a01b0387168452600a01909152902054611018828761220a565b5201610fc9565b604051806101bb8682610f64565b63d1b5191160e01b5f52600b60045260245ffd5b346101495760403660031901126101495760043561105e81610138565b6024356001600160a01b038281165f818152600260205260409020600101549093911633036110e4577f075a13b9dbfb2e30d678551b8c2a4f9ede7468ca5273fa902a41d0e577566669925f5260026020526110bd8260405f20613b74565b604080516001600160a01b039290921682526020820192909252a160405160018152602090f35b63d1b5191160e01b5f52600a60045260245ffd5b805180835260209291819084018484015e5f828201840152601f01601f1916010190565b602081016020825282518091526040820191602060408360051b8301019401925f915b83831061114e57505050505090565b909192939460208061116c600193603f1986820301875289516110f8565b9701930193019193929061113f565b6020366003190112610149576004356001600160401b0381116101495736602382011215610149578060040135906001600160401b038211610149573660248360051b83010111610149576101bb9160246111d692016127db565b6040519182918261111c565b34610149576040366003190112610149576004356111ff81610138565b600154604051635f35b0b360e01b8152336004820152602480359392602091839182906001600160a01b03165afa9081156107c55761124e91610d12915f91610d375750600160fb1b16151590565b610d23576101bb9161087c9161292b565b60c03660031901126101495760043561127781610138565b6024359061128482610138565b60443590611291826101bf565b6064359261129e846101bf565b608435936112ab85610138565b60a4356001600160401b038111610149576112ca9036906004016101d0565b90959092905f5160206148dd5f395f51905f525c6001600160a01b031661035657335f5160206148dd5f395f51905f525d611303612b86565b600261130e86612112565b015415801561181f575b801561180e575b80156117f9575b80156117e6575b610b975760646001600160801b03841610156115ec576001600160a01b03811680151590816115e1575b5061156f575b50600261136985612112565b01549561137585612112565b5490600261138284612112565b01549461138e84612112565b54956113986104d1565b6001600160801b038a16815260208101995f8b526113df60408301985f8a5260608401975f8952608085019e8f5260a085015260c0840194855260e084019a8b52836134dc565b81516113fe906001600160801b031689516001600160801b03166109a9565b6001600160801b03828116911610801590611557575b610a5a5787516001600160801b031691516001600160801b0316611437916122bc565b6001600160801b031660809190911b1796519851969889976001600160801b0316906001600160801b03821661271060cc9290921c607f160204908161147c916122bc565b6001600160801b031660809190911b17998a966114988a612112565b915190516001600160801b0316906114af92613b94565b6114b885612112565b90518660801c906114c892613b94565b6114dd916001600160801b0387163389612c78565b6114f16001600160801b03841633846131bd565b51604080516001600160801b0390921682526020820194909452928301919091526001600160a01b039081169216907f770ac49eb4a65be664dd014b1b315647b776f18742f5b7e141e8cb18cec6cea890606090a35b61154f612be3565b610a49612b74565b508551620f42406001600160801b0390911610611414565b600154611584906001600160a01b03166105f9565b803b15610149576040516307543e3f60e41b81523360048201526001600160a01b039290921660248301525f908290604490829084905af180156107c5571561135d57806115d55f6115db9361049f565b80610ea4565b5f61135d565b90503314155f611357565b9492916001600160a01b038616156117d2575f95600261160b87612112565b01549161161787612112565b5492600261162486612112565b01549161163086612112565b5497611686610b106116406104d1565b6001600160801b0384168152602081019d8e52610b0360408201955f8752606083019a5f8c526080840198895260a084015260c0830198895260e083019d8e5282613241565b158015906117ba575b610b6a5781516001600160801b031660801b6001600160801b03909116179751995197998a986001600160801b0316906001600160801b03821661271060cc9290921c607f16020490816116e29161213f565b6001600160801b031660809190911b179a8b9761170a916001600160801b038a16338a612c78565b61171389612112565b915190516001600160801b03169061172a92613b94565b61173384612112565b90518560801c9061174392613b94565b611758906001600160801b03861690876131bd565b5161176b906001600160801b0316612ac3565b604080519182526020820194909452928301919091526001600160a01b039081169216907f770ac49eb4a65be664dd014b1b315647b776f18742f5b7e141e8cb18cec6cea890606090a3611547565b508551620f42406001600160801b039091161061168f565b63d1b5191160e01b5f52602860045260245ffd5b5060c76001600160801b0384161161132d565b506001600160a01b0385811690831614611326565b506001600160801b0386161561131f565b50600261182b83612112565b015415611318565b3461014957606036600319011261014957602435600435611853826101bf565b6044359161186083610138565b5f5160206148dd5f395f51905f525c6001600160a01b031661035657335f5160206148dd5f395f51905f525d8161190e6118b26118a5835f52600360205260405f2090565b546001600160a01b031690565b6119096118da60016118cc865f52600360205260405f2090565b01546001600160a01b031690565b6118f96118e56104e1565b338152936001600160a01b03166020850152565b6001600160a01b03166040830152565b6138d2565b03611cf15761191b612b31565b50611924612b31565b5061193a6118a5835f52600360205260405f2090565b9061195260016118cc855f52600360205260405f2090565b60015490939061196a906001600160a01b03166105f9565b6040516354c2c80d60e11b815233600482015295909390602087602481885afa9687156107c5575f97611cc0575b50604051635f35b0b360e01b81526001600160a01b0382166004820152602081602481895afa80156107c5576119db915f91611c95575b50600160a01b16151590565b15611cba57505f955b6001600160a01b0387811690821603611cb457505f945b604051635f35b0b360e01b81526001600160a01b038716600482015294602090869060249082905afa9182156107c557611bea611ae8611b35968a611bfa9a611a757f01bd856b4be0836aa20e19ba8f86ff29d99a51a5cf79472b8e899272cfb4819698611b929c5f91611c955750600160a01b16151590565b15611c9057505f5b611a8686612112565b611ae3611a9289612112565b92611ad3611aa88d5f52600360205260405f2090565b95611ac3611ab46104e1565b6001600160801b039099168952565b6001600160a01b03166020880152565b6001600160a01b03166040860152565b613bae565b611afc9b9298919b33600a61069388612112565b5460018111611c6a575b506001600160a01b038616611c20575b600154611b2f90829033906001600160a01b03166140d0565b60801b90565b6020880151611b5a906001600160801b031660408a01516001600160801b0316610a06565b60208c015160408d0151611b7a916001600160801b039081169116610a06565b91611ba08d610a06611b928d5160018060801b031690565b91516001600160801b031690565b604080516001600160a01b03988916815298881660208a015294909616938701939093526060860192909252608085019190915260a084015260c0830191909152819060e0820190565b0390a2516001600160801b031690565b90611c03612b74565b604080516001600160801b03928316815292909116602083015290f35b611c2f33600a61069389612112565b5460018111611c3f575b50611b16565b611c5d611c6491611c5861071233600a6106938d612112565b612223565b33886131bd565b5f611c39565b611c83611c8a91611c5861071233600a6106938c612112565b33876131bd565b5f611b06565b611a7d565b611cae915060203d6020116107be576107b0818361049f565b5f6119cf565b946119fb565b956119e4565b611ce391975060203d602011611cea575b611cdb818361049f565b810190612b5f565b955f611998565b503d611cd1565b63d1b5191160e01b5f52600860045260245ffd5b60a036600319011261014957600435611d1d81610138565b602435611d2981610138565b60443590611d36826101bf565b6064356001600160401b03811161014957611d559036906004016101d0565b9390926084356001600160401b03811161014957611d779036906004016101d0565b90915f5160206148dd5f395f51905f525c6001600160a01b031661035657335f5160206148dd5f395f51905f525d611dad612b86565b611db5612738565b96611dbe612738565b966001606d1b6001600160801b03611de2856002611ddb8b612112565b015461213f565b16108015906120fd575b80156120c5575b6120b15782611e0e8a611e1e95611e098a612112565b613a42565b6001600160801b03163387612c78565b6001600160a01b038416159185908315611ffd575b505050611e3e6104e1565b3381526001600160a01b03831660208201526001600160a01b0384166040820152611e68906138d2565b94611e7b865f52600360205260405f2090565b6040820180519196909390916001600160801b031690611e9b8260801b90565b60208501519091906001600160801b0316606086018051909a9189916001600160801b03166001600160801b031660809190911b1760208701516001600160801b03166060880180519096918d916001600160801b03166001600160801b031660809190911b1793611f0c9561395d565b5f14611b92611f857fee89c9fd704272905456294f1b2b88581ebe0241f72c15b4f3db31d19388f6af9a610a06611b92611f77611fca9b611f9399610a0698611fe957508051610b4b90611b92906001600160801b03165b60015433906001600160a01b03166139ca565b99516001600160801b031690565b94516001600160801b031690565b604080516001600160a01b0396871681529690951660208701529385019190915260608401526080830191909152819060a0820190565b0390a2611fd5612be3565b611fdd612b74565b60405160018152602090f35b611b92611ff8610b4b926127bb565b611f64565b6120976120a99361202860026120128a612112565b015460408c01516001600160801b03169061411f565b6001600160801b0316606085019081529261207c61206f6120488b612112565b54865161205d906001600160801b0316610b10565b603f6127109260d91c16820390040290565b6001600160801b03168552565b8351612090906001600160801b0316610b10565b338a612c78565b6120a3611b9287612112565b90613a42565b5f8481611e33565b63d1b5191160e01b5f52600760045260245ffd5b506120de6120d287612112565b54600160ff1b16151590565b80156120eb575b15611df3565b506120f86120d288612112565b6120e5565b506001600160a01b0386811690881614611dec565b6001600160a01b03165f90815260026020526040902090565b634e487b7160e01b5f52601160045260245ffd5b6001600160801b03918216908216019190821161215857565b61212b565b6001600160a01b0390911681526001600160801b03909116602082015260400190565b6040519061218d82610464565b5f6080838281528260208201528260408201528260608201520152565b90816020910312610149575190565b6040513d5f823e3d90fd5b906121ce8261050e565b6121db604051918261049f565b82815280926121ec601f199161050e565b0190602036910137565b634e487b7160e01b5f52603260045260245ffd5b805182101561221e5760209160051b010190565b6121f6565b5f1981019190821161215857565b9291604084019360408152825180955260206060820193015f955b8087106122685750506101729394506020818403910152610f31565b81516001600160a01b03168552600196909601956020948501949091019061224c565b6001600160801b03908116606319019190821161215857565b6001600160801b039081165f19019190821161215857565b6001600160801b03918216908216039190821161215857565b80546001600160a01b0319166001600160a01b03909216919091179055565b907f42e3c955499470d3dc1078d90519d90691c504c8856ea058daf2c1436c2dab4c9160018060a01b0381165f52600260205261233782600160405f20016122d5565b604080516001600160a01b03928316815292909116602083015290a1565b92919390612361612b86565b600160ff1b851615801561248f575b61247c577f8f2eb922ee1b2f92e0051f7949a8c191264807725a1e435e91abebd28583830a946001600160801b0382169361246e936123b191863389612c78565b6123c481836123bf88612112565b6137a8565b6123d56123d086612112565b6137e3565b61242d6124006123e36104e1565b3381526001600160a01b03881660208201525f60408201526138d2565b94611f64612416875f52600360205260405f2090565b918560801c92896124278560801b90565b91613918565b604080519586526001600160a01b0390961660208601526001600160801b0316948401949094526060830193909352608082019290925290819060a0820190565b0390a16001906104cf612be3565b63d1b5191160e01b5f526004805260245ffd5b506001600160a01b036124a660016118cc87612112565b161515612370565b9691959293909291905f5160206148dd5f395f51905f525c6001600160a01b031661035657335f5160206148dd5f395f51905f525d6124eb612b86565b6001600160a01b0361250160016118cc8a612112565b1615801590612723575b61270f57608084901c956125219187338a612c78565b612536916001600160801b0384163389612c78565b61253e612738565b908161254987612112565b9161255392613a42565b61255c84612112565b604082018051909190849086906001600160801b031660801b6001600160801b039091161761258a926137a8565b6125926104e1565b3381526001600160a01b03861660208201526001600160a01b03871660408201526125bc906138d2565b815160208401516060850180519397909390926001600160801b0319608091821b81169390911b166001600160801b0391909116176125f96104c0565b6001600160a01b038a168152916001600160a01b038b16602084015260408301528260608301526080820152612637875f52600360205260405f2090565b906126419161276c565b6001546001600160a01b031683516001600160801b0316612661906127bb565b3361266b926139ca565b925193519151604080519788526001600160a01b039889166020890152989097169786019790975260608501939093526001600160801b0390811660808581019190915295861b9181169190911760a08401526001600160801b03199190941b16919092161760c08201527f3fc0293a5a7bc73de220f0814bbbebc31e77ffcd41bf5e8be187471747bd7caa9060e090a1612704612be3565b6001906104cf612b74565b63d1b5191160e01b5f52600560045260245ffd5b50612733610d126120d28a612112565b61250b565b60405190608082018281106001600160401b0382111761047f576040525f6060838281528260208201528260408201520152565b90608060049161278560018060a01b03825116856122d5565b60208101516127a0906001600160a01b0316600186016122d5565b60408101516002850155606081015160038501550151910155565b60011b6002600160801b03811691906002600160811b0316820361215857565b6127e3612b86565b6127ec8261050e565b916127fa604051938461049f565b808352601f196128098261050e565b015f5b8181106128825750505f5b81811061282a57505050906104cf612be3565b5f80612837838587612893565b90612847604051809381936128d4565b0390305af46128546128fc565b901561287a5790600191612868828761220a565b52612873818661220a565b5001612817565b602081519101fd5b80606060208093880101520161280c565b919081101561221e5760051b81013590601e19813603018212156101495701908135916001600160401b038311610149576020018236038113610149579190565b908092918237015f815290565b6001600160401b03811161047f57601f01601f191660200190565b3d15612926573d9061290d826128e1565b9161291b604051938461049f565b82523d5f602084013e565b606090565b6001600160a01b0381165f90815260026020526040812092919061295c61295760fb85901c5b60071690565b612adc565b61297161296c6129518660f71c90565b612af2565b6129866129816129518760f41c90565b612b08565b6129996129938760ef1c90565b601f1690565b906129a76129938860ea1c90565b926129b56129938960e51c90565b9480158015612abb575b8015612ab3575b8015612aab575b8015612aa3575b8015612a9b575b612a93575b606495936129fc6129fc946129fc612a0198956129fc9561379b565b61379b565b14612a8b575b15612a77577fe40cf68f61d9a4e510244481f5aa34ba68de31cf3f9aa360604d688115d640c892612a55612a44612a3e8560e51c90565b60e51b90565b82546001600160e51b03169061379b565b9055604080516001600160a01b039290921682526020820192909252a1600190565b63d1b5191160e01b5f52602760045260245ffd5b506001612a07565b5f96506129e0565b5085156129db565b5084156129d4565b5083156129cd565b5082156129c6565b5081156129bf565b908160801b91808304600160801b149015171561215857565b90600a820291808304600a149015171561215857565b908160011b918083046002149015171561215857565b908160021b918083046004149015171561215857565b8181029291811591840414171561215857565b60405190606082018281106001600160401b0382111761047f576040525f6040838281528260208201520152565b90816020910312610149575161017281610138565b5f5f5160206148dd5f395f51905f525d565b5f5160206148bd5f395f51905f525c15612bbe575b60015f5160206148bd5f395f51905f525c015f5160206148bd5f395f51905f525d565b345f5160206148fd5f395f51905f525d5f5f5160206148bd5f395f51905f525d612b9b565b5f195f5160206148bd5f395f51905f525c015f5160206148bd5f395f51905f525d5f5160206148bd5f395f51905f525c1580612c61575b612c2057565b5f8080805f5160206148fd5f395f51905f525c815f5160206148fd5f395f51905f525d335af115612c4d57565b63d1b5191160e01b5f52601e60045260245ffd5b505f5160206148fd5f395f51905f525c1515612c1a565b90936001600160801b0390921692909160016001600160a01b03841603612ca6575050506104cf9150614872565b80612cb85750506104cf923091614823565b90612cc591810190614149565b60ff612cd2825160ff1690565b1660028103612eb357506020612cf39101516020808251830101910161436c565b6001600160a01b03821690736b175474e89094c44da98b954eedeac495271d0f8203612e2d57604051623f675f60e91b81526001600160a01b038616600482015291602090839060249082905afa9081156107c557612de55f939284938491612e0e575b50612dd7602084015193612d6f604082015160ff1690565b60608201516080909201516040516323f2ebc360e21b60208201526001600160a01b038d16602482015230604482015260648101959095526084850196909652600160a485015260ff1660c484015260e4830152610104820193909352918290610124820190565b03601f19810183528261049f565b60208151910182855af115612dff576104cf923091614823565b63203aa5b560e11b5f5260045ffd5b612e27915060203d6020116107be576107b0818361049f565b5f612d57565b5f915080612eae839251612dd7602084015193612e4e604082015160ff1690565b606082015160809092015160405163d505accf60e01b60208201526001600160a01b038d1660248201523060448201526064810195909552608485019690965260ff1660a484015260c483015260e4820193909352918290610104820190565b612de5565b9193929160038103612f45575050612eca9061480f565b6e22d473030f116ddee9f6b43ac78ba33b1561014957604051631b63c28b60e11b81526001600160a01b0392831660048201523060248201529082166044820152911660648201525f81608481836e22d473030f116ddee9f6b43ac78ba35af180156107c557612f375750565b806115d55f6104cf9361049f565b6004810361308857506020612f65910151602080825183010191016141ea565b9061300f612f73835161480f565b92612fc2612f8a604083015165ffffffffffff1690565b612fa7612f956104ff565b6001600160a01b038a16815296611ac3565b65ffffffffffff604087015265ffffffffffff166060860152565b6020810151612fcf6104e1565b9485523060208601526040850152608081015190613009612ff9606060a084015193015160ff1690565b60f81b6001600160f81b03191690565b91614255565b916e22d473030f116ddee9f6b43ac78ba33b15610149576040516302b67b5760e41b8152925f9184918291613049919088600485016142f4565b0381836e22d473030f116ddee9f6b43ac78ba35af19182156107c557612eca92613074575b5061480f565b806115d55f6130829361049f565b5f61306e565b929392600514613099575b50505050565b6130b36020613121920151602080825183010191016141ea565b80516130cf6130c06104f0565b6001600160a01b039096168652565b602085015260408101516020820151906130e76104e1565b958652602086015260408501526130fc6104f0565b308152926020840152608081015190613009612ff9606060a084015193015160ff1690565b916e22d473030f116ddee9f6b43ac78ba33b15610149576131585f93604051958694859463187945bd60e11b865260048601614280565b0381836e22d473030f116ddee9f6b43ac78ba35af180156107c557613180575b808080613093565b806115d55f61318e9361049f565b5f613178565b610a06906131a98360801d8260801d016143bb565b926001600160801b039182169116016143bb565b90919060016001600160a01b038216036131f657505f808080936131e1955af11590565b6131e757565b633607a14f60e11b5f5260045ffd5b60445f8080936020956040519763a9059cbb60e01b84526004526024525af13d15601f3d1160015f5114161716905f6060526040521561323257565b633c9fd93960e21b5f5260045ffd5b9061324b9061228b565b9060a08101916132b36132a66132966132818651613272610b10885160018060801b031690565b607f6127109260c51c16020490565b6001600160801b031660408601908152610b03565b84516001600160801b031661213f565b6001600160801b03168352565b81516132c7906001600160801b0316610b10565b1515806134ca575b156134c5576132dd906122a4565b9261342a83516132fc60808501916132f6835160801c90565b9061440d565b60e08501805191613319610b1060c08901946132f6865160801c90565b6001600160801b03909116106134ae5761333990516132f6835160801c90565b915b8051613347848261411f565b875190916001600160801b0391821691831682111561343057505086516133e19190613393906133869083906001600160801b03166122bc565b6122bc565b6001600160801b03168952565b6133c86133a186865161411f565b60208a01805190916133bb916001600160801b031661213f565b6001600160801b03169052565b8251906001600160801b0316608086901b175b90614458565b905261340d81516134076133f5858361411f565b6001600160801b0316608086901b1790565b90614481565b90525b60608401805190916133bb916001600160801b031661213f565b926132b3565b90915061343e92945061443a565b9161346761344d84845161411f565b60208801805190916133bb916001600160801b031661213f565b8051865161349091906133db906001600160801b03165b6001600160801b0316608087901b1790565b90526134a481516134076133f5858361411f565b90525f8452613410565b506134bf86516132f6845160801c90565b9161333b565b505050565b506001600160801b03811615156132cf565b60a0810180518251939491936134ff9190613272906001600160801b0316610b10565b6001600160801b03166040830190815293845161354090613533906001600160801b031685516001600160801b03166122bc565b6001600160801b03168452565b8251613554906001600160801b0316610b10565b151580613789575b156137125761356a906122a4565b93613685845161358360808601916132f6835160801c90565b60e086018051916135a0610b1060c08a01946132f6865160801c90565b6001600160801b03909116106136fb576135c090516132f6835160801c90565b915b80516135ce848261411f565b885190916001600160801b0391821691831682111561368b57505087516136549190613615906136089083906001600160801b03166122bc565b6001600160801b03168a52565b61363d61362386865161411f565b60208b01805190916133bb916001600160801b031661213f565b8251906001600160801b0316608086901b17613407565b905261366881516133db6133f5858361411f565b90525b60608501805190916133bb916001600160801b031661213f565b93613540565b90915061369992945061443a565b916136c26136a884845161411f565b60208901805190916133bb916001600160801b031661213f565b805187516136dd9190613407906001600160801b031661347e565b90526136f181516133db6133f5858361411f565b90525f855261366b565b5061370c87516132f6845160801c90565b916135c2565b50815190939061372a906001600160801b0316610b10565b92836137365750505050565b6137696133bb926133bb61375961378097855190607f6127109260c51c16020490565b82516001600160801b03166122bc565b5182516001600160801b0316906109a99082613272565b5f808080613093565b506001600160801b038116151561355c565b9190820180921161215857565b60028101829055600381019190915562c3508160e61b6001600160e51b03909216918201918210612158576104cf91815560013391016122d5565b5f6137f16129576016612951565b6137ff61296c610161612951565b61380d612981610b0d612951565b613819620161a8612993565b90613826622c3508612993565b92613834630586a102612993565b94801580156138ca575b80156138c2575b80156138ba575b80156138b2575b80156138aa575b6138a2575b606495936129fc6129fc946129fc61387b98956129fc9561379b565b1461389a575b15612a7757613896612a44630586a102612a3e565b9055565b506001613881565b5f965061385f565b50851561385a565b508415613853565b50831561384c565b508215613845565b50811561383e565b6040805182516001600160a01b0390811660208084019182528501518216838501529390920151909116606080830191909152815261391260808261049f565b51902090565b91613944600261389694959395600381019660018060801b038854161561394d575b5001918254613194565b90558254613194565b61395790826122d5565b5f61393a565b93613989919293600386019360018060801b03855416156139ba575b5061394460028701918254613194565b90556001600160a01b03811661399e57505050565b816139b1600492600161389695016122d5565b01918254613194565b6139c490876122d5565b5f613979565b916139ef926020925f60405180968195829463067e356d60e21b84526004840161215d565b03926001600160a01b03165af19081156107c5575f91613a0d575090565b90506020813d602011613a3a575b81613a286020938361049f565b810103126101495751610172816101bf565b3d9150613a1b565b80549092919061271060d99190911c603f166001600160801b03831602046001600160801b0316825281516001600160801b0316613a7f916122bc565b6001600160801b0316606082018181526002840180549092613aa09161443a565b6001600160801b031660408401908152926004850190815490613ac38260801c90565b60039097018054909760801b6001600160801b039091161784516001600160801b0316613aef9161443a565b6001600160801b03908116602083018181529251613b0d921661213f565b90516001600160801b03166001600160801b031660809190911b17613b3191613194565b9055815492516001600160801b031690516001600160801b03166001600160801b031660809190911b179182613b6691613194565b905581549061389691613194565b6307ffffff60e51b8154169160018060e51b031682018092116121585755565b600490613896926002820155019182549060801b90613194565b9390929192613bbb612b31565b50613bc4612b31565b93613bd3600282015460801c90565b60038201549290613bfd9060801b6001600160801b0385161786516001600160801b03169061443a565b948754976002810198895490613c1f610b10613c198460801c90565b83614496565b6001600160801b038a16119081156140a1575b5061408d57613cff90613ccf613c85613cbf613c95613c6d613c58600489015460801c90565b600389015460018060801b03169060801b1790565b8851613c90906001600160801b03169485809361443a565b9c610b4b8160801c90565b61443a565b613caf613ca06104e1565b6001600160801b03909c168c52565b6001600160801b031660208b0152565b6001600160801b03166040890152565b6040870151969a8b97613cf3906001600160801b031660808c901b175b80936144ac565b905560038301546144ac565b600382015560048101548551613d6291613d55916001600160801b03166020890151613d46906001600160801b031692608083901b6001600160801b038516175b906144ac565b60048601556133818b896144c1565b6001600160801b03168652565b80546040860151613da291613d9291613d83906001600160801b0316610b10565b603f6127109260d31c16020490565b6001600160801b03166020870152565b8451613e18906020906001600160801b03168482018051909891613e0a916040906001600160a01b0316970180519097906001600160a01b03166040850151909190613e03906001600160801b0316868801516001600160801b0316610a00565b928861459d565b01516001600160801b031690565b6001600160801b03811661406f575b505060018301546001600160a01b0316613e415750505050565b90919295506004820190613e56825460801c90565b600384018054909891613e7991899160801b6001600160801b039091161761443a565b613eaa88613ea56004890154610b4b6002613e9c85613c9085610b4b8160801c90565b9b015460801c90565b61411f565b93613ec5613eb66104e1565b6001600160801b039093168352565b6001600160801b0390961660208201908152956001600160801b03909416604082019081529381998654976002880198895490613f08610b10613c198460801c90565b6001600160801b038e161190811561403e575b5061402a57613ff161400d95613fd3613fff948f613fc66137809f8f8f91613d8391613fb76136088f6133819f613f76613ff19f610b1097613f6d613cec610b039e610a068e5160018060801b031690565b905582546144ac565b905580548c519091906001600160801b03168b51909190613fb0906001600160801b031693608084901b6001600160801b03861617613d40565b90556122bc565b5492516001600160801b031690565b6001600160801b03168252565b956001600160801b038716614013575b50516001600160801b031690565b95516001600160a01b031690565b95516001600160801b031690565b9361459d565b614022815461030b8960801b90565b90555f613fe3565b63d1b5191160e01b5f52602060045260245ffd5b895190915061405d90610b109084906001600160801b03165b93614496565b6001600160801b03909116115f613f1b565b61408360049161030b838501549160801b90565b9101555f80613e27565b63d1b5191160e01b5f52601f60045260245ffd5b84519091506140be90610b109084906001600160801b0316614057565b6001600160801b03909116115f613c32565b6001600160a01b031691823b1561014957614104925f9283604051809681958294637bd3ca3560e01b84526004840161215d565b03925af180156107c5576141155750565b5f6104cf9161049f565b61017291608082901c6001600160801b039182169190921602046143bb565b60ff81160361014957565b602081830312610149578035906001600160401b038211610149570190604082820312610149576040519161417d83610484565b80356141888161413e565b83526020810135906001600160401b038211610149570181601f82011215610149578035906141b6826128e1565b926141c4604051948561049f565b8284526020838301011161014957815f9260208093018386013783010152602082015290565b908160c0910312610149576040519060c08201908282106001600160401b0383111761047f5760a091604052805183526020810151602084015260408101516040840152606081015161423c8161413e565b606084015260808101516080840152015160a082015290565b929190604051936020850152604084015260ff60f81b166060830152604182526104cf60618361049f565b90926142d861010093604061017297966142ad8682516020809160018060a01b0381511684520151910152565b60208181015187840152910151606086015281516001600160a01b03166080860152015160a0840152565b6001600160a01b031660c082015260e0810182905201906110f8565b604061017294936101009360018060a01b0316835265ffffffffffff6060825160018060a01b03815116602087015260018060a01b036020820151168587015282858201511682870152015116608084015260018060a01b0360208201511660a0840152015160c08201528160e082015201906110f8565b908160a09103126101495760806040519161438683610464565b805183526020810151602084015260408101516143a28161413e565b6040840152606081015160608401520151608082015290565b6001600160801b0381116143d5576001600160801b031690565b505f90565b6001600160801b039091169081156143f9576001600160801b03160490565b634e487b7160e01b5f52601260045260245ffd5b60bb1c6103ff16801561443657600a0260018060801b03811690810361215857610172916143da565b5090565b610172916001600160801b0380831660809390931c911602046143bb565b610a069061446d8360801d8260801d016143bb565b926001600160801b039081169116036143bb565b610a06906131a98360801d8260801d036143bb565b60b11c6103ff16801561443657610172916143da565b610a069061446d8360801d8260801d036143bb565b9061389690600383016145456145148254956144dd8760801c90565b906145256002820198610a066144f48b5460801c90565b6001600160801b03908116968a82169688928892911682028390046143bb565b936001600160801b031602046143bb565b60018201549093906001600160a01b0316614552575b50505082546144ac565b905582549060801b613d40565b613d406004614593930193610a06855493614581818460018060801b036145798960801c90565b1602046143bb565b926001600160801b03861602046143bb565b90555f808061453b565b805490949193919290916145c7606460e585901c601f166001600160801b038816020480966122bc565b6001600160801b03811694909290600a60fb86901c60071687020492603260f787901c600f168802049561461f601960f483901c6007168a020498606460ef84901c601f168202049290601f60649260ea1c16020490565b976001600160a01b0383166146f05750505061463b908361213f565b6001600160801b0316335f908152600a90980160208190526040909820908154906146659161379b565b9055614671858561213f565b6001600160801b03166001600160a01b039091165f9081526020889052604090209081549061469f9161379b565b90556146aa916122bc565b906146b4916122bc565b906146be916122bc565b906146c89161213f565b6001600160801b0316906146e3905f805260205260405f2090565b908154906138969161379b565b6102ae95939650996147e199929a6147ce9995610b109961471a600185015460018060a01b031690565b6001600160a01b038116156147fe576001600160a01b03165f908152600a850160205260409020614759905b805490926001600160801b03169061379b565b90555b6001600160a01b038116156147e4576001600160a01b03165f908152600a80840160205260409091206147b1936147469390916147969085565b90555b019b8c9060018060a01b03165f5260205260405f2090565b90556147c76147468a5f805260205260405f2090565b905561213f565b335f908152602093909352604090922090565b55565b50600a6147f8614746926147b1949661213f565b94614799565b50614809919561213f565b9361475c565b6001600160a01b0381169081036143d55790565b6040516323b872dd60e01b81526001600160a01b03928316600482015292909116602483015260448201929092526020915f9160649183905af13d15601f3d1160015f51141617161561323257565b5f5160206148fd5f395f51905f525c81116148a8575f5160206148fd5f395f51905f525c035f5160206148fd5f395f51905f525d565b63d1b5191160e01b5f52601c60045260245ffdfe87b52c29898e62efc1f9a9b00a26dcbdaee98d728c56841703077b7c0d20dee7e2afc7ec4dbb9bfdb1b8e8bcf21a055747c25bf2faaea9cb5a134005381f4843cbe27d488af5b5c1b0bd8d89be6fdfeaed3ad42719044fd9b728f33df1d6f1d1a2646970667358221220c16431de0063e2f3c691f28e188a7736125a63e4ff58921981a04f0483d757dc64736f6c634300081d0033","linkReferences":{}},"methodIdentifiers":{"buyGood(address,address,uint128,uint128,address,bytes)":"f151e786","buyGoodCheck(address,address,uint128,uint128)":"3bd16436","changeGoodOwner(address,address)":"41e12373","collectCommission(address[])":"0d2700ab","disableUpgrade()":"67fc9138","disinvestProof(uint256,uint128,address)":"f4662f20","getGoodState(address)":"08238466","getProofState(uint256)":"3f117740","getRecentGoodState(address,address)":"00796f71","goodWelfare(address,uint128,bytes)":"06cf4e7f","initGood(address,uint256,address,uint256,bytes,bytes)":"5f755d65","initMetaGood(address,uint256,uint256,bytes)":"51ff9a16","investGood(address,address,uint128,bytes,bytes)":"f878e809","ishigher(address,address,uint256)":"1412723a","modifyGoodConfig(address,uint256)":"b1efb921","multicall(bytes[])":"ac9650d8","queryCommission(address[],address)":"9b222794","updateGoodConfig(address,uint256)":"a3b74a49"},"id":46}