{"abi":[{"type":"constructor","inputs":[{"name":"_ttswap_market","type":"address","internalType":"contract I_TTSwap_Market"},{"name":"_ttswap_token","type":"address","internalType":"contract I_TTSwap_Token"},{"name":"_ROCKET_TOKEN_RETH","type":"address","internalType":"contract IRocketTokenRETH"},{"name":"_rocketstorage","type":"address","internalType":"contract IRocketStorage"}],"stateMutability":"nonpayable"},{"type":"receive","stateMutability":"payable"},{"type":"function","name":"collectTTSReward","inputs":[],"outputs":[],"stateMutability":"nonpayable"},{"type":"function","name":"divest","inputs":[{"name":"_goodQuantity","type":"uint128","internalType":"uint128"}],"outputs":[],"stateMutability":"nonpayable"},{"type":"function","name":"invest","inputs":[{"name":"_goodQuantity","type":"uint128","internalType":"uint128"}],"outputs":[],"stateMutability":"nonpayable"},{"type":"function","name":"rethStaking","inputs":[],"outputs":[{"name":"","type":"uint256","internalType":"uint256"}],"stateMutability":"view"},{"type":"function","name":"sethState","inputs":[],"outputs":[{"name":"","type":"uint256","internalType":"uint256"}],"stateMutability":"view"},{"type":"function","name":"stakeEth","inputs":[{"name":"token","type":"address","internalType":"address"},{"name":"_stakeamount","type":"uint128","internalType":"uint128"}],"outputs":[],"stateMutability":"payable"},{"type":"function","name":"stakeRocketPoolETH","inputs":[{"name":"stakeamount","type":"uint128","internalType":"uint128"}],"outputs":[{"name":"rethAmount","type":"uint128","internalType":"uint128"}],"stateMutability":"nonpayable"},{"type":"function","name":"swethState","inputs":[],"outputs":[{"name":"","type":"uint256","internalType":"uint256"}],"stateMutability":"view"},{"type":"function","name":"syncReward","inputs":[{"name":"token","type":"address","internalType":"address"}],"outputs":[{"name":"reward","type":"uint128","internalType":"uint128"}],"stateMutability":"nonpayable"},{"type":"function","name":"totalStake","inputs":[],"outputs":[{"name":"","type":"uint256","internalType":"uint256"}],"stateMutability":"view"},{"type":"function","name":"totalState","inputs":[],"outputs":[{"name":"","type":"uint256","internalType":"uint256"}],"stateMutability":"view"},{"type":"function","name":"unstakeEthSome","inputs":[{"name":"token","type":"address","internalType":"address"},{"name":"amount","type":"uint128","internalType":"uint128"}],"outputs":[{"name":"reward","type":"uint128","internalType":"uint128"}],"stateMutability":"nonpayable"},{"type":"function","name":"unstakeRocketPoolETH","inputs":[{"name":"rethAmount","type":"uint128","internalType":"uint128"}],"outputs":[],"stateMutability":"nonpayable"},{"type":"event","name":"e_Received","inputs":[{"name":"amount","type":"uint256","indexed":false,"internalType":"uint256"}],"anonymous":false},{"type":"event","name":"e_collecttts","inputs":[{"name":"amount","type":"uint256","indexed":false,"internalType":"uint256"}],"anonymous":false},{"type":"event","name":"e_rocketpoolUnstaked","inputs":[{"name":"totalStake","type":"uint256","indexed":false,"internalType":"uint256"},{"name":"totalState","type":"uint256","indexed":false,"internalType":"uint256"},{"name":"reward","type":"uint128","indexed":false,"internalType":"uint128"}],"anonymous":false},{"type":"event","name":"e_stakeRocketPoolETH","inputs":[{"name":"totalStake","type":"uint256","indexed":false,"internalType":"uint256"}],"anonymous":false},{"type":"event","name":"e_stakeSETH","inputs":[{"name":"totalStake","type":"uint256","indexed":false,"internalType":"uint256"},{"name":"totalState","type":"uint256","indexed":false,"internalType":"uint256"},{"name":"sethShare","type":"uint256","indexed":false,"internalType":"uint256"},{"name":"rethStaking","type":"uint256","indexed":false,"internalType":"uint256"},{"name":"stakeamount","type":"uint128","indexed":false,"internalType":"uint128"}],"anonymous":false},{"type":"event","name":"e_stakeSWETH","inputs":[{"name":"totalStake","type":"uint256","indexed":false,"internalType":"uint256"},{"name":"totalState","type":"uint256","indexed":false,"internalType":"uint256"},{"name":"swethShare","type":"uint256","indexed":false,"internalType":"uint256"},{"name":"rethStaking","type":"uint256","indexed":false,"internalType":"uint256"},{"name":"stakeamount","type":"uint128","indexed":false,"internalType":"uint128"}],"anonymous":false},{"type":"event","name":"e_stakeeth_devest","inputs":[{"name":"rethStaking","type":"uint256","indexed":false,"internalType":"uint256"}],"anonymous":false},{"type":"event","name":"e_stakeeth_invest","inputs":[{"name":"rethStaking","type":"uint256","indexed":false,"internalType":"uint256"}],"anonymous":false},{"type":"event","name":"e_unstakeSETH","inputs":[{"name":"totalStake","type":"uint256","indexed":false,"internalType":"uint256"},{"name":"totalState","type":"uint256","indexed":false,"internalType":"uint256"},{"name":"sethShare","type":"uint256","indexed":false,"internalType":"uint256"},{"name":"rethStaking","type":"uint256","indexed":false,"internalType":"uint256"},{"name":"unstakeAmount","type":"uint256","indexed":false,"internalType":"uint256"}],"anonymous":false},{"type":"event","name":"e_unstakeSWETH","inputs":[{"name":"totalStake","type":"uint256","indexed":false,"internalType":"uint256"},{"name":"totalState","type":"uint256","indexed":false,"internalType":"uint256"},{"name":"swethShare","type":"uint256","indexed":false,"internalType":"uint256"},{"name":"rethStaking","type":"uint256","indexed":false,"internalType":"uint256"},{"name":"unstakeAmount","type":"uint256","indexed":false,"internalType":"uint256"}],"anonymous":false},{"type":"error","name":"DepositFailed","inputs":[]},{"type":"error","name":"ERC20TransferFailed","inputs":[]},{"type":"error","name":"NativeETHTransferFailed","inputs":[]},{"type":"error","name":"TTSwapError","inputs":[{"name":"seq","type":"uint256","internalType":"uint256"}]}],"bytecode":{"object":"0x6101003461014057601f61223538819003918201601f19168301916001600160401b03831184841017610144578084926080946040528339810103126101405780516001600160a01b03811681036101405760208201516001600160a01b0381168103610140576040830151926001600160a01b03841684036101405760600151916001600160a01b03831683036101405760c05260e05260a0526080526040516120dc90816101598239608051818181610d1501528181610f13015281816113db015281816116250152818161180d0152611b79015260a05181611203015260c05181818161036f01528181610746015281816107e70152818161095501528181610ca101528181610f6c0152611874015260e0518181816103e8015281816104dd015281816109bd01528181610a8a01528181610b1a0152610c3f0152f35b5f80fd5b634e487b7160e01b5f52604160045260245ffdfe60806040526004361015610022575b3615610018575f80fd5b610020611aff565b005b5f3560e01c80630c408b16146100f1578063384e54b5146100ec5780633f9958f2146100e75780634fbda438146100e257806361a5192c146100dd5780636cd837af146100d85780638b0e9f3f146100d35780638c706eb5146100ce5780638efa0487146100c95780639bd74e1d146100c45780639f58a561146100bf578063a8d0c726146100ba5763baeb91ae0361000e57610ae2565b610a52565b610a36565b610985565b61078a565b61058c565b61056f565b610552565b610535565b6104a5565b610488565b6103bd565b610144565b6001600160a01b0381160361010757565b5f80fd5b6001600160801b0381160361010757565b604090600319011261010757600435610134816100f6565b906024356101418161010b565b90565b34610107576101523661011c565b905f5160206120875f395f51905f525c6001600160a01b031661039f57335f5160206120875f395f51905f525d61018f61018b82611b3d565b1590565b801561036c575b610358576020916101a5611b5c565b6001600160a01b0382166002036102b5577f03ca9cf38d4ce2aa5ec7845761f60c395d791f0d30ed5b588b9d5766b888f2fe90610249600154936102266101ec8487611cc7565b9561021f61021a6102136102018a5f54611ce5565b9960801b6001600160801b038b161790565b8093611d04565b600155565b5f54611d04565b5f556102416102358487610b86565b6001600160801b031690565b903390611daf565b6003545f54600154600454919361029792906001600160801b0316608088901b175b91604051958695869192608093969594919660a084019784526020840152604083015260608201520152565b0390a15b6102a3611b2b565b6040516001600160801b039091168152f35b7f1a520e8262a7518907a54fcaf0b6d186c0c80fed7857860bc615c2df7c4b8de89061032a600254936103056102eb8487611cc7565b9561021f6103006102136102018a5f54611ce5565b600255565b5f5561031d6103176102358786610b86565b82611d3d565b6102416102358487610b86565b6003545f54600254600454919361035092906001600160801b0316608088901b1761026b565b0390a161029b565b63d1b5191160e01b5f52602560045260245ffd5b507f00000000000000000000000000000000000000000000000000000000000000006001600160a01b0316331415610196565b63d1b5191160e01b5f52600360045260245ffd5b5f91031261010757565b34610107575f36600319011261010757604051635f35b0b360e01b81523360048201526020816024817f00000000000000000000000000000000000000000000000000000000000000006001600160a01b03165afa908115610483576104349161018b915f91610454575b50600160f81b16151590565b61044057610020610c22565b63d1b5191160e01b5f52602760045260245ffd5b610476915060203d60201161047c575b61046e8183610ba4565b810190610bda565b5f610428565b503d610464565b610be9565b34610107575f366003190112610107576020600154604051908152f35b34610107576020366003190112610107576004356104c28161010b565b604051635f35b0b360e01b81523360048201526020816024817f00000000000000000000000000000000000000000000000000000000000000006001600160a01b03165afa908115610483576105289161018b915f916104545750600160f81b16151590565b6104405761002090610f03565b34610107575f366003190112610107576020600254604051908152f35b34610107575f366003190112610107576020600454604051908152f35b34610107575f366003190112610107576020600354604051908152f35b34610107576020366003190112610107576004356105a9816100f6565b5f5160206120875f395f51905f525c6001600160a01b031661077657335f5160206120875f395f51905f525d6105e161018b82611b3d565b8015610743575b610358576020906105f7611b5c565b6001600160a01b0381166002036106b2576106785f549161066661021a61063260015461062d6106278260801c90565b88611ce5565b6110ca565b946106586106408783611cc7565b91608083901b6001600160801b038916175b90611d04565b5f556001549060801b610652565b6001600160801b038316903390611daf565b7f03ca9cf38d4ce2aa5ec7845761f60c395d791f0d30ed5b588b9d5766b888f2fe6003545f549061029760015460045461026b8760801b90565b6107095f54916106ed6103006106d160025461062d6106278260801c90565b946106df6106408783611cc7565b5f556002549060801b610652565b6001600160801b038316906107028282611d3d565b3390611daf565b7f1a520e8262a7518907a54fcaf0b6d186c0c80fed7857860bc615c2df7c4b8de86003545f549061035060025460045461026b8760801b90565b507f00000000000000000000000000000000000000000000000000000000000000006001600160a01b03163314156105e8565b63d1b5191160e01b5f52600360045260245ffd5b6107933661011c565b5f5160206120875f395f51905f525c6001600160a01b031661077657335f5160206120875f395f51905f525d6107cb61018b83611b3d565b8015610952575b610358576001600160801b03811661081581307f00000000000000000000000000000000000000000000000000000000000000006001600160a01b031686611ecd565b5f54928315610945576108486108418461082f8188611cc7565b60801b6001600160801b039091161790565b8095611f64565b5f556001600160a01b0381166002036108ce57505061088d61021a7f98742f24b32588ba36de8bae553846319fdc5b703def3876f94d1ea44d13575e93600154611f64565b6003545f546001546004546040805194855260208501939093529183015260608201526001600160801b0391909116608082015260a090a15b610020611b2b565b90610908916109036103007f4eaf8b4d93b127ef701a9fe9b93a91d6c7d003aa2535cea4ee0cbd422cd375cb96600254611f64565b611f79565b6003545f546002546004546040805194855260208501939093529183015260608201526001600160801b0391909116608082015260a090a16108c6565b610848610841848061082f565b507f00000000000000000000000000000000000000000000000000000000000000006001600160a01b03163314156107d2565b34610107576020366003190112610107576004356109a28161010b565b604051635f35b0b360e01b81523360048201526020816024817f00000000000000000000000000000000000000000000000000000000000000006001600160a01b03165afa90811561048357610a089161018b915f916104545750600160f81b16151590565b61044057610a18610a32916111b1565b6040516001600160801b0390911681529081906020820190565b0390f35b34610107575f3660031901126101075760205f54604051908152f35b3461010757602036600319011261010757600435610a6f8161010b565b604051635f35b0b360e01b81523360048201526020816024817f00000000000000000000000000000000000000000000000000000000000000006001600160a01b03165afa90811561048357610ad59161018b915f916104545750600160f81b16151590565b61044057610020906115dc565b3461010757602036600319011261010757600435610aff8161010b565b604051635f35b0b360e01b81523360048201526020816024817f00000000000000000000000000000000000000000000000000000000000000006001600160a01b03165afa90811561048357610b659161018b915f916104545750600160f81b16151590565b610440576100209061180b565b634e487b7160e01b5f52601160045260245ffd5b6001600160801b039182169082160191908211610b9f57565b610b72565b90601f8019910116810190811067ffffffffffffffff821117610bc657604052565b634e487b7160e01b5f52604160045260245ffd5b90816020910312610107575190565b6040513d5f823e3d90fd5b90816020910312610107575180151581036101075790565b9190826040910312610107576020825192015190565b6040516370a0823160e01b81523060048201526001600160a01b037f00000000000000000000000000000000000000000000000000000000000000001690602081602481855afa908115610483575f91610e3c575b506001600160801b031680610c8a575050565b60405163095ea7b360e01b81526001600160a01b037f000000000000000000000000000000000000000000000000000000000000000016600482018190526001600160801b03831660248301526020826044815f885af190811561048357610d78946040938593610e0f575b5083516378a8f3c360e11b81526001600160a01b0391821660048201527f000000000000000000000000000000000000000000000000000000000000000090911660248201526001600160801b039092166044830152600160648301525f6084830181905260c060a484015260c48301819052919485928391829060e4820190565b03925af1918215610483577f2830a90fac4765f504d820b52c9dfbd66dfb00a95dcf6e782243478e46a44b0592610dd792610dc7925f92610ddc575b5060801b6001600160801b039091161790565b6040519081529081906020820190565b0390a1565b610dff91925060403d604011610e08575b610df78183610ba4565b810190610c0c565b9050905f610db4565b503d610ded565b610e309060203d602011610e35575b610e288183610ba4565b810190610bf4565b610cf6565b503d610e1e565b610e55915060203d60201161047c5761046e8183610ba4565b5f610c77565b60405190610e6a606083610ba4565b565b908160a0910312610107576040519060a082019082821067ffffffffffffffff831117610bc6576080916040528051610ea4816100f6565b83526020810151610eb4816100f6565b602084015260408101516040840152606081015160608401520151608082015290565b1561010757565b91908260409103126101075760208251610ef78161010b565b9201516101418161010b565b610f4c610f0e610e5b565b3081527f00000000000000000000000000000000000000000000000000000000000000006001600160a01b031660208201525b5f6040820152611e5e565b60405162fc45dd60e61b8152600481018290529091906001600160a01b037f0000000000000000000000000000000000000000000000000000000000000000169060a081602481855afa9182156104835761100d94610fd2610fc1610235606060409789975f9161109b575b50015160801c90565b6001600160801b0385161115610ed7565b83516307a3317960e51b815260048101919091526001600160801b0390921660248301525f6044830181905291948592839182906064820190565b03925af190811561048357611038926110339261106d575b506004549060801b90611ea4565b600455565b6004546040519081527f92998adb9d780ebedf7690be5ca91b335882d7c5533142a287aa7feda28dd330908060208101610dd7565b61108e9060403d604011611094575b6110868183610ba4565b810190610ede565b50611025565b503d61107c565b6110bd915060a03d60a0116110c3575b6110b58183610ba4565b810190610e6c565b5f610fb8565b503d6110ab565b6001600160801b039182169082160391908211610b9f57565b908160209103126101075751610141816100f6565b156110ff57565b60405162461bcd60e51b815260206004820152602b60248201527f526f636b657420506f6f6c206465706f73697473206172652063757272656e7460448201526a1b1e48191a5cd8589b195960aa1b6064820152608490fd5b91908201809211610b9f57565b1561116c57565b60405162461bcd60e51b815260206004820152601a60248201527f4465706f73697420706f6f6c2073697a652065786365656465640000000000006044820152606490fd5b6040516f636f6e74726163742e6164647265737360801b60208083019182527f726f636b657444414f50726f746f636f6c53657474696e67734465706f73697460308401529293926001600160a01b037f00000000000000000000000000000000000000000000000000000000000000001692611262929061124081605081015b03601f198101835282610ba4565b519020604051809381926321f8a72160e01b8352600483019190602083019252565b0381855afa908115610483576112f4916020915f9161152b575b506040516f636f6e74726163742e6164647265737360801b838201908152701c9bd8dad95d11195c1bdcda5d141bdbdb607a1b60108201526001600160a01b03929092169491906112d08160218401611232565b5190209060405180809581946321f8a72160e01b8352600483019190602083019252565b03915afa908115610483575f916114fc575b50604051636ada784760e01b81526001600160a01b03919091169390602081600481865afa801561048357611342915f916114dd575b506110f8565b604051629032ff60e51b815291602083600481885afa928315610483575f936114b8575b50602060049160405192838092637eb6744f60e11b82525afa8015610483576113ae915f91611499575b506001600160801b038316936113a7908590611158565b1115611165565b6040516321a3781f60e11b81526001600160801b0382166004820152906020826024816001600160a01b037f0000000000000000000000000000000000000000000000000000000000000000165afa918215610483576114459361144093611427925f9161147a575b506001600160801b031696611d3d565b6003549060801b6001600160801b038616175b90611f64565b600355565b6003546040519081527f08de5306b0e0e53b162e3e26b9db564392ed26f49857e4c092278c7a5ef1dccf908060208101610dd7565b611493915060203d60201161047c5761046e8183610ba4565b5f611417565b6114b2915060203d60201161047c5761046e8183610ba4565b5f611390565b60049193506114d5602091823d841161047c5761046e8183610ba4565b939150611366565b6114f6915060203d602011610e3557610e288183610ba4565b5f61133c565b61151e915060203d602011611524575b6115168183610ba4565b8101906110e3565b5f611306565b503d61150c565b6115429150823d8411611524576115168183610ba4565b5f61127c565b1561154f57565b60405162461bcd60e51b815260206004820152601d60248201527f416d6f756e74206d7573742062652067726561746572207468616e20300000006044820152606490fd5b1561159b57565b60405162461bcd60e51b8152602060048201526019602482015278496e73756666696369656e7420724554482062616c616e636560381b6044820152606490fd5b6001600160801b0381166115f1811515611548565b6115fd82600354611cc7565b604051638b32fa2360e01b81526001600160801b038416600482015290916001600160a01b037f00000000000000000000000000000000000000000000000000000000000000001691602081602481865afa908115610483575f916117ac575b506040516370a0823160e01b81523060048201526001600160801b039190911691602082602481875afa8015610483576116a0925f9161178d575b501015611594565b6116aa83826110ca565b92823b1561010757604051630852cd8d60e31b81526001600160801b0386166004820152925f908490602490829084905af1928315610483577f09ce91f9bf23e98bbffef1ed1b2a12d913606db577b6fabf9a81cb368f7900f29561172b611440946106529361174397611773575b505f54906001600160801b031661143a565b5f556003549260801b6001600160801b039091161790565b6003545f546040805192835260208301919091526001600160801b03909216918101919091528060608101610dd7565b806117815f61178793610ba4565b806103b3565b5f611719565b6117a6915060203d60201161047c5761046e8183610ba4565b5f611698565b6117c5915060203d60201161047c5761046e8183610ba4565b5f61165d565b60011b6002600160801b03811691906002600160811b03168203610b9f57565b60031b6008600160801b03811691906008600160831b03168203610b9f57565b7f00000000000000000000000000000000000000000000000000000000000000006001600160a01b0316611857611840610e5b565b3081526001600160a01b0383166020820152610f41565b60405162fc45dd60e61b8152600481018290526001600160a01b037f00000000000000000000000000000000000000000000000000000000000000001693919060a081602481885afa908115610483575f91611ae0575b506060015160801c611a9657505f5b6001600160801b03828116911681101580611a16575b6118dd9150610ed7565b6118f061103360045461143a8460801b90565b60405163095ea7b360e01b81526001600160a01b03841660048201526001600160801b0382166024820152926020846044815f875af192831561048357611999946020946119fb575b5060405163f878e80960e01b81526001600160a01b0390911660048201525f602482018190526001600160801b03909316604482015260a0606482015260a4810183905260c0608482015260c481018390529384928391829060e4820190565b03925af18015610483576119de575b506004546040519081527f1aabc5bac43d0320859dde3d2ff7ff75d8e57946f27d1bb12bcb59eb7079979b908060208101610dd7565b6119f69060203d602011610e3557610e288183610ba4565b6119a8565b611a1190853d8711610e3557610e288183610ba4565b611939565b506040516370a0823160e01b815230600482015290602082602481875afa91821561048357610235611a5f6118dd94611a70935f91611a77575b506001600160801b03166117eb565b600a6001600160801b039091160490565b10156118d3565b611a90915060203d60201161047c5761046e8183610ba4565b5f611a50565b60405162fc45dd60e61b8152600481019190915260a081602481875afa90811561048357611ad66060611adb93611a5f935f9161109b5750015160801c90565b6117cb565b6118bd565b611af9915060a03d60a0116110c3576110b58183610ba4565b5f6118ae565b7f523e899a52e7d85e90429d2280f7c0d23bfc8046b66a4a172cc67f2f9a8f85fc6020604051348152a1565b5f5f5160206120875f395f51905f525d565b60018060a01b031660038114908115611b54575090565b600291501490565b6040516370a0823160e01b81523060048201526001600160a01b037f00000000000000000000000000000000000000000000000000000000000000001690602081602481855afa91821561048357611bd4610235611c00946020945f91611caa575b50611bce61023560045460801c90565b90611158565b604051638b32fa2360e01b81526001600160801b03909116600482015292839190829081906024820190565b03915afa908115610483575f91611c8b575b50600354906001600160801b0316608082901c808210611c8257611c35916110ca565b905b6001600160801b038216611c49575050565b81611c616114406110339361143a610e6a9660801b90565b5f5490611c78906001600160801b03168092611f64565b5f55600454611f64565b50505f90611c37565b611ca4915060203d60201161047c5761046e8183610ba4565b5f611c12565b611cc19150853d871161047c5761046e8183610ba4565b5f611bbe565b610141916001600160801b0380831660809390931c91160204611fee565b61014191608082901c6001600160801b03918216919092160204611fee565b611d2d90611d198360801d8260801d03611fee565b926001600160801b03908116911603611fee565b60018060801b03169060801b1790565b906001600160a01b038216600314611d93575b5f60048160209360405195630d0e30db60e41b83525af13d15601f3d1160015f5114161716905f60605260405215611d8457565b6379cacff160e01b5f5260045ffd5b732387fd72c1da19f6486b843f5da562679fbb40579150611d50565b919091611dbb8161200d565b15611de557505f80808093611dd0955af11590565b611dd657565b633607a14f60e11b5f5260045ffd5b6001600160a01b038116600303611e155750610e6a91732387fd72c1da19f6486b843f5da562679fbb4057611daf565b60445f8080936020956040519763a9059cbb60e01b84526004526024525af13d15601f3d1160015f5114161716905f606052604052610e6a575b633c9fd93960e21b5f5260045ffd5b6040805182516001600160a01b03908116602080840191825285015182168385015293909201519091166060808301919091528152611e9e608082610ba4565b51902090565b611d2d90611eb98360801d8260801d03611fee565b926001600160801b03918216911601611fee565b929190611ed98461200d565b15611ef057505f809350809281925af115611dd657565b6001600160a01b038416600303611f0b57610e6a9350612025565b6040516323b872dd60e01b81526001600160a01b0391821660048201529116602482015260448101919091526020915f9160649183905af13d15601f3d1160015f5114161716610e6a57633c9fd93960e21b5f5260045ffd5b611d2d90611eb98360801d8260801d01611fee565b6001600160a01b0316600314611f8c5750565b732387fd72c1da19f6486b843f5da562679fbb40573b156101075760405190632e1a7d4d60e01b825260048201525f8160248183732387fd72c1da19f6486b843f5da562679fbb40575af1801561048357611fe45750565b5f610e6a91610ba4565b6001600160801b038111612008576001600160801b031690565b505f90565b6001600160a01b031660018114908115611b54575090565b6040516323b872dd60e01b81526001600160a01b0391821660048201529116602482015260448101919091526020905f9060649082732387fd72c1da19f6486b843f5da562679fbb40575af13d15601f3d1160015f511416171615611e4f5756fee8b57f2a24cc49561abc37cc14eb27f7e291d1ac82b5f173f246cc4b4de01451a2646970667358221220ca656b77937c6a9a8a3c93733a341f178fc59d2a24b6c20b7313b320c6df50f764736f6c634300081d0033","linkReferences":{}},"methodIdentifiers":{"collectTTSReward()":"384e54b5","divest(uint128)":"4fbda438","invest(uint128)":"baeb91ae","rethStaking()":"6cd837af","sethState()":"3f9958f2","stakeEth(address,uint128)":"8efa0487","stakeRocketPoolETH(uint128)":"9bd74e1d","swethState()":"61a5192c","syncReward(address)":"8c706eb5","totalStake()":"8b0e9f3f","totalState()":"9f58a561","unstakeEthSome(address,uint128)":"0c408b16","unstakeRocketPoolETH(uint128)":"a8d0c726"},"id":48}